:020000040800F2
:10000000005000207D0800081D0800081F08000897
:100010002108000823080008250800080000000047
:100020000000000000000000000000002708000899
:1000300029080008000000002B0800082D0800080F
:10004000C5080008C5080008C5080008C50800085C
:10005000C5080008C5080008C5080008C50800084C
:10006000C5080008C5080008C5080008C50800083C
:10007000C5080008C5080008C5080008C50800082C
:10008000C5080008C5080008C5080008C50800081C
:10009000C5080008C5080008C5080008C50800080C
:1000A000C5080008C5080008C5080008C5080008FC
:1000B000C5080008C5080008C5080008C5080008EC
:1000C000C5080008C5080008C5080008C5080008DC
:1000D000C5080008C508000899070008C5080008F9
:1000E000C5080008C5080008C50800080000000091
:1000F0000000000000000000000000000000000000
:0C01000000000000000000005FF808F1A3
:10010C0010B5054C237833B9044B13B10448AFF345
:10011C0000800123237010BD0400002000000000AB
:10012C001009000808B5034B1BB103490348AFF392
:10013C00008008BD00000000080000201009000825
:10014C00034613F8012B002AFBD1181A013870470B
:10015C00F0B50D68C5F30F2595FAA5F2B2FA82F247
:10016C0035E0A2F108044FF00113A34043F0806383
:10017C0039E0C45993FAA3F6B6FA86F6B6004FF0F6
:10018C00030C0CFA06F624EA060C93FAA3F6B6FA5C
:10019C0086F6B6008C6804FA06F646EA0C06C651DA
:1001AC00CC6893FAA3FCBCFA8CFC4FEA8C0C4FF095
:1001BC00040E0EFA0CFC26EA0C0693FAA3F3B3FA1F
:1001CC0083F39B0004FA03F33343C351013235FA32
:1001DC0002F335D0012393402B42F7D0072AC0D825
:1001EC0040F2011393404E681F0EC45993FAA3FCBE
:1001FC00BCFA8CFC4FEA8C0C4FF00F0E0EFA0CFC78
:10020C0024EA0C0493FAA3FCBCFA8CFC4FEA8C0C89
:10021C0006FA0CF63443C451C6681C0A26EA040CD0
:10022C0094FAA4F4B4FA84F40E6906FA04F44CEAD1
:10023C000404C4604C68012C9BD0092CC6D198E7EF
:10024C000120F0BD034B5B68C3F30313024AD35C7C
:10025C00D84070470010024028090008034B5B6827
:10026C00C3F30223024AD35CD8407047001002400B
:10027C0038090008034B5B68C3F3C223024AD35C02
:10028C00D840704700100240380900080B4B5B68DF
:10029C0003F480337BB1094B5868C0F34040013004
:1002AC00074BB3FBF0F0054B5B68C3F3834302339E
:1002BC0000FB03F070470348F5E700BF0010024055
:1002CC0000127A0000093D0008B5054B5B6803F08D
:1002DC000C03082B02D1FFF7D9FF08BD0148FCE73E
:1002EC000010024000127A0010B50446FFF7ECFF34
:1002FC002060FFF7A7FF6060FFF7B0FFA0606068A9
:10030C00FFF7B8FFE06010BDC36813F4005F01D0C5
:10031C000020704730B585B00D460446C36823F401
:10032C00B05323F00C034A68C9680A4329690A438D
:10033C001343C360AB68026922F440521343036158
:10034C006B69426922F44072134343616846FFF7BC
:10035C00CBFF1C4B9C4208D01B4B9C422AD01B4B06
:10036C009C4229D0002005B030BD039B33B32A68D2
:10037C0032B303EB830303EB83039200B3FBF2F37F
:10038C00134DA5FB03204009020191B2642202FB2C
:10039C00103213013233A5FB0323C3F34F1303F0C5
:1003AC00F0020A4492B203F00F0313449BB2A36011
:1003BC000120D8E7029BD9E7029BD7E70020D2E7C0
:1003CC000020D0E7003801400044004000480040C5
:1003DC001F85EB51054BA3FB003080090138044B02
:1003EC00586000229A6005221A607047D34D621043
:1003FC0010E000E0014B1860704700BF00000020C7
:10040C0030B58BB0002408940994254B9A6942F0BE
:10041C0010029A619A6902F010020492049A9A6985
:10042C0042F020029A619A6902F020020392039A28
:10043C009A6942F004029A619A6902F004020292EB
:10044C00029A9A6942F008029A619B6903F00803C8
:10045C000193019B134D4FF400536B61124B0593A9
:10046C00012306930223079305A92846FFF770FE84
:10047C000E4B0593069405A92846FFF769FE0C4B15
:10048C000593069405A90B48FFF762FE6FF07B43BA
:10049C000593069405A90848FFF75AFE0BB030BD2A
:1004AC00001002400010014020002004C000C004D5
:1004BC00FBF3F90400080140000C014030B58FB08B
:1004CC000024089409940A940B940C940D940694AB
:1004DC000794214B9A6942F480429A619A6902F41A
:1004EC0080420292029A9A6942F004029A619B69D4
:1004FC0003F004030193019B184B0393092304930A
:10050C0003230593164D03A92846FFF721FE154B2F
:10051C0003930423049303A92846FFF719FE4FF411
:10052C00E133089309940A940B940C230C930D94C7
:10053C000D4C08A92046FFF7E7FE236923F49043EE
:10054C002361636923F02A036361E36843F4005376
:10055C00E3600FB030BD00BF001002400200020487
:10056C0000080140040004040038014070B58EB04E
:10057C000024089409940A940B940C940D940694FA
:10058C000794274BDA6942F40032DA61DA6902F433
:10059C0000320292029A9A6942F004029A619B69B3
:1005AC0003F004030193019B40F2044303930923DA
:1005BC000493032305931B4E03A93046FFF7C8FD94
:1005CC0040F6080303930425049503A93046FFF76E
:1005DC00BFFD154BDB68154B83F8264340225A6050
:1005EC0047F61223089309940A940B940C950D94D6
:1005FC000F4C08A92046FFF787FE236923F490438C
:10060C002361636923F02A036361E36843F40053B5
:10061C00E360E36843F02003E3600EB070BD00BFFD
:10062C00001002400008014000ED00E000E100E095
:10063C000044004010B5244A136823F0070343F02C
:10064C00010313601368A2F58052136843F48033DE
:10065C0013601E4B1B6813F4003FFAD01B4A5368FF
:10066C0023F47C1343F410235360136843F080731A
:10067C001360164B1B6813F0007FFAD0134B5A68AB
:10068C0022F0F0025A605A6822F4E0625A605A680A
:10069C0022F460525A605A6822F0030242F00202BD
:1006AC005A600A4B5B6803F00C03082BF9D1084C19
:1006BC002046FFF78FFE074A136843F004031360CC
:1006CC002046FFF797FE10BD0020024000100240AC
:1006DC000048E80110E000E000B583B0164B9A69C1
:1006EC0042F001029A619A6902F001020192019AA8
:1006FC00DA6942F08052DA61DB6903F080530093CF
:10070C00009B0E49CA6822F4E0621204120C0C4BD6
:10071C001343CB600B4B5A6822F0E0625A605A6864
:10072C0042F080625A60FFF785FFFFF769FEFFF722
:10073C00C5FEFFF71BFFFEE70010024000ED00E0D6
:10074C000003FA05000001400AE0411C0078094B47
:10075C005860084B1B6813F0800FFAD008461146FE
:10076C004A1E0029F1D1034B1B6813F0400FFAD03D
:10077C00704700BF0038014010B50446FFF7E0FC9D
:10078C0001462046FFF7E0FF10BD00001D4B1B6823
:10079C0013F0200F27D01B4BDB6813F0200F22D057
:1007AC00184B5B68DBB2802B14D0902B04D1164A0B
:1007BC000321116001215160134A1268002A0FDDD8
:1007CC0011490A68C2F103020A4413720B68013B17
:1007DC000B6070470C4A0321116001215160EBE75B
:1007EC00094B5B6803B9704710B5074C032104F142
:1007FC000800FFF7A9FF0548FFF7BEFF0023636061
:10080C0010BD00BF0044004020000020400900083B
:10081C007047FEE7FEE7FEE7FEE77047704770475C
:10082C00704700000F4B1A6842F001021A605968B9
:10083C000D4A0A405A601A6822F0847222F48032FF
:10084C001A601A6822F480221A605A6822F4FE0296
:10085C005A604FF41F029A60044B4FF000629A608A
:10086C00704700BF001002400000FFF800ED00E0F0
:10087C00002103E00B4B5B58435004310A480B4BEF
:10088C0042189A42F6D30A4A02E0002342F8043B8B
:10089C00084B9A42F9D3FFF7C5FF00F00FF8FFF7AA
:1008AC001BFF70474C0900080000002004000020CA
:1008BC00040000202C000020FEE7000070B500258D
:1008CC000C4E0D4CA41BA410A54209D100F01AF833
:1008DC0000250A4E0A4CA41BA410A54205D170BDDC
:1008EC0056F8253098470135EEE756F825309847ED
:1008FC000135F2E7440900084409000844090008DE
:10090C0048090008F8B500BFF8BC08BC9E46704703
:0C091C00F8B500BFF8BC08BC9E46704750
:100928000000000000000000010203040607080997
:0C09380000000000010203040A0000009F
:040944003101000875
:040948000D01000895
:04094C0000A24A04B7
:040000050800087D6A
:00000001FF
