:020000040800F2
:1000000000500020511C0008B51B0008B71B000859
:10001000B91B0008BB1B0008BD1B00080000000046
:10002000000000000000000000000000BF1B0008EE
:10003000C11B000800000000C31B0008C51B00080E
:10004000991C0008991C0008991C0008991C0008BC
:10005000991C0008991C0008991C0008991C0008AC
:10006000991C0008991C0008991C0008991C00089C
:10007000991C0008991C0008991C0008991C00088C
:10008000C71B0008991C0008991C0008991C00084F
:10009000991C0008991C0008991C0008991C00086C
:1000A000991C0008991C0008991C0008991C00085C
:1000B000991C0008991C0008991C0008991C00084C
:1000C000991C0008991C0008991C0008991C00083C
:1000D000991C0008991C0008AD190008991C00081B
:1000E000991C0008991C0008991C000800000000D9
:1000F0000000000000000000000000000000000000
:0C01000000000000000000005FF808F1A3
:10010C0010B5054C237833B9044B13B10448AFF345
:10011C0000800123237010BDA0010020000000000E
:10012C004426000808B5034B1BB103490348AFF341
:10013C00008008BD00000000A40100204426000837
:10014C0081F0004102E000BF83F0004330B54FEA7C
:10015C0041044FEA430594EA050F08BF90EA020FE9
:10016C001FBF54EA000C55EA020C7FEA645C7FEA7C
:10017C00655C00F0E2804FEA5454D4EB5555B8BF9F
:10018C006D420CDD2C4480EA020281EA030382EA10
:10019C00000083EA010180EA020281EA0303362DA2
:1001AC0088BF30BD11F0004F4FEA01314FF4801C75
:1001BC004CEA113102D0404261EB410113F0004F87
:1001CC004FEA03334CEA133302D0524263EB43033E
:1001DC0094EA050F00F0A780A4F10104D5F1200EDC
:1001EC000DDB02FA0EFC22FA05F2801841F1000137
:1001FC0003FA0EF2801843FA05F359410EE0A5F10B
:10020C0020050EF1200E012A03FA0EFC28BF4CF03B
:10021C00020C43FA05F3C01851EBE37101F00045F1
:10022C0007D54FF0000EDCF1000C7EEB00006EEBFE
:10023C000101B1F5801F1BD3B1F5001F0CD3490888
:10024C005FEA30004FEA3C0C04F101044FEA4452DF
:10025C0012F5800F80F09A80BCF1004F08BF5FEA66
:10026C00500C50F1000041EB045141EA050130BD46
:10027C005FEA4C0C404141EB010111F4801FA4F1E9
:10028C000104E9D191F0000F04BF01460020B1FA3E
:10029C0081F308BF2033A3F10B03B3F120020CDA76
:1002AC000C3208DD02F1140CC2F10C0201FA0CF054
:1002BC0021FA02F10CE002F11402D8BFC2F1200CB9
:1002CC0001FA02F120FA0CFCDCBF41EA0C0190406F
:1002DC00E41AA2BF01EB0451294330BD6FEA0404B8
:1002EC001F3C1CDA0C340EDC04F11404C4F12002A3
:1002FC0020FA04F001FA02F340EA030021FA04F3B5
:10030C0045EA030130BDC4F10C04C4F1200220FA0B
:10031C0002F001FA04F340EA0300294630BD21FA49
:10032C0004F0294630BD94F0000F83F4801306BF0F
:10033C0081F480110134013D4EE77FEA645C18BF03
:10034C007FEA655C29D094EA050F08BF90EA020F9A
:10035C0005D054EA000C04BF1946104630BD91EA92
:10036C00030F1EBF0021002030BD5FEA545C05D195
:10037C004000494128BF41F0004130BD14F58004D4
:10038C003CBF01F5801130BD01F0004545F0FE4148
:10039C0041F470014FF0000030BD7FEA645C1ABF7D
:1003AC00194610467FEA655C1CBF0B46024650EAB4
:1003BC00013406BF52EA033591EA030F41F40021E0
:1003CC0030BD00BF90F0000F04BF0021704730B566
:1003DC004FF4806404F132044FF000054FF000013B
:1003EC0050E700BF90F0000F04BF0021704730B5FC
:1003FC004FF4806404F1320410F0004548BF4042D1
:10040C004FF000013EE700BF42004FEAE2014FEA25
:10041C0031014FEA02701FBF12F07F4393F07F4F00
:10042C0081F06051704732F07F4208BF704793F003
:10043C007F4F04BF41F40021704730B54FF4607416
:10044C0001F0004521F000411CE700BF50EA010219
:10045C0008BF704730B54FF000050AE050EA0102C2
:10046C0008BF704730B511F0004502D5404261EB32
:10047C0041014FF4806404F132045FEA915C3FF473
:10048C00D8AE4FF003025FEADC0C18BF03325FEA10
:10049C00DC0C18BF033202EBDC02C2F1200300FAC1
:1004AC0003FC20FA02F001FA03FE40EA0E0021FAE6
:1004BC0002F11444BDE600BF70B54FF0FF0C4CF4D4
:1004CC00E06C1CEA11541DBF1CEA135594EA0C0F86
:1004DC0095EA0C0F00F0DEF82C4481EA030621EAC1
:1004EC004C5123EA4C5350EA013518BF52EA0335FC
:1004FC0041F4801143F4801338D0A0FB02CE4FF0AE
:10050C000005E1FB02E506F00042E0FB03E54FF0DD
:10051C000006E1FB03569CF0000F18BF4EF0010ED5
:10052C00A4F1FF04B6F5007F64F5407404D25FEAD1
:10053C004E0E6D4146EB060642EAC62141EA555184
:10054C004FEAC52040EA5E504FEACE2EB4F1FD0CC6
:10055C0088BFBCF5E06F1ED8BEF1004F08BF5FEA44
:10056C00500E50F1000041EB045170BD06F00046F6
:10057C0046EA010140EA020081EA0301B4EB5C04A3
:10058C00C2BFD4EB0C0541EA045170BD41F480119B
:10059C004FF0000E013C00F3AB8014F1360FDEBFC0
:1005AC00002001F0004170BDC4F10004203C35DA9C
:1005BC000C341BDC04F11404C4F1200500FA05F31F
:1005CC0020FA04F001FA05F240EA020001F00042C0
:1005DC0021F0004110EBD37021FA04F642EB060136
:1005EC005EEA430E08BF20EAD37070BDC4F10C0460
:1005FC00C4F1200500FA04F320FA05F001FA04F224
:10060C0040EA020001F0004110EBD37041F100010F
:10061C005EEA430E08BF20EAD37070BDC4F120051A
:10062C0000FA05F24EEA020E20FA04F301FA05F282
:10063C0043EA020321FA04F001F0004121FA04F22A
:10064C0020EA020000EBD3705EEA430E08BF20EAFA
:10065C00D37070BD94F0000F0FD101F00046400034
:10066C0041EB010111F4801F08BF013CF7D041EAB6
:10067C00060195F0000F18BF704703F000465200BA
:10068C0043EB030313F4801F08BF013DF7D043EA8B
:10069C000603704794EA0C0F0CEA135518BF95EA41
:1006AC000C0F0CD050EA410618BF52EA4306D1D1C8
:1006BC0081EA030101F000414FF0000070BD50EAE7
:1006CC00410606BF1046194652EA430619D094EA71
:1006DC000C0F02D150EA013613D195EA0C0F05D15B
:1006EC0052EA03361CBF104619460AD181EA0301AF
:1006FC0001F0004141F0FE4141F470014FF0000067
:10070C0070BD41F0FE4141F4780170BD70B54FF001
:10071C00FF0C4CF4E06C1CEA11541DBF1CEA135581
:10072C0094EA0C0F95EA0C0F00F0A7F8A4EB050463
:10073C0081EA030E52EA03354FEA013100F088805A
:10074C004FEA03334FF0805545EA131343EA126323
:10075C004FEA022245EA111545EA10654FEA0026D8
:10076C000EF000419D4208BF964244F1FD0404F591
:10077C00407402D25B084FEA3202B61A65EB0305ED
:10078C005B084FEA32024FF480104FF4002CB6EBAA
:10079C00020E75EB030E22BFB61A754640EA0C002A
:1007AC005B084FEA3202B6EB020E75EB030E22BF6A
:1007BC00B61A754640EA5C005B084FEA3202B6EBAB
:1007CC00020E75EB030E22BFB61A754640EA9C006A
:1007DC005B084FEA3202B6EB020E75EB030E22BF3A
:1007EC00B61A754640EADC0055EA060E18D04FEAF8
:1007FC00051545EA16754FEA06164FEAC30343EA98
:10080C0052734FEAC2025FEA1C1CC0D111F4801F64
:10081C000BD141EA00014FF000004FF0004CB6E75D
:10082C0011F4801F04BF01430020B4F1FD0C88BFFC
:10083C00BCF5E06F3FF6AFAEB5EB030C04BFB6EB07
:10084C00020C5FEA500C50F1000041EB045170BDFA
:10085C000EF0004E4EEA113114EB5C04C2BFD4EB27
:10086C000C0541EA045170BD41F480114FF0000EAB
:10087C00013C90E645EA060E8DE60CEA135594EA27
:10088C000C0F08BF95EA0C0F3FF43BAF94EA0C0F2A
:10089C000AD150EA01347FF434AF95EA0C0F7FF49F
:1008AC0025AF104619462CE795EA0C0F06D152EAF3
:1008BC0003353FF4FDAE1046194622E750EA4106D7
:1008CC0018BF52EA43067FF4C5AE50EA41047FF4E8
:1008DC000DAF52EA43057FF4EBAE12E74A0011D29A
:1008EC0012F5001211D20DD56FF47873B3EB62527E
:1008FC000ED44FEAC12343F0004343EA505323FA8A
:10090C0002F070474FF00000704750EA013002D1FE
:10091C004FF0FF3070474FF000007047034613F85C
:10092C00012B002AFBD1181A01387047334B98421F
:10093C0028D0324B984229D0304B98422AD02F4B9A
:10094C0098422BD02D4B98422CD02C4B98422DD02A
:10095C002B4B1A6822F001021A6000221A605A60AE
:10096C009A60DA60012927D0022929D003292BD0DB
:10097C0004292ED0052931D0062934D0072937D0A7
:10098C00002070470129D4D11E4BE2E70229D3D1B4
:10099C001D4BDEE70329D2D11C4BDAE70429D1D158
:1009AC001B4BD6E70529D0D11A4BD2E7062901D02B
:1009BC008033CEE7184BCCE70123436018467047D1
:1009CC0010234360012070474FF480734360012073
:1009DC0070474FF480534360012070474FF48033CD
:1009EC004360012070474FF480134360012070472F
:1009FC004FF0807343600120704700BF000002403D
:100A0C0080000240080002401C00024030000240FE
:100A1C0044000240580002406C00024030B493681D
:100A2C00D4682343146923435469234394692343AF
:100A3C00D4692343546A234301390B4C655C2C184D
:100A4C00295821F4FF4121F070010B432B505368BE
:100A5C00E3601368A360126A63681B0C1B041343E6
:100A6C006360012030BC70475C260008F0B50D684F
:100A7C00C5F30F2595FAA5F2B2FA82F235E0A2F190
:100A8C0008044FF00113A34043F0806339E0C459CC
:100A9C0093FAA3F6B6FA86F6B6004FF0030C0CFAEE
:100AAC0006F624EA060C93FAA3F6B6FA86F6B60016
:100ABC008C6804FA06F646EA0C06C651CC6893FA22
:100ACC00A3FCBCFA8CFC4FEA8C0C4FF0040E0EFA13
:100ADC000CFC26EA0C0693FAA3F3B3FA83F39B00FF
:100AEC0004FA03F33343C351013235FA02F335D020
:100AFC00012393402B42F7D0072AC0D840F20113B0
:100B0C0093404E681F0EC45993FAA3FCBCFA8CFC9C
:100B1C004FEA8C0C4FF00F0E0EFA0CFC24EA0C046E
:100B2C0093FAA3FCBCFA8CFC4FEA8C0C06FA0CF67C
:100B3C003443C451C6681C0A26EA040C94FAA4F483
:100B4C00B4FA84F40E6906FA04F44CEA0404C460A2
:100B5C004C68012C9BD0092CC6D198E70120F0BD24
:100B6C00034B5B68C3F30313024AD35CD840704752
:100B7C000010024064260008034B5B68C3F3022399
:100B8C00024AD35CD840704700100240742600081B
:100B9C00034B5B68C3F3C223024AD35CD840704753
:100BAC0000100240742600080B4B5B6803F4803382
:100BBC007BB1094B5868C0F340400130074BB3FB85
:100BCC00F0F0054B5B68C3F38343023300FB03F087
:100BDC0070470348F5E700BF0010024000127A008E
:100BEC0000093D0008B5054B5B6803F00C03082BAE
:100BFC0002D1FFF7D9FF08BD0148FCE70010024005
:100C0C0000127A0010B50446FFF7ECFF2060FFF7E6
:100C1C00A7FF6060FFF7B0FFA0606068FFF7B8FF48
:100C2C00E06010BD30B4036A23F001030362036A71
:100C3C004468826922F073020D682A4323F0020390
:100C4C000D692B4323F001034D682B430F4DA84234
:100C5C0007D044608261CA6842630362012030BCE1
:100C6C00704723F008034D6943EA850323F004031E
:100C7C008D6843EA850324F480748D692C4324F435
:100C8C000074CD6944EA4504E3E700BF002C014041
:100C9C0030B4036A23F010030362036A4468826968
:100CAC0022F4E6420D6842EA052223F020030D6986
:100CBC0043EA051323F010034D6843EA0513104D66
:100CCC00A84207D044608261CA6882630362012033
:100CDC0030BC704723F080034D6943EA851323F041
:100CEC0040038D6843EA851324F480648D6944EADB
:100CFC00850424F40064CD6944EAC504E2E700BF2E
:100D0C00002C014030B4036A23F480730362036A3D
:100D1C004468C26922F073020D682A4323F40073FD
:100D2C000D6943EA052323F480734D6843EA0523D8
:100D3C000F4DA84207D04460C261CA68C263036207
:100D4C00012030BC704723F400634D6943EA8523CE
:100D5C0023F480638D6843EA852324F480548D69E1
:100D6C0044EA051424F40054CD6944EA4514E2E73E
:100D7C00002C014030B4036A23F480530362036AED
:100D8C004468C26922F4E6420D6842EA052223F463
:100D9C0000530D6943EA053323F480534D6843EA4D
:100DAC000533084DA84207D04460C261CA6802648A
:100DBC000362012030BC704724F480448D6944EAFE
:100DCC008514F1E7002C014003681A4A90420AD0BE
:100DDC00B0F1804F07D0A2F59432904203D002F5C7
:100DEC008062904203D123F070034A681343114A86
:100DFC0090420AD0B0F1804F07D0A2F594329042C5
:100E0C0003D002F58062904203D123F44073CA6888
:100E1C00134303608B68C3620B888362054B984253
:100E2C0005D0436943F001034361012070470B7CFB
:100E3C000363F6E7002C014008B5102910D009D93E
:100E4C00B1F5807F10D0B1F5805F11D11146FFF75D
:100E5C0091FF04E001290BD11146FFF7E3FE08BD19
:100E6C001146FFF715FFFAE71146FFF74BFFF6E7C0
:100E7C000020F4E7C36813F4005F01D00020704732
:100E8C0030B585B00D460446C36823F4B05323F047
:100E9C000C034A68C9680A4329690A431343C360AF
:100EAC00AB68026922F44052134303616B694269D7
:100EBC0022F44072134343616846FFF7A3FE1C4BB8
:100ECC009C4208D01B4B9C422AD01B4B9C4229D0E5
:100EDC00002005B030BD039B33B32A6832B303EB5B
:100EEC00830303EB83039200B3FBF2F3134DA5FBD7
:100EFC0003204009020191B2642202FB103213015B
:100F0C003233A5FB0323C3F34F1303F0F0020A445F
:100F1C0092B203F00F0313449BB2A3600120D8E7F5
:100F2C00029BD9E7029BD7E70020D2E70020D0E74D
:100F3C000038014000440040004800401F85EB5140
:100F4C00054BA3FB003080090138044B586000228C
:100F5C009A6005221A607047D34D621010E000E0D1
:100F6C00014B1860704700BF3801002082B00A4B5B
:100F7C005A6942F001025A615B6903F00103019363
:100F8C00019B064BDB68064B002283F810234FF4C1
:100F9C0080321A6002B070470010024000ED00E091
:100FAC0000E100E070B584B0264B9A6942F0100263
:100FBC009A619A6902F010020392039A9A6942F0BC
:100FCC0020029A619A6902F020020292029A9A69AE
:100FDC0042F004029A619A6902F004020192019AA9
:100FEC009A6942F008029A619B6903F00803009326
:100FFC00009B154E4FF400537361144C144B23603B
:10100C00012363600223A3600025E560214630467E
:10101C00FFF72CFD0F4B2360656021463046FFF730
:10102C0025FD0D4B2360656021460C48FFF71EFD26
:10103C006FF07B432360656021460948FFF716FD7E
:10104C0004B070BD0010024000100140BC01002033
:10105C0020002004C000C004FBB3F90400080140C8
:10106C00000C014070B582B0224B9A6942F4804268
:10107C009A619A6902F480420192019A9A6942F04B
:10108C0004029A619B6903F004030093009B1A4CC1
:10109C001A4B2360092363600323A3600025E560DA
:1010AC00174E21463046FFF7E1FC164B2360042314
:1010BC00636021463046FFF7D9FC4FF4E13363619E
:1010CC00A561E56125620C236362A5620E4D04F1F6
:1010DC0014012846FFF7CEFE2B6923F490432B61B5
:1010EC006B6923F02A036B61EB6843F40053EB60EC
:1010FC0002B070BD00100240BC01002002000204CE
:10110C00000801400400040400380140F0B583B02D
:10111C00284BDA6942F40032DA61DA6902F40032FF
:10112C000192019A9A6942F004029A619B6903F058
:10113C0004030093009B204C40F2044323600923DA
:10114C0063600323A3600025E5601C4F21463846ED
:10115C00FFF78CFC40F608032360042666602146EA
:10116C003846FFF783FC164BDB68164B83F8265387
:10117C0040225A6047F612236361A561E56125623E
:10118C006662A562104D04F114012846FFF772FE49
:10119C002B6923F490432B616B6923F02A036B6159
:1011AC00EB6843F40053EB60EB6843F02003EB6017
:1011BC0003B0F0BD00100240BC010020000801404B
:1011CC0000ED00E000E100E000440040F0B585B027
:1011DC003C4DAB6943F00403AB61AB6903F0040312
:1011EC000393039B384C44F2400323600923636050
:1011FC000323A3600027E76021463448FFF736FC41
:10120C00EB6943F00203EB61EB6903F00203029319
:10121C00029B2F4B1B682F4AA2FB03235B0D013B48
:10122C001D226263A385A76327632B4E04F12C0157
:10123C003046FFF7C9FD336823F080033360B36990
:10124C0043F00803B3616023236401216164A76444
:10125C00E764276504F140023046FFF7EDFD6B694A
:10126C0043F001036B616B6903F001030193019B74
:10127C00A5F5805506212846FFF758FB174B23662A
:10128C00174B63661023A3662A23C4F880302767A4
:10129C00802363674FF48073A3674FF48063E36725
:1012AC00E7664FF40053C4F8843004F16002062161
:1012BC002846FFF7B3FBF36843F40073F36005B003
:1012CC00F0BD00BF00100240BC010020000801402E
:1012DC0038010020819F5E16000400403404004059
:1012EC000803002082B03123ADF8003040F2C24335
:1012FC00ADF802300023ADF804303DE000238DF84A
:10130C0007309DF80730DBB2072B13D8BDF804303B
:10131C009BB2484A092122F81310BDF8043001335E
:10132C009BB2ADF804309DF807300133DBB28DF879
:10133C000730E6E700238DF807309DF80730DBB265
:10134C00072B13D8BDF804309BB23A4A092122F876
:10135C001310BDF8043001339BB2ADF804309DF886
:10136C0007300133DBB28DF80730E6E7BDF800300B
:10137C00013B9BB2ADF80030BDF800309BB243B3DB
:10138C0000238DF807309DF80730DBB2072BB5D85A
:10139C00BDF804309BB2274A092122F81310BDF87E
:1013AC00043001339BB2ADF804309DF807300133A3
:1013BC00DBB28DF80730E6E7BDF804309BB21D4A6E
:1013CC00002122F81310BDF8043001339BB2ADF8A4
:1013DC000430BDF8042092B2BDF802309BB29A42A0
:1013EC00EAD3BDF80210144A53681B0C1B040B43C0
:1013FC005360136843F001031360104A136843F001
:10140C00010313600E4B1B6813F4001FFAD00B4A38
:10141C00136823F00103136002F5FE326C3213687B
:10142C0023F001031360064B4FF400125A6002B014
:10143C00704700BF080300206C000240000400400D
:10144C000000024082B03123ADF8003040F2C243BC
:10145C00ADF802300023ADF8043088E0BDF804305C
:10146C009BB2654A092122F81310BDF804300133F0
:10147C009BB2ADF804309DF807300133DBB28DF828
:10148C0007309DF80730DBB2072B10D84378DBB25E
:10149C009DF80720D2B2934013F0800FDED0BDF838
:1014AC0004309BB2544A112122F81310DDE70023BB
:1014BC008DF8073012E0BDF804309BB24E4A09217A
:1014CC0022F81310BDF8043001339BB2ADF8043090
:1014DC009DF807300133DBB28DF807309DF80730EB
:1014EC00DBB2072B10D80378DBB29DF80720D2B201
:1014FC00934013F0800FDED0BDF804309BB23E4A0F
:10150C00112122F81310DDE700238DF8073012E0CB
:10151C00BDF804309BB2384A092122F81310BDF8EB
:10152C00043001339BB2ADF804309DF80730013321
:10153C00DBB28DF807309DF80730DBB2072B10D8E3
:10154C008378DBB29DF80720D2B2934013F0800F62
:10155C00DED0BDF804309BB2274A112122F81310BB
:10156C00DDE7BDF80030013B9BB2ADF80030BDF8B3
:10157C0000309BB283B100238DF8073081E7BDF8B2
:10158C0004309BB21C4A002122F81310BDF8043021
:10159C0001339BB2ADF80430BDF8042092B2BDF813
:1015AC0002309BB29A42EAD3BDF80210134A536838
:1015BC001B0C1B040B435360136843F001031360B3
:1015CC000F4A136843F0010313600E4B1B6813F4AE
:1015DC00001FFAD00A4A136823F00103136002F5C6
:1015EC00FE326C32136823F001031360054B4FF489
:1015FC0000125A6002B07047080300206C000240D1
:10160C0000040040000002404000024B83F88800B8
:10161C00704700BFBC01002010B582B03E4A82FB6F
:10162C000032C317C3EB62031A4603EB4303990062
:10163C00431A3A4C2360D2B2394901A800F052FB4C
:10164C0023680B2B0BD8DFE803F006262D32393E2E
:10165C00434A4F565B62334B1A88334B1A802F4BDD
:10166C001A6802EB42021A441279D2B22F4981F85D
:10167C008C201A6802EB42021A445279D2B281F8D9
:10168C008D201A6802EB420213449B79DBB281F87D
:10169C008E3002B010BD244B254A118892781980E7
:1016AC009A70DCE7234B1A881F4B1A80D7E71E4B26
:1016BC00214A1188927819809A70D0E71F4B1A88AA
:1016CC00194B1A80CBE71E4B1A88174B1A80C6E7AA
:1016DC00154B1C4A1188927819809A70BFE71A4BE7
:1016EC001A88114B1A80BAE70F4B184A1188927856
:1016FC0019809A70B3E7164B1A880B4B1A80AEE719
:10170C00094B144A1188927819809A70A7E7124BEA
:10171C001A88054B1A80A2E7ABAAAA2A000000205F
:10172C007C2600089426000800030020BC01002041
:10173C008026000898260008842600089C260008AD
:10174C00A026000888260008A42600088C2600087D
:10175C00A826000890260008AC260008F8B5244CF2
:10176C00236803EB430323441879224E96F88870C0
:10177C00013700FB07F0204D85FB00231844C011F6
:10178C00FEF730FE00221D4BFEF796FEFFF7A6F883
:10179C00C0B286F88C00236803EB430323445879CA
:1017AC0000FB07F085FB00231844C011FEF71AFE5E
:1017BC000022124BFEF780FEFFF790F8C0B286F8BD
:1017CC008D00236803EB43031C44A07900FB07F056
:1017DC0085FB00352844C011FEF704FE0022074BA0
:1017EC00FEF76AFEFFF77AF8C0B286F88E00F8BDF5
:1017FC0000000020BC010020818080800000E03FC0
:10180C0010B5234B1A6822F007021A601B68214A94
:10181C00136843F4803313601E4B1B6813F4003FB2
:10182C00FAD01C4A536823F47C1343F4A02353606E
:10183C00136843F080731360164B1B6813F0007F22
:10184C00FAD0144B5A6822F0F0025A605A6822F40B
:10185C00E0625A605A6822F460525A605A6822F068
:10186C00030242F002025A600A4B5B6803F00C035D
:10187C00082BF9D1084C2046FFF762FB074A136886
:10188C0043F0040313602046FFF76AFB10BD00BF52
:10189C00002002400010024000366E0110E000E013
:1018AC004A1E51B110F8011B074B5960064B1B68BF
:1018BC0013F0800FFAD01146F2E7034B1B6813F0BC
:1018CC00400FFAD0704700BF0038014010B50446F5
:1018DC00FFF724F801462046FFF7E2FF10BD000099
:1018EC0010B582B0274B9A6942F001029A619A694D
:1018FC0002F001020192019ADA6942F08052DA6137
:10190C00DB6903F080530093009B1F49CA6822F4E3
:10191C00E0621204120C1D4B1343CB601C4B5A6833
:10192C0022F0E0625A605A6842F080625A60FFF717
:10193C0067FFFFF737FBFFF795FBFFF7E7FBFFF7B9
:10194C0045FCFFF713FB1348FFF7C0FF1248FFF7E6
:10195C00C9FC002011E0C0EBC003234403EB43039C
:10196C000E490B44002199540132022AF3DD013453
:10197C00062C01DC0022F8E70130062801DC0024EB
:10198C00F6E7FEE70010024000ED00E00003FA0568
:10199C0000000140B0260008480200206C02002024
:1019AC007A4B1B6813F0200F00F0EF80774BDB684D
:1019BC0013F0200F00F0E980744B5B68DBB2744AC3
:1019CC00D2F890204AB9724AD2F894202AB9902BB6
:1019DC0017D0B02B29D0802B1DD06D4AD2F8902077
:1019EC00012A2CDD6A4AD2F8900092F89810091A54
:1019FC00114481F89C30D2F89030013BC2F8903001
:101A0C007047634A032182F89810C2F890100121A4
:101A1C00C2F89410E1E75E4A032182F89810C2F8EC
:101A2C0090100121C2F89410D7E7594A032182F88B
:101A3C009810C2F890100121C2F89410CDE7544AC6
:101A4C00D2F89420002A00F0A08070B59AB05049CA
:101A5C00D1F8900091F89820121A0A4482F89C3020
:101A6C0091F89C30902B34D0B02B00F08C80802BD4
:101A7C0065D0474B0022C3F89420C3F890201AB0CD
:101A8C0070BD012C1DD0022C1FD00134022C22D889
:101A9C0001AB03EB84053E4B234493F89C203D495A
:101AAC00284600F01FF910220021284600F0B2F958
:101ABC000646002CE5D002463749284600F012F9BC
:101ACC00DFE73046FFF7A8FDDDE7F0B2FFF79CFD3E
:101ADC00DBE70024DAE73148FFF7F8FE3048FFF780
:101AEC00F5FEFFF73BFE2F48FFF7ACFCC1E7012CDE
:101AFC001DD0022C1FD00134022CBAD801AB03EB41
:101B0C008405234B234493F89C202249284600F05B
:101B1C00E9F810220021284600F07CF90646002C3A
:101B2C00E5D002461C49284600F0DCF8DFE73046D9
:101B3C00FFF772FDDDE7F0B2FFF766FDDBE700248F
:101B4C00DAE7022C1BD00134022C92D801AB03EB48
:101B5C0084050F4B234493F89C200E49284600F033
:101B6C00C1F810220021284600F054F90646002C3A
:101B7C00E7D002460849284600F0B4F8E1E7F0B295
:101B8C00FFF742FDDFE70024DEE77047004400402A
:101B9C00BC010020C0260008C82600080003002055
:101BAC00D0260008480200207047FEE7FEE7FEE75B
:101BBC00FEE77047704770477047704708B503469B
:101BCC000B4A126842B10A4A106803446A469342AF
:101BDC0006D8074A136008BD054A06491160F2E7AA
:101BEC0000F056F80C2303604FF0FF30F3E700BF12
:101BFC005C020020B81200200F4B1A6842F0010260
:101C0C001A6059680D4A0A405A601A6822F08472A8
:101C1C0022F480321A601A6822F480221A605A6800
:101C2C0022F4FE025A604FF41F029A60044B4FF0EC
:101C3C0000629A60704700BF001002400000FFF87D
:101C4C0000ED00E0002103E00B4B5B5843500431E6
:101C5C000A480B4B42189A42F6D30A4A02E0002378
:101C6C0042F8043B084B9A42F9D3FFF7C5FF00F04A
:101C7C0015F8FFF735FE704710280008000000200B
:101C8C00A0010020A0010020B8120020FEE70000F7
:101C9C00014B1868704700BF3C01002070B500264E
:101CAC000C4D0D4C641BA410A64209D100F0C4FCD1
:101CBC0000260A4D0A4C641BA410A64205D170BD27
:101CCC0055F8043B98470136EEE755F8043B984726
:101CDC000136F2E708280008082800080828000840
:101CEC000C2800080EB46FF0004100B59CB01DAB81
:101CFC0002900690079104910848094953F8042B67
:101D0C000591006802A9019300F0EAF80022029BF9
:101D1C001A701CB05DF804EB03B070473C01002056
:101D2C000802FFFF2DE9F04786460846384F054666
:101D3C0015F8014BE65D16F0080634D12D2C34D184
:101D4C004FF001082C78851C002B5CD0102B09D18E
:101D5C00302C07D1287800F0DF0058284ED1102302
:101D6C006C780235B8F1000F14BF4FF0004C6FF0D7
:101D7C00004C0027BCFBF3F9384603FB19CAA4F14D
:101D8C003006092E18D83446A34224DD7E1C07D019
:101D9C0081451DD301D1A2451ADB012700FB03406D
:101DAC0015F8014BEBE72846C1E72B2C08BF2C7824
:101DBC00B04608BF851CC7E7A4F14106192E01D80F
:101DCC00373CE1E7A4F16106192E04D8573CDBE758
:101DDC004FF0FF37E4E77B1C06D122236046CEF898
:101DEC00003042B9BDE8F087B8F1000F00D0404296
:101DFC00002AF7D007B1691E1160F3E73024002BDD
:101E0C00B0D10823AEE7302CA4D00A23AAE700BF38
:101E1C00D526000813460A46014602480068FFF71B
:101E2C0081BF00BF3C0100202DE9F0478E6882463F
:101E3C009E420C469146984638D8B1F80CC01CF41A
:101E4C00906F31D062692568096902EB42026F1A02
:101E5C0002EBD272013355103B449D4238BF1D46F4
:101E6C001CF4806F30D0294600F040FB064650B978
:101E7C000C234FF0FF30CAF80030A38943F0400325
:101E8C00A381BDE8F0873A46216900F0BBFAA3892B
:101E9C0023F4906343F08003A38126613E442660C3
:101EAC0046466561ED1BA560464500D9464632465F
:101EBC004946206800F0B4FAA36800209B1BA3607D
:101ECC0023681E442660DCE72A4600F069FB0646C0
:101EDC000028E2D12169504600F0BCFAC8E70000A6
:101EEC002DE9F04F1E468B899DB01B0607460D460B
:101EFC0014460ED50B6963B9402100F0F7FA28603F
:101F0C00286120B90C233B604FF0FF30C9E040231F
:101F1C006B610023099320238DF8293030234FF077
:101F2C00010ADFF898918DF82A30039623461E4655
:101F3C0013F8012B0AB1252AF9D1B6EB040B0BD0FF
:101F4C005B46224629463846FFF76EFF013000F00B
:101F5C00A380099B5B4409933378002B00F09C8091
:101F6C0000234FF0FF32CDE905230136049307938C
:101F7C008DF853301A933446052214F8011B4F4840
:101F8C0000F032FA049BC0B9D90644BF20228DF868
:101F9C0053201A0744BF2B228DF8532032782A2A5B
:101FAC0013D0344600200A26079A214611F8013B2B
:101FBC00303B092B4BD970B914E0A0EB09000AFA9D
:101FCC0000F0184304902646D5E7039A111D1268B9
:101FDC000391002A01DB079204E0524243F0020312
:101FEC000792049323782E2B0CD163782A2B33D1B0
:101FFC00039B02341A1D1B680392002BB8BF4FF0D1
:10200C00FF3305932E4E03222178304600F0ECF975
:10201C0038B14023801B03FA00F0049B01340343C6
:10202C00049314F8011B062226488DF8281000F0A2
:10203C00DBF9002838D0244B13BB039B073323F068
:10204C00070308330393099B434409936EE706FB8C
:10205C00023201200C46A8E700230A261946013457
:10206C000593204610F8012B303A092A03D9002B8E
:10207C00C8D00591C6E706FB012101230446F0E711
:10208C0003AB00932A46114B04A93846AFF30080EA
:10209C00B0F1FF3F8046D6D1AB895B063FF534AF3C
:1020AC0009981DB0BDE8F08F03AB00932A46074B8F
:1020BC0004A9384600F082F8EAE700BFD5270008EB
:1020CC00DB270008DF27000800000000351E000891
:1020DC002DE9F04791461F468A680B6906469342E4
:1020EC00B8BF1346C9F8003091F843200C46DDF810
:1020FC00208012B10133C9F800302368990642BF21
:10210C00D9F800300233C9F80030256815F00605FF
:10211C0007D104F1190AE368D9F800209B1AAB42E5
:10212C0029DC94F843302268003318BF012392064F
:10213C002ED404F1430239463046C047013021D039
:10214C002368E56803F00603042B18BF0025D9F8B3
:10215C0000204FF0000908BFAD1AA368226908BF20
:10216C0025EAE5759342C4BF9B1AED181A344D4508
:10217C001AD1002008E00123524639463046C047A8
:10218C00013003D14FF0FF30BDE8F0870135C2E7D5
:10219C003020E11881F843005A1C94F84510224471
:1021AC00023382F84310C4E70123224639463046F5
:1021BC00C0470130E6D009F10109D8E72DE9F04319
:1021CC0006460C4601F14300097E85B06E299846FF
:1021DC0017460C9B00F0BB8024D8632939D00AD851
:1021EC00002900F0C480582900F0928004F14205C7
:1021FC0084F8421035E0642901D06929F6D12568AC
:10220C001A6815F0800F02F104012CD012681960C5
:10221C00002A03DA2D23524284F84330DFF8C0C180
:10222C000A233FE0732900F0A68008D86F2921D03B
:10223C007029DBD1226842F02002226003E075296C
:10224C0018D07829D2D17822DFF898C184F84520AB
:10225C0062E01A6804F14205111D1960136884F8D4
:10226C004230012394E0126815F0400F196018BF3A
:10227C0012B2CDE7D4F800C01A681CF0800F02F13E
:10228C0004051D6001D0126803E01CF0400FFAD069
:10229C0012886F290CBF08230A23DFF844C10021E0
:1022AC0084F843106568002DA8BF2168A560A4BF01
:1022BC0021F0040121600AB9002D46D00546B2FB7D
:1022CC00F3F103FB112E1CF80EE0934205F801ED1F
:1022DC0039D9082B0BD12368DA0708D52369626832
:1022EC009A42DEBF302305F8013C05F1FF35401B57
:1022FC002061CDF800803B4603AA21463046FFF70B
:10230C00E7FE013049D14FF0FF3005B0BDE8F08356
:10231C00DFF8CCC084F845101D68216855F8042BF3
:10232C001D600D060BD5CD0744BF41F02001216087
:10233C001AB9236823F0200323601023AFE74B0660
:10234C0048BF92B2EFE70A46B9E70546C1E71A68FB
:10235C00D4F800C0151D61691CF0800F1D60136856
:10236C0001D0196003E01CF0400FFAD01980002353
:10237C0005462361BDE71A68111D19601568002117
:10238C006268284600F030F808B1401B6060636852
:10239C002361002384F84330ABE723692A4639468E
:1023AC003046C0470130AED023689B0713D4E06899
:1023BC00039B9842B8BF1846A7E701234A46394603
:1023CC003046C04701309ED00135E368039A9B1A12
:1023DC00AB42F2DCEBE7002504F11909F5E700BF8D
:1023EC00E6270008F727000810B5C9B2024490424E
:1023FC00034601D1002303E01C7801308C42F6D156
:10240C00184610BD0A44914200F1FF3300D17047C9
:10241C0010B511F8014B914203F8014FF9D110BDE1
:10242C00884210B501EB020302D983421C4607D83F
:10243C00421E994208D011F8014B02F8014FF8E7FF
:10244C0083189A1A9A4200D110BD14F8011D03F892
:10245C00011DF7E738B50546002943D051F8043C77
:10246C000C1F002BB8BFE41800F0D0F81E4A1368FC
:10247C00104633B9636014602846BDE8384000F05C
:10248C00CBB8A3420BD921686218934201BF1A68DA
:10249C005B685218226063600460EDE713465A686B
:1024AC000AB1A242FAD919685818A0420BD1206877
:1024BC000144581882421960DED1106852680144F8
:1024CC0019605A60D8E702D90C232B60D4E7206836
:1024DC0021188A4201BF1168526809182160626094
:1024EC005C60C9E738BD00BF64020020F8B5CD1CA4
:1024FC0025F0030508350C2D38BF0C25002D06469C
:10250C0001DBA94203D90C2333600020F8BD00F095
:10251C007DF821490A6814469CB9204F3B6823B9C1
:10252C002146304600F062F838602946304600F00B
:10253C005DF8431C23D10C233046336000F06CF85B
:10254C00E3E723685B1B17D40B2B03D923601C44D4
:10255C00256004E06368A2420CBF0B6053603046F8
:10256C0000F05AF804F10B00231D20F00700C21AEA
:10257C00CCD01B1AA350C9E722466468CCE7C41C14
:10258C0024F00304A042E3D0211A304600F02EF8C8
:10259C000130DDD1CFE700BF6402002068020020CB
:1025AC00F8B5074614460E4621B91146BDE8F84069
:1025BC00FFF79CBF22B9FFF74DFF25462846F8BD13
:1025CC0000F030F8A0420FD221463846FFF78EFFBC
:1025DC0005460028F2D031462246FFF713FF31465C
:1025EC003846FFF737FFE9E73546E7E738B500230C
:1025FC00054C054608462360FFF7E0FA431C02D160
:10260C00236803B12B6038BDA8120020014800F0EC
:10261C0011B800BFB0120020014800F00CB800BF88
:10262C00B012002051F8043C181F002BBCBF0B58F3
:10263C00C018704770477047F8B500BFF8BC08BCAD
:10264C009E467047F8B500BFF8BC08BC9E46704764
:10265C00081C3044586C8000000000000000000092
:10266C00010203040607080900000000010203042C
:10267C00253164004323000045620000462300001E
:10268C004162000042620000430000004400000070
:10269C00450000004600000047000000410000001B
:1026AC0042000000496E697420446F6E652E200A4A
:1026BC000000000025303378200000002530336CFA
:1026CC00642000000A0D0000002020202020202083
:1026DC0020202828282828202020202020202020C6
:1026EC0020202020202020202088101010101010D6
:1026FC001010101010101010100404040404040422
:10270C0004040410101010101010414141414141BB
:10271C00010101010101010101010101010101019D
:10272C0001010101101010101010424242424242AD
:10273C00020202020202020202020202020202026D
:10274C000202020210101010200000000000000015
:10275C00000000000000000000000000000000006D
:10276C00000000000000000000000000000000005D
:10277C00000000000000000000000000000000004D
:10278C00000000000000000000000000000000003D
:10279C00000000000000000000000000000000002D
:1027AC00000000000000000000000000000000001D
:1027BC00000000000000000000000000000000000D
:1027CC00000000000000000000232D302B200068CA
:1027DC006C4C006566674546470030313233343502
:1027EC003637383941424344454600303132333470
:0C27FC0035363738396162636465660069
:042808003101000892
:04280C000D010008B2
:102810000C00000032000032190032320032260073
:102820000032241900323200193200320000281E12
:102830001E1E3C3C143C1E14000000003C00000026
:10284000190000000000000000000000000000006F
:102850000000000000000000000000000000010176
:102860000101010101020202020202030303030348
:1028700004040404050505050606060707070808FD
:10288000080909090A0A0B0B0B0C0C0D0D0D0E0E95
:102890000F0F10101111121213131415151616170D
:1028A000171819191A1B1B1C1D1D1E1F1F20212262
:1028B000222324252526272828292A2B2C2D2E2E95
:1028C0002F303132333435363738393A3B3C3D3EA0
:1028D0003F404142434445464748494A4C4D4E4F8C
:1028E00050515354555658595A5B5D5E5F60626350
:1028F000646667686A6B6D6E6F71727475777879EC
:102900007B7C7E808183848687898A8C8E8F91925E
:10291000949697999B9D9EA0A2A3A5A7A9AAACAEA9
:10292000B0B2B3B5B7B9BBBDBFC1C2C4C6C8CACCCB
:10293000CED0D2D4D6D8DADCDEE0E3E5E7E9EBEDC1
:10294000EFF1F4F6F8FAFCFF00A24A04400100207F
:102950000000000000000000000000000000000077
:102960000000000000000000000000000000000067
:102970000000000000000000000000000000000057
:102980000000000000000000000000000000000047
:102990000000000000000000000000000000000037
:1029A0000000000000000000000000000000000027
:0400000508001C5182
:00000001FF
