:020000040800F2
:100000000050002015200008791F00087B1F000801
:100010007D1F00087F1F0008811F000800000000EE
:10002000000000000000000000000000831F000826
:10003000851F000800000000871F0008891F0008B6
:100040005D2000085D2000085D2000085D2000089C
:100050005D2000085D2000085D2000085D2000088C
:100060005D2000085D2000085D2000085D2000087C
:100070005D2000085D2000085D2000085D2000086C
:100080008B1F00085D2000085D2000085D2000082F
:100090005D2000085D2000085D2000085D2000084C
:1000A0005D2000085D2000085D2000085D2000083C
:1000B0005D2000085D2000085D2000085D2000082C
:1000C0005D2000085D2000085D2000085D2000081C
:1000D0005D2000085D200008491D00085D20000823
:1000E0005D2000085D2000085D2000080000000081
:1000F0000000000000000000000000000000000000
:0C01000000000000000000005FF808F1A3
:1001100010B5054C237833B9044B13B10448AFF341
:1001200000800123237010BD540B0020000000004C
:10013000082A000808B5034B1BB103490348AFF375
:10014000008008BD00000000580B0020082A0008AD
:1001500081F0004102E000BF83F0004330B54FEA78
:1001600041044FEA430594EA050F08BF90EA020FE5
:100170001FBF54EA000C55EA020C7FEA645C7FEA78
:10018000655C00F0E2804FEA5454D4EB5555B8BF9B
:100190006D420CDD2C4480EA020281EA030382EA0C
:1001A000000083EA010180EA020281EA0303362D9E
:1001B00088BF30BD11F0004F4FEA01314FF4801C71
:1001C0004CEA113102D0404261EB410113F0004F83
:1001D0004FEA03334CEA133302D0524263EB43033A
:1001E00094EA050F00F0A780A4F10104D5F1200ED8
:1001F0000DDB02FA0EFC22FA05F2801841F1000133
:1002000003FA0EF2801843FA05F359410EE0A5F106
:1002100020050EF1200E012A03FA0EFC28BF4CF037
:10022000020C43FA05F3C01851EBE37101F00045ED
:1002300007D54FF0000EDCF1000C7EEB00006EEBFA
:100240000101B1F5801F1BD3B1F5001F0CD3490884
:100250005FEA30004FEA3C0C04F101044FEA4452DB
:1002600012F5800F80F09A80BCF1004F08BF5FEA62
:10027000500C50F1000041EB045141EA050130BD42
:100280005FEA4C0C404141EB010111F4801FA4F1E5
:100290000104E9D191F0000F04BF01460020B1FA3A
:1002A00081F308BF2033A3F10B03B3F120020CDA72
:1002B0000C3208DD02F1140CC2F10C0201FA0CF050
:1002C00021FA02F10CE002F11402D8BFC2F1200CB5
:1002D00001FA02F120FA0CFCDCBF41EA0C0190406B
:1002E000E41AA2BF01EB0451294330BD6FEA0404B4
:1002F0001F3C1CDA0C340EDC04F11404C4F120029F
:1003000020FA04F001FA02F340EA030021FA04F3B0
:1003100045EA030130BDC4F10C04C4F1200220FA07
:1003200002F001FA04F340EA0300294630BD21FA45
:1003300004F0294630BD94F0000F83F4801306BF0B
:1003400081F480110134013D4EE77FEA645C18BFFF
:100350007FEA655C29D094EA050F08BF90EA020F96
:1003600005D054EA000C04BF1946104630BD91EA8E
:10037000030F1EBF0021002030BD5FEA545C05D191
:100380004000494128BF41F0004130BD14F58004D0
:100390003CBF01F5801130BD01F0004545F0FE4144
:1003A00041F470014FF0000030BD7FEA645C1ABF79
:1003B000194610467FEA655C1CBF0B46024650EAB0
:1003C000013406BF52EA033591EA030F41F40021DC
:1003D00030BD00BF90F0000F04BF0021704730B562
:1003E0004FF4806404F132044FF000054FF0000137
:1003F00050E700BF90F0000F04BF0021704730B5F8
:100400004FF4806404F1320410F0004548BF4042CC
:100410004FF000013EE700BF42004FEAE2014FEA21
:1004200031014FEA02701FBF12F07F4393F07F4FFC
:1004300081F06051704732F07F4208BF704793F0FF
:100440007F4F04BF41F40021704730B54FF4607412
:1004500001F0004521F000411CE700BF50EA010215
:1004600008BF704730B54FF000050AE050EA0102BE
:1004700008BF704730B511F0004502D5404261EB2E
:1004800041014FF4806404F132045FEA915C3FF46F
:10049000D8AE4FF003025FEADC0C18BF03325FEA0C
:1004A000DC0C18BF033202EBDC02C2F1200300FABD
:1004B00003FC20FA02F001FA03FE40EA0E0021FAE2
:1004C00002F11444BDE600BF4FEA4102B2F1E0433D
:1004D00024BFB3F5001CDCF1FE5C0DD901F0004C2B
:1004E0004FEAC0024CEA5070B2F1004F40EB83007B
:1004F00008BF20F00100704711F0804F21D113F1A7
:100500003872BCBF01F00040704741F480114FEADF
:100510005252C2F11802C2F1200C10FA0CF320FA68
:1005200002F018BF40F001004FEAC1234FEAD32385
:1005300003FA0CFC40EA0C0023FA02F34FEA4303EF
:10054000CCE77FEA625307D150EA01331EBF4FF078
:10055000FE4040F44000704701F0004040F0FE4093
:1005600040F40000704700BF80F0004002E000BF90
:1005700081F0004142001FBF5FEA410392EA030F8E
:100580007FEA226C7FEA236C6AD04FEA1262D2EBD8
:100590001363C1BFD218414048404140B8BF5B42DD
:1005A000192B88BF704710F0004F40F4000020F076
:1005B0007F4018BF404211F0004F41F4000121F08C
:1005C0007F4118BF494292EA030F3FD0A2F10102D6
:1005D00041FA03FC10EB0C00C3F1200301FA03F114
:1005E00000F0004302D5494260EB4000B0F5000F37
:1005F00013D3B0F1807F06D340084FEA310102F1F6
:100600000102FE2A51D2B1F1004F40EBC25008BFA7
:1006100020F0010040EA03007047490040EB000071
:1006200010F4000FA2F10102EDD1B0FA80FCACF1A0
:10063000080CB2EB0C0200FA0CF0AABF00EBC2509F
:1006400052421843BCBFD0401843704792F0000F8D
:1006500081F4000106BF80F400000132013BB5E7E0
:100660004FEA41037FEA226C18BF7FEA236C21D056
:1006700092EA030F04D092F0000F08BF08467047BB
:1006800090EA010F1CBF0020704712F07F4F04D189
:10069000400028BF40F00040704712F100723CBF9C
:1006A00000F50000704700F0004343F0FE4040F4C6
:1006B000000070477FEA226216BF08467FEA236384
:1006C0000146420206BF5FEA412390EA010F40F46F
:1006D000800070474FF0000304E000BF10F00043BB
:1006E00048BF40425FEA000C08BF704743F09643A2
:1006F00001464FF000001CE050EA010208BF7047BD
:100700004FF000030AE000BF50EA010208BF704743
:1007100011F0004302D5404261EB41015FEA010C58
:1007200002BF84460146002043F0B64308BFA3F150
:100730008053A3F50003BCFA8CF2083AA3EBC25332
:1007400010DB01FA02FC634400FA02FCC2F1200251
:10075000BCF1004F20FA02F243EB020008BF20F088
:100760000100704702F1200201FA02FCC2F12002EE
:1007700050EA4C0021FA02F243EB020008BF20EAE3
:10078000DC7070474FF0FF0C1CEAD0521EBF1CEA11
:10079000D15392EA0C0F93EA0C0F6FD01A4480EAFF
:1007A000010C400218BF5FEA41211ED04FF00063E8
:1007B00043EA501043EA5111A0FB01310CF0004014
:1007C000B1F5000F3EBF490041EAD3715B0040EA3A
:1007D000010062F17F02FD2A1DD8B3F1004F40EB0A
:1007E000C25008BF20F00100704790F0000F0CF0DD
:1007F000004C08BF49024CEA502040EA51207F3AA1
:10080000C2BFD2F1FF0340EAC250704740F400007B
:100810004FF00003013A5DDC12F1190FDCBF00F06C
:1008200000407047C2F10002410021FA02F1C2F11A
:10083000200200FA02FC5FEA310040F1000053EAB6
:100840004C0308BF20EADC70704792F0000F00F004
:10085000004C02BF400010F4000F013AF9D040EA0A
:100860000C0093F0000F01F0004C02BF490011F49E
:10087000000F013BF9D041EA0C018FE70CEAD1539C
:1008800092EA0C0F18BF93EA0C0F0AD030F0004C1C
:1008900018BF31F0004CD8D180EA010000F00040D0
:1008A000704790F0000F17BF90F0004F084691F08E
:1008B000000F91F0004F14D092EA0C0F01D14202C8
:1008C0000FD193EA0C0F03D14B0218BF084608D191
:1008D00080EA010000F0004040F0FE4040F40000DB
:1008E000704740F0FE4040F4400070474FF0FF0C6E
:1008F0001CEAD0521EBF1CEAD15392EA0C0F93EAB5
:100900000C0F69D0A2EB030280EA010C49024FEA06
:10091000402037D04FF0805343EA111143EA1013BF
:100920000CF000408B4238BF5B0042F17D024FF477
:10093000000C8B4224BF5B1A40EA0C00B3EB510F52
:1009400024BFA3EB510340EA5C00B3EB910F24BF3B
:10095000A3EB910340EA9C00B3EBD10F24BFA3EBC0
:10096000D10340EADC001B0118BF5FEA1C1CE0D188
:10097000FD2A3FF650AF8B4240EBC25008BF20F03B
:10098000010070470CF0004C4CEA50207F32C2BF8F
:10099000D2F1FF0340EAC250704740F400004FF02C
:1009A0000003013A37E792F0000F00F0004C02BF5D
:1009B000400010F4000F013AF9D040EA0C0093F027
:1009C000000F01F0004C02BF490011F4000F013B81
:1009D000F9D041EA0C0195E70CEAD15392EA0C0FE9
:1009E00008D142027FF47DAF93EA0C0F7FF470AF21
:1009F000084676E793EA0C0F04D14B023FF44CAF64
:100A000008466EE730F0004C18BF31F0004CCAD1F8
:100A100030F000427FF45CAF31F000437FF43CAF34
:100A20005FE700BF4FF0FF3C06E000BF4FF0010C56
:100A300002E000BF4FF0010C4DF804CD4FEA400238
:100A40004FEA41037FEA226C18BF7FEA236C11D082
:100A500001B052EA530C18BF90EA010F58BFB2EB35
:100A6000030088BFC81738BF6FEAE17018BF40F0B5
:100A7000010070477FEA226C02D15FEA402C05D169
:100A80007FEA236CE4D15FEA412CE1D05DF8040BEE
:100A9000704700BF844608466146FFE70FB5FFF781
:100AA000C9FF002848BF10F1000F0FBD4DF808ED39
:100AB000FFF7F4FF0CBF012000205DF808FB00BF2A
:100AC0004DF808EDFFF7EAFF34BF012000205DF884
:100AD00008FB00BF4DF808EDFFF7E0FF94BF0120D1
:100AE00000205DF808FB00BF4DF808EDFFF7D2FFCE
:100AF00094BF012000205DF808FB00BF4DF808ED11
:100B0000FFF7C8FF34BF012000205DF808FB00BFDD
:100B100042000ED2B2F1FE4F0BD34FF09E03B3EB67
:100B2000126209D44FEA002343F0004323FA02F093
:100B300070474FF00000704712F1610F01D142027F
:100B400002D14FF0FF3070474FF00000704700BFF8
:100B5000034613F8012B002AFBD1181A01387047FD
:100B6000334B984228D0324B984229D0304B984290
:100B70002AD02F4B98422BD02D4B98422CD02C4B67
:100B800098422DD02B4B1A6822F001021A600022E5
:100B90001A605A609A60DA60012927D0022929D0A8
:100BA00003292BD004292ED0052931D0062934D091
:100BB000072937D0002070470129D4D11E4BE2E726
:100BC0000229D3D11D4BDEE70329D2D11C4BDAE732
:100BD0000429D1D11B4BD6E70529D0D11A4BD2E736
:100BE000062901D08033CEE7184BCCE701234360C0
:100BF0001846704710234360012070474FF48073FC
:100C00004360012070474FF48053436001207047D8
:100C10004FF480334360012070474FF480134360EA
:100C2000012070474FF0807343600120704700BF80
:100C30000000024080000240080002401C00024008
:100C40003000024044000240580002406C00024064
:100C500030B49368D468234314692343546923430D
:100C600094692343D4692343546A234301390B4CC9
:100C7000655C2C18295821F4FF4121F070010B43C9
:100C80002B505368E3601368A360126A63681B0CFF
:100C90001B0413436360012030BC7047202A000806
:100CA000F0B50D68C5F30F2595FAA5F2B2FA82F2F8
:100CB00035E0A2F108044FF00113A34043F0806334
:100CC00039E0C45993FAA3F6B6FA86F6B6004FF0A7
:100CD000030C0CFA06F624EA060C93FAA3F6B6FA0D
:100CE00086F6B6008C6804FA06F646EA0C06C6518B
:100CF000CC6893FAA3FCBCFA8CFC4FEA8C0C4FF046
:100D0000040E0EFA0CFC26EA0C0693FAA3F3B3FACF
:100D100083F39B0004FA03F33343C351013235FAE2
:100D200002F335D0012393402B42F7D0072AC0D8D5
:100D300040F2011393404E681F0EC45993FAA3FC6E
:100D4000BCFA8CFC4FEA8C0C4FF00F0E0EFA0CFC28
:100D500024EA0C0493FAA3FCBCFA8CFC4FEA8C0C3A
:100D600006FA0CF63443C451C6681C0A26EA040C81
:100D700094FAA4F4B4FA84F40E6906FA04F44CEA82
:100D80000404C4604C68012C9BD0092CC6D198E7A0
:100D90000120F0BD034B5B68C3F30313024AD35C2D
:100DA000D840704700100240282A0008034B5B68B7
:100DB000C3F30223024AD35CD840704700100240BC
:100DC000382A0008034B5B68C3F3C223024AD35C92
:100DD000D840704700100240382A00080B4B5B686F
:100DE00003F480337BB1094B5868C0F340400130B5
:100DF000074BB3FBF0F0054B5B68C3F3834302334F
:100E000000FB03F070470348F5E700BF0010024005
:100E100000127A0000093D0008B5054B5B6803F03D
:100E20000C03082B02D1FFF7D9FF08BD0148FCE7EE
:100E30000010024000127A0010B50446FFF7ECFFE4
:100E40002060FFF7A7FF6060FFF7B0FFA060606859
:100E5000FFF7B8FFE06010BD30B4036A23F0010370
:100E60000362036A4468826922F073020D682A43B0
:100E700023F002030D692B4323F001034D682B433C
:100E80000F4DA84207D044608261CA684263036282
:100E9000012030BC704723F008034D6943EA850305
:100EA00023F004038D6843EA850324F480748D697C
:100EB0002C4324F40074CD6944EA4504E3E700BF01
:100EC000002C014030B4036A23F010030362036A6C
:100ED0004468826922F4E6420D6842EA052223F062
:100EE00020030D6943EA051323F010034D6843EA1C
:100EF0000513104DA84207D044608261CA6882631E
:100F00000362012030BC704723F080034D6943EA3F
:100F1000851323F040038D6843EA851324F480642D
:100F20008D6944EA850424F40064CD6944EAC5046B
:100F3000E2E700BF002C014030B4036A23F4807361
:100F40000362036A4468C26922F073020D682A438F
:100F500023F400730D6943EA052323F480734D687D
:100F600043EA05230F4DA84207D04460C261CA6816
:100F7000C2630362012030BC704723F400634D69F3
:100F800043EA852323F480638D6843EA852324F4B0
:100F900080548D6944EA051424F40054CD6944EA70
:100FA0004514E2E7002C014030B4036A23F4805377
:100FB0000362036A4468C26922F4E6420D6842EAA9
:100FC000052223F400530D6943EA053323F48053CB
:100FD0004D6843EA0533084DA84207D04460C2611A
:100FE000CA6802640362012030BC704724F4804464
:100FF0008D6944EA8514F1E7002C014003681A4A20
:1010000090420AD0B0F1804F07D0A2F594329042BE
:1010100003D002F58062904203D123F070034A6846
:101020001343114A90420AD0B0F1804F07D0A2F585
:101030009432904203D002F58062904203D123F4AF
:101040004073CA68134303608B68C3620B88836272
:10105000054B984205D0436943F0010343610120E9
:1010600070470B7C0363F6E7002C014008B510299C
:1010700010D009D9B1F5807F10D0B1F5805F11D1C2
:101080001146FFF791FF04E001290BD11146FFF74C
:10109000E3FE08BD1146FFF715FFFAE71146FFF71B
:1010A0004BFFF6E70020F4E7C36813F4005F01D0BC
:1010B0000020704730B585B00D460446C36823F460
:1010C000B05323F00C034A68C9680A4329690A43EC
:1010D0001343C360AB68026922F4405213430361B7
:1010E0006B69426922F44072134343616846FFF71B
:1010F000A3FE1C4B9C4208D01B4B9C422AD01B4B8E
:101100009C4229D0002005B030BD039B33B32A6830
:1011100032B303EB830303EB83039200B3FBF2F3DD
:10112000134DA5FB03204009020191B2642202FB8A
:10113000103213013233A5FB0323C3F34F1303F023
:10114000F0020A4492B203F00F0313449BB2A3606F
:101150000120D8E7029BD9E7029BD7E70020D2E71E
:101160000020D0E700380140004400400048004023
:101170001F85EB51054BA3FB003080090138044B60
:10118000586000229A6005221A607047D34D6210A1
:1011900010E000E0014B1860704700BFEC0A00202F
:1011A00082B00A4B5A6942F001025A615B6903F04E
:1011B00001030193019B064BDB68064B002283F879
:1011C00010234FF480321A6002B0704700100240C2
:1011D00000ED00E000E100E070B584B0264B9A69B4
:1011E00042F010029A619A6902F010020392039A87
:1011F0009A6942F020029A619A6902F020020292F2
:10120000029A9A6942F004029A619A6902F0040211
:101210000192019A9A6942F008029A619B6903F06F
:1012200008030093009B154E4FF400537361144C58
:10123000144B2360012363600223A3600025E56053
:1012400021463046FFF72CFD0F4B23606560214699
:101250003046FFF725FD0D4B2360656021460C48A5
:10126000FFF71EFD6FF07B43236065602146094850
:10127000FFF716FD04B070BD0010024000100140E1
:10128000700B002020002004C000C004FBB3F90450
:1012900000080140000C014070B582B0224B9A69F1
:1012A00042F480429A619A6902F480420192019A62
:1012B0009A6942F004029A619B6903F00403009367
:1012C000009B1A4C1A4B2360092363600323A3601D
:1012D0000025E560174E21463046FFF7E1FC164B2E
:1012E00023600423636021463046FFF7D9FC4FF4A6
:1012F000E1336361A561E56125620C236362A56248
:101300000E4D04F114012846FFF7CEFE2B6923F49D
:1013100090432B616B6923F02A036B61EB6843F404
:101320000053EB6002B070BD00100240700B002053
:1013300002000204000801400400040400380140D7
:10134000F0B583B0284BDA6942F40032DA61DA6929
:1013500002F400320192019A9A6942F004029A6101
:101360009B6903F004030093009B204C40F204436C
:101370002360092363600323A3600025E5601C4FFD
:1013800021463846FFF78CFC40F60803236004260C
:10139000666021463846FFF783FC164BDB68164B28
:1013A00083F8265340225A6047F612236361A561F1
:1013B000E56125626662A562104D04F114012846BC
:1013C000FFF772FE2B6923F490432B616B6923F0C6
:1013D0002A036B61EB6843F40053EB60EB6843F066
:1013E0002003EB6003B0F0BD00100240700B002042
:1013F0000008014000ED00E000E100E00044004092
:10140000F0B585B03C4DAB6943F00403AB61AB690B
:1014100003F004030393039B384C44F2400323601E
:10142000092363600323A3600027E7602146344853
:10143000FFF736FCEB6943F00203EB61EB6903F065
:1014400002030293029B2F4B1B682F4AA2FB03232C
:101450005B0D013B1D226263A385A76327632B4EAF
:1014600004F12C013046FFF7C9FD336823F08003F7
:101470003360B36943F00803B3616023236401213F
:101480006164A764E764276504F140023046FFF712
:10149000EDFD6B6943F001036B616B6903F00103C0
:1014A0000193019BA5F5805506212846FFF758FBBF
:1014B000174B2366174B63661023A3662A23C4F8D1
:1014C00080302767802363674FF48073A3674FF4EE
:1014D0008063E367E7664FF40053C4F8843004F197
:1014E000600206212846FFF7B3FBF36843F400735C
:1014F000F36005B0F0BD00BF00100240700B00208B
:1015000000080140EC0A0020819F5E1600040040A4
:1015100034040040280C002084B0ADF80610BDF85B
:10152000062002EB4202D3002A339BB2ADF80A3008
:101530000023ADF80C3088E0BDF80C309BB2654A52
:10154000092122F81310BDF80C3001339BB2ADF81D
:101550000C309DF80F300133DBB28DF80F309DF861
:101560000F30DBB2072B10D84378DBB29DF80F2089
:10157000D2B2934013F0800FDED0BDF80C309BB296
:10158000544A112122F81310DDE700238DF80F30A3
:1015900012E0BDF80C309BB24E4A092122F813101C
:1015A000BDF80C3001339BB2ADF80C309DF80F3014
:1015B0000133DBB28DF80F309DF80F30DBB2072B13
:1015C00010D80378DBB29DF80F20D2B2934013F00D
:1015D000800FDED0BDF80C309BB23E4A112122F8BC
:1015E0001310DDE700238DF80F3012E0BDF80C304A
:1015F0009BB2384A092122F81310BDF80C30013390
:101600009BB2ADF80C309DF80F300133DBB28DF892
:101610000F309DF80F30DBB2072B10D88378DBB288
:101620009DF80F20D2B2934013F0800FDED0BDF8AA
:101630000C309BB2274A112122F81310DDE7BDF8C8
:101640000630013B9BB2ADF80630BDF806309BB2C8
:1016500083B100238DF80F3081E7BDF80C309BB2C9
:101660001C4A002122F81310BDF80C3001339BB244
:10167000ADF80C30BDF80C2092B2BDF80A309BB228
:101680009A42EAD3BDF80A10134A53681B0C1B0494
:101690000B435360136843F0010313600F4A136850
:1016A00043F0010313600E4B1B6813F4001FFAD0C4
:1016B0000A4A136823F00103136002F5FE326C320C
:1016C000136823F001031360054B4FF400125A60B6
:1016D00004B07047280C00206C0002400004004059
:1016E000000002404000024B83F88800704700BFB2
:1016F000700B002030B4194A136803EB4303134402
:101700001979174C94F88800013001FB00F5154B4E
:1017100083FB05C12944C1F3C71184F88C101168FB
:1017200001EB41011144497901FB00F583FB05C13F
:101730002944C1F3C71184F88D10116801EB4101F0
:101740000A44927902FB00F083FB00230344C3F3B5
:10175000C71384F88E3030BC704700BF00000020F3
:10176000700B00208180808070B5002401E001347E
:10177000E4B2302C20D8164D05EB8405E86AFEF75C
:101780004BFE0FA3D3E90023FEF7E8FCFEF79CFE17
:101790000646E8624FF07C51FFF7B0F90028E6D02A
:1017A0003046FEF739FE08A3D3E90023FEF7D4FC48
:1017B000FEF78AFEE862DAE770BD00BFAFF3008093
:1017C000FCA9F1D24D62503F9A9999999999D93FC4
:1017D0000000002070B5AAB00546ADF80610002440
:1017E0008DF8A440BDF8062002EB4202D3002A3354
:1017F0009BB2ADF8A030ADF8A240FFF7B5FF8DF871
:10180000A74005E09DF8A7300133DBB28DF8A73083
:101810009DF8A730DBB2302B00F2D28000238DF888
:10182000A5309DF8A530DBB2022BEBD89DF8A53092
:10183000DBB2E85C9DF8A720844B03EB8203DC6AF3
:10184000FEF74CFF2146FEF79DFF9DF8A740E4B24E
:101850009DF8A560F6B2FFF75BF9C0B204EB440453
:101860002AAB1C44344404F89C0C9DF8A530013389
:10187000DBB28DF8A530D4E7BDF8A2309BB2744A34
:10188000092122F81310BDF8A23001339BB2ADF844
:10189000A2309DF8A6300133DBB28DF8A6309DF85A
:1018A000A630DBB2072B17D89DF8A43003EB430317
:1018B0002AAA134413F89B3CDBB29DF8A620D2B2AF
:1018C000934013F0800FD7D0BDF8A2309BB2604A8E
:1018D000112122F81310D6E700238DF8A63012E06C
:1018E000BDF8A2309BB25A4A092122F81310BDF864
:1018F000A23001339BB2ADF8A2309DF8A63001337F
:10190000DBB28DF8A6309DF8A630DBB2072B17D8D6
:101910009DF8A43003EB43032AAA134413F89C3C1C
:10192000DBB29DF8A620D2B2934013F0800FD7D03F
:10193000BDF8A2309BB2464A112122F81310D6E717
:1019400000238DF8A63012E0BDF8A2309BB2404AC9
:10195000092122F81310BDF8A23001339BB2ADF873
:10196000A2309DF8A6300133DBB28DF8A6309DF889
:10197000A630DBB2072B17D89DF8A43003EB430346
:101980002AAA134413F89A3CDBB29DF8A620D2B2DF
:10199000934013F0800FD7D0BDF8A2309BB22C4AF1
:1019A000112122F81310D6E79DF8A4300133DBB2E1
:1019B0008DF8A430BDF80630013B9BB2ADF806307F
:1019C000BDF806309BB283B100238DF8A63066E7E0
:1019D000BDF8A2309BB21E4A002122F81310BDF8B8
:1019E000A23001339BB2ADF8A230BDF8A22092B272
:1019F000BDF8A0309BB29A42EAD3BDF8A010154AB8
:101A000053681B0C1B040B435360136843F0010322
:101A10001360114A136843F0010313600F4B1B68F6
:101A200013F4001FFAD00C4A136823F0010313606B
:101A300002F5FE326C32136823F001031360074B8A
:101A40004FF400125A602AB070BD00BF00000020A1
:101A5000280C00206C0002400004004000000240FE
:101A600010B5234B1A6822F007021A601B68214A3E
:101A7000136843F4803313601E4B1B6813F4003F5C
:101A8000FAD01C4A536823F47C1343F4A023536018
:101A9000136843F080731360164B1B6813F0007FCC
:101AA000FAD0144B5A6822F0F0025A605A6822F4B5
:101AB000E0625A605A6822F460525A605A6822F012
:101AC000030242F002025A600A4B5B6803F00C0307
:101AD000082BF9D1084C2046FFF74CFB074A136846
:101AE00043F0040313602046FFF754FB10BD00BF12
:101AF000002002400010024000366E0110E000E0BD
:101B00004A1E51B110F8011B074B5960064B1B6868
:101B100013F0800FFAD01146F2E7034B1B6813F065
:101B2000400FFAD0704700BF0038014010B504469E
:101B3000FFF70EF801462046FFF7E2FF10BD000058
:101B400010B582B0434A82FB0032C317C3EB620375
:101B50001A4603EB43039900431A3F4C2360D2B269
:101B60003E4901A800F0A6FA23680B2B0BD8DFE84A
:101B700003F0062F363B42474C53585F646B384B9B
:101B80001A88384B1A80344B1A6802EB42021A4406
:101B90001279D2B2344981F88C201A6802EB4202E1
:101BA0001A445279D2B281F88D201A6802EB4202AF
:101BB00013449B79DBB281F88E302A48FFF7B6FFD9
:101BC00001A8FFF7B3FF2948FFF7B0FF02B010BD2F
:101BD000244B274A1188927819809A70D3E7254BB5
:101BE0001A88204B1A80CEE71E4B234A1188927820
:101BF00019809A70C7E7214B1A881A4B1A80C2E7DE
:101C00001F4B1A88174B1A80BDE7164B1D4A1188C7
:101C1000927819809A70B6E71B4B1A88114B1A807C
:101C2000B1E7104B194A1188927819809A70AAE787
:101C3000174B1A880B4B1A80A5E70A4B154A1188D7
:101C4000927819809A709EE7134B1A88054B1A8078
:101C500099E700BFABAAAA2A00000020402A00088A
:101C60005C2A0008200C0020700B0020582A000875
:101C7000442A0008602A0008482A0008642A00084C
:101C8000682A00084C2A00086C2A0008502A00081C
:101C9000702A0008542A0008742A000800B583B08E
:101CA000234B9A6942F001029A619A6902F001029B
:101CB0000192019ADA6942F08052DA61DB6903F03D
:101CC00080530093009B1B49CA6822F4E06212040F
:101CD000120C194B1343CB60184B5A6822F0E06288
:101CE0005A605A6842F080625A60FFF7B9FEFFF707
:101CF00073FAFFF7D1FAFFF723FBFFF781FBFFF73A
:101D00004FFA0F48FFF712FF4A210E48FFF704FC75
:101D1000002205E001331BB2022BFBDD013212B2BF
:101D200040F2FD239A4201DC0023F5E7FEE700BF05
:101D30000010024000ED00E00003FA050000014041
:101D4000782A0008FC0B0020854B1B6813F0200F3D
:101D500000F00481824BDB6813F0200F00F0FE805E
:101D60007F4B5B68DBB27F4AD2F890204AB97D4A4C
:101D7000D2F894202AB9902B17D0B02B29D0802BE1
:101D80001DD0784AD2F89020012A2CDD754AD2F86D
:101D9000900092F89810091A114481F89C30D2F8FA
:101DA0009030013BC2F8903070476E4A032182F8B0
:101DB0009810C2F890100121C2F89410E1E7694A26
:101DC000032182F89810C2F890100121C2F89410F3
:101DD000D7E7644A032182F89810C2F890100121D5
:101DE000C2F89410CDE75F4AD2F89420002A00F0A0
:101DF000B58070B59AB05B49D1F8900091F8982001
:101E0000121A0A4482F89C3091F89C30902B34D0FE
:101E1000B02B00F09480802B66D0524B0022C3F888
:101E20009420C3F890201AB070BD012C1DD0022C54
:101E30001FD00134022C22D801AB03EB8405494B9F
:101E4000234493F89C204849284600F033F9102297
:101E50000021284600F0C6F90646002CE5D00246CF
:101E60004249284600F026F9DFE73046FFF768FED2
:101E7000DDE7F0B2FFF736FCDBE70024DAE701A884
:101E8000FFF754FE3A48FFF751FEFFF733FC4A21B3
:101E90003848FFF79FFCC0E7012C1DD0022C1FD053
:101EA0000134022C22D801AB03EB84052D4B2344D3
:101EB00093F89C202C49284600F0FCF810220021C1
:101EC000284600F08FF90646002CE5D00246274947
:101ED000284600F0EFF8DFE73046FFF731FEDDE798
:101EE000F0B2FFF7FFFBDBE70024DAE701A8FFF71A
:101EF0001DFE1F48FFF71AFE8FE7022C1BD001348E
:101F0000022C1ED801AB03EB8405164B234493F837
:101F10009C201549284600F0CDF8102200212846C3
:101F200000F060F90646002CE7D002460F4928462B
:101F300000F0C0F8E1E7F0B2FFF7D4FBDFE70024E0
:101F4000DEE701A8FFF7F2FD0948FFF7EFFDFFF715
:101F5000D1FB4A210748FFF73DFC5EE7704700BF11
:101F600000440040700B0020882A0008902A0008D6
:101F7000582A0008FC0B00207047FEE7FEE7FEE74A
:101F8000FEE77047704770477047704708B50346D3
:101F90000B4A126842B10A4A106803446A469342E7
:101FA00006D8074A136008BD054A06491160F2E7E2
:101FB00000F056F80C2303604FF0FF30F3E700BF4A
:101FC000100C0020D81B00200F4B1A6842F00102B1
:101FD0001A6059680D4A0A405A601A6822F08472E1
:101FE00022F480321A601A6822F480221A605A6839
:101FF00022F4FE025A604FF41F029A60044B4FF025
:1020000000629A60704700BF001002400000FFF8B5
:1020100000ED00E0002103E00B4B5B58435004311E
:102020000A480B4B42189A42F6D30A4A02E00023B0
:1020300042F8043B084B9A42F9D3FFF7C5FF00F082
:1020400015F8FFF72BFE7047D42B00080000002086
:10205000540B0020540B0020D81B0020FEE700008A
:10206000014B1868704700BFF00A002070B50026C9
:102070000C4D0D4C641BA410A64209D100F0C4FC09
:1020800000260A4D0A4C641BA410A64205D170BD5F
:1020900055F8043B98470136EEE755F8043B98475E
:1020A0000136F2E7CC2B0008CC2B0008CC2B000823
:1020B000D02B00080EB46FF0004100B59CB01DABF2
:1020C00002900690079104910848094953F8042B9F
:1020D0000591006802A9019300F0EAF80022029B32
:1020E0001A701CB05DF804EB03B07047F00A0020D2
:1020F0000802FFFF2DE9F04786460846384F05469F
:1021000015F8014BE65D16F0080634D12D2C34D1BC
:102110004FF001082C78851C002B5CD0102B09D1C6
:10212000302C07D1287800F0DF0058284ED110233A
:102130006C780235B8F1000F14BF4FF0004C6FF00F
:10214000004C0027BCFBF3F9384603FB19CAA4F185
:102150003006092E18D83446A34224DD7E1C07D051
:1021600081451DD301D1A2451ADB012700FB0340A5
:1021700015F8014BEBE72846C1E72B2C08BF2C785C
:10218000B04608BF851CC7E7A4F14106192E01D847
:10219000373CE1E7A4F16106192E04D8573CDBE790
:1021A0004FF0FF37E4E77B1C06D122236046CEF8D0
:1021B000003042B9BDE8F087B8F1000F00D04042CE
:1021C000002AF7D007B1691E1160F3E73024002B15
:1021D000B0D10823AEE7302CA4D00A23AAE700BF71
:1021E000992A000813460A46014602480068FFF78C
:1021F00081BF00BFF00A00202DE9F0478E688246BB
:102200009E420C469146984638D8B1F80CC01CF452
:10221000906F31D062692568096902EB42026F1A3A
:1022200002EBD272013355103B449D4238BF1D462C
:102230001CF4806F30D0294600F040FB064650B9B0
:102240000C234FF0FF30CAF80030A38943F040035D
:10225000A381BDE8F0873A46216900F0BBFAA38963
:1022600023F4906343F08003A38126613E442660FB
:1022700046466561ED1BA560464500D94646324697
:102280004946206800F0B4FAA36800209B1BA360B5
:1022900023681E442660DCE72A4600F069FB0646F8
:1022A0000028E2D12169504600F0BCFAC8E70000DE
:1022B0002DE9F04F1E468B899DB01B0607460D4643
:1022C00014460ED50B6963B9402100F0F7FA286077
:1022D000286120B90C233B604FF0FF30C9E0402358
:1022E0006B610023099320238DF8293030234FF0B0
:1022F000010ADFF898918DF82A30039623461E468E
:1023000013F8012B0AB1252AF9D1B6EB040B0BD037
:102310005B46224629463846FFF76EFF013000F043
:10232000A380099B5B4409933378002B00F09C80C9
:1023300000234FF0FF32CDE90523013604930793C4
:102340008DF853301A933446052214F8011B4F4878
:1023500000F032FA049BC0B9D90644BF20228DF8A0
:1023600053201A0744BF2B228DF8532032782A2A93
:1023700013D0344600200A26079A214611F8013B63
:10238000303B092B4BD970B914E0A0EB09000AFAD5
:1023900000F0184304902646D5E7039A111D1268F1
:1023A0000391002A01DB079204E0524243F002034A
:1023B0000792049323782E2B0CD163782A2B33D1E8
:1023C000039B02341A1D1B680392002BB8BF4FF009
:1023D000FF3305932E4E03222178304600F0ECF9AE
:1023E00038B14023801B03FA00F0049B01340343FF
:1023F000049314F8011B062226488DF8281000F0DB
:10240000DBF9002838D0244B13BB039B073323F0A0
:10241000070308330393099B434409936EE706FBC4
:10242000023201200C46A8E700230A26194601348F
:102430000593204610F8012B303A092A03D9002BC6
:10244000C8D00591C6E706FB012101230446F0E749
:1024500003AB00932A46114B04A93846AFF3008022
:10246000B0F1FF3F8046D6D1AB895B063FF534AF74
:1024700009981DB0BDE8F08F03AB00932A46074BC7
:1024800004A9384600F082F8EAE700BF992B00085B
:102490009F2B0008A32B000800000000F921000872
:1024A0002DE9F04791461F468A680B69064693421C
:1024B000B8BF1346C9F8003091F843200C46DDF848
:1024C000208012B10133C9F800302368990642BF59
:1024D000D9F800300233C9F80030256815F0060538
:1024E00007D104F1190AE368D9F800209B1AAB421E
:1024F00029DC94F843302268003318BF0123920688
:102500002ED404F1430239463046C047013021D071
:102510002368E56803F00603042B18BF0025D9F8EB
:1025200000204FF0000908BFAD1AA368226908BF58
:1025300025EAE5759342C4BF9B1AED181A344D4540
:102540001AD1002008E00123524639463046C047E0
:10255000013003D14FF0FF30BDE8F0870135C2E70D
:102560003020E11881F843005A1C94F845102244A9
:10257000023382F84310C4E701232246394630462D
:10258000C0470130E6D009F10109D8E72DE9F04351
:1025900006460C4601F14300097E85B06E29984637
:1025A00017460C9B00F0BB8024D8632939D00AD889
:1025B000002900F0C480582900F0928004F14205FF
:1025C00084F8421035E0642901D06929F6D12568E4
:1025D0001A6815F0800F02F104012CD012681960FE
:1025E000002A03DA2D23524284F84330DFF8C0C1B9
:1025F0000A233FE0732900F0A68008D86F2921D074
:102600007029DBD1226842F02002226003E07529A4
:1026100018D07829D2D17822DFF898C184F84520E3
:1026200062E01A6804F14205111D1960136884F80C
:102630004230012394E0126815F0400F196018BF72
:1026400012B2CDE7D4F800C01A681CF0800F02F176
:1026500004051D6001D0126803E01CF0400FFAD0A1
:1026600012886F290CBF08230A23DFF844C1002118
:1026700084F843106568002DA8BF2168A560A4BF39
:1026800021F0040121600AB9002D46D00546B2FBB5
:10269000F3F103FB112E1CF80EE0934205F801ED57
:1026A00039D9082B0BD12368DA0708D5236962686A
:1026B0009A42DEBF302305F8013C05F1FF35401B8F
:1026C0002061CDF800803B4603AA21463046FFF743
:1026D000E7FE013049D14FF0FF3005B0BDE8F0838F
:1026E000DFF8CCC084F845101D68216855F8042B2C
:1026F0001D600D060BD5CD0744BF41F020012160C0
:102700001AB9236823F0200323601023AFE74B0698
:1027100048BF92B2EFE70A46B9E70546C1E71A6833
:10272000D4F800C0151D61691CF0800F1D6013688E
:1027300001D0196003E01CF0400FFAD0198000238B
:1027400005462361BDE71A68111D1960156800214F
:102750006268284600F030F808B1401B606063688A
:102760002361002384F84330ABE723692A463946C6
:102770003046C0470130AED023689B0713D4E068D1
:10278000039B9842B8BF1846A7E701234A4639463B
:102790003046C04701309ED00135E368039A9B1A4A
:1027A000AB42F2DCEBE7002504F11909F5E700BFC5
:1027B000AA2B0008BB2B000810B5C9B202449042F6
:1027C000034601D1002303E01C7801308C42F6D18E
:1027D000184610BD0A44914200F1FF3300D1704702
:1027E00010B511F8014B914203F8014FF9D110BD1A
:1027F000884210B501EB020302D983421C4607D878
:10280000421E994208D011F8014B02F8014FF8E737
:1028100083189A1A9A4200D110BD14F8011D03F8CA
:10282000011DF7E738B50546002943D051F8043CAF
:102830000C1F002BB8BFE41800F0D0F81E4A136834
:10284000104633B9636014602846BDE8384000F094
:10285000CBB8A3420BD921686218934201BF1A6812
:102860005B685218226063600460EDE713465A68A3
:102870000AB1A242FAD919685818A0420BD12068AF
:102880000144581882421960DED110685268014430
:1028900019605A60D8E702D90C232B60D4E720686E
:1028A00021188A4201BF11685268091821606260CC
:1028B0005C60C9E738BD00BF180C0020F8B5CD1C1E
:1028C00025F0030508350C2D38BF0C25002D0646D4
:1028D00001DBA94203D90C2333600020F8BD00F0CE
:1028E0007DF821490A6814469CB9204F3B6823B9FA
:1028F0002146304600F062F838602946304600F044
:102900005DF8431C23D10C233046336000F06CF893
:10291000E3E723685B1B17D40B2B03D923601C440C
:10292000256004E06368A2420CBF0B605360304630
:1029300000F05AF804F10B00231D20F00700C21A22
:10294000CCD01B1AA350C9E722466468CCE7C41C4C
:1029500024F00304A042E3D0211A304600F02EF800
:102960000130DDD1CFE700BF180C00201C0C002087
:10297000F8B5074614460E4621B91146BDE8F840A1
:10298000FFF79CBF22B9FFF74DFF25462846F8BD4B
:1029900000F030F8A0420FD221463846FFF78EFFF4
:1029A00005460028F2D031462246FFF713FF314694
:1029B0003846FFF737FFE9E73546E7E738B5002344
:1029C000054C054608462360FFF7E0FA431C02D198
:1029D000236803B12B6038BDC81B0020014800F0FC
:1029E00011B800BFD01B0020014800F00CB800BF98
:1029F000D01B002051F8043C181F002BBCBF0B5803
:102A0000C018704770477047F8B500BFF8BC08BCE5
:102A10009E467047F8B500BFF8BC08BC9E4670479C
:102A2000081C3044586C80000000000000000000CA
:102A30000102030406070809000000000102030464
:102A40002531640043230000442300004623000096
:102A500047230000412300000A000000430000005B
:102A60004400000045000000460000004700000050
:102A70004100000042000000496E697420446F6EFE
:102A8000652E200A00000000253033782000000069
:102A90002530336C642000000020202020202020DE
:102AA00020202828282828202020202020202020FE
:102AB000202020202020202020881010101010100E
:102AC000101010101010101010040404040404045A
:102AD00004040410101010101010414141414141F4
:102AE00001010101010101010101010101010101D6
:102AF00001010101101010101010424242424242E6
:102B000002020202020202020202020202020202A5
:102B1000020202021010101020000000000000004D
:102B200000000000000000000000000000000000A5
:102B30000000000000000000000000000000000095
:102B40000000000000000000000000000000000085
:102B50000000000000000000000000000000000075
:102B60000000000000000000000000000000000065
:102B70000000000000000000000000000000000055
:102B80000000000000000000000000000000000045
:102B9000000000000000000000232D302B20006802
:102BA0006C4C00656667454647003031323334353A
:102BB00036373839414243444546003031323334A8
:0C2BC000353637383961626364656600A1
:042BCC0035010008C7
:042BD00011010008E7
:102BD4000C000000FF0000FF7F00FFFF007FFF00EC
:102BE40000FF0000FF7F00FFFF007FFF0000FF7F6A
:102BF40000FFFF00FFFF007F00000000CDCCCC3DB4
:102C0400CDCCCC3DCDCCCC3DCDCCCC3DCDCCCC3D38
:102C1400CDCCCC3DCDCCCC3DCDCCCC3DCDCCCC3D28
:102C24009A99993E9A99993E9A99993ECDCCCC3DE0
:102C3400CDCCCC3DCDCCCC3D9A99993E0000003F03
:102C44000000003F0000003F9A99993ECDCCCC3D56
:102C5400CDCCCC3D9A99993E0000003F0000003F46
:102C64000000003F9A99993ECDCCCC3DCDCCCC3DD3
:102C74009A99993E0000003F0000003F0000003F89
:102C84009A99993ECDCCCC3DCDCCCC3DCDCCCC3D50
:102C94009A99993E9A99993E9A99993ECDCCCC3D70
:102CA400CDCCCC3DCDCCCC3DCDCCCC3DCDCCCC3D98
:102CB400CDCCCC3DCDCCCC3DCDCCCC3DCDCCCC3D88
:102CC4000000000000000000000000000000000000
:102CD40000000000000001010101010101020202E3
:102CE40002020203030303030404040405050505A7
:102CF4000606060707070808080909090A0A0B0B4C
:102D04000B0C0C0D0D0D0E0E0F0F101011111212D5
:102D14001313141515161617171819191A1B1B1C3B
:102D24001D1D1E1F1F20212222232425252627287E
:102D340028292A2B2C2D2E2E2F30313233343536A0
:102D44003738393A3B3C3D3E3F4041424344454697
:102D54004748494A4C4D4E4F505153545556585973
:102D64005A5B5D5E5F606263646667686A6B6D6E22
:102D74006F717274757778797B7C7E8081838486A9
:102D840087898A8C8E8F9192949697999B9D9EA009
:102D9400A2A3A5A7A9AAACAEB0B2B3B5B7B9BBBD3F
:102DA400BFC1C2C4C6C8CACCCED0D2D4D6D8DADC4D
:102DB400DEE0E3E5E7E9EBEDEFF1F4F6F8FAFCFF2A
:102DC400FF0000FE0100FD0200FC0300FB0400FA0A
:102DD4000500F90600F80700F70800F60900F50AEF
:102DE40000F40B00F30C00F20D00F10E00F00F00E4
:102DF400EF1000EE1100ED1200EC1300EB1400EAEA
:102E04001500E91600E81700E71800E61900E51AAE
:102E140000E41B00E31C00E21D00E11E00E01F00B3
:102E2400DF2000DE2100DD2200DC2300DB2400DAC9
:102E34002500D92600D82700D72800D62900D52A6E
:102E440000D42B00D32C00D22D00D12E00D02F0083
:102E5400CF3000CE3100CD3200CC3300CB3400CAA9
:102E64003500C93600C83700C73800C63900C53A2E
:102E740000C43B00C33C00C23D00C13E00C03F0053
:102E8400BF4000BE4100BD4200BC4300BB4400BA89
:102E94004500B94600B84700B74800B64900B54AEE
:102EA40000B44B00B34C00B24D00B14E00B04F0023
:102EB400AF5000AE5100AD5200AC5300AB5400AA69
:102EC4005500A95600A85700A75800A65900A55AAE
:102ED40000A45B00A35C00A25D00A15E00A05F00F3
:102EE4009F60009E61009D62009C63009B64009A49
:102EF4006500996600986700976800966900956A6E
:102F040000946B00936C00926D00916E00906F00C2
:102F14008F70008E71008D72008C73008B74008A28
:102F24007500897600887700877800867900857A2D
:102F340000847B00837C00827D00817E00807F0092
:102F44007F80007E81007D82007C83007B84007A08
:102F54008500798600788700778800768900758AED
:102F640000748B00738C00728D00718E00708F0062
:102F74006F90006E91006D92006C93006B94006AE8
:102F84009500699600689700679800669900659AAD
:102F940000649B00639C00629D00619E00609F0032
:102FA4005FA0005EA1005DA2005CA3005BA4005AC8
:102FB400A50059A60058A70057A80056A90055AA6D
:102FC4000054AB0053AC0052AD0051AE0050AF0002
:102FD4004FB0004EB1004DB2004CB3004BB4004AA8
:102FE400B50049B60048B70047B80046B90045BA2D
:102FF4000044BB0043BC0042BD0041BE0040BF00D2
:103004003FC0003EC1003DC2003CC3003BC4003A87
:10301400C50039C60038C70037C80036C90035CAEC
:103024000034CB0033CC0032CD0031CE0030CF00A1
:103034002FD0002ED1002DD2002CD3002BD4002A67
:10304400D50029D60028D70027D80026D90025DAAC
:103054000024DB0023DC0022DD0021DE0020DF0071
:103064001FE0001EE1001DE2001CE3001BE4001A47
:10307400E50019E60018E70017E80016E90015EA6C
:103084000014EB0013EC0012ED0011EE0010EF0041
:103094000FF0000EF1000DF2000CF3000BF4000A27
:1030A400F50009F60008F70007F80006F90005FA2C
:1030B4000004FB0003FC0002FD0001FE0000FF0011
:1030C40000FE0100FD0200FC0300FB0400FA050001
:1030D400F90600F80700F70800F60900F50A00F4FD
:1030E4000B00F30C00F20D00F10E00F00F00EF10D6
:1030F40000EE1100ED1200EC1300EB1400EA1500D1
:10310400E91600E81700E71800E61900E51A00E4DC
:103114001B00E31C00E21D00E11E00E01F00DF2095
:1031240000DE2100DD2200DC2300DB2400DA2500A0
:10313400D92600D82700D72800D62900D52A00D4BC
:103144002B00D32C00D22D00D12E00D02F00CF3055
:1031540000CE3100CD3200CC3300CB3400CA350070
:10316400C93600C83700C73800C63900C53A00C49C
:103174003B00C33C00C23D00C13E00C03F00BF4015
:1031840000BE4100BD4200BC4300BB4400BA450040
:10319400B94600B84700B74800B64900B54A00B47C
:1031A4004B00B34C00B24D00B14E00B04F00AF50D5
:1031B40000AE5100AD5200AC5300AB5400AA550010
:1031C400A95600A85700A75800A65900A55A00A45C
:1031D4005B00A35C00A25D00A15E00A05F009F6095
:1031E400009E61009D62009C63009B64009A6500E0
:1031F400996600986700976800966900956A00943C
:103204006B00936C00926D00916E00906F008F7054
:10321400008E71008D72008C73008B74008A7500AF
:10322400897600887700877800867900857A00841B
:103234007B00837C00827D00817E00807F007F8014
:10324400007E81007D82007C83007B84007A85007F
:10325400798600788700778800768900758A0074FB
:103264008B00738C00728D00718E00708F006F90D4
:10327400006E91006D92006C93006B94006A95004F
:10328400699600689700679800669900659A0064DB
:103294009B00639C00629D00619E00609F005FA094
:1032A400005EA1005DA2005CA3005BA4005AA5001F
:1032B40059A60058A70057A80056A90055AA0054BB
:1032C400AB0053AC0052AD0051AE0050AF004FB054
:1032D400004EB1004DB2004CB3004BB4004AB500EF
:1032E40049B60048B70047B80046B90045BA00449B
:1032F400BB0043BC0042BD0041BE0040BF003FC014
:10330400003EC1003DC2003CC3003BC4003AC500BE
:1033140039C60038C70037C80036C90035CA00347A
:10332400CB0033CC0032CD0031CE0030CF002FD0D3
:10333400002ED1002DD2002CD3002BD4002AD5008E
:1033440029D60028D70027D80026D90025DA00245A
:10335400DB0023DC0022DD0021DE0020DF001FE093
:10336400001EE1001DE2001CE3001BE4001AE5005E
:1033740019E60018E70017E80016E90015EA00143A
:10338400EB0013EC0012ED0011EE0010EF000FF053
:10339400000EF1000DF2000CF3000BF4000AF5002E
:1033A40009F60008F70007F80006F90005FA00041A
:1033B400FB0003FC0002FD0001FE0000FF0100FE13
:1033C4000200FD0300FC0400FB0500FA0600F907F7
:1033D40000F80800F70900F60A00F50B00F40C00E9
:1033E400F30D00F20E00F10F00F01000EF1100EEEB
:1033F4001200ED1300EC1400EB1500EA1600E917B7
:1034040000E81800E71900E61A00E51B00E41C00B8
:10341400E31D00E21E00E11F00E02000DF2100DECA
:103424002200DD2300DC2400DB2500DA2600D92776
:1034340000D82800D72900D62A00D52B00D42C0088
:10344400D32D00D22E00D12F00D03000CF3100CEAA
:103454003200CD3300CC3400CB3500CA3600C93736
:1034640000C83800C73900C63A00C53B00C43C0058
:10347400C33D00C23E00C13F00C04000BF4100BE8A
:103484004200BD4300BC4400BB4500BA4600B947F6
:1034940000B84800B74900B64A00B54B00B44C0028
:1034A400B34D00B24E00B14F00B05000AF5100AE6A
:1034B4005200AD5300AC5400AB5500AA5600A957B6
:1034C40000A85800A75900A65A00A55B00A45C00F8
:1034D400A35D00A25E00A15F00A060009F61009E4A
:1034E40062009D63009C64009B65009A6600996776
:1034F40000986800976900966A00956B00946C00C8
:10350400936D00926E00916F009070008F71008E29
:1035140072008D73008C74008B75008A7600897735
:1035240000887800877900867A00857B00847C0097
:10353400837D00827E00817F008080007F81007E09
:1035440082007D83007C84007B85007A86007987F5
:1035540000788800778900768A00758B00748C0067
:10356400738D00728E00718F007090006F91006EE9
:1035740092006D93006C94006B95006A96006997B5
:1035840000689800679900669A00659B00649C0037
:10359400639D00629E00619F0060A0005FA1005EC9
:1035A400A2005DA3005CA4005BA5005AA60059A775
:1035B4000058A80057A90056AA0055AB0054AC0007
:1035C40053AD0052AE0051AF0050B0004FB1004EA9
:1035D400B2004DB3004CB4004BB5004AB60049B735
:1035E4000048B80047B90046BA0045BB0044BC00D7
:1035F40043BD0042BE0041BF0040C0003FC1003E89
:10360400C2003DC3003CC4003BC5003AC60039C7F4
:103614000038C80037C90036CA0035CB0034CC00A6
:1036240033CD0032CE0031CF0030D0002FD1002E68
:10363400D2002DD3002CD4002BD5002AD60029D7B4
:103644000028D80027D90026DA0025DB0024DC0076
:1036540023DD0022DE0021DF0020E0001FE1001E48
:10366400E2001DE3001CE4001BE5001AE60019E774
:103674000018E80017E90016EA0015EB0014EC0046
:1036840013ED0012EE0011EF0010F0000FF1000E28
:10369400F2000DF3000CF4000BF5000AF60009F734
:1036A4000008F80007F90006FA0005FB0004FC0016
:1036B40003FD0002FE0001FF0000000000A24A0416
:1036C400F40A0020000000000000000000000000D8
:1036D40000000000000000000000000000000000E6
:1036E40000000000000000000000000000000000D6
:1036F40000000000000000000000000000000000C6
:1037040000000000000000000000000000000000B5
:1037140000000000000000000000000000000000A5
:0437240000000000A1
:0400000508002015BA
:00000001FF
