:020000040800F2
:1000000000000120852D0008412400084324000839
:100010004524000847240008492400080000000087
:100020000000000000000000000000004B24000859
:100030004D240008000000004F240008512400084F
:10004000D52D0008D52D0008D52D0008D52D000888
:10005000D52D0008D52D0008D52D0008D52D000878
:10006000D52D0008D52D0008D52D0008D52D000868
:10007000D52D0008D52D0008D52D0008D52D000858
:10008000D52D0008D52D0008D52D00080000000052
:10009000000000000000000000000000D52D000856
:1000A000D52D00084D100008D52D0008D52D0008CD
:1000B000D52D0008D52D0008D52D0008D52D000818
:1000C000D52D0008D52D0008D52D0008D52D000808
:1000D000D52D000811240008D52D000800000000CF
:1000E000D52D0008D52D0008D52D000800000000F2
:1000F000000000000000000000000000D52D0008F6
:1001000000000000D52D0008D52D0008D52D0008D1
:1001100000000000000000000000000000000000DF
:10012000D52D000853240008F90F0008D52D00082C
:10013000D52D0008000000000000000000000000B5
:10014000000000000000000000000000D52D0008A5
:1001500055240008D52D0008D52D0008D52D000800
:10016000D52D0008D52D000800000000000000007B
:10017000000000000000000000000000000000007F
:1001800000000000D52D0008000000000000000065
:04019000D52D000861
:1001980010B5054C237833B9044B13B10448AFF3B9
:1001A80000800123237010BDA00100200000000082
:1001B800302E000808B5034B1BB103490348AFF3C1
:1001C800008008BD00000000A4010020302E0008B7
:1001D800034613F8012B002AFBD1181A013870477F
:1001E80081F0004102E000BF83F0004330B54FEAE0
:1001F80041044FEA430594EA050F08BF90EA020F4D
:100208001FBF54EA000C55EA020C7FEA645C7FEADF
:10021800655C00F0E2804FEA5454D4EB5555B8BF02
:100228006D420CDD2C4480EA020281EA030382EA73
:10023800000083EA010180EA020281EA0303362D05
:1002480088BF30BD11F0004F4FEA01314FF4801CD8
:100258004CEA113102D0404261EB410113F0004FEA
:100268004FEA03334CEA133302D0524263EB4303A1
:1002780094EA050F00F0A780A4F10104D5F1200E3F
:100288000DDB02FA0EFC22FA05F2801841F100019A
:1002980003FA0EF2801843FA05F359410EE0A5F16E
:1002A80020050EF1200E012A03FA0EFC28BF4CF09F
:1002B800020C43FA05F3C01851EBE37101F0004555
:1002C80007D54FF0000EDCF1000C7EEB00006EEB62
:1002D8000101B1F5801F1BD3B1F5001F0CD34908EC
:1002E8005FEA30004FEA3C0C04F101044FEA445243
:1002F80012F5800F80F09A80BCF1004F08BF5FEACA
:10030800500C50F1000041EB045141EA050130BDA9
:100318005FEA4C0C404141EB010111F4801FA4F14C
:100328000104E9D191F0000F04BF01460020B1FAA1
:1003380081F308BF2033A3F10B03B3F120020CDAD9
:100348000C3208DD02F1140CC2F10C0201FA0CF0B7
:1003580021FA02F10CE002F11402D8BFC2F1200C1C
:1003680001FA02F120FA0CFCDCBF41EA0C019040D2
:10037800E41AA2BF01EB0451294330BD6FEA04041B
:100388001F3C1CDA0C340EDC04F11404C4F1200206
:1003980020FA04F001FA02F340EA030021FA04F318
:1003A80045EA030130BDC4F10C04C4F1200220FA6F
:1003B80002F001FA04F340EA0300294630BD21FAAD
:1003C80004F0294630BD94F0000F83F4801306BF73
:1003D80081F480110134013D4EE77FEA645C18BF67
:1003E8007FEA655C29D094EA050F08BF90EA020FFE
:1003F80005D054EA000C04BF1946104630BD91EAF6
:10040800030F1EBF0021002030BD5FEA545C05D1F8
:100418004000494128BF41F0004130BD14F5800437
:100428003CBF01F5801130BD01F0004545F0FE41AB
:1004380041F470014FF0000030BD7FEA645C1ABFE0
:10044800194610467FEA655C1CBF0B46024650EA17
:10045800013406BF52EA033591EA030F41F4002143
:1004680030BD00BF90F0000F04BF0021704730B5C9
:100478004FF4806404F132044FF000054FF000019E
:1004880050E700BF90F0000F04BF0021704730B55F
:100498004FF4806404F1320410F0004548BF404234
:1004A8004FF000013EE700BF42004FEAE2014FEA89
:1004B80031014FEA02701FBF12F07F4393F07F4F64
:1004C80081F06051704732F07F4208BF704793F067
:1004D8007F4F04BF41F40021704730B54FF460747A
:1004E80001F0004521F000411CE700BF50EA01027D
:1004F80008BF704730B54FF000050AE050EA010226
:1005080008BF704730B511F0004502D5404261EB95
:1005180041014FF4806404F132045FEA915C3FF4D6
:10052800D8AE4FF003025FEADC0C18BF03325FEA73
:10053800DC0C18BF033202EBDC02C2F1200300FA24
:1005480003FC20FA02F001FA03FE40EA0E0021FA49
:1005580002F11444BDE600BF70B54FF0FF0C4CF437
:10056800E06C1CEA11541DBF1CEA135594EA0C0FE9
:1005780095EA0C0F00F0DEF82C4481EA030621EA24
:100588004C5123EA4C5350EA013518BF52EA03355F
:1005980041F4801143F4801338D0A0FB02CE4FF011
:1005A8000005E1FB02E506F00042E0FB03E54FF041
:1005B8000006E1FB03569CF0000F18BF4EF0010E39
:1005C800A4F1FF04B6F5007F64F5407404D25FEA35
:1005D8004E0E6D4146EB060642EAC62141EA5551E8
:1005E8004FEAC52040EA5E504FEACE2EB4F1FD0C2A
:1005F80088BFBCF5E06F1ED8BEF1004F08BF5FEAA8
:10060800500E50F1000041EB045170BD06F0004659
:1006180046EA010140EA020081EA0301B4EB5C0406
:10062800C2BFD4EB0C0541EA045170BD41F48011FE
:100638004FF0000E013C00F3AB8014F1360FDEBF23
:10064800002001F0004170BDC4F10004203C35DAFF
:100658000C341BDC04F11404C4F1200500FA05F382
:1006680020FA04F001FA05F240EA020001F0004223
:1006780021F0004110EBD37021FA04F642EB060199
:100688005EEA430E08BF20EAD37070BDC4F10C04C3
:10069800C4F1200500FA04F320FA05F001FA04F287
:1006A80040EA020001F0004110EBD37041F1000173
:1006B8005EEA430E08BF20EAD37070BDC4F120057E
:1006C80000FA05F24EEA020E20FA04F301FA05F2E6
:1006D80043EA020321FA04F001F0004121FA04F28E
:1006E80020EA020000EBD3705EEA430E08BF20EA5E
:1006F800D37070BD94F0000F0FD101F00046400098
:1007080041EB010111F4801F08BF013CF7D041EA19
:10071800060195F0000F18BF704703F0004652001D
:1007280043EB030313F4801F08BF013DF7D043EAEE
:100738000603704794EA0C0F0CEA135518BF95EAA4
:100748000C0F0CD050EA410618BF52EA4306D1D12B
:1007580081EA030101F000414FF0000070BD50EA4A
:10076800410606BF1046194652EA430619D094EAD4
:100778000C0F02D150EA013613D195EA0C0F05D1BE
:1007880052EA03361CBF104619460AD181EA030112
:1007980001F0004141F0FE4141F470014FF00000CA
:1007A80070BD41F0FE4141F4780170BD70B54FF065
:1007B800FF0C4CF4E06C1CEA11541DBF1CEA1355E5
:1007C80094EA0C0F95EA0C0F00F0A7F8A4EB0504C7
:1007D80081EA030E52EA03354FEA013100F08880BE
:1007E8004FEA03334FF0805545EA131343EA126387
:1007F8004FEA022245EA111545EA10654FEA00263C
:100808000EF000419D4208BF964244F1FD0404F5F4
:10081800407402D25B084FEA3202B61A65EB030550
:100828005B084FEA32024FF480104FF4002CB6EB0D
:10083800020E75EB030E22BFB61A754640EA0C008D
:100848005B084FEA3202B6EB020E75EB030E22BFCD
:10085800B61A754640EA5C005B084FEA3202B6EB0E
:10086800020E75EB030E22BFB61A754640EA9C00CD
:100878005B084FEA3202B6EB020E75EB030E22BF9D
:10088800B61A754640EADC0055EA060E18D04FEA5B
:10089800051545EA16754FEA06164FEAC30343EAFB
:1008A80052734FEAC2025FEA1C1CC0D111F4801FC8
:1008B8000BD141EA00014FF000004FF0004CB6E7C1
:1008C80011F4801F04BF01430020B4F1FD0C88BF60
:1008D800BCF5E06F3FF6AFAEB5EB030C04BFB6EB6B
:1008E800020C5FEA500C50F1000041EB045170BD5E
:1008F8000EF0004E4EEA113114EB5C04C2BFD4EB8B
:100908000C0541EA045170BD41F480114FF0000E0E
:10091800013C90E645EA060E8DE60CEA135594EA8A
:100928000C0F08BF95EA0C0F3FF43BAF94EA0C0F8D
:100938000AD150EA01347FF434AF95EA0C0F7FF402
:1009480025AF104619462CE795EA0C0F06D152EA56
:1009580003353FF4FDAE1046194622E750EA41063A
:1009680018BF52EA43067FF4C5AE50EA41047FF44B
:100978000DAF52EA43057FF4EBAE12E74FF0FF3CB0
:1009880006E000BF4FF0010C02E000BF4FF0010C81
:100998004DF804CD4FEA410C7FEA6C5C4FEA430CFA
:1009A80018BF7FEA6C5C1BD001B050EA410C0CBF49
:1009B80052EA430C91EA030F02BF90EA020F0020AB
:1009C800704710F1000F91EA030F58BF994208BF12
:1009D80090422CBFD8176FEAE37040F001007047CF
:1009E8004FEA410C7FEA6C5C02D150EA013C07D126
:1009F8004FEA430C7FEA6C5CD6D152EA033CD3D071
:100A08005DF8040B704700BF8446104662468C466A
:100A18001946634600E000BF01B5FFF7B7FF00289D
:100A280048BF10F1000F01BD4DF808EDFFF7F4FFC6
:100A38000CBF012000205DF808FB00BF4DF808ED51
:100A4800FFF7EAFF34BF012000205DF808FB00BF74
:100A58004DF808EDFFF7E0FF94BF012000205DF896
:100A680008FB00BF4DF808EDFFF7CEFF94BF01204B
:100A780000205DF808FB00BF4DF808EDFFF7C4FF44
:100A880034BF012000205DF808FB00BF4FEA410297
:100A9800B2F1E04324BFB3F5001CDCF1FE5C0DD9D4
:100AA80001F0004C4FEAC0024CEA5070B2F1004F1E
:100AB80040EB830008BF20F00100704711F0804F21
:100AC80021D113F13872BCBF01F00040704741F4E6
:100AD80080114FEA5252C2F11802C2F1200C10FAEA
:100AE8000CF320FA02F018BF40F001004FEAC123CE
:100AF8004FEAD32303FA0CFC40EA0C0023FA02F372
:100B08004FEA4303CCE77FEA625307D150EA013347
:100B18001EBF4FF0FE4040F44000704701F0004017
:100B280040F0FE4040F40000704700BF53B94AB996
:100B3800002908BF00281CBF4FF0FF314FF0FF30DD
:100B480000F074B9ADF1080C6DE904CE00F006F8B8
:100B5800DDF804E0DDE9022304B070472DE9F04731
:100B6800089E04468846002B40F085808A42154638
:100B780048D9B2FA82F24AB1C2F1200701FA02F367
:100B880020FA07F7954047EA030894404FEA154EC4
:100B9800230CB8FBFEF71FFA85FC0EFB178843EA07
:100BA800084307FB0CF1994209D9EB1807F1FF300C
:100BB80080F0E380994240F2E080023F2B445B1AC8
:100BC800A4B2B3FBFEF00EFB103344EA034400FB6F
:100BD8000CFCA44509D92C1900F1FF3380F0CB8017
:100BE800A44540F2C88002382C4440EA0740A4EBF0
:100BF8000C0400271EB1D4400023C6E9004339463F
:100C0800BDE8F087002A53D0B2FA82F2002A40F0F9
:100C1800B680491B4FEA154E1FFA85F80127B1FB2C
:100C2800FEFC230C0EFB1C1143EA014308FB0CF1EC
:100C3800994207D9EB180CF1FF3002D2994200F221
:100C4800EC808446591AA3B2B1FBFEF00EFB1014D7
:100C580043EA044408FB00F8A04507D92C1900F121
:100C6800FF3302D2A04500F2DC801846A4EB08044A
:100C780040EA0C40BEE78B4208D9002E78D0002706
:100C8800C6E9000138463946BDE8F087B3FA83F76C
:100C98007FB98B4202D3824200F2BD80841A61EB95
:100CA800030301209846002EA9D0C6E90048A6E70C
:100CB800FFDEC7F12005BB4022FA05FC4CEA030C15
:100CC80001FA07F420FA05F821FA05F34FEA1C4E59
:100CD80048EA0404B3FBFEF9210C0EFB19331FFA92
:100CE8008CF841EA034309FB08FA9A4502FA07F22D
:100CF80000FA07F10BD91CEB030309F1FF3080F070
:100D080088809A4540F28580A9F102096344A3EBE3
:100D18000A03A4B2B3FBFEF00EFB103344EA03440B
:100D280000FB08F8A04508D91CEB040400F1FF33C8
:100D38006BD2A04569D90238644440EA0940A4EB63
:100D48000804A0FB02894C45C6464B4654D351D0F3
:100D5800002E69D0B1EB0E0264EB030404FA05F52A
:100D680022FA07F3FC401D43C6E90054002746E772
:100D78003746304643E7184637E707461FE7C2F1CC
:100D8800200320FA03F7954001FA02F021FA03F351
:100D98004FEA154E3843010CB3FBFEF71FFA85F8EE
:100DA8000EFB173341EA034107FB08F38B4204FAB1
:100DB80002F407D9691807F1FF3C28D28B4226D9DB
:100DC800023F2944CB1A81B2B3FBFEF00EFB10336D
:100DD80041EA034100FB08F38B4207D9691800F187
:100DE800FF3C10D28B420ED902382944C91A40EA76
:100DF800074714E74145ABD2B8EB020E69EB0C028A
:100E080001381346A4E76046F0E7184695E76746B9
:100E1800D8E781467BE7384645E7ACF1020C2B441E
:100E280010E702382C4421E73746E8E6704700BF50
:100E380010B52F4A136823F00F0343F00203136021
:100E48001368A2F5E632136823F4404343F40043E1
:100E5800136002F5E432136843F480331360254BC2
:100E68001B6813F4003FFAD0224B5A6822491140FC
:100E7800224A0A435A605A6822F440325A601A6871
:100E880042F080721A601B4B1B6813F0007FFAD087
:100E9800184B9A6822F0F0029A609A6822F4E0529D
:100EA80042F480529A609A6822F460429A609A6882
:100EB80022F0030242F002029A600E4B9B6803F094
:100EC8000C03082BF9D10E4C204601F01DFF0D4AEA
:100ED800136843F004031360204601F03BFF054A02
:100EE800D2F88C3023F08073C2F88C3010BD00BF6C
:100EF800003C0240003802400080BFFF192A400031
:100F080000BD010510E000E010B582B02D4B5A6C11
:100F180042F480425A645A6C02F480420192019A67
:100F28001A6C42F080521A641B6C03F080530093D1
:100F3800009B2549CA6822F4E0621204120C234B74
:100F48001343CB60FFF774FF00F0A2F800F026FA15
:100F580000F0E6F800F086F91D4B1E4A1A601E4B99
:100F68001E4A1A601E4B1F4A1A6001F021FA01F04E
:100F7800D1F800F0EDFB00F007FC00F021FC4FF485
:100F8800407000F095FF002401E00134E4B20B2C1E
:100F9800F9D8204601F052F800F03CFC0022114636
:100FA800114800F028FF00F06BFB4FF4407000F090
:100FB8007FFF4FF47A7001F0B7FE0C4B1B78002BC3
:100FC800FBD0E2E70038024000ED00E00003FA053C
:100FD800740E00202C0100206C0E00203918000827
:100FE800680E0020391A0008482E00085601002013
:100FF800124B4FF400129A60A3F5B233DA6842F04C
:101008000102DA600E490A6822F001020A606039BA
:101018000A6822F001020A6018310A6822F0010207
:101028000A60DA6822F40072DA60DA6822F4806210
:10103800DA60DA6822F48072DA607047006402408D
:10104800886402400F4B6FF001021A610E4B1B7847
:10105800DBB2272B05D80C4A13780133DBB21370A7
:101068007047094B00221A70064B1A6822F00102D9
:101078001A60DA6822F00102DA60044B01221A7061
:10108800704700BF00000140BC010020560100204D
:1010980070B58AB0002406940794089409941C4BF0
:1010A8001A6B42F004021A631A6B02F004020392EC
:1010B800039A1A6B42F080021A631A6B02F08002DC
:1010C8000292029A1A6B42F001021A631B6B03F038
:1010D80001030193019B0F484FF0005383610E4DAC
:1010E8000E4BAB614FF4005304930126059604A9F7
:1010F80001F0ADF940F6FF73049305960694079442
:10110800089404A9284601F0A2F90AB070BD00BFEE
:101118000038024000080240000002400000FF0FB3
:101128002DE9F04F91B0464B1A6B42F480021A63D6
:101138001B6B03F480030093009B3C22002101A851
:1011480001F06AFE3F4D0521284601F01FFA4FF0D5
:10115800406BCDF828B0DFF808A1CDF804A03A4BD1
:1011680002934FF04009CDF80C900024099405949F
:1011780006944FF40068CDF81C804FF40057089788
:1011880004944FF400360B960C9401AA05212846C6
:1011980001F000FB0121284601F0F8F9CDF828B04C
:1011A800CDF804A0294B0293CDF80C90099405942E
:1011B8004FF480630693CDF81C80089704940B962F
:1011C8000C9401AA0121284601F0E4FA02212846DC
:1011D80001F0DCF9CDF828B0CDF804A01C4B02933F
:1011E800CDF80C90099405940694CDF81C800897C6
:1011F80004940B960C9401AA0221284601F0CAFA1D
:10120800144BDB68C3F302231A1D062A01D9DA1E20
:1012180000E000224FF0FF339340DB4303F001036B
:101228001B010D4A82F83A334FF0806353600B4A32
:10123800136843F01003136011B0BDE8F08F00BFCE
:1012480000380240006402405401002010080020C9
:10125800C401002000ED00E000E100E0406402402D
:101268001400024030B595B000240F9410941194E6
:10127800129413942022214607A801F0CDFD019471
:10128800029403940494059406943C4B5A6C42F0DF
:1012980001025A645B6C03F001030093009B68220F
:1012A800374B1A60374B1B683749A1FB0313DB0A1E
:1012B80036490B601192364D0FA9284601F028FCDB
:1012C8002B6823F080032B600794089409941C234F
:1012D8000A930B940C940D940E940DEB03020121C8
:1012E800284601F061FCAB6923F00403AB61AB69EC
:1012F80023F00803AB616023079345230A930894FE
:10130800099407AA1021284601F04EFCAB6923F482
:101318008063AB61AB6923F40063AB616B6823F056
:1013280070036B60AB6823F08003AB600194029498
:1013380003948DF81040ADF812404FF40053059314
:10134800069401A9284601F04FFC124BDB68C3F351
:1013580002231A1D062A01D9DA1E00E000224FF0E6
:10136800FF339340DB4303F002031B010A4A82F870
:1013780019334FF00073136015B030BD00380240C8
:10138800140E00209C010020B5814E1B100E002079
:101398000000014000ED00E000E100E010B590B071
:1013A800002409940A940B940C940D940E940F94B1
:1013B8000694244B5A6C42F010025A645A6C02F09C
:1013C80010020292029A1A6B42F002021A631B6B15
:1013D80003F002030193019BC023039302230493A8
:1013E80003230593012307930723089303A91648AA
:1013F80001F02DF8154BDB68154B83F825432022A7
:101408005A604FF4165309930A940B940C940C23C6
:101418000D930E940F9404F1804404F5883409A9BF
:10142800204601F0F9F9236923F4904323616369A5
:1014380023F02A036361E36843F40053E36010B0C8
:1014480010BD00BF003802400004024000ED00E07B
:1014580000E100E0414049B2CBB281EA0311C9B2D0
:10146800000A40EA012000B280EA111080EAC100B7
:1014780080B27047044B1860596000225A814FF6B9
:10148800FF7199811A727047180E002038B57E28AE
:101498001DD0264B1B7A002B3BD0244B00221A72FE
:1014A80080F02000214B5C8923449873012C07D9D4
:1014B800A31E1E4D2B44997BA889FFF7CBFFA8815B
:1014C8000134A4B2194B5C81402C28D038BD174B8D
:1014D8001B7A4BB1154B00221A72144B00225A8109
:1014E8004FF6FF729A81F1E7104B59890129F4D917
:1014F80098894A1E1A44927B8C1E23449B7B43EA9C
:1015080002239842E9D10A4850F80A3CA1B2984708
:10151800E3E77D28C6D1054B01221A72D6E70022DF
:101528005A814FF6FF729A81D0E700BF180E00204B
:10153800260E0020F8B504460D46294B1B680BB152
:101548007E2098474FF6FF7708E086F02006244B68
:101558001B680BB130469847013DEDB295B114F8C0
:10156800016B31463846FFF775FF0746A6F17D0344
:10157800DBB2012BEBD81A4B1B68002BE5D07D2082
:101588009847E2E7FCB2A4F17D03DBB2012B16D940
:10159800134B1B680BB120469847C7F30727A7F1E1
:1015A8007D03DBB2012B12D90D4B1B680BB13846FA
:1015B80098470B4B1B680BB17E209847F8BD084B2A
:1015C8001B680BB17D20984784F02004E0E7044BAA
:1015D8001B680BB17D20984787F02007E4E700BF20
:1015E800180E00200023022B04D8CA5CC254013311
:1015F800DBB2F8E7704700000022022A18D810B4BE
:101608008B5C0C4CE35C07EE903AF8EEE77A0A4BF9
:1016180093ED007A67EE877AFCEEE77A17EE903A58
:1016280083540132D2B2022AEAD95DF8044B7047DA
:10163800704700BF00000020000100200022022A9D
:1016480018D810B48B5C0C4CE35C07EE903AF8EEBB
:10165800E77A0A4B93ED007A67EE877AFCEEE77A31
:1016680017EE903A83540132D2B2022AEAD95DF8D1
:10167800044B7047704700BF0000002000010020A5
:101688002DE9F04385B0002556E0A14633E001EB93
:1016980041012D4B194403A8FFF7AEFF06E001EB0B
:1016A8004101294B194403A8FFF7C8FF09EB0611AC
:1016B8009DF80E3000939DF80D309DF80C2089B2EE
:1016C800284600F049FC0134E4B20F2C2AD804EB78
:1016D800071303EB4513FF2B24DCBEB206EB4501D1
:1016E800090189B2214489B2B8F1000FCDD1C4F102
:1016F8000F095FFA89F9154801EB4103C218C35C69
:10170800507803449278134440F2FD229342BED0AD
:10171800002BC4D001EB41010C4B194403A8FFF77F
:101728008DFFC3E70137FFB2012F03D807F0010887
:101738000024CAE70135EDB2072D01D80027F3E7E9
:1017480005B0BDE8F08300BF0C050020CC010020E7
:1017580038B5002501E00135EDB20F2D0ED8002473
:101768000F2CF8D804EB051000EB40000449054B9A
:101778001844FFF737FF0134E4B2F1E738BD00BF82
:10178800C00100200C05002038B5002501E0013516
:10179800EDB20F2D0ED800240F2CF8D804EB05104D
:1017A80000EB40000449054B1844FFF71BFF0134C8
:1017B800E4B2F1E738BD00BFC0010020CC01002031
:1017C80070B582B000261CE00135EDB2012D16D8A7
:1017D80000240F2CF8D804EB051303EB4613FF2B5A
:1017E800F2DC0B4A04EB05119378009353781278D6
:1017F80089B2304600F0B0FB0134A4B2E9E7013603
:10180800F6B2072E01D80025E0E702B070BD00BF90
:10181800C001002008B5044B1B681BB1034A1278AD
:1018280002B1984708BD00BF6C0E002005010020DA
:101838002DE9F8436FF0070855E0E6B224E00134DB
:1018480064B22D4B1B785A1E94421DDA621C07EEB7
:10185800102AB8EEC77A07EE903AF8EEE77A87EEE4
:10186800270A264B1B68002BE9D041462846984793
:101878000028E4D0224B1B78002BDED11E4B1E78AB
:10188800361BF6B2013EF6B207EB470706EB4606F3
:1018980071001C4B194403311B483844FFF7A2FE62
:1018A800002304E0194A9621D1540133DBB2022BFC
:1018B800F8D901356DB2082D11DC05F1080709F1D9
:1018C8000800000180B210FA87F7BFB20C4B1E78EF
:1018D8001EB1094B1E78013EF6B20024B1E708F1AB
:1018E80001084FFA88F8C146B8F1080F02DC6FF01A
:1018F8000705E0E7BDE8F88304010020680E002032
:10190800C3010020D00400200C050020C8010020DD
:101918002DE9F04782B0414B1C78B4FA84F84FEABD
:101928005818002318E03E4A04EB440041001144D3
:101938001944C9784FEA4800404445002A441A44EB
:10194800D2788A1A3749097892FBF1F202A9194428
:1019580001F8042C0133DBB2022BE4D96FF007073E
:1019680053E0013464B22F4B1B785A1E94422DDA8F
:1019780004F1010A07EE90AAB8EEE77A07EE903A6A
:10198800F8EEE77A87EE270A274B1B68002BE8D08A
:101998003946284698470028E3D00023022B15D85B
:1019A8004FEA4801414448001D4A02441A44D2788B
:1019B80002A9194411F9041C0AFB012106EB46008F
:1019C8001A4A0244D1540133DBB2E7E701356DB25C
:1019D800082D18DC05F1080609F108031B019BB264
:1019E80013FA86F6B6B206EB46020C4B1B7803EBED
:1019F800430359000A4B194403310C481044FFF7BC
:101A0800F1FD0024AFE701377FB2B946082F02DCA9
:101A18006FF00705DCE702B0BDE8F087C3010020DE
:101A2800D004002004010020680E00200C050020CE
:101A380001FB01F100FB0010DFED077A20EE270A19
:101A480007EE900AF8EEE77AF4EEC07AF1EE10FAB3
:101A580094BF0120002070470000804282B00191AD
:101A6800F2EE007A20EE270A07EE900AF8EEE77AFF
:101A7800B1EE407AF4EEC77AF1EE10FA14DBF4EE28
:101A8800C07AF1EE10FA12D807EE901AF8EEE77A5B
:101A9800B4EEE77AF1EE10FA0BD8F4EEC07AF1EE74
:101AA80010FA08D9002000E0002002B0704700209A
:101AB800FBE70020F9E70120F7E70000000000003D
:101AC8002DE9F8432DED028B08EE100AF2EE008A9C
:101AD80060EE288A0846FEF7D5FC8046894620A392
:101AE800D3E90023FEF738FD06460F4618EE900AA4
:101AF800FEF7DAFC04460D4602460B4630463946E8
:101B0800FEF774FBFEF7C2FF07EE100AF8EEC87A7C
:101B1800F1EE476AF4EEE67AF1EE10FA19DDF4EE2A
:101B2800C77AF1EE10FA19D50FA3D3E9002320469E
:101B38002946FEF711FD0EA3D3E90023FEF756FB55
:101B480002460B4640464946FEF778FF10B1012091
:101B580000E00020BDEC028BBDE8F8830020F9E727
:101B6800666666666666E63FCDCCCCCCCCCCEC3FF0
:101B7800000000A02449F23F82B00191F2EE007A01
:101B880020EE270A77EEC07A07EE100AB8EEC77A79
:101B9800F1EE676AB4EEE67AF1EE10FA04D9B4EE23
:101BA800E77AF1EE10FA0FDB9DED017AB8EEC77A0D
:101BB800F4EEC76AF1EE10FA08DAB4EEE77AF1EE5D
:101BC80010FA06DA002002E0002000E0012002B04E
:101BD80070470120FBE782B00191F2EE007A20EE17
:101BE800270A77EEC07A07EE100AB8EEC77AF1EE48
:101BF800676AB4EEE67AF1EE10FA04DAB4EEE77A40
:101C0800F1EE10FA0FD89DED017AB8EEC77AF4EE2E
:101C1800C76AF1EE10FA08DAB4EEE77AF1EE10FAD4
:101C280006DA002002E0002000E0012002B0704740
:101C38000120FBE782B00191F2EE007A20EE270A3C
:101C480077EEC07A07EE100AB8EEC77AF1EE676A47
:101C5800B4EEE67AF1EE10FA04D9B4EEE77AF1EED2
:101C680010FA0FDB9DED017AB8EEC77AF4EEC76A79
:101C7800F1EE10FA08D9B4EEE77AF1EE10FA06D9C7
:101C8800002002E0002000E0012002B0704701209F
:101C9800FBE700002038C0B2164B03EB40035B782B
:101CA80013F0010F00D0013931B9124B13F81000AD
:101CB800000900F00E007047012907D002290AD058
:101CC800032912D0042912D00020F2E7094B13F897
:101CD80010004008EDE7074A12F81000800000F0F5
:101CE8000C0003F00203184370471809E1E758088D
:101CF800DFE700BF4C2E00082DE9F04F83B00190BC
:101D08000F46934690464FF0FF0A2CE000EB09106F
:101D180000EB40001D491E4B1844FFF763FC0134DB
:101D2800E4B2013DEDB22046FB1C9C4213DC26FACE
:101D380005F313F0010FE9D1F343EB4013F0010F62
:101D4800EDD000EB091000EB40001249104B18448D
:101D5800FFF748FCE3E708F101085FFA88F80AF1A1
:101D6800010A5FFA8AFAC1460BF1060398450ADCB4
:101D7800B8F10F0F07D851460198FFF78BFF0646B9
:101D88003C460325CFE703B0BDE8F08FC80100202B
:101D9800CC010020500100202DE9F84F0746884665
:101DA80093469A469DF8289000252E462C460CE02E
:101DB80009F1050212FB06F25BFA82F2D2B2785DF3
:101DC800FFF79AFF0134E4B201353846FEF700FA0E
:101DD800A8420ED90AF1030313FB04F158FA81F162
:101DE800C9B20B440E2BE3DD0136F6B2414600249E
:101DF800DEE7BDE8F88F70B582B006460C4615469A
:101E0800FEF7E6F9E11C11FB00F1C9B2C1F11001BE
:101E180001EBD17141F347016A1DD2B2C2F1100240
:101E280002EBD27221EAE17100952346C2F3470220
:101E3800C9B23046FFF7B0FF02B070BDF8B5002454
:101E480026460FE0FFF7A0FC04EB440004EB8007F4
:101E580013483844002201210330FFF7CCFF1BE070
:101E68000134E4B2042C1AD80025002DF8D105EB72
:101E7800450253000B4AD15C6B4203EB430304EB6E
:101E8800440204EB82021344054AD35C9942E7D129
:101E98000136F6B2012ED5D00135EDB2E5E7F8BD31
:101EA80058010020D004002008B5FFF7C7FF08BD7F
:101EB80030B40021224B1970224B4FF40072DA60C3
:101EC8009A604FF400229A604FF40062DA609A60D8
:101ED8004FF400129A601C4C63681B0C1B040343EC
:101EE80063601A4D6B681B0C1B0403436B60184A34
:101EF80053681B0C1B0418435060164B196121686A
:101F080041F001012160296841F00101296011684F
:101F180041F001011160DA6842F40072DA60DA68AF
:101F280042F48062DA60DA6842F48072DA60682229
:101F38005A621A6842F001021A6030BC704700BF4A
:101F48005601002000640240886402402864024070
:101F580040640240000001402DE9F0439DF81CC098
:101F6800002743E001EB4104E50005EB07080126E3
:101F78008640F64336B21F4C34F818E006EA0E0ED7
:101F880024F818E005F1080EBE4434F81E9006EA5D
:101F9800090924F81E9010353D4434F8159006EAD6
:101FA800090624F8156003FA07F6C6F3C01686403A
:101FB80034F8189046EA090624F8186002FA07F679
:101FC800C6F3C016864034F81E8046EA080624F890
:101FD8001E600CFA07F6C6F3C016864034F815E002
:101FE80046EA0E0624F815600137FFB2072FB9D963
:101FF800BDE8F08310080020F8B501460A237BB13C
:102008005A1E0C4D03EB43035C002F1902EB4206EA
:1020180073002B441E682E519B88BB80D3B2EEE719
:10202800044B054A1088927818809A70D81CFFF7DC
:10203800D9FAF8BDD0040020CC04002008B5314AF4
:1020480082FB0032C317C3EB62031A4603EB430358
:102058009900431ADBB22C490B7030322B4B9A7023
:1020680000225A700B78DBB20B2B0AD8DFE803F09A
:102078000613191D23272B31353B3F45234B43229C
:102088001A70234B1868204B1B7803EB4303184442
:10209800FFF7B2FF08BD1D4B43221A7023225A7066
:1020A800EFE71A4B44221A70EBE7184B45221A70D7
:1020B80062225A70E5E7154B45221A70E1E7134B87
:1020C80046221A70DDE7114B46221A7023225A70F5
:1020D800D7E70E4B47221A70D3E70C4B41221A70F0
:1020E80062225A70CDE7094B41221A70C9E7074BA3
:1020F80042221A7062225A70C3E7044B42221A70B5
:10210800BFE700BFABAAAA2A99010020CC0400208F
:10211800740E0020002009281ED830B403E00130D6
:10212800C0B2092816D804460C4D430003445A008F
:10213800A9180023AB544B708B70022BEFD804EB1B
:1021480044025100054A0A441A440021D17001335F
:10215800DBB2F2E730BC7047704700BFD004002004
:10216800034B1B6813F0800FFAD0014B586070477F
:10217800001001402138202865D8DFE800F0111848
:1021880064641F266464646464646464642D3464F1
:1021980064644950575E646464646464643B4200E8
:1021A800294B2A4A1A602A4B2A4A1A607047264B3A
:1021B800294A1A60264B274A1A607047224B234A3D
:1021C8001A60234B254A1A6070471F4B224A1A602F
:1021D8001F4B224A1A6070471B4B1C4A1A601C4B43
:1021E8001F4A1A607047184B1B4A1A60184B1C4A42
:1021F8001A607047144B154A1A60154B194A1A6031
:102208007047114B144A1A60114B164A1A607047EE
:102218000D4B0E4A1A600E4B134A1A6070470A4B50
:102228000D4A1A600A4B104A1A607047064B074A53
:102238001A60074B0D4A1A607047034B064A1A602A
:10224800034B0A4A1A6070476C0E002039180008C0
:10225800680E0020391A000819190008811B0008A7
:10226800651A0008C91A0008DF1B00083D1C000891
:10227800512802D0522804D07047044B044A1A60EF
:102288007047024B034A1A60704700BF740E002063
:102298002C0100200801002010B5044600783D4BB1
:1022A8003D4A1A6020283ED028D9602847D0702897
:1022B80051D1637807EE903AF8EE677AF3EE046A44
:1022C80087EEA67A354B83ED007AA278344B1A70E4
:1022D800E078FFF74FFF2279324B1A706279324B60
:1022E8001A70A279314B1A70E079FFF7C1FFFFF736
:1022F800C7F94FF44070FFF7DBFD13E011282AD12E
:10230800637807EE903AF8EE677AF3EE046A87EEA0
:10231800A67A224B83ED007AFFF7B2F94FF44070AA
:10232800FFF7C6FD10BD62781D4B1A70FFF710FA53
:10233800FFF7A6F94FF44070FFF7BAFDF2E76278AD
:102348001A4B1A70FFF720FAFFF79AF94FF440700A
:10235800FFF7AEFDE6E7A0F12103DBB22E2B0BD988
:10236800A0F15103DBB20E2BDCD8FFF781FF01216E
:102378000846FFF7DFF8D5E7FFF7FCFE6278094B60
:102388001A70A278084B1A7001210846FFF7D2F894
:10239800C8E700BF700E0020B11E00080001002031
:1023A8000501002004010020C3010020BD01002018
:1023B80000B585B010491148FFF75CF8104B1A6852
:1023C8000092009A5A680092009ADA6842F0200255
:1023D800DA605A6942F001025A610A4A01AB07CA37
:1023E80003C323F8022B120C1A700B2101A8FFF764
:1023F800A1F805B05DF804FBA122000869210008D6
:10240800001001400C2F00080A4B1B6813F0200F26
:1024180004D0084BDB6813F0200F00D1704710B5CB
:10242800044B5C68E4B22046FFF730F82046FFF71B
:1024380097FE10BD001001407047FEE7FEE7FEE77B
:10244800FEE7704770477047704770477047F0B4B1
:102458000C6894FAA4F4B4FA84F453E08E688268A1
:1024680093FAA3F5B5FA85F56D00032707FA05F584
:1024780022EA050293FAA3F5B5FA85F56D0006FA86
:1024880005F52A438260CD68426893FAA3F6B6FA46
:1024980086F70126BE4022EA060293FAA3F6B6FAA8
:1024A80086F6B5402A4342600E69C26893FAA3F5DE
:1024B800B5FA85F56D00032707FA05F522EA050246
:1024C80093FAA3F5B5FA85F56D0006FA05F52A43E2
:1024D800C2604A68022A22D04A68056893FAA3F6BD
:1024E800B6FA86F67600032707FA06F625EA060501
:1024F80093FAA3F3B3FA83F35B0002FA03F32B43D3
:10250800036001340B6833FA04F23CD00122A24084
:102518001340F6D04A68013A012AC5D89EE793FAD3
:10252800A3F2B2FA82F2072A15D84E69026A93FA20
:10253800A3F5B5FA85F5AD000F2707FA05F522EAE8
:10254800050293FAA3F5B5FA85F5AD0006FA05F587
:102558002A430262C0E74D69466A1A0A92FAA2F74C
:10256800B7FA87F7BF004FF00F0C0CFA07F726EA07
:10257800070692FAA2F2B2FA82F2920005FA02F281
:1025880032434262A8E70020F0BC704711F5803F53
:1025980035D010B46C4B5C5C035923F00103035134
:1025A8006A4B98424BD06A4B98425FD0674B98422F
:1025B80060D0674B984261D0644B984262D0644BBC
:1025C800984263D0614B984264D0614B984265D081
:1025D8005E4B984266D05E4B984267D05B4B984200
:1025E80068D05B4B984269D0584B98426AD0584B98
:1025F80098426BD0554B98426CD0564B22E0534BC7
:10260800984204D0524B98420DD001207047A3F550
:1026180020531A6942F400121A611A6922F400124E
:102628001A6100207047A3F530531A6942F48002FA
:102638001A611A6922F480021A6100207047002981
:10264800B1D1454B00221A605A609A60DA601A616B
:1026580021225A61035923F060630351002940D1B4
:102668003F23836000205DF8044B704700299DD10B
:102678003A4BE7E701299CD1394BE3E701299BD184
:10268800384BDFE702299AD1374BDBE7022999D18A
:10269800364BD7E7032998D1354BD3E7032997D190
:1026A800344BCFE7042996D1334BCBE7042995D196
:1026B800324BC7E7052994D1314BC3E7052993D19C
:1026C800304BBFE7062992D12F4BBBE7062991D1A2
:1026D8002E4BB7E7072902D003F59763B2E72C4BD7
:1026E800B0E701290DD0022910D0032913D00429FD
:1026F80016D0052918D006291BD007291ED001207D
:10270800B1E74FF4746383600020ACE74FF47C13A7
:1027180083600020A7E74FF0746383600020A2E77E
:102728003F23C36000209EE74FF47463C36000201A
:1027380099E74FF47C13C360002094E74FF074636B
:10274800C36000208FE700BF182F00080060024018
:1027580000640240B8640240106002401064024005
:102768002860024028640240406002404064024001
:102778005860024058640240706002407064024031
:102788008860024088640240A0600240A064024061
:10279800B860024070B49368D46823431469234333
:1027A8005469234394692343D4692343946A234394
:1027B800184C615C0C180D5825F45F3525F47875B4
:1027C8002B430B50D36A93B1166B656925F0070547
:1027D80033432B436361536B0D5825F0C0752B436E
:1027E8000B50936B0D5825F4C0052B430B505368C1
:1027F800E3601368A360156A63681B0C1B042B4312
:102808006360536A0A5822F0606213430B50002039
:1028180070BC7047182F0008C36813F4005F01D01C
:1028280001207047F0B585B00D460446C36823F40F
:10283800164323F00C034A68C9680A4329690A4306
:10284800A9690A431343C360AB68026922F4405282
:10285800134303616B69426922F440721343436175
:10286800684600F041FA3D4B9C4208D03C4B9C42E4
:102878000CD03C4B9C420BD0012005B0F0BD039816
:10288800002868D02B682BB90120F6E70298F7E7F3
:102898000398F5E7AA69B2F5004F2CD00026051871
:1028A80046EB06012D1846EB0101CA0042EA5572B3
:1028B800EF0011469A009B0F381846EB0101FEF70E
:1028C80035F9294DA5FB003149090A0192B2642363
:1028D80003FB11031B013233A5FB0313C3F34F138F
:1028E80003F0F0010A4492B203F00F0313449BB2C1
:1028F800A3603046C1E70026051846EB06022D18EE
:1029080042EB0601CA0042EA5572EF003D46114605
:10291800DA1846EB0603281846EB0101FEF706F91C
:10292800114DA5FB003149090A0192B2642303FB4A
:102938001103DB003233A5FB0313C3F34F13590014
:1029480001F4F8710A4492B203F0070313449BB2EE
:10295800A360304691E701208FE700BF00100140D7
:1029680000440040001401401F85EB5130B4036A55
:1029780023F001030362036A4468826922F0730248
:102988000D682A4323F002030D692B4323F001034A
:102998004D682B430F4DA84207D044608261CA6836
:1029A80042630362002030BC704723F008034D697E
:1029B80043EA850323F004038D6843EA850324F47E
:1029C80080748D692C4324F40074CD6944EA45046D
:1029D800E3E700BF0000014030B4036A23F01003AE
:1029E8000362036A4468826922F4E6420D6842EA97
:1029F800052223F020030D6943EA051323F0100391
:102A08004D6843EA0513104DA84207D0446082611F
:102A1800CA6882630362002030BC704723F08003D9
:102A28004D6943EA851323F040038D6843EA851313
:102A380024F480648D6944EA850424F40064CD6933
:102A480044EAC504E2E700BF0000014030B4036A6D
:102A580023F480730362036A4468C26922F0730234
:102A68000D682A4323F400730D6943EA052323F410
:102A780080734D6843EA05230F4DA84207D0446090
:102A8800C261CA68C2630362002030BC704723F485
:102A980000634D6943EA852323F480638D6843EA24
:102AA800852324F480548D6944EA051424F40054E1
:102AB800CD6944EA4514E2E70000014030B4036AF6
:102AC80023F480530362036A4468C26922F4E6422D
:102AD8000D6842EA052223F400530D6943EA0533E1
:102AE80023F480534D6843EA0533084DA84207D0C4
:102AF8004460C261CA6802640362002030BC704747
:102B080024F480448D6944EA8514F1E7000001400B
:102B18000368244A90420ED0B0F1804F0BD0A2F542
:102B28007C42904207D002F58062904203D002F5C1
:102B38008062904203D123F070034A681343194A14
:102B480090421AD0B0F1804F17D0A2F57C42904243
:102B580013D002F5806290420FD002F58062904255
:102B68000BD002F59A32904207D002F5806290426B
:102B780003D002F58062904203D123F44073CA68FF
:102B8800134303608B68C3620B888362054B9842CA
:102B980005D0436943F001034361002070470B7C73
:102BA8000363F6E70000014008B5102914D009D9DD
:102BB800B1F5807F14D0B1F5805F0BD11146FFF7D6
:102BC8007DFF06E0012903D11146FFF7CFFE00E0A3
:102BD800012008BD0120FCE71146FFF7FDFEF8E7DC
:102BE8001146FFF733FFF4E70B7B8A68134323F49E
:102BF80080634A68134323F400630A68134323F489
:102C08008053CA89134323F400530A69134323F4F6
:102C180080434A69134323F4004313434364002069
:102C280070470000034B9B68C3F30313024AD35C4D
:102C3800D840704700380240202F0008034B9B689B
:102C4800C3F38223024AD35CD8407047003802405D
:102C5800302F0008034B9B68C3F34233024AD35C0E
:102C6800D840704700380240302F00080F4B5B688F
:102C780003F4800323B90E4B082803D000207047C3
:102C88000C4BF9E7094A506800F03F00B3FBF0F33A
:102C98005068C0F3881000FB03F05368C3F3014386
:102CA80001335B00B0FBF3F0704700BF003802400F
:102CB8000024F40040787D0108B5084B9B6803F0B8
:102CC8000C03042B05D0082B05D10820FFF7CEFFF5
:102CD80002E0034800E0034808BD00BF0038024096
:102CE80040787D010024F40010B50446FFF7E4FFA6
:102CF8002060FFF797FF6060FFF7A0FFA0606068A3
:102D0800FFF7A8FFE06010BD054BA3FB003080096A
:102D18000138044B586000229A6005221A607047F7
:102D2800D34D621010E000E082B0094B1B6801939C
:102D3800019BB0F1FF3F00D0013030B1044B1B685C
:102D480013F4803FF9D00138F7E702B0704700BFAD
:102D580010E000E0014B1860704700BF9C010020A4
:102D6800054BD3F8882042F47002C3F888204FF04E
:102D780000629A60704700BF00ED00E0DFF834D0D1
:102D8800002103E00C4B5B58435004310B480C4BBB
:102D980042189A42F6D30B4A02E0002342F8043B59
:102DA800094B9A42F9D3FFF7DBFF00F011F8FEF761
:102DB800ABF8704700000120482F000800000020F1
:102DC800A0010020A0010020780E0020FEE70000EE
:102DD80070B50D4D0D4C641BA4100026A64209D1F8
:102DE8000B4D0C4C00F020F8641BA4100026A642E2
:102DF80005D170BD55F8043B98470136EEE755F804
:102E0800043B98470136F2E7402F0008402F00089E
:102E1800402F0008442F000802440346934200D183
:102E2800704703F8011BF9E7F8B500BFF8BC08BC08
:102E38009E467047F8B500BFF8BC08BC9E46704770
:102E48004F6C610000004908B400BEF67B7AA59477
:102E580055B848002944442A15A00B4200500302E3
:102E68000008259076BA595CC59EC53892E6F33AB3
:102E780073BAE59077BA773A084008502A441CE0BC
:102E88008852E508568E77B677B8728CD6BA739E94
:102E9800739272AEB7B6E95C64AAB7B4929CBEB638
:102EA800D6B656AAD79276EE77B47138E948B6AE58
:102EB800B6AAB6F6B5B4B548E59C694C9124642E1B
:102EC8005400001C44000EAE9ABA0E8C2EAE0ECEE4
:102ED80056D0553B93B44144415197B4494417B631
:102EE8001AB60AAAD6D3766717900F389A8C16AEF8
:102EF80016BA16F615B4B52B1C5E6B4C4948C95A60
:102F0800540056E24F4C4120616D69676F21000003
:102F1800102840587088A0B8000000000000000089
:102F28000102030406070809000000000102030467
:082F38002CDCFF7F010000000A
:042F4000BD010008C7
:042F440099010008E7
:102F48000000000000000000000000000000000079
:102F58000000000000000000000000000101010165
:102F68000101010101010101010202020202020242
:102F7800020303030303030304040404040505050F
:102F88000506060606070707070808080909090AC3
:102F98000A0A0B0B0B0C0C0D0D0D0E0E0F0F10105B
:102FA80011111212131314141515161617181819CF
:102FB800191A1B1B1C1D1D1E1F2020212223232420
:102FC8002526272728292A2B2C2D2E2F303132323F
:102FD8003334363738393A3B3C3D3E3F4042434430
:102FE800454648494A4B4D4E4F51525355565759ED
:102FF8005A5C5D5F606263656668696B6D6E70726E
:10300800737577787A7C7E7F81838587898A8C8EB1
:1030180090929496989A9C9EA0A2A4A7A9ABADAFB3
:10302800B1B4B6B8BABDBFC1C4C6C8CBCDD0D2D56D
:10303800D7DADCDFE1E4E7E9ECEFF1F4F7F9FCFFDC
:10304800CDCCCC3D030100004E4E4E74635E6569E5
:10305800694848242727273A312F32353524241246
:10306800757575AE948D979E9E6C6C367B00007B53
:103078005A007B7B007B6D00007B6A5A007B7B00DB
:103088005A7B007B000070626262858552856252BD
:10309800FFFFFF00FFFF0100410031576861740026
:1030A8000000000000420034546865000000000081
:1030B80000004300344579657300000000000044B7
:1030C800003443616E6E6F74000000004700345393
:1030D8006565000000000000000C00000024F400FA
:0400000508002D853D
:00000001FF
