:020000040800F2
:1000000000000120D1100008DD090008DF09000808
:10001000E1090008E3090008E50900080000000004
:10002000000000000000000000000000E7090008D8
:10003000E909000800000000EB090008ED090008CC
:1000400021110008211100082111000821110008C8
:1000500021110008211100082111000821110008B8
:1000600021110008211100082111000821110008A8
:10007000EF090008211100082111000821110008D2
:10008000F1090008410400082111000800000000E7
:100090000000000000000000000000002111000826
:1000A0002111000821110008211100082111000868
:1000B00095040008211100082111000821110008F1
:1000C0002111000821110008211100082111000848
:1000D0002111000821110008211100080000000072
:1000E0002111000821110008211100080000000062
:1000F00000000000000000000000000021110008C6
:100100000000000021110008211100082111000841
:1001100000000000000000000000000000000000DF
:1001200021110008211100082111000821110008E7
:100130002111000800000000000000000000000085
:100140000000000000000000000000002111000875
:1001500021110008211100082111000821110008B7
:10016000211100082111000800000000000000001B
:10017000000000000000000000000000000000007F
:100180000000000021110008000000000000000035
:040190002111000831
:1001940010B5054C237833B9044B13B10448AFF3BD
:1001A40000800123237010BD0C000020000000001B
:1001B4007C11000808B5034B1BB103490348AFF396
:1001C400008008BD00000000100000207C11000821
:1001D40082B00A4B1A6B42F400121A631B6B03F4CD
:1001E40000130193019B064BDB68064B002283F846
:1001F40011234FF400321A6002B0704700380240F5
:1002040000ED00E000E100E070B58AB0002506953D
:10021400079508950995194C236B43F00403236350
:10022400236B03F004030393039B236B43F08003CA
:100234002363236B03F080030293029B10484FF067
:10024400005383614FF4005304930126059604A9D7
:1002540000F0CDFB236B33432363236B33400193C3
:10026400019B4FF6FF730493059606950795089531
:1002740004A9044800F0BBFB0AB070BD003802407A
:1002840000080240000002402DE9F04F9FB03C22DC
:1002940000210DEB020000F067FF00240A940B9488
:1002A4000C940D940E942022214602A800F05CFFC9
:1002B400574B1A6C42F001021A641B6C03F00103E1
:1002C4000193019B534D0121284600F029FC4FF076
:1002D400C06ACDF860A0504B0F93504B10934FF071
:1002E4004009CDF844901794139414944FF4805813
:1002F400CDF854804FF40057169712944FF40036FB
:1003040019961A940FAA0121284600F00DFD052123
:10031400284600F005FCCDF860A0DFF81CB1CDF84C
:100324003CB03F4B1093CDF84490179413944FF482
:1003340080631493CDF854801697129419961A94E6
:100344000FAA0521284600F0EFFC0621284600F0FC
:10035400E7FBCDF860A0CDF83CB0324B1093CDF85C
:100364004490179413941494CDF8548016971294CF
:1003740019961A940FAA0621284600F0D5FC2A4B98
:10038400DB682A4B83F81C434FF080521A60284ADA
:10039400136843F010031360264B1B68A2F1265226
:1003A400A2F50F12A2F21F12A2FB03235B0D013B65
:1003B40022220C92ADF828300D940B940AA94FF028
:1003C400804000F0C5FD4FF080452B6823F080038A
:1003D4002B60029403940B23059302AA012128465F
:1003E40000F002FEAB6923F00803AB6160230293C3
:1003F40003941423059302AA1021284600F0F4FD67
:10040400AB6923F40063AB611FB0BDE8F08F00BF9C
:100414000038024000600240180002400000002042
:10042400C00000202A00002000ED00E000E100E010
:10043400A06002400800002014000240124B4FF458
:100444000012DA604FF08043DA6842F00102DA60A9
:100454000E490A6822F001020A6060310A6822F03B
:1004640001020A6018310A6822F001020A60DA689F
:1004740022F40072DA60DA6822F48062DA60DA6800
:1004840022F48072DA607047006002402860024003
:100494004FF080436FF001021A610E4B1B78DBB200
:1004A400162B05D80B4A13780133DBB2137070474F
:1004B400084B00221A704FF080431A6822F00102A0
:1004C4001A60DA6822F00102DA60034B01221A7022
:1004D400704700BF28000020020000202DE9F043EF
:1004E4009DF81CC0002743E001EB4104E50005EB47
:1004F400070801268640F64336B21F4C34F818E04C
:1005040006EA0E0E24F818E005F1080EBE4434F88D
:100514001E9006EA090924F81E9010353D4434F86B
:10052400159006EA090624F8156003FA07F6C6F3DF
:10053400C016864034F8189046EA090624F8186074
:1005440002FA07F6C6F3C016864034F81E8046EA5F
:10055400080624F81E600CFA07F6C6F3C016864097
:1005640034F815E046EA0E0624F815600137FFB2A8
:10057400072FB9D9BDE8F083C0000020F0B589B0D9
:10058400002655E03A46022A15D8C5EBC503234494
:10059400C6EBC60041000B4403EB430327490B445D
:1005A400995C04EB440308A80344134403F8181C9F
:1005B4000132D2B2E7E704EB440208AB1A44C5EBBC
:1005C400C501214412F8163C009312F8173C12F8A6
:1005D400182C89B23046FFF781FF0134A4B2062CEF
:1005E4001CD8002FCED00022022AE4D8C4F106037E
:1005F400C5EBC5010B44C6EBC60041000B4403EB3D
:1006040043030E490B44995C04EB440308A80344D8
:10061400134403F8181C0132D2B2E5E70135EDB2F8
:10062400012D03D805F001070024D8E70136F6B2FE
:10063400032E01D80025F3E709B0F0BD2C000020FB
:1006440030B400241F4B1C701F4B4FF400729A608F
:10065400DA604FF40022DA601C494B681B0C1B045F
:1006640003434B601A4D6B681B0C1B0403436B6004
:10067400184A53681B0C1B04184350604FF0804306
:100684001C61086840F001000860296841F001011C
:100694002960116841F001011160DA6842F40072C6
:1006A400DA60DA6842F48062DA60DA6842F480720E
:1006B400DA6022225A621A6842F001021A6030BCDF
:1006C400704700BF02000020006002402860024022
:1006D40088600240A0600240F0B400226FF002077C
:1006E4006BE0002304EB440C374D6544AB540132FA
:1006F400022A0EDC354B9B5C855C15FB01F52B4413
:100704001BB2002BEDDBFF2BECDDFF23EAE700221D
:10071400EEE70022013104291EDC07EE901AF8EE00
:10072400E76AF1EE047A86EEA77AF7EE007A77EEBE
:10073400C77A07FB07F306FB063307EE103AB8EE59
:10074400C77ADFED236A67EEA67AB4EEE77AF1EEB4
:1007540010FADCD90122DDE772B107FB07F306FBCF
:10076400063307EE903AF8EEE77A9FED197AF4EE45
:10077400C77AF1EE10FA1DDA0136032E1CDCFB1CDD
:10078400C3EBC3043444A4B20334A4B20021C2E7CB
:10079400002104EB440C0C4D6544E9540133022B55
:1007A400EADC0A49C95CC55C491BF1D4FF29F0DDC8
:1007B400FF21EEE70023F2E70137032F02DC6FF09D
:1007C4000206DAE7F0BC70472C0000200400002089
:1007D4000000444110B5304A136823F00F0343F07E
:1007E400020313601368A2F5E632136823F440434E
:1007F40043F40043136002F5E432136843F4803396
:100804001360264B1B6813F4003FFAD0234B5A683D
:1008140023491140234A0A435A605A6822F4403259
:1008240042F480325A601A6842F080721A601B4B9C
:100834001B6813F0007FFAD0184B9A6822F0F0027C
:100844009A609A6822F4E05242F480529A609A685C
:1008540022F460429A609A6822F0030242F0020293
:100864009A600E4B9B6803F00C03082BF9D10E4CD5
:10087400204600F0D9FB0D4A136843F004031360CB
:10088400204600F0F7FB054AD2F88C3023F0807341
:10089400C2F88C3010BD00BF003C0240003802405A
:1008A4000080BFFF1954400000BD010510E000E0C6
:1008B40070B586B0444B5A6C42F480425A645A6C08
:1008C40002F480420492049A1A6C42F080521A6430
:1008D4001B6C03F080530393039B3C49CA6822F4C6
:1008E400E0621204120C3A4B1343CB60FFF772FF21
:1008F400FFF78AFCFFF76CFCFFF7C6FC354B1B685F
:10090400ADF814301B0C8DF8163005A8FFF7E4FE83
:10091400FFF734FE4FF4A870FFF792FE0025052D73
:10092400FCD8002400942346FF2221462046FFF7EA
:10093400D5FD00942346FF2201212046FFF7CEFD7A
:1009440000942346FF2202212046FFF7C7FD0094AE
:100954002346FF2203212046FFF7C0FD0094FF2316
:10096400224604212046FFF7B9FD0094FF232246C6
:1009740005212046FFF7B2FD0094FF2322460621FD
:100984002046FFF7ABFDFF260096234622460721AB
:100994002046FFF7A3FD0096234622460821204661
:1009A400FFF79CFD00962346224609212046FFF7C7
:1009B40095FD4FF4A870FFF743FE40F6B83000F001
:1009C40043FB0135EDB2AAE70038024000ED00E038
:1009D4000003FA05941100087047FEE7FEE7FEE7FE
:1009E400FEE7704770477047704770477047F0B430
:1009F4000C6894FAA4F4B4FA84F42CE08E68826847
:100A040093FAA3F5B5FA85F56D0007FA05F522EA20
:100A1400050293FAA3F5B5FA85F56D0006FA05F516
:100A24002A4382600E69C26893FAA3F5B5FA85F584
:100A34006D00032707FA05F522EA050293FAA3F5E8
:100A4400B5FA85F56D0006FA05F52A43C2604A68D1
:100A5400022A22D001340B6833FA04F250D0012266
:100A6400A2401340F6D04E68026893FAA3F5B5FA93
:100A740085F56D00032707FA05F522EA050293FAC6
:100A8400A3F5B5FA85F56D0006FA05F52A4302606B
:100A94004A68013A012AC5D8B0E793FAA3F2B2FA38
:100AA40082F2072A15D84D69026A93FAA3F6B6FAB8
:100AB40086F6B6000F2707FA06F622EA060293FA2C
:100AC400A3F3B3FA83F39B0005FA03F3134303621E
:100AD400C0E74A69456A1B0A93FAA3F6B6FA86F692
:100AE400B6000F2707FA06F625EA060593FAA3F3DC
:100AF400B3FA83F39B0002FA03F32B434362A9E79F
:100B04004A68013A012A02D90020F0BC7047C9683A
:100B1400426822EA030201FB03F313434360F3E751
:100B240011F5803F35D010B46C4B5C5C035923F055
:100B3400010303516A4B98424BD06A4B98425FD0F1
:100B4400674B984260D0674B984261D0644B98429F
:100B540062D0644B984263D0614B984264D0614B3D
:100B6400984265D05E4B984266D05E4B984267D0FF
:100B74005B4B984268D05B4B984269D0584B984283
:100B84006AD0584B98426BD0554B98426CD0564B18
:100B940022E0534B984204D0524B98420DD001208E
:100BA4007047A3F520531A6942F400121A611A69B6
:100BB40022F400121A6100207047A3F530531A6919
:100BC40042F480021A611A6922F480021A61002038
:100BD40070470029B1D1454B00221A605A609A60CF
:100BE400DA601A6121225A61035923F060630351C8
:100BF400002940D13F23836000205DF8044B7047F7
:100C040000299DD13A4BE7E701299CD1394BE3E711
:100C140001299BD1384BDFE702299AD1374BDBE717
:100C2400022999D1364BD7E7032998D1354BD3E71D
:100C3400032997D1344BCFE7042996D1334BCBE723
:100C4400042995D1324BC7E7052994D1314BC3E729
:100C5400052993D1304BBFE7062992D12F4BBBE72F
:100C6400062991D12E4BB7E7072902D003F59763E4
:100C7400B2E72C4BB0E701290DD0022910D003298B
:100C840013D0042916D0052918D006291BD007290A
:100C94001ED00120B1E74FF4746383600020ACE7F9
:100CA4004FF47C1383600020A7E74FF074638360E4
:100CB4000020A2E73F23C36000209EE74FF4746343
:100CC400C360002099E74FF47C13C360002094E7CD
:100CD4004FF07463C36000208FE700BF98110008D1
:100CE4000060024000640240B864024010600240A8
:100CF40010640240286002402864024040600240C0
:100D040040640240586002405864024070600240EF
:100D1400706402408860024088640240A06002401F
:100D2400A0640240B860024070B49368D46823435E
:100D3400146923435469234394692343D4692343A3
:100D4400946A2343184C615C0C180D5825F45F35E4
:100D540025F478752B430B50D36A93B1166B6569F0
:100D640025F0070533432B436361536B0D5825F07E
:100D7400C0752B430B50936B0D5825F4C0052B43C2
:100D84000B505368E3601368A360156A63681B0C17
:100D94001B042B436360536A0A5822F060621343B6
:100DA4000B50002070BC70479811000830B4036ADF
:100DB40023F001030362036A4468826922F0730228
:100DC4000D682A4323F002030D692B4323F001032A
:100DD4004D682B430F4DA84207D044608261CA6816
:100DE40042630362002030BC704723F008034D695E
:100DF40043EA850323F004038D6843EA850324F45E
:100E040080748D692C4324F40074CD6944EA45044C
:100E1400E3E700BF0000014030B4036A23F010038D
:100E24000362036A4468826922F4E6420D6842EA76
:100E3400052223F020030D6943EA051323F0100370
:100E44004D6843EA0513104DA84207D044608261FF
:100E5400CA6882630362002030BC704723F08003B9
:100E64004D6943EA851323F040038D6843EA8513F3
:100E740024F480648D6944EA850424F40064CD6913
:100E840044EAC504E2E700BF0000014030B4036A4D
:100E940023F480730362036A4468C26922F0730214
:100EA4000D682A4323F400730D6943EA052323F4F0
:100EB40080734D6843EA05230F4DA84207D0446070
:100EC400C261CA68C2630362002030BC704723F465
:100ED40000634D6943EA852323F480638D6843EA04
:100EE400852324F480548D6944EA051424F40054C1
:100EF400CD6944EA4514E2E70000014030B4036AD6
:100F040023F480530362036A4468C26922F4E6420C
:100F14000D6842EA052223F400530D6943EA0533C0
:100F240023F480534D6843EA0533084DA84207D0A3
:100F34004460C261CA6802640362002030BC704726
:100F440024F480448D6944EA8514F1E700000140EB
:100F54000368244A90420ED0B0F1804F0BD0A2F522
:100F64007C42904207D002F58062904203D002F5A1
:100F74008062904203D123F070034A681343194AF4
:100F840090421AD0B0F1804F17D0A2F57C42904223
:100F940013D002F5806290420FD002F58062904235
:100FA4000BD002F59A32904207D002F5806290424B
:100FB40003D002F58062904203D123F44073CA68DF
:100FC400134303608B68C3620B888362054B9842AA
:100FD40005D0436943F001034361002070470B7C53
:100FE4000363F6E70000014008B5102914D009D9BD
:100FF400B1F5807F14D0B1F5805F0BD11146FFF7B6
:101004007DFF06E0012903D11146FFF7CFFE00E082
:10101400012008BD0120FCE71146FFF7FDFEF8E7BB
:101024001146FFF733FFF4E7054BA3FB00308009BB
:101034000138044B586000229A6005221A607047F8
:10104400D34D621010E000E082B0094B1B6801939D
:10105400019BB0F1FF3F00D0013030B1044B1B685D
:1010640013F4803FF9D00138F7E702B0704700BFAE
:1010740010E000E0014B1860704700BF080000203A
:101084000F49D1F8883043F47003C1F888300D4B10
:101094001A6842F001021A60002098601A6822F06F
:1010A400847222F480321A60074A5A601A6822F461
:1010B40080221A60D8604FF000638B60704700BFD5
:1010C40000ED00E00038024010300024DFF834D096
:1010D400002103E00C4B5B58435004310B480C4B8C
:1010E40042189A42F6D30B4A02E0002342F8043B2A
:1010F400094B9A42F9D3FFF7C3FF00F011F8FFF749
:10110400D7FB704700000120A81100080000002050
:101114000C0000200C00002060030020FEE700000B
:1011240070B50D4D0D4C641BA4100026A64209D1C8
:101134000B4D0C4C00F020F8641BA4100026A642B2
:1011440005D170BD55F8043B98470136EEE755F8D4
:10115400043B98470136F2E7A0110008A0110008EB
:10116400A0110008A411000802440346934200D1D0
:10117400704703F8011BF9E7F8B500BFF8BC08BCD9
:101184009E467047F8B500BFF8BC08BC9E46704741
:0C119400050A1E00102840587088A0B802
:0411A000B901000889
:0411A40095010008A9
:0C11A800FFFF01003C1900000024F400CF
:04000005080010D10E
:00000001FF
