:020000040800F2
:1000000000500020ED110008190B00081B0B000820
:100010001D0B00081F0B0008210B0008000000004A
:10002000000000000000000000000000230B00089A
:10003000250B000800000000270B0008290B000812
:100040003512000835120008351200083512000874
:100050003512000835120008351200083512000864
:100060003512000835120008351200083512000854
:100070002B0B000835120008351200082D0B000864
:1000800035120008790A00083512000835120008F8
:100090003512000835120008351200083512000824
:1000A0003512000835120008351200083512000814
:1000B000CD0A000835120008351200083512000874
:1000C00035120008351200083512000835120008F4
:1000D00035120008351200083512000835120008E4
:1000E0003512000835120008351200080000000023
:1000F0000000000000000000000000000000000000
:0C01000000000000000000005FF808F1A3
:10010C0010B5054C237833B9044B13B10448AFF345
:10011C0000800123237010BD30000020000000007F
:10012C008012000808B5034B1BB103490348AFF319
:10013C00008008BD00000000340000208012000880
:10014C00034613F8012B002AFBD1181A013870470B
:10015C0082B00A4B5A6942F001025A615B6903F0A2
:10016C0001030193019B064BDB68064B002283F8CD
:10017C0011234FF400321A6002B070470010024095
:10018C0000ED00E000E100E030B585B01F4B9A694E
:10019C0042F010029A619A6902F010020392039ADB
:1001AC009A6942F020029A619A6902F02002029246
:1001BC00029A9A6942F004029A619A6902F0040266
:1001CC000192019A9A6942F008029A619B6903F0C4
:1001DC0008030093009B0E4C6FF07B4323600125BA
:1001EC0065600323A36021460A4800F09AFC0A4B81
:1001FC00236065600223A360084D2146284600F069
:10020C0090FC4FF400536B6105B030BD0010024000
:10021C007400002000080140200020040010014060
:10022C00F0B583B0274BDA6942F48022DA61DA69DF
:10023C0002F480220192019A9A6942F008029A61B2
:10024C009B6903F008030093009B1F4C1F4B23601A
:10025C00092363600323A3600025E5601C4F21463E
:10026C00384600F05EFC1B4B23600426666021467A
:10027C00384600F056FC184BDB68184B83F82753B4
:10028C0080225A60164947F612230B604D608D6030
:10029C00CD600E614D61134C204600F03BFF23698D
:1002AC0023F490432361636923F02A036361E368B9
:1002BC0043F40053E360E36843F02003E36003B0CE
:1002CC00F0BD00BF001002407400002004000404C4
:1002DC00000C01400800080400ED00E000E100E023
:1002EC00C0000020004800402DE9F04F83B0514B76
:1002FC00DA6942F00102DA61DB6903F00103019370
:10030C00019B4D4E0221304600F086FC4B4CDFF831
:10031C0058B1C4F800B04A4B63601027A7600025A1
:10032C002562256165614FF4007AC4F818A04FF47A
:10033C008069C4F81C90E5604FF44058C4F82480E0
:10034C0022460221304600F0DFFC0521304600F049
:10035C0063FCC4F800B03B4B6360A7602562256169
:10036C0080236361C4F818A0C4F81C90E560C4F83D
:10037C00248022460521304600F0C6FC0721304679
:10038C0000F04AFCC4F800B02F4B6360A7602562F4
:10039C0025616561C4F818A0C4F81C90E560C4F828
:1003AC00248022460721304600F0AEFC274BDB6848
:1003BC00274B83F81C534FF080521A60254A136860
:1003CC0043F002031360244B1B68244AA2FB032353
:1003DC005B0D013B22491D228A600B80CD604D6074
:1003EC004FF0804000F08AFD4FF08044236823F0EA
:1003FC00800323601B4E356075600823F360324622
:10040C000121204600F0B2FDA36923F00803A3618B
:10041C006023336075601123F36032463946204601
:10042C0000F0A4FDA36923F40063A36103B0BDE84D
:10043C00F08F00BF00100240000002404C00002072
:10044C000000002078010020D800002000ED00E022
:10045C0000E100E0800002402C000020819F5E162D
:10046C008C000020A00000200C0801402038C0B2F5
:10047C00164B03EB40035B7813F0010F00D00139EE
:10048C0031B9124B13F81000000900F00E00704740
:10049C00012907D002290AD0032912D0042912D02D
:1004AC000020F2E7094B13F810004008EDE7074A6B
:1004BC0012F81000800000F00C0003F00203184347
:1004CC0070471809E1E75808DFE700BF9C120008E5
:1004DC002DE9F0439DF81CC0002743E001EB4104DB
:1004EC00E50005EB070801268640F64336B21F4CA3
:1004FC0034F818E006EA0E0E24F818E005F1080EA0
:10050C00BE4434F81E9006EA090924F81E901035F2
:10051C003D4434F8159006EA090624F8156003FAF0
:10052C0007F6C6F3C016864034F8189046EA09065A
:10053C0024F8186002FA07F6C6F3C016864034F8A1
:10054C001E8046EA080624F81E600CFA07F6C6F36D
:10055C00C016864034F815E046EA0E0624F81560FD
:10056C000137FFB2072FB9D9BDE8F083780100201D
:10057C0070B582B0002623E00135EDB2012D1DD8F7
:10058C000024062CF8D8C5EBC5032344C6EBC601E2
:10059C004A0013442F2BEFDC0C4991F8242091F8DE
:1005AC00253091F82600C5EBC5012144009089B295
:1005BC003046FFF78DFF0134A4B2E2E70136F6B204
:1005CC00032E01D80025D9E702B070BD040000202D
:1005DC002DE9F04188B000265AE03A46022A0FD89D
:1005EC000EEB4E002E490144885C03EB43010DF1E8
:1005FC00200C6144114401F8180C0132D2B2EDE721
:10060C0003EB430308AA1A44C5EBC501214412F8B5
:10061C00163C009312F8173C12F8182C89B230468D
:10062C00FFF756FF0134A4B2062C27D82346C5EB9E
:10063C00C50004EB000EC6EBC6014A009446964476
:10064C00BEF1310F1ADC002FC7D000210229D7D8F8
:10065C00C3F106020244624402EB4202DFF840E0BE
:10066C00724412F801E003EB43020DF120084244FE
:10067C000A4402F818EC0131C9B2E7E70135EDB2D2
:10068C00012D03D805F001070024CDE70136F6B2A1
:10069C00032E01D80025F3E708B0BDE8F08100BFB8
:1006AC00DC00002030B400241F4B1C701F4B802238
:1006BC005A604FF400225A604FF000625A601C4995
:1006CC004B681B0C1B0403434B601A4D6B681B0CD3
:1006DC001B0403436B60184A53681B0C1B04184320
:1006EC0050604FF080431C61086840F001000860C6
:1006FC00296841F001012960116841F00101116084
:10070C00DA6842F40072DA60DA6842F48062DA6025
:10071C00DA6842F48072DA601D225A621A6842F07A
:10072C0001021A6030BC7047020000200000024039
:10073C001C000240580002408000024070B40024AB
:10074C0011E00135072D0DDC0022022AF9DCC4EB87
:10075C00C4032B44865C03EB430306490B449E54B1
:10076C000132F2E70134072C01DC0025EAE770BC0A
:10077C00704700BFDC0000202DE9F04F8DB00690D3
:10078C00009101920B939DF85C709DF86030099379
:10079C009DF864B09DF8683005939DF8583003338C
:1007AC005FFA83F800230A9352E000998E5CC4EB45
:1007BC00C401614401EB4101DFF8DCE071448E546B
:1007CC000132D2B2022A04D8002DEED001998E5CEF
:1007DC00EDE701335BB2013840B29C4609EB0802ED
:1007EC00D21B93420CDACBF107029A4208DDE345A7
:1007FC00EFDC029A22FA00F505F001050022E1E790
:10080C004D460AF1010A4FFA8AFA039B01335BB297
:10081C0003935446049B05339A4511DC059BC3F1A5
:10082C00070353450CDD0399069B079A985CFFF769
:10083C001DFE0290089BDB1B5BB20320A946CCE794
:10084C00099B0133DBB209930A9B0133DBB20A9398
:10085C00099C07940698FFF773FC84420ED20A9BFE
:10086C0008FB03F3DBB25B44DBB208935DB29DF98A
:10087C00143004939A4600230393CAE7FFF7A8FEAB
:10088C004FF4A870FFF70EFF0B9800F001FCFFF778
:10089C006FFE0DB0BDE8F08FDC0000202DE9F04FAD
:1008AC0089B080468B46924607939DF848909DF8F8
:1008BC004C609DF8507000253B4637464E46994695
:1008CC0001E00135EDB24046FFF73AFC854211D20A
:1008DC000024022CF5D8CDF81090039702950194C2
:1008EC000096079B524659464046FFF745FF013498
:1008FC00E4B2EEE709B0BDE8F08F000010B5254A70
:10090C00136823F0070343F0020313601368A2F586
:10091C008052136843F4803313601F4B1B6813F42D
:10092C00003FFAD01C4A536823F47C1343F4E813B9
:10093C005360136843F080731360174B1B6813F0FC
:10094C00007FFAD0144B5A6822F0F0025A605A68B1
:10095C0022F4E06242F480625A605A6822F46052D7
:10096C005A605A6822F0030242F002025A600A4BA3
:10097C005B6803F00C03082BF9D1084C204600F0FF
:10098C0077FB074A136843F004031360204600F01A
:10099C0095FB10BD002002400010024000A24A044A
:1009AC0010E000E000B589B02A4B9A6942F00102D0
:1009BC009A619A6902F001020592059ADA6942F08D
:1009CC008052DA61DB6903F080530493049B224963
:1009DC00CA6822F4E0621204120C204B1343CB6061
:1009EC001F4B5A6822F0E0625A605A6842F08062EB
:1009FC005A60FFF783FFFFF7C7FBFFF711FCFFF708
:100A0C00A7FBFFF771FC174B1B68ADF81C301B0CD8
:100A1C008DF81E300A238DF8183000248DF81940FB
:100A2C008DF81A40FFF7A4FD07A8FFF787FEFFF724
:100A3C00CFFD4FF4A870FFF735FE0294019401230B
:100A4C0000934FF4FA7306AA07A90748FFF726FF8D
:100A5C00FEE700BF0010024000ED00E00003FA05C5
:100A6C0000000140981200085C130008124B4FF074
:100A7C0000725A604FF08043DA6842F00102DA608B
:100A8C000E490A6822F001020A603C310A6822F021
:100A9C0001020A6028310A6822F001020A60DA6851
:100AAC0022F40072DA60DA6822F48062DA60DA68C2
:100ABC0022F48072DA607047000002401C00024091
:100ACC004FF080436FF001021A610E4B1B78DBB2C2
:100ADC00272B05D80B4A13780133DBB21370704700
:100AEC00084B00221A704FF080431A6822F0010262
:100AFC001A60DA6822F00102DA60034B01221A70E4
:100B0C00704700BF88000020020000207047FEE7FD
:100B1C00FEE7FEE7FEE77047704770477047704787
:100B2C007047F0B50D68C5F30F2595FAA5F2B2FA2A
:100B3C0082F235E0A2F108044FF00113A34043F018
:100B4C00806339E0C45993FAA3F6B6FA86F6B60078
:100B5C004FF0030C0CFA06F624EA060C93FAA3F6F3
:100B6C00B6FA86F6B6008C6804FA06F646EA0C0667
:100B7C00C651CC6893FAA3FCBCFA8CFC4FEA8C0CE3
:100B8C004FF0040E0EFA0CFC26EA0C0693FAA3F3B3
:100B9C00B3FA83F39B0004FA03F33343C3510132DA
:100BAC0035FA02F335D0012393402B42F7D0072AB4
:100BBC00C0D840F2011393404E681F0EC45993FAEB
:100BCC00A3FCBCFA8CFC4FEA8C0C4FF00F0E0EFA07
:100BDC000CFC24EA0C0493FAA3FCBCFA8CFC4FEA40
:100BEC008C0C06FA0CF63443C451C6681C0A26EA6F
:100BFC00040C94FAA4F4B4FA84F40E6906FA04F41E
:100C0C004CEA0404C4604C68012C9BD0092CC6D15E
:100C1C0098E70120F0BD0000334B984228D0324BAE
:100C2C00984229D0304B98422AD02F4B98422BD047
:100C3C002D4B98422CD02C4B98422DD02B4B1A6814
:100C4C0022F001021A6000221A605A609A60DA607F
:100C5C00012927D0022929D003292BD004292ED0F1
:100C6C00052931D0062934D0072937D00020704708
:100C7C000129D4D11E4BE2E70229D3D11D4BDEE76B
:100C8C000329D2D11C4BDAE70429D1D11B4BD6E76F
:100C9C000529D0D11A4BD2E7062901D08033CEE7F3
:100CAC00184BCCE701234360184670471023436070
:100CBC00012070474FF480734360012070474FF45C
:100CCC0080534360012070474FF480334360012010
:100CDC0070474FF480134360012070474FF08073CE
:100CEC0043600120704700BF0000024080000240BA
:100CFC00080002401C000240300002404400024048
:100D0C00580002406C00024030B49368D46823430E
:100D1C00146923435469234394692343D4692343BB
:100D2C00546A234301390B4C655C2C18295821F467
:100D3C00FF4121F070010B432B505368E3601368A3
:100D4C00A360126A63681B0C1B04134363600120CD
:100D5C0030BC70477C13000830B4036A23F00103E5
:100D6C000362036A4468826922F073020D682A43A5
:100D7C0023F002030D692B4323F001034D682B4331
:100D8C000F4DA84207D044608261CA684263036277
:100D9C00012030BC704723F008034D6943EA8503FA
:100DAC0023F004038D6843EA850324F480748D6971
:100DBC002C4324F40074CD6944EA4504E3E700BFF6
:100DCC00002C014030B4036A23F010030362036A61
:100DDC004468826922F4E6420D6842EA052223F057
:100DEC0020030D6943EA051323F010034D6843EA11
:100DFC000513104DA84207D044608261CA68826313
:100E0C000362012030BC704723F080034D6943EA34
:100E1C00851323F040038D6843EA851324F4806422
:100E2C008D6944EA850424F40064CD6944EAC50460
:100E3C00E2E700BF002C014030B4036A23F4807356
:100E4C000362036A4468C26922F073020D682A4384
:100E5C0023F400730D6943EA052323F480734D6872
:100E6C0043EA05230F4DA84207D04460C261CA680B
:100E7C00C2630362012030BC704723F400634D69E8
:100E8C0043EA852323F480638D6843EA852324F4A5
:100E9C0080548D6944EA051424F40054CD6944EA65
:100EAC004514E2E7002C014030B4036A23F480536C
:100EBC000362036A4468C26922F4E6420D6842EA9E
:100ECC00052223F400530D6943EA053323F48053C0
:100EDC004D6843EA0533084DA84207D04460C2610F
:100EEC00CA6802640362012030BC704724F4804459
:100EFC008D6944EA8514F1E7002C014003681A4A15
:100F0C0090420AD0B0F1804F07D0A2F594329042B3
:100F1C0003D002F58062904203D123F070034A683B
:100F2C001343114A90420AD0B0F1804F07D0A2F57A
:100F3C009432904203D002F58062904203D123F4A4
:100F4C004073CA68134303608B68C3620B88836267
:100F5C00054B984205D0436943F0010343610120DE
:100F6C0070470B7C0363F6E7002C014008B5102991
:100F7C0014D009D9B1F5807F14D0B1F5805F0BD1B5
:100F8C001146FFF791FF06E0012903D11146FFF747
:100F9C00E3FE00E0002008BD0020FCE71146FFF74F
:100FAC0011FFF8E71146FFF747FFF4E7034B5B68C7
:100FBC00C3F30313024AD35CD840704700100240BD
:100FCC0084130008034B5B68C3F30223024AD35C0F
:100FDC00D84070470010024094130008034B5B6824
:100FEC00C3F3C223024AD35CD840704700100240BE
:100FFC00941300080B4B5B6803F4803343B90A4825
:10100C00084B5B68C3F38343023300FB03F0704768
:10101C00044B5868C0F34040431C0448B0FBF3F049
:10102C00EEE700BF0010024000093D0000127A00FC
:10103C0008B5054B5B6803F00C03082B01D0034883
:10104C0008BDFFF7D7FFFBE70010024000127A0043
:10105C0010B50446FFF7ECFF2060FFF7A7FF6060B8
:10106C00FFF7B0FFA0606068FFF7B8FFE06010BD4D
:10107C00054BA3FB003080090138044B586000225B
:10108C009A6005221A607047D34D621010E000E0A0
:10109C0082B0094B1B680193019BB0F1FF3F00D05C
:1010AC00013030B1044B1B6813F4803FF9D0013888
:1010BC00F7E702B0704700BF10E000E0014B18608A
:1010CC00704700BF2C0000200F4B1A6842F0010241
:1010DC001A6059680D4A0A405A601A6822F08472E4
:1010EC0022F480321A601A6822F480221A605A683C
:1010FC0022F4FE025A604FF41F029A60044B4FF028
:10110C0000629A60704700BF001002400000FFF8B8
:10111C0000ED00E0C36813F4005F01D000207047BD
:10112C0030B585B00D460446C36823F4B05323F0A4
:10113C000C034A68C9680A4329690A431343C3600C
:10114C00AB68026922F44052134303616B69426934
:10115C0022F44072134343616846FFF779FF1C4B3E
:10116C009C4208D01B4B9C422AD01B4B9C4229D042
:10117C00002005B030BD039B33B32A6832B303EBB8
:10118C00830303EB83039200B3FBF2F3134DA5FB34
:10119C0003204009020191B2642202FB10321301B8
:1011AC003233A5FB0323C3F34F1303F0F0020A44BD
:1011BC0092B203F00F0313449BB2A3600120D8E753
:1011CC00029BD9E7029BD7E70020D2E70020D0E7AB
:1011DC000038014000440040004800401F85EB519E
:1011EC00002103E00B4B5B58435004310A480B4B76
:1011FC0042189A42F6D30A4A02E0002342F8043B12
:10120C00084B9A42F9D3FFF75FFF00F00FF8FFF796
:10121C00C9FB7047A4130008000000203000002018
:10122C003000002018040020FEE7000070B50026F6
:10123C000C4D0D4C641BA410A64209D100F01AF8F9
:10124C0000260A4D0A4C641BA410A64205D170BDA1
:10125C0055F8043B98470136EEE755F8043B9847A0
:10126C000136F2E79C1300089C1300089C1300083D
:10127C00A0130008F8B500BFF8BC08BC9E46704728
:0C128C00F8B500BFF8BC08BC9E467047D7
:101298000101050000004908B400BEF67B7AA59458
:1012A80055B848002944442A15A00B4200500302AF
:1012B8000008259076BA595CC59EC53892E6F33A7F
:1012C80073BAE59077BA773A084008502A441CE088
:1012D8008852E508568E77B677B8728CD6BA739E60
:1012E800739272AEB7B6E95C64AAB7B4929CBEB604
:1012F800D6B656AAD79276EE77B47138E948B6AE24
:10130800B6AAB6F6B5B4B548E59C694C9124642EE6
:101318005400001C44000EAE9ABA0E8C2EAE0ECEAF
:1013280056D0553B93B44144415197B4494417B6FC
:101338001AB60AAAD6D3766717900F389A8C16AEC3
:1013480016BA16F615B4B52B1C5E6B4C4948C95A2B
:10135800540056E24F7264656D20646F7320456EC9
:1013680067656E686569726F73205465636E69633B
:101378006F730000081C3044586C800000000000A7
:10138800000000000102030406070809000000002D
:041398000102030447
:04139C003101000813
:0413A0000D01000833
:1013A400FFFF010032000032190032320032260001
:1013B4000032241900323200193200320000281E93
:1013C4001E1E3C3C143C1E140000000000A24A04F3
:04000005080011EDF1
:00000001FF
