:020000040800F2
:10000000005000208D0A00082D0A00082F0A000861
:10001000310A0008330A0008350A00080000000011
:10002000000000000000000000000000370A000887
:10003000390A0008000000003B0A00083D0A0008D9
:10004000D50A0008D50A0008D50A0008D50A000814
:10005000D50A0008D50A0008D50A0008D50A000804
:10006000D50A0008D50A0008D50A0008D50A0008F4
:10007000D50A0008D50A0008D50A0008D50A0008E4
:100080003F0A0008D50A0008D50A0008D50A00086A
:10009000D50A0008D50A0008D50A0008D50A0008C4
:1000A000D50A0008D50A0008D50A0008D50A0008B4
:1000B000D50A0008D50A0008D50A0008D50A0008A4
:1000C000D50A0008D50A0008D50A0008D50A000894
:1000D000D50A0008D50A0008D50A0008D50A000884
:1000E000D50A0008D50A0008D50A0008000000005B
:1000F0000000000000000000000000000000000000
:0C01000000000000000000005FF808F1A3
:10010C0010B5054C237833B9044B13B10448AFF345
:10011C0000800123237010BD0009002000000000A6
:10012C00200B000808B5034B1BB103490348AFF380
:10013C00008008BD0000000004090020200B00080E
:10014C00334B984228D0324B984229D0304B9842AE
:10015C002AD02F4B98422BD02D4B98422CD02C4B85
:10016C0098422DD02B4B1A6822F001021A60002203
:10017C001A605A609A60DA60012927D0022929D0C6
:10018C0003292BD004292ED0052931D0062934D0AF
:10019C00072937D0002070470129D4D11E4BE2E744
:1001AC000229D3D11D4BDEE70329D2D11C4BDAE750
:1001BC000429D1D11B4BD6E70529D0D11A4BD2E754
:1001CC00062901D08033CEE7184BCCE701234360DE
:1001DC001846704710234360012070474FF480731A
:1001EC004360012070474FF48053436001207047F7
:1001FC004FF480334360012070474FF48013436009
:10020C00012070474FF0807343600120704700BF9E
:10021C000000024080000240080002401C00024026
:10022C003000024044000240580002406C00024082
:10023C0030B49368D468234314692343546923432B
:10024C0094692343D4692343546A234301390B4CE7
:10025C00655C2C18295821F4FF4121F070010B43E7
:10026C002B505368E3601368A360126A63681B0C1D
:10027C001B0413436360012030BC7047380B00082B
:10028C00F0B50D68C5F30F2595FAA5F2B2FA82F216
:10029C0035E0A2F108044FF00113A34043F0806352
:1002AC0039E0C45993FAA3F6B6FA86F6B6004FF0C5
:1002BC00030C0CFA06F624EA060C93FAA3F6B6FA2B
:1002CC0086F6B6008C6804FA06F646EA0C06C651A9
:1002DC00CC6893FAA3FCBCFA8CFC4FEA8C0C4FF064
:1002EC00040E0EFA0CFC26EA0C0693FAA3F3B3FAEE
:1002FC0083F39B0004FA03F33343C351013235FA01
:10030C0002F335D0012393402B42F7D0072AC0D8F3
:10031C0040F2011393404E681F0EC45993FAA3FC8C
:10032C00BCFA8CFC4FEA8C0C4FF00F0E0EFA0CFC46
:10033C0024EA0C0493FAA3FCBCFA8CFC4FEA8C0C58
:10034C0006FA0CF63443C451C6681C0A26EA040C9F
:10035C0094FAA4F4B4FA84F40E6906FA04F44CEAA0
:10036C000404C4604C68012C9BD0092CC6D198E7BE
:10037C000120F0BD30B4036A23F001030362036A69
:10038C004468826922F073020D682A4323F0020349
:10039C000D692B4323F001034D682B430F4DA842ED
:1003AC0007D044608261CA6842630362012030BC9A
:1003BC00704723F008034D6943EA850323F00403D7
:1003CC008D6843EA850324F480748D692C4324F4EE
:1003DC000074CD6944EA4504E3E700BF002C0140FA
:1003EC0030B4036A23F010030362036A4468826921
:1003FC0022F4E6420D6842EA052223F020030D693F
:10040C0043EA051323F010034D6843EA0513104D1E
:10041C00A84207D044608261CA68826303620120EB
:10042C0030BC704723F080034D6943EA851323F0F9
:10043C0040038D6843EA851324F480648D6944EA93
:10044C00850424F40064CD6944EAC504E2E700BFE6
:10045C00002C014030B4036A23F480730362036AF6
:10046C004468C26922F073020D682A4323F40073B6
:10047C000D6943EA052323F480734D6843EA052391
:10048C000F4DA84207D04460C261CA68C2630362C0
:10049C00012030BC704723F400634D6943EA852387
:1004AC0023F480638D6843EA852324F480548D699A
:1004BC0044EA051424F40054CD6944EA4514E2E7F7
:1004CC00002C014030B4036A23F480530362036AA6
:1004DC004468C26922F4E6420D6842EA052223F41C
:1004EC0000530D6943EA053323F480534D6843EA06
:1004FC000533084DA84207D04460C261CA68026443
:10050C000362012030BC704724F480448D6944EAB6
:10051C008514F1E7002C014003681A4A90420AD076
:10052C00B0F1804F07D0A2F59432904203D002F57F
:10053C008062904203D123F070034A681343114A3E
:10054C0090420AD0B0F1804F07D0A2F5943290427D
:10055C0003D002F58062904203D123F44073CA6841
:10056C00134303608B68C3620B888362054B98420C
:10057C0005D0436943F001034361012070470B7CB4
:10058C000363F6E7002C014008B5102910D009D9F7
:10059C00B1F5807F10D0B1F5805F11D11146FFF716
:1005AC0091FF04E001290BD11146FFF7E3FE08BDD2
:1005BC001146FFF715FFFAE71146FFF74BFFF6E779
:1005CC000020F4E7054BA3FB003080090138044BF5
:1005DC00586000229A6005221A607047D34D621051
:1005EC0010E000E0014B1860704700BFFC080020D1
:1005FC00044BDB68044B002283F810234FF4803249
:10060C001A60704700ED00E000E100E000B589B031
:10061C0000230693079303F1804303F504339A698F
:10062C0042F010029A619A6902F010020292029A48
:10063C009A6942F020029A619A6902F020020192B2
:10064C00019A9A6942F004029A619B6903F00403CF
:10065C000093009B07484FF400534361064B0393F0
:10066C00012304930223059303A9FFF709FE09B0A4
:10067C005DF804FB0010014020002004F0B585B0AB
:10068C00374DAB6943F00403AB61AB6903F0040372
:10069C000393039B334C44F24003236009236360B0
:1006AC000323A3600026E66021462F48FFF7E8FDF0
:1006BC00EB6943F00203EB61EB6903F00203029375
:1006CC00029B2A4B1B682A4AA2FB03235B0D013BAE
:1006DC001D22E261A3822662A661264F04F1140159
:1006EC003846FFF719FF6023A3620121E1622663FC
:1006FC006663A66304F128023846FFF745FF6B6971
:10070C0043F001036B616B6903F001030193019BDF
:10071C00A5F5805506212846FFF712FD164BA3645C
:10072C00164BE364102323652A23A366A665802356
:10073C00E3654FF4807323664FF4806363666665EC
:10074C004FF40053E36604F1480206212846FFF7F4
:10075C006FFDFB6843F40073FB6005B0F0BD00BF98
:10076C00001002401C09002000080140FC08002079
:10077C00819F5E1600040040340400408C09002068
:10078C0082B00190019B5A1E0192002BFAD102B04B
:10079C0070470000F0B401EB4102D3009EB22A3640
:1007AC00B6B200231A464BE03E4D092725F81370CC
:1007BC0001339BB20134E4B2072C0CD802EB420596
:1007CC0005446D78A54015F0800FEDD0354D1127FF
:1007DC0025F81370ECE7002407E0324D092725F8C3
:1007EC00137001339BB20134E4B2072C0BD802EB2B
:1007FC004205455DA54015F0800FEED0294D11271F
:10080C0025F81370EDE7002407E0264D092725F89D
:10081C00137001339BB20134E4B2072C0CD802EBF9
:10082C0042050544AD78A54015F0800FEDD01D4D67
:10083C00112725F81370ECE70132D2B2013989B2D5
:10084C0039B10024B8E7174A002122F813100133FC
:10085C009BB2B342F7D3144A53681B0C1B041E43C0
:10086C005660136843F001031360104A136843F099
:10087C00010313600E4B1B6813F4001FFAD00B4AD4
:10088C00136823F00103136002F5FE326C32136817
:10089C0023F001031360064B4FF400125A60F0BCB6
:1008AC00704700BF8C0900206C000240000400401F
:1008BC000000024010B5244B1A6822F007021A609F
:1008CC001B68224A136843F4803313601F4B1B6868
:1008DC0013F4003FFAD01D4A536823F47C1343F4FD
:1008EC00A0235360136843F080731360174B1B688D
:1008FC0013F0007FFAD0154B5A6822F0F0025A60C0
:10090C005A6822F4E06242F480625A605A6822F417
:10091C0060525A605A6822F0030242F002025A6096
:10092C000A4B5B6803F00C03082BF9D1084C2046EA
:10093C00FFF748FE074A136843F004031360204690
:10094C00FFF750FE10BD00BF002002400010024017
:10095C0000366E0110E000E030B583B02A4B9A6986
:10096C0042F001029A619A6902F001020192019A25
:10097C00DA6942F08052DA61DB6903F0805300934C
:10098C00009B2249CA6822F4E0621204120C204B2C
:10099C001343CB601F4B5A6822F0E0625A605A68CE
:1009AC0042F080625A60FFF785FFFFF72FFEFFF7DA
:1009BC001FFEFFF763FE24E005EB450304211648F8
:1009CC001844FFF7E7FE154CE36883F40053E3602B
:1009DC00E36883F40053E3604CF25030FFF7D0FE31
:1009EC00E36883F40053E3600120FFF7C9FEE3687A
:1009FC0083F40053E36001352DB240F2FD239D4298
:100A0C00DADD0025F9E700BF0010024000ED00E040
:100A1C000003FA0500000140000000200010014016
:100A2C007047FEE7FEE7FEE7FEE77047704770474A
:100A3C00704770470F4B1A6842F001021A605968F0
:100A4C000D4A0A405A601A6822F0847222F48032ED
:100A5C001A601A6822F480221A605A6822F4FE0284
:100A6C005A604FF41F029A60044B4FF000629A6078
:100A7C00704700BF001002400000FFF800ED00E0DE
:100A8C00002103E00B4B5B58435004310A480B4BDD
:100A9C0042189A42F6D30A4A02E0002342F8043B79
:100AAC00084B9A42F9D3FFF7C5FF00F00FF8FFF798
:100ABC0053FF7047480B000800000020000900207D
:100ACC0000090020540A0020FEE7000070B5002544
:100ADC000C4E0D4CA41BA410A54209D100F01AF821
:100AEC0000250A4E0A4CA41BA410A54205D170BDCA
:100AFC0056F8253098470135EEE756F825309847DB
:100B0C000135F2E7400B0008400B0008400B0008D1
:100B1C00440B0008F8B500BFF8BC08BC9E467047F3
:0C0B2C00F8B500BFF8BC08BC9E4670473E
:080B3800081C3044586C8000D9
:040B40003101000877
:040B44000D01000897
:100B4800FF0000FE0100FD0200FC0300FB0400FAA8
:100B58000500F90600F80700F70800F60900F50A8D
:100B680000F40B00F30C00F20D00F10E00F00F0082
:100B7800EF1000EE1100ED1200EC1300EB1400EA88
:100B88001500E91600E81700E71800E61900E51A4D
:100B980000E41B00E31C00E21D00E11E00E01F0052
:100BA800DF2000DE2100DD2200DC2300DB2400DA68
:100BB8002500D92600D82700D72800D62900D52A0D
:100BC80000D42B00D32C00D22D00D12E00D02F0022
:100BD800CF3000CE3100CD3200CC3300CB3400CA48
:100BE8003500C93600C83700C73800C63900C53ACD
:100BF80000C43B00C33C00C23D00C13E00C03F00F2
:100C0800BF4000BE4100BD4200BC4300BB4400BA27
:100C18004500B94600B84700B74800B64900B54A8C
:100C280000B44B00B34C00B24D00B14E00B04F00C1
:100C3800AF5000AE5100AD5200AC5300AB5400AA07
:100C48005500A95600A85700A75800A65900A55A4C
:100C580000A45B00A35C00A25D00A15E00A05F0091
:100C68009F60009E61009D62009C63009B64009AE7
:100C78006500996600986700976800966900956A0C
:100C880000946B00936C00926D00916E00906F0061
:100C98008F70008E71008D72008C73008B74008AC7
:100CA8007500897600887700877800867900857ACC
:100CB80000847B00837C00827D00817E00807F0031
:100CC8007F80007E81007D82007C83007B84007AA7
:100CD8008500798600788700778800768900758A8C
:100CE80000748B00738C00728D00718E00708F0001
:100CF8006F90006E91006D92006C93006B94006A87
:100D08009500699600689700679800669900659A4B
:100D180000649B00639C00629D00619E00609F00D0
:100D28005FA0005EA1005DA2005CA3005BA4005A66
:100D3800A50059A60058A70057A80056A90055AA0B
:100D48000054AB0053AC0052AD0051AE0050AF00A0
:100D58004FB0004EB1004DB2004CB3004BB4004A46
:100D6800B50049B60048B70047B80046B90045BACB
:100D78000044BB0043BC0042BD0041BE0040BF0070
:100D88003FC0003EC1003DC2003CC3003BC4003A26
:100D9800C50039C60038C70037C80036C90035CA8B
:100DA8000034CB0033CC0032CD0031CE0030CF0040
:100DB8002FD0002ED1002DD2002CD3002BD4002A06
:100DC800D50029D60028D70027D80026D90025DA4B
:100DD8000024DB0023DC0022DD0021DE0020DF0010
:100DE8001FE0001EE1001DE2001CE3001BE4001AE6
:100DF800E50019E60018E70017E80016E90015EA0B
:100E08000014EB0013EC0012ED0011EE0010EF00DF
:100E18000FF0000EF1000DF2000CF3000BF4000AC5
:100E2800F50009F60008F70007F80006F90005FACA
:100E38000004FB0003FC0002FD0001FE0000FF00AF
:100E480000FE0100FD0200FC0300FB0400FA05009F
:100E5800F90600F80700F70800F60900F50A00F49B
:100E68000B00F30C00F20D00F10E00F00F00EF1074
:100E780000EE1100ED1200EC1300EB1400EA15006F
:100E8800E91600E81700E71800E61900E51A00E47B
:100E98001B00E31C00E21D00E11E00E01F00DF2034
:100EA80000DE2100DD2200DC2300DB2400DA25003F
:100EB800D92600D82700D72800D62900D52A00D45B
:100EC8002B00D32C00D22D00D12E00D02F00CF30F4
:100ED80000CE3100CD3200CC3300CB3400CA35000F
:100EE800C93600C83700C73800C63900C53A00C43B
:100EF8003B00C33C00C23D00C13E00C03F00BF40B4
:100F080000BE4100BD4200BC4300BB4400BA4500DE
:100F1800B94600B84700B74800B64900B54A00B41A
:100F28004B00B34C00B24D00B14E00B04F00AF5073
:100F380000AE5100AD5200AC5300AB5400AA5500AE
:100F4800A95600A85700A75800A65900A55A00A4FA
:100F58005B00A35C00A25D00A15E00A05F009F6033
:100F6800009E61009D62009C63009B64009A65007E
:100F7800996600986700976800966900956A0094DA
:100F88006B00936C00926D00916E00906F008F70F3
:100F9800008E71008D72008C73008B74008A75004E
:100FA800897600887700877800867900857A0084BA
:100FB8007B00837C00827D00817E00807F007F80B3
:100FC800007E81007D82007C83007B84007A85001E
:100FD800798600788700778800768900758A00749A
:100FE8008B00738C00728D00718E00708F006F9073
:100FF800006E91006D92006C93006B94006A9500EE
:10100800699600689700679800669900659A006479
:101018009B00639C00629D00619E00609F005FA032
:10102800005EA1005DA2005CA3005BA4005AA500BD
:1010380059A60058A70057A80056A90055AA005459
:10104800AB0053AC0052AD0051AE0050AF004FB0F2
:10105800004EB1004DB2004CB3004BB4004AB5008D
:1010680049B60048B70047B80046B90045BA004439
:10107800BB0043BC0042BD0041BE0040BF003FC0B2
:10108800003EC1003DC2003CC3003BC4003AC5005D
:1010980039C60038C70037C80036C90035CA003419
:1010A800CB0033CC0032CD0031CE0030CF002FD072
:1010B800002ED1002DD2002CD3002BD4002AD5002D
:1010C80029D60028D70027D80026D90025DA0024F9
:1010D800DB0023DC0022DD0021DE0020DF001FE032
:1010E800001EE1001DE2001CE3001BE4001AE500FD
:1010F80019E60018E70017E80016E90015EA0014D9
:10110800EB0013EC0012ED0011EE0010EF000FF0F1
:10111800000EF1000DF2000CF3000BF4000AF500CC
:1011280009F60008F70007F80006F90005FA0004B8
:10113800FB0003FC0002FD0001FE0000FF0100FEB1
:101148000200FD0300FC0400FB0500FA0600F90795
:1011580000F80800F70900F60A00F50B00F40C0087
:10116800F30D00F20E00F10F00F01000EF1100EE89
:101178001200ED1300EC1400EB1500EA1600E91755
:1011880000E81800E71900E61A00E51B00E41C0057
:10119800E31D00E21E00E11F00E02000DF2100DE69
:1011A8002200DD2300DC2400DB2500DA2600D92715
:1011B80000D82800D72900D62A00D52B00D42C0027
:1011C800D32D00D22E00D12F00D03000CF3100CE49
:1011D8003200CD3300CC3400CB3500CA3600C937D5
:1011E80000C83800C73900C63A00C53B00C43C00F7
:1011F800C33D00C23E00C13F00C04000BF4100BE29
:101208004200BD4300BC4400BB4500BA4600B94794
:1012180000B84800B74900B64A00B54B00B44C00C6
:10122800B34D00B24E00B14F00B05000AF5100AE08
:101238005200AD5300AC5400AB5500AA5600A95754
:1012480000A85800A75900A65A00A55B00A45C0096
:10125800A35D00A25E00A15F00A060009F61009EE8
:1012680062009D63009C64009B65009A6600996714
:1012780000986800976900966A00956B00946C0066
:10128800936D00926E00916F009070008F71008EC8
:1012980072008D73008C74008B75008A76008977D4
:1012A80000887800877900867A00857B00847C0036
:1012B800837D00827E00817F008080007F81007EA8
:1012C80082007D83007C84007B85007A8600798794
:1012D80000788800778900768A00758B00748C0006
:1012E800738D00728E00718F007090006F91006E88
:1012F80092006D93006C94006B95006A9600699754
:1013080000689800679900669A00659B00649C00D5
:10131800639D00629E00619F0060A0005FA1005E67
:10132800A2005DA3005CA4005BA5005AA60059A713
:101338000058A80057A90056AA0055AB0054AC00A5
:1013480053AD0052AE0051AF0050B0004FB1004E47
:10135800B2004DB3004CB4004BB5004AB60049B7D3
:101368000048B80047B90046BA0045BB0044BC0075
:1013780043BD0042BE0041BF0040C0003FC1003E27
:10138800C2003DC3003CC4003BC5003AC60039C793
:101398000038C80037C90036CA0035CB0034CC0045
:1013A80033CD0032CE0031CF0030D0002FD1002E07
:1013B800D2002DD3002CD4002BD5002AD60029D753
:1013C8000028D80027D90026DA0025DB0024DC0015
:1013D80023DD0022DE0021DF0020E0001FE1001EE7
:1013E800E2001DE3001CE4001BE5001AE60019E713
:1013F8000018E80017E90016EA0015EB0014EC00E5
:1014080013ED0012EE0011EF0010F0000FF1000EC6
:10141800F2000DF3000CF4000BF5000AF60009F7D2
:101428000008F80007F90006FA0005FB0004FC00B4
:1014380003FD0002FE0001FF0000000000A24A04B4
:0400000508000A8D58
:00000001FF
