:020000040800F2
:1000000000500020E92A00081524000817240008E1
:10001000192400081B2400081D240008000000000B
:100020000000000000000000000000001F24000885
:1000300021240008000000002324000825240008D3
:10004000312B0008312B0008312B0008312B000820
:10005000312B0008312B0008312B0008312B000810
:10006000312B0008312B0008312B0008312B000800
:1000700027240008312B0008312B00082924000810
:10008000312B000811150008312B0008312B000816
:10009000312B0008312B0008312B0008312B0008D0
:1000A000312B0008312B0008312B0008312B0008C0
:1000B00075150008312B0008312B0008312B000882
:1000C000312B0008312B0008312B0008312B0008A0
:1000D000312B0008C1150008312B0008312B000816
:1000E000312B0008312B0008312B000800000000E4
:1000F0000000000000000000000000000000000000
:0C01000000000000000000005FF808F1A3
:1001100010B5054C237833B9044B13B10448AFF341
:1001200000800123237010BDAC00002000000000FF
:100130008C2B000808B5034B1BB103490348AFF3F0
:10014000008008BD00000000B00000208C2B0008DB
:10015000034613F8012B002AFBD1181A0138704707
:1001600081F0004102E000BF83F0004330B54FEA68
:1001700041044FEA430594EA050F08BF90EA020FD5
:100180001FBF54EA000C55EA020C7FEA645C7FEA68
:10019000655C00F0E2804FEA5454D4EB5555B8BF8B
:1001A0006D420CDD2C4480EA020281EA030382EAFC
:1001B000000083EA010180EA020281EA0303362D8E
:1001C00088BF30BD11F0004F4FEA01314FF4801C61
:1001D0004CEA113102D0404261EB410113F0004F73
:1001E0004FEA03334CEA133302D0524263EB43032A
:1001F00094EA050F00F0A780A4F10104D5F1200EC8
:100200000DDB02FA0EFC22FA05F2801841F1000122
:1002100003FA0EF2801843FA05F359410EE0A5F1F6
:1002200020050EF1200E012A03FA0EFC28BF4CF027
:10023000020C43FA05F3C01851EBE37101F00045DD
:1002400007D54FF0000EDCF1000C7EEB00006EEBEA
:100250000101B1F5801F1BD3B1F5001F0CD3490874
:100260005FEA30004FEA3C0C04F101044FEA4452CB
:1002700012F5800F80F09A80BCF1004F08BF5FEA52
:10028000500C50F1000041EB045141EA050130BD32
:100290005FEA4C0C404141EB010111F4801FA4F1D5
:1002A0000104E9D191F0000F04BF01460020B1FA2A
:1002B00081F308BF2033A3F10B03B3F120020CDA62
:1002C0000C3208DD02F1140CC2F10C0201FA0CF040
:1002D00021FA02F10CE002F11402D8BFC2F1200CA5
:1002E00001FA02F120FA0CFCDCBF41EA0C0190405B
:1002F000E41AA2BF01EB0451294330BD6FEA0404A4
:100300001F3C1CDA0C340EDC04F11404C4F120028E
:1003100020FA04F001FA02F340EA030021FA04F3A0
:1003200045EA030130BDC4F10C04C4F1200220FAF7
:1003300002F001FA04F340EA0300294630BD21FA35
:1003400004F0294630BD94F0000F83F4801306BFFB
:1003500081F480110134013D4EE77FEA645C18BFEF
:100360007FEA655C29D094EA050F08BF90EA020F86
:1003700005D054EA000C04BF1946104630BD91EA7E
:10038000030F1EBF0021002030BD5FEA545C05D181
:100390004000494128BF41F0004130BD14F58004C0
:1003A0003CBF01F5801130BD01F0004545F0FE4134
:1003B00041F470014FF0000030BD7FEA645C1ABF69
:1003C000194610467FEA655C1CBF0B46024650EAA0
:1003D000013406BF52EA033591EA030F41F40021CC
:1003E00030BD00BF90F0000F04BF0021704730B552
:1003F0004FF4806404F132044FF000054FF0000127
:1004000050E700BF90F0000F04BF0021704730B5E7
:100410004FF4806404F1320410F0004548BF4042BC
:100420004FF000013EE700BF42004FEAE2014FEA11
:1004300031014FEA02701FBF12F07F4393F07F4FEC
:1004400081F06051704732F07F4208BF704793F0EF
:100450007F4F04BF41F40021704730B54FF4607402
:1004600001F0004521F000411CE700BF50EA010205
:1004700008BF704730B54FF000050AE050EA0102AE
:1004800008BF704730B511F0004502D5404261EB1E
:1004900041014FF4806404F132045FEA915C3FF45F
:1004A000D8AE4FF003025FEADC0C18BF03325FEAFC
:1004B000DC0C18BF033202EBDC02C2F1200300FAAD
:1004C00003FC20FA02F001FA03FE40EA0E0021FAD2
:1004D00002F11444BDE600BF70B54FF0FF0C4CF4C0
:1004E000E06C1CEA11541DBF1CEA135594EA0C0F72
:1004F00095EA0C0F00F0DEF82C4481EA030621EAAD
:100500004C5123EA4C5350EA013518BF52EA0335E7
:1005100041F4801143F4801338D0A0FB02CE4FF099
:100520000005E1FB02E506F00042E0FB03E54FF0C9
:100530000006E1FB03569CF0000F18BF4EF0010EC1
:10054000A4F1FF04B6F5007F64F5407404D25FEABD
:100550004E0E6D4146EB060642EAC62141EA555170
:100560004FEAC52040EA5E504FEACE2EB4F1FD0CB2
:1005700088BFBCF5E06F1ED8BEF1004F08BF5FEA30
:10058000500E50F1000041EB045170BD06F00046E2
:1005900046EA010140EA020081EA0301B4EB5C048F
:1005A000C2BFD4EB0C0541EA045170BD41F4801187
:1005B0004FF0000E013C00F3AB8014F1360FDEBFAC
:1005C000002001F0004170BDC4F10004203C35DA88
:1005D0000C341BDC04F11404C4F1200500FA05F30B
:1005E00020FA04F001FA05F240EA020001F00042AC
:1005F00021F0004110EBD37021FA04F642EB060122
:100600005EEA430E08BF20EAD37070BDC4F10C044B
:10061000C4F1200500FA04F320FA05F001FA04F20F
:1006200040EA020001F0004110EBD37041F10001FB
:100630005EEA430E08BF20EAD37070BDC4F1200506
:1006400000FA05F24EEA020E20FA04F301FA05F26E
:1006500043EA020321FA04F001F0004121FA04F216
:1006600020EA020000EBD3705EEA430E08BF20EAE6
:10067000D37070BD94F0000F0FD101F00046400020
:1006800041EB010111F4801F08BF013CF7D041EAA2
:10069000060195F0000F18BF704703F000465200A6
:1006A00043EB030313F4801F08BF013DF7D043EA77
:1006B0000603704794EA0C0F0CEA135518BF95EA2D
:1006C0000C0F0CD050EA410618BF52EA4306D1D1B4
:1006D00081EA030101F000414FF0000070BD50EAD3
:1006E000410606BF1046194652EA430619D094EA5D
:1006F0000C0F02D150EA013613D195EA0C0F05D147
:1007000052EA03361CBF104619460AD181EA03019A
:1007100001F0004141F0FE4141F470014FF0000052
:1007200070BD41F0FE4141F4780170BD70B54FF0ED
:10073000FF0C4CF4E06C1CEA11541DBF1CEA13556D
:1007400094EA0C0F95EA0C0F00F0A7F8A4EB05044F
:1007500081EA030E52EA03354FEA013100F0888046
:100760004FEA03334FF0805545EA131343EA12630F
:100770004FEA022245EA111545EA10654FEA0026C4
:100780000EF000419D4208BF964244F1FD0404F57D
:10079000407402D25B084FEA3202B61A65EB0305D9
:1007A0005B084FEA32024FF480104FF4002CB6EB96
:1007B000020E75EB030E22BFB61A754640EA0C0016
:1007C0005B084FEA3202B6EB020E75EB030E22BF56
:1007D000B61A754640EA5C005B084FEA3202B6EB97
:1007E000020E75EB030E22BFB61A754640EA9C0056
:1007F0005B084FEA3202B6EB020E75EB030E22BF26
:10080000B61A754640EADC0055EA060E18D04FEAE3
:10081000051545EA16754FEA06164FEAC30343EA83
:1008200052734FEAC2025FEA1C1CC0D111F4801F50
:100830000BD141EA00014FF000004FF0004CB6E749
:1008400011F4801F04BF01430020B4F1FD0C88BFE8
:10085000BCF5E06F3FF6AFAEB5EB030C04BFB6EBF3
:10086000020C5FEA500C50F1000041EB045170BDE6
:100870000EF0004E4EEA113114EB5C04C2BFD4EB13
:100880000C0541EA045170BD41F480114FF0000E97
:10089000013C90E645EA060E8DE60CEA135594EA13
:1008A0000C0F08BF95EA0C0F3FF43BAF94EA0C0F16
:1008B0000AD150EA01347FF434AF95EA0C0F7FF48B
:1008C00025AF104619462CE795EA0C0F06D152EADF
:1008D00003353FF4FDAE1046194622E750EA4106C3
:1008E00018BF52EA43067FF4C5AE50EA41047FF4D4
:1008F0000DAF52EA43057FF4EBAE12E74FF0FF3C39
:1009000006E000BF4FF0010C02E000BF4FF0010C09
:100910004DF804CD4FEA410C7FEA6C5C4FEA430C82
:1009200018BF7FEA6C5C1BD001B050EA410C0CBFD1
:1009300052EA430C91EA030F02BF90EA020F002033
:10094000704710F1000F91EA030F58BF994208BF9A
:1009500090422CBFD8176FEAE37040F00100704757
:100960004FEA410C7FEA6C5C02D150EA013C07D1AE
:100970004FEA430C7FEA6C5CD6D152EA033CD3D0F9
:100980005DF8040B704700BF8446104662468C46F3
:100990001946634600E000BF01B5FFF7B7FF002826
:1009A00048BF10F1000F01BD4DF808EDFFF7F4FF4F
:1009B0000CBF012000205DF808FB00BF4DF808EDDA
:1009C000FFF7EAFF34BF012000205DF808FB00BFFD
:1009D0004DF808EDFFF7E0FF94BF012000205DF81F
:1009E00008FB00BF4DF808EDFFF7CEFF94BF0120D4
:1009F00000205DF808FB00BF4DF808EDFFF7C4FFCD
:100A000034BF012000205DF808FB00BF4FEA41021F
:100A1000B2F1E04324BFB3F5001CDCF1FE5C0DD95C
:100A200001F0004C4FEAC0024CEA5070B2F1004FA6
:100A300040EB830008BF20F00100704711F0804FA9
:100A400021D113F13872BCBF01F00040704741F46E
:100A500080114FEA5252C2F11802C2F1200C10FA72
:100A60000CF320FA02F018BF40F001004FEAC12356
:100A70004FEAD32303FA0CFC40EA0C0023FA02F3FA
:100A80004FEA4303CCE77FEA625307D150EA0133D0
:100A90001EBF4FF0FE4040F44000704701F00040A0
:100AA00040F0FE4040F40000704700BF80F000407E
:100AB00002E000BF81F0004142001FBF5FEA410336
:100AC00092EA030F7FEA226C7FEA236C6AD04FEA36
:100AD0001262D2EB1363C1BFD2184140484041407B
:100AE000B8BF5B42192B88BF704710F0004F40F42D
:100AF000000020F07F4018BF404211F0004F41F449
:100B0000000121F07F4118BF494292EA030F3FD014
:100B1000A2F1010241FA03FC10EB0C00C3F1200327
:100B200001FA03F100F0004302D5494260EB4000B6
:100B3000B0F5000F13D3B0F1807F06D340084FEA21
:100B4000310102F10102FE2A51D2B1F1004F40EB16
:100B5000C25008BF20F0010040EA0300704749007E
:100B600040EB000010F4000FA2F10102EDD1B0FA49
:100B700080FCACF1080CB2EB0C0200FA0CF0AABF3E
:100B800000EBC25052421843BCBFD04018437047DC
:100B900092F0000F81F4000106BF80F400000132E2
:100BA000013BB5E74FEA41037FEA226C18BF7FEAB9
:100BB000236C21D092EA030F04D092F0000F08BFFB
:100BC0000846704790EA010F1CBF0020704712F0E2
:100BD0007F4F04D1400028BF40F00040704712F121
:100BE00000723CBF00F50000704700F0004343F086
:100BF000FE4040F4000070477FEA226216BF0846BC
:100C00007FEA23630146420206BF5FEA412390EA7E
:100C1000010F40F4800070474FF0000304E000BF74
:100C200010F0004348BF40425FEA000C08BF704725
:100C300043F0964301464FF000001CE050EA0102E9
:100C400008BF70474FF000030AE000BF50EA0102FE
:100C500008BF704711F0004302D5404261EB4101EB
:100C60005FEA010C02BF84460146002043F0B64310
:100C700008BFA3F18053A3F50003BCFA8CF2083A35
:100C8000A3EBC25310DB01FA02FC634400FA02FC3E
:100C9000C2F12002BCF1004F20FA02F243EB020045
:100CA00008BF20F00100704702F1200201FA02FCA7
:100CB000C2F1200250EA4C0021FA02F243EB02009A
:100CC00008BF20EADC7070474FF0FF0C1CEAD052DE
:100CD0001EBF1CEAD15392EA0C0F93EA0C0F6FD09F
:100CE0001A4480EA010C400218BF5FEA41211ED07D
:100CF0004FF0006343EA501043EA5111A0FB013169
:100D00000CF00040B1F5000F3EBF490041EAD3713D
:100D10005B0040EA010062F17F02FD2A1DD8B3F1B9
:100D2000004F40EBC25008BF20F00100704790F028
:100D3000000F0CF0004C08BF49024CEA502040EA7A
:100D400051207F3AC2BFD2F1FF0340EAC250704740
:100D500040F400004FF00003013A5DDC12F1190F7E
:100D6000DCBF00F000407047C2F10002410021FAF0
:100D700002F1C2F1200200FA02FC5FEA310040F108
:100D8000000053EA4C0308BF20EADC70704792F081
:100D9000000F00F0004C02BF400010F4000F013AB9
:100DA000F9D040EA0C0093F0000F01F0004C02BFB4
:100DB000490011F4000F013BF9D041EA0C018FE723
:100DC0000CEAD15392EA0C0F18BF93EA0C0F0AD029
:100DD00030F0004C18BF31F0004CD8D180EA01004F
:100DE00000F00040704790F0000F17BF90F0004FE8
:100DF000084691F0000F91F0004F14D092EA0C0FCA
:100E000001D142020FD193EA0C0F03D14B0218BF5C
:100E1000084608D180EA010000F0004040F0FE40A2
:100E200040F40000704740F0FE4040F4400070473E
:100E30004FF0FF0C1CEAD0521EBF1CEAD15392EABD
:100E40000C0F93EA0C0F69D0A2EB030280EA010CAD
:100E500049024FEA402037D04FF0805343EA111146
:100E600043EA10130CF000408B4238BF5B0042F1A4
:100E70007D024FF4000C8B4224BF5B1A40EA0C0049
:100E8000B3EB510F24BFA3EB510340EA5C00B3EB7B
:100E9000910F24BFA3EB910340EA9C00B3EBD10F69
:100EA00024BFA3EBD10340EADC001B0118BF5FEABB
:100EB0001C1CE0D1FD2A3FF650AF8B4240EBC250E4
:100EC00008BF20F0010070470CF0004C4CEA5020A5
:100ED0007F32C2BFD2F1FF0340EAC250704740F4F4
:100EE00000004FF00003013A37E792F0000F00F0E6
:100EF000004C02BF400010F4000F013AF9D040EA64
:100F00000C0093F0000F01F0004C02BF490011F4F7
:100F1000000F013BF9D041EA0C0195E70CEAD153EF
:100F200092EA0C0F08D142027FF47DAF93EA0C0FD6
:100F30007FF470AF084676E793EA0C0F04D14B02BA
:100F40003FF44CAF08466EE730F0004C18BF31F06C
:100F5000004CCAD130F000427FF45CAF31F0004366
:100F60007FF43CAF5FE700BF4FF0FF3C06E000BFFF
:100F70004FF0010C02E000BF4FF0010C4DF804CD22
:100F80004FEA40024FEA41037FEA226C18BF7FEA32
:100F9000236C11D001B052EA530C18BF90EA010F34
:100FA00058BFB2EB030088BFC81738BF6FEAE170C3
:100FB00018BF40F0010070477FEA226C02D15FEA5F
:100FC000402C05D17FEA236CE4D15FEA412CE1D0CB
:100FD0005DF8040B704700BF844608466146FFE792
:100FE0000FB5FFF7C9FF002848BF10F1000F0FBD74
:100FF0004DF808EDFFF7F4FF0CBF012000205DF86D
:1010000008FB00BF4DF808EDFFF7EAFF34BF0120F1
:1010100000205DF808FB00BF4DF808EDFFF7E0FF8A
:1010200094BF012000205DF808FB00BF4DF808EDDB
:10103000FFF7D2FF94BF012000205DF808FB00BF3E
:101040004DF808EDFFF7C8FF34BF012000205DF820
:1010500008FB00BF42000ED2B2F1FE4F0BD34FF09F
:101060009E03B3EB126209D44FEA002343F000431E
:1010700023FA02F070474FF00000704712F1610F41
:1010800001D1420202D14FF0FF3070474FF0000013
:10109000704700BF034B1B6813F0800FFAD0014B61
:1010A000586070470038014030B400241F4B1C705A
:1010B0001F4B80225A604FF400225A604FF00062AA
:1010C0005A601C494B681B0C1B0403434B601A4DB0
:1010D0006B681B0C1B0403436B60184A53681B0CA2
:1010E0001B04184350604FF080431C61086840F0B7
:1010F00001000860296841F001012960116841F090
:1011000001011160DA6842F40072DA60DA6842F4D0
:101110008062DA60DA6842F48072DA601D225A6214
:101120001A6842F001021A6030BC70473200002099
:10113000000002401C0002405800024080000240B3
:1011400070B50E46054615F8014B604B604A1A60B3
:10115000A4F111034F2B39D8DFE803F028383838D1
:1011600038383838383838383838383D4A513838CF
:10117000585F383838383838383838666D38383845
:101180008289909738383838383838747B3838380E
:1011900038383838383838383838383838383838CF
:1011A00038383838383838383838389E851C4478DC
:1011B0002046FFF731FD4749FFF73AFE464B1860DE
:1011C00000F092FC4FF44070FFF76EFF213CE4B258
:1011D0003E2C6ED970BD851C4478404B1C7000F0CD
:1011E000E7FC00F081FC4FF44070FFF75DFFEDE796
:1011F0003B4B3C4A1A603C4B3C4A1A60E6E7384B92
:101200003B4A1A60384B394A1A60DFE7344B354A9B
:101210001A60354B374A1A60D8E7314B344A1A60A6
:10122000314B344A1A60D1E72D4B2E4A1A602E4BAF
:10123000314A1A60CAE72A4B2D4A1A602A4B2E4AB5
:101240001A60C3E7264B274A1A60274B2B4A1A60BD
:10125000BCE7234B264A1A60234B284A1A60B5E79D
:101260001F4B204A1A60204B254A1A60AEE71C4BE0
:101270001F4A1A601C4B224A1A60A7E7184B194AEA
:101280001A60194B1F4A1A60A0E7154B184A1A60DA
:10129000154B1C4A1A6099E7851C44781A4B1C7040
:1012A00000F0A2FC00F020FC4FF44070FFF7FCFEC1
:1012B0008CE7284610F8022B144B1A706A78144BEE
:1012C0001A70F1B200F098FB84E700BF040100201F
:1012D000212300080000A04100000020050000209C
:1012E000FC000020591C0008BC0A0020751E0008E4
:1012F000411D0008B91F0008A71E0008091F0008AB
:101300001B2000087D2000080600002004000020AB
:10131000F800002000B585B01049114800F00CFB22
:10132000104B1A680092009A5A680092009ADA6884
:1013300042F02002DA605A6942F001025A610A4A18
:1013400001AB07CA03C323F8022B120C1A700B213E
:1013500001A800F051FB05B05DF804FB4111000845
:101360009510000800380140AC2B000810B5254A44
:10137000136823F0070343F0020313601368A2F518
:101380008052136843F4803313601F4B1B6813F4BF
:10139000003FFAD01C4A536823F47C1343F4E8134B
:1013A0005360136843F080731360174B1B6813F08E
:1013B000007FFAD0144B5A6822F0F0025A605A6843
:1013C00022F4E06242F480625A605A6822F4605269
:1013D0005A605A6822F0030242F002025A600A4B35
:1013E0005B6803F00C03082BF9D1084C204601F090
:1013F000C3FA074A136843F004031360204601F060
:10140000E1FA10BD002002400010024000A24A0490
:1014100010E000E000B585B0374B9A6942F0010258
:101420009A619A6902F001020192019ADA6942F026
:101430008052DA61DB6903F080530093009B2F49EF
:10144000CA6822F4E0621204120C2D4B1343CB60E5
:101450002C4B5A6822F0E0625A605A6842F080626F
:101460005A60FFF783FF00F0C3F800F0F5F900F0D1
:1014700011F900F02BF9FFF74DFF00F0A5FF00F088
:1014800097FB00F0B1FB00F0BBFB4FF44070FFF79F
:101490000BFE1D4A1368ADF80C301B0C8DF80E3096
:1014A0005368ADF808301B0C8DF80A3003A800F023
:1014B00017FE00F019FB4FF44070FFF7F5FD15E043
:1014C00003A800F00DFE00F00FFB4FF44070FFF793
:1014D000EBFD4FF4487001F05FFA02A800F000FE47
:1014E00000F002FB4FF44070FFF7DEFD074B1B7866
:1014F000002BFBD0E4E700BF0010024000ED00E04D
:101500000003FA0500000140A42B0008320000206F
:10151000154AD36883F40053D360144B4FF0007224
:101520005A604FF08043DA6842F00102DA601049F5
:101530000A6822F001020A603C310A6822F00102C6
:101540000A6028310A6822F001020A60DA6822F48F
:101550000072DA60DA6822F48062DA60DA6822F413
:101560008072DA60704700BF001001400000024046
:101570001C0002404FF080436FF001021A610E4BD5
:101580001B78DBB2272B05D80B4A13780133DBB26B
:1015900013707047084B00221A704FF080431A688E
:1015A00022F001021A60DA6822F00102DA60034BCD
:1015B00001221A70704700BFC800002032000020CE
:1015C0000A4B1B6813F0200F04D0084BDB6813F0A4
:1015D000200F00D1704710B5044B5C68E4B2204680
:1015E00000F0B6F92046FFF755FD10BD0038014068
:1015F00030B58BB000230893099303F1804303F5C2
:1016000004339A6942F004029A619A6902F0040272
:101610000492049A9A6942F008029A619A6902F067
:1016200008020392039A9A6942F010029A619A6939
:1016300002F010020292029A9A6942F020029A6124
:101640009B6903F020030193019B6FF07B4305939B
:1016500001240694032307930B4D05A9284600F0A7
:10166000E4FE4FF6FF736B61084B0593069402236B
:101670000793074C05A9204600F0D7FE4FF400530E
:1016800063610BB030BD00BF0008014020002004A2
:101690000010014082B00A4B5A6942F001025A61BF
:1016A0005B6903F001030193019B064BDB68064B6A
:1016B000002283F811234FF400321A6002B0704701
:1016C0000010024000ED00E000E100E02DE9F047ED
:1016D00098B000241394149415941694179420220F
:1016E00021460BA801F04AFA2822214601A801F060
:1016F00045FA4E4BDA6942F00102DA61DB6903F028
:1017000001030093009B4A4D0221284600F008FF88
:10171000DFF840A1CDF804A0464B029310260396B3
:101720000994059406944FF48079CDF81C904FF4F9
:101730008068CDF8208004944FF440570A9701AA9E
:101740000221284600F064FF0521284600F0E8FE4B
:10175000CDF804A0384B0293039609940594802396
:101760000693CDF81C90CDF8208004940A9701AA26
:101770000521284600F04CFF0721284600F0D0FE46
:10178000CDF804A02D4B029303960994059406947A
:10179000CDF81C90CDF8208004940A9701AA072167
:1017A000284600F035FF264BDB68264B83F81C43A8
:1017B0004FF080521A60244A136843F0020313600A
:1017C000224B1B68224AA2FB03235B0D013B1D2217
:1017D0001592ADF84C301694149413A94FF0804034
:1017E00001F010F84FF080452B6823F080032B6048
:1017F0000B940C9408230E930BAA0121284601F0A8
:1018000039F8AB6923F00803AB6160230B930C94A8
:1018100011230E930BAA3146284601F02BF8AB6931
:1018200023F40063AB6118B0BDE8F08700100240FC
:1018300000000240300000206C040020FA0000206C
:1018400000ED00E000E100E080000240A800002080
:10185000819F5E160C08014070B582B0264B9A69D4
:1018600042F480429A619B6903F480430193019B97
:10187000224C44F240032360092363600323A360E6
:101880000025E5601E4E2146304600F0CEFD48F2B0
:1018900080032360042363602146304600F0C5FDC9
:1018A000184A536843F004035360174BDB68174B27
:1018B00083F8255320225A6015494FF416530B60C4
:1018C0004D608D60CD600C230B614D61114C204645
:1018D00001F0A4F8236923F490432361636923F0A2
:1018E0002A036361E36843F40053E360E36843F071
:1018F0002003E36002B070BD00100240CC00002065
:10190000000C01400000014000ED00E000E100E0BB
:10191000E000002000380140414049B2CBB281EAEA
:101920000311C9B2000A40EA012000B280EA111096
:1019300080EAC10080B27047044B186059600022F1
:101940005A814FF6FF7199811A7270476C0A002014
:1019500038B57E281DD0264B1B7A002B3BD0244B5C
:1019600000221A7280F02000214B5C892344987376
:10197000012C07D9A31E1E4D2B44997BA889FFF784
:10198000CBFFA8810134A4B2194B5C81402C28D034
:1019900038BD174B1B7A4BB1154B00221A72144BF2
:1019A00000225A814FF6FF729A81F1E7104B598954
:1019B0000129F4D998894A1E1A44927B8C1E23442B
:1019C0009B7B43EA02239842E9D10A4850F80A3C3B
:1019D000A1B29847E3E77D28C6D1054B01221A72D0
:1019E000D6E700225A814FF6FF729A81D0E700BFF6
:1019F0006C0A00207A0A0020F8B504460D46294BEF
:101A00001B680BB17E2098474FF6FF7708E086F001
:101A10002006244B1B680BB130469847013DEDB2C0
:101A200095B114F8016B31463846FFF775FF07464C
:101A3000A6F17D03DBB2012BEBD81A4B1B68002B00
:101A4000E5D07D209847E2E7FCB2A4F17D03DBB24C
:101A5000012B16D9134B1B680BB120469847C7F3CF
:101A60000727A7F17D03DBB2012B12D90D4B1B68B1
:101A70000BB1384698470B4B1B680BB17E2098473B
:101A8000F8BD084B1B680BB17D20984784F02004FB
:101A9000E0E7044B1B680BB17D20984787F02007D7
:101AA000E4E700BF6C0A00200023022B04D8CA5CC4
:101AB000C2540133DBB2F8E77047000070B5064648
:101AC0000D460024022C0CD8285DFFF7A9F8054B21
:101AD0001968FFF7F9F8FFF7BDFA30550134E4B2A1
:101AE000F0E770BD000000202DE9F04F87B0002620
:101AF00050E025462BE001EB41012A4B194405A893
:101B0000FFF7DCFF05EB07119DF8163000939DF8F9
:101B100015309DF8142089B2304600F005FC0134E0
:101B2000E4B20F2C29D804EB0A1303EB4613FF2B66
:101B300023DC1FFA8AF707EB4601090189B2214429
:101B400089B2BBF1000FD4D1C4F10F05EDB2CB08BF
:101B5000154AD25C0023CDE9022301F00703029A63
:101B6000DA4002F001084FF0000958EA0903C2D038
:101B70000E4905A8FFF7A2FFC4E70AF1010A5FFAC0
:101B80008AFABAF1010F03D80AF0010B0024C8E762
:101B90000136F6B2072E02D84FF0000AF1E707B07F
:101BA000BDE8F08F6801002008010020000100203E
:101BB00038B5002501E00135EDB20F2D0ED8002417
:101BC0000F2CF8D804EB051000EB40000449054B3E
:101BD0001844FFF769FF0134E4B2F1E738BD00BFF4
:101BE0002C0000206801002000231F2B05D8034A89
:101BF0000021D1540133DBB2F7E770470801002020
:101C000070B582B000261FE00135EDB2012D19D864
:101C100000240F2CF8D804EB051303EB4613FF2B1D
:101C2000F2DC0C4A04EB051192F82630009392F88E
:101C3000253092F8242089B2304600F075FB01343B
:101C4000A4B2E6E70136F6B2072E01D80025DDE79B
:101C500002B070BD080000202DE9F84F6FF00709B1
:101C600058E0E7B225E0013464B22F4B1D786B1EBB
:101C70009C421EDA601CFEF7D3FF83462846FEF71F
:101C8000CFFF01465846FFF7D3F8284B1B68002BBF
:101C9000E9D002464946304698470028E3D0244B15
:101CA0001B78002BDDD1204B1F783F1BFFB2013F7B
:101CB000FFB208EB480807EB470779001D4B1944B2
:101CC00003311D484044FFF7EFFE002304E01B4AA8
:101CD0009621D1540133DBB2022BF8D9013676B20A
:101CE000082E13DC06F108081FFA88F80AF108002C
:101CF000000180B280441FFA88F80D4B1F781FB195
:101D0000094B1F78013FFFB20024AEE709F101093A
:101D10004FFA89F9CA46B9F1080F02DC6FF00706DD
:101D2000DEE7BDE8F88F00BF04000020BC0A0020F9
:101D3000F80000202C010020680100200001002094
:101D40002DE9F04F85B0464B1C78B4FA84FA4FEA7F
:101D50005A1A002318E0434A04EB4400410011449E
:101D60001944C9784FEA4A00504445002A441A44AD
:101D7000D2788A1A3C49097892FBF1F204A91944F5
:101D800001F8042C0133DBB2022BE4D96FF0070316
:101D900001935BE0013464B2334B1D786B1E9C42AF
:101DA0002EDA661C3046FEF73BFF07462846FEF754
:101DB00037FF01463846FFF73BF82C4B1B68002BDA
:101DC000E8D002460199404698470028E2D0002317
:101DD000022B15D84FEA4A0151444800214A0244D7
:101DE0001A44D27804A9194411F9041C06FB0121F4
:101DF00009EB49001E4A0244D1540133DBB2E7E744
:101E000008F101084FFA88F8B8F1080F1ADC08F158
:101E100008091FFA89F90BF108031B019BB29944C9
:101E20001FFA89F909EB49020D4B1B7803EB4303B9
:101E300059000C4B194403310D481044FFF734FE90
:101E40000024A9E7019B01335BB20193019B9B46F0
:101E5000082B02DC6FF00708D6E705B0BDE8F08F6D
:101E6000F80000202C01002004000020BC0A002003
:101E70006801002038B501FB01F100FB00144FF0B0
:101E800085411046FEF720FF05462046FEF7C8FEB6
:101E90004FF001042946FFF7BFF808B94FF00004DE
:101EA00004F0010038BDF8B505460F464FF08241F9
:101EB0001046FEF709FF04462846FEF7B1FE064627
:101EC00004F100452946FFF7B1F8A0B1214630469C
:101ED000FFF7A2F888B13846FEF7A2FE0646014693
:101EE0002846FFF799F850B121463046FFF794F89D
:101EF00010B1012000E00020F8BD0020FCE7002028
:101F0000FAE70000000000002DE9F04782460C4689
:101F10004FF082411046FEF7D7FE06462046FEF7F8
:101F200071FA804689461EA3D3E90023FEF7D4FA4E
:101F300004460D463046FEF777FA06460F4602463F
:101F40000B4620462946FEF711F9FEF75FFD0446D1
:101F50005046FEF765FE054604F10041FFF770F8B4
:101F6000C8B121462846FFF74DF8B8B10EA3D3E912
:101F7000002330463946FEF7AFFA0DA3D3E900231C
:101F8000FEF7F4F802460B4640464946FEF716FDBA
:101F900010B1012000E00020BDE8F0870020FBE741
:101FA000666666666666E63FCDCCCCCCCCCCEC3FB4
:101FB000000000A02449F23FF8B505460E464FF058
:101FC00082411046FEF780FE01464FF08240FEF748
:101FD00071FD04462846FEF723FE074604F100453E
:101FE0002946FFF719F820B921463846FFF71EF8B1
:101FF00078B13046FEF714FE064601462846FFF744
:1020000015F840B921463046FFF710F820B10120FD
:1020100002E0002000E00120F8BDF8B505460E46BC
:102020004FF082411046FEF74FFE01464FF08240CE
:10203000FEF740FD04462846FEF7F2FD074604F190
:1020400000452946FEF7F2FF20B921463846FEF743
:10205000E3FF78B13046FEF7E3FD06460146284629
:10206000FEF7E4FF40B921463046FEF7DFFF20B11E
:10207000012002E0002000E00120F8BDF8B505468F
:102080000E464FF082411046FEF71EFE01464FF00D
:102090008240FEF70FFD04462846FEF7C1FD0746C5
:1020A00004F100452946FEF7B7FF20B9214638461E
:1020B000FEF7BCFF78B13046FEF7B2FD064601469A
:1020C0002846FEF7A9FF40B921463046FEF7A4FF97
:1020D00020B1012002E0002000E00120F8BD000056
:1020E00070B5064600250CE004EB051000EB40003F
:1020F0003146064B1844FFF7D7FC0134102CF3DDB2
:102100000135102D01DC0024F8E770BD68010020C6
:102110002038C0B2164B03EB40035B7813F0010F7D
:1021200000D0013931B9124B13F81000000900F04A
:102130000E007047012907D002290AD0032912D0C6
:10214000042912D00020F2E7094B13F810004008D0
:10215000EDE7074A12F81000800000F00C0003F0D1
:102160000203184370471809E1E75808DFE700BF8A
:10217000B82B00082DE9F04781460C4690461546DD
:10218000002730E04FEAEC0CD3F1000E03F0070318
:102190000EF0070E58BFCEF100034FF0010E0EFAFD
:1021A00003FEDFF864A01AF80C3043EA0E030AF8C5
:1021B0000C300132D2B20139C9B2134604F1030C1A
:1021C00062450CDC20FA01FC1CF0010FF1D003EB9E
:1021D00006139C46002BD5DA03F1070CD2E7013534
:1021E000EDB20137FFB22E4608F105039D4208DC2F
:1021F0000F2D06D839464846FFF78AFF22460321AD
:10220000DBE7BDE8F08700BF080100202DE9F84FAB
:102210000746884693469A469DF8289000252E4604
:102220002C460CE009F1050202FB06F2D2B25A4438
:10223000D2B2785DFFF79EFF0134E4B20135384633
:10224000FDF786FFA8420ED90AF1030303FB04F150
:10225000C9B24144C9B20B440E2BE3DD0136F6B2DC
:1022600041460024DEE7BDE8F88F70B582B006462F
:102270000C461546FDF76CFFE31C03FB00F0C0B2F3
:10228000C0F1100000EBD07141F347016A1DD2B2DA
:10229000C2F1100202EBD27221EAE17100952346ED
:1022A000C2F34702C9B23046FFF7B0FF02B070BDBB
:1022B000F8B500252E462AE0FFF796FC05EBC50091
:1022C00005EB40000830144F384400220121084437
:1022D000FFF7CBFF0134E4B2022C16D804EB440222
:1022E00053000E4AD15CC4F1020303EB430305EB38
:1022F000C50205EB42021344074AD35C994204D15C
:102300000136F6B2032EE5D1D6E70135EDB2052D43
:1023100001D80024E0E7F8BD340000202C010020A3
:1023200008B5FFF7C5FF08BD2DE9F0439DF81CC0B7
:10233000002743E001EB4104E50005EB0708012617
:102340008640F64336B21F4C34F818E006EA0E0E0B
:1023500024F818E005F1080EBE4434F81E9006EA91
:10236000090924F81E9010353D4434F8159006EA0A
:10237000090624F8156003FA07F6C6F3C01686406E
:1023800034F8189046EA090624F8186002FA07F6AD
:10239000C6F3C016864034F81E8046EA080624F8C4
:1023A0001E600CFA07F6C6F3C016864034F815E036
:1023B00046EA0E0624F815600137FFB2072FB9D997
:1023C000BDE8F0836C040020002009281ED830B43A
:1023D00003E00130C0B2092816D804460C4D430072
:1023E00003445A00A9180023AB544B708B70022B86
:1023F000EFD804EB44025100054A0A441A44002174
:10240000D1700133DBB2F2E730BC7047704700BFD8
:102410002C0100207047FEE7FEE7FEE7FEE770476D
:1024200070477047704770477047F0B50D68C5F347
:102430000F2595FAA5F2B2FA82F235E0A2F108046E
:102440004FF00113A34043F0806339E0C45993FA7D
:10245000A3F6B6FA86F6B6004FF0030C0CFA06F6B1
:1024600024EA060C93FAA3F6B6FA86F6B6008C6850
:1024700004FA06F646EA0C06C651CC6893FAA3FCA9
:10248000BCFA8CFC4FEA8C0C4FF0040E0EFA0CFCDC
:1024900026EA0C0693FAA3F3B3FA83F39B0004FA3B
:1024A00003F33343C351013235FA02F335D001232C
:1024B00093402B42F7D0072AC0D840F20113934033
:1024C0004E681F0EC45993FAA3FCBCFA8CFC4FEA69
:1024D0008C0C4FF00F0E0EFA0CFC24EA0C0493FA4D
:1024E000A3FCBCFA8CFC4FEA8C0C06FA0CF63443C5
:1024F000C451C6681C0A26EA040C94FAA4F4B4FA7F
:1025000084F40E6906FA04F44CEA0404C4604C68CE
:10251000012C9BD0092CC6D198E70120F0BD00000A
:10252000334B984228D0324B984229D0304B9842B6
:102530002AD02F4B98422BD02D4B98422CD02C4B8D
:1025400098422DD02B4B1A6822F001021A6000220B
:102550001A605A609A60DA60012927D0022929D0CE
:1025600003292BD004292ED0052931D0062934D0B7
:10257000072937D0002070470129D4D11E4BE2E74C
:102580000229D3D11D4BDEE70329D2D11C4BDAE758
:102590000429D1D11B4BD6E70529D0D11A4BD2E75C
:1025A000062901D08033CEE7184BCCE701234360E6
:1025B0001846704710234360012070474FF4807322
:1025C0004360012070474FF48053436001207047FF
:1025D0004FF480334360012070474FF48013436011
:1025E000012070474FF0807343600120704700BFA7
:1025F0000000024080000240080002401C0002402F
:102600003000024044000240580002406C0002408A
:1026100030B49368D4682343146923435469234333
:1026200094692343D4692343546A234301390B4CEF
:10263000655C2C18295821F4FF4121F070010B43EF
:102640002B505368E3601368A360126A63681B0C25
:102650001B0413436360012030BC7047782C0008D2
:1026600030B4036A23F001030362036A4468826999
:1026700022F073020D682A4323F002030D692B43F5
:1026800023F001034D682B430F4DA84207D044604F
:102690008261CA6842630362012030BC704723F044
:1026A00008034D6943EA850323F004038D6843EA78
:1026B000850324F480748D692C4324F40074CD695F
:1026C00044EA4504E3E700BF002C014030B4036A4C
:1026D00023F010030362036A4468826922F4E6422D
:1026E0000D6842EA052223F020030D6943EA051331
:1026F00023F010034D6843EA0513104DA84207D09C
:1027000044608261CA6882630362012030BC704702
:1027100023F080034D6943EA851323F040038D685D
:1027200043EA851324F480648D6944EA850424F423
:102730000064CD6944EAC504E2E700BF002C014013
:1027400030B4036A23F480730362036A4468C26985
:1027500022F073020D682A4323F400730D6943EAE3
:10276000052323F480734D6843EA05230F4DA842E7
:1027700007D04460C261CA68C2630362012030BCF2
:10278000704723F400634D6943EA852323F4806393
:102790008D6843EA852324F480548D6944EA051446
:1027A00024F40054CD6944EA4514E2E7002C0140CA
:1027B00030B4036A23F480530362036A4468C26935
:1027C00022F4E6420D6842EA052223F400530D6923
:1027D00043EA053323F480534D6843EA0533084D3B
:1027E000A84207D04460C261CA6802640362012043
:1027F00030BC704724F480448D6944EA8514F1E7C5
:10280000002C014003681A4A90420AD0B0F1804F70
:1028100007D0A2F59432904203D002F58062904234
:1028200003D123F070034A681343114A90420AD03F
:10283000B0F1804F07D0A2F59432904203D002F558
:102840008062904203D123F44073CA68134303604B
:102850008B68C3620B888362054B984205D043693D
:1028600043F001034361012070470B7C0363F6E7EB
:10287000002C014008B5102914D009D9B1F5807F8A
:1028800014D0B1F5805F0BD11146FFF791FF06E040
:10289000012903D11146FFF7E3FE00E0002008BD47
:1028A0000020FCE71146FFF711FFF8E71146FFF79C
:1028B00047FFF4E7034B5B68C3F30313024AD35C9F
:1028C000D840704700100240802C0008034B5B6822
:1028D000C3F30223024AD35CD84070470010024081
:1028E000902C0008034B5B68C3F3C223024AD35CFD
:1028F000D840704700100240902C00080B4B5B68DA
:1029000003F4803343B90A48084B5B68C3F383433D
:10291000023300FB03F07047044B5868C0F340409B
:10292000431C0448B0FBF3F0EEE700BF0010024088
:1029300000093D0000127A0008B5054B5B6803F002
:102940000C03082B01D0034808BDFFF7D7FFFBE7B6
:102950000010024000127A0010B50446FFF7ECFFA9
:102960002060FFF7A7FF6060FFF7B0FFA06060681E
:10297000FFF7B8FFE06010BD054BA3FB00308009F6
:102980000138044B586000229A6005221A60704793
:10299000D34D621010E000E082B0094B1B68019338
:1029A000019BB0F1FF3F00D0013030B1044B1B68F8
:1029B00013F4803FF9D00138F7E702B0704700BF49
:1029C00010E000E0014B1860704700BFA800002035
:1029D0000F4B1A6842F001021A6059680D4A0A400A
:1029E0005A601A6822F0847222F480321A601A68DF
:1029F00022F480221A605A6822F4FE025A604FF4D0
:102A00001F029A60044B4FF000629A60704700BF4B
:102A1000001002400000FFF800ED00E0C36813F46E
:102A2000005F01D00020704730B585B00D460446E8
:102A3000C36823F4B05323F00C034A68C9680A43FF
:102A400029690A431343C360AB68026922F4405208
:102A5000134303616B69426922F44072134343617B
:102A60006846FFF779FF1C4B9C4208D01B4B9C42E9
:102A70002AD01B4B9C4229D0002005B030BD039BBF
:102A800033B32A6832B303EB830303EB830392006F
:102A9000B3FBF2F3134DA5FB03204009020191B2F1
:102AA000642202FB103213013233A5FB0323C3F36C
:102AB0004F1303F0F0020A4492B203F00F031344E1
:102AC0009BB2A3600120D8E7029BD9E7029BD7E71E
:102AD0000020D2E70020D0E7003801400044004049
:102AE000004800401F85EB51002103E00B4B5B5871
:102AF000435004310A480B4B42189A42F6D30A4A13
:102B000002E0002342F8043B084B9A42F9D3FFF756
:102B10005FFF00F00FF8FEF77DFC7047A02C000867
:102B200000000020AC000020AC000020C00A002003
:102B3000FEE7000070B500260C4D0D4C641BA41080
:102B4000A64209D100F022F800260A4D0A4C641B67
:102B5000A410A64205D170BD55F8043B9847013634
:102B6000EEE755F8043B98470136F2E7982C000849
:102B7000982C0008982C00089C2C0008034602445E
:102B8000934200D1704703F8011BF9E7F8B500BF85
:102B9000F8BC08BC9E467047F8B500BFF8BC08BC3E
:042BA0009E46704796
:102BA40001010400040101004F4C4120616D69677B
:102BB4006F21000000004908B400BEF67B7AA5949A
:102BC40055B848002944442A15A00B42005003027A
:102BD4000008259076BA595CC59EC53892E6F33A4A
:102BE40073BAE59077BA773A084008502A441CE053
:102BF4008852E508568E77B677B8728CD6BA739E2B
:102C0400739272AEB7B6E95C64AAB7B4929CBEB6CE
:102C1400D6B656AAD79276EE77B47138E948B6AEEE
:102C2400B6AAB6F6B5B4B548E59C694C9124642EB1
:102C34005400001C44000EAE9ABA0E8C2EAE0ECE7A
:102C440056D0553B93B44144415197B4494417B6C7
:102C54001AB60AAAD6D3766717900F389A8C16AE8E
:102C640016BA16F615B4B52B1C5E6B4C4948C95AF6
:102C7400540056E2081C3044586C800000000000E8
:102C84000000000001020304060708090000000018
:042C94000102030432
:042C980035010008FA
:042C9C00110100081A
:102CA0000000003F030101004E4E4E74635E6569F3
:102CB000694848242727273A312F323535242412F2
:102CC000757575AE948D979E9E6C6C3600000000F5
:102CD000FFFF01004600314400364400365465636E
:102CE0006E6F6C6F67696141003443003546003692
:102CF0004D75736963610000000042003442003585
:102D000047003653657200000000000000410034A7
:102D10004100354100366500000000000000000061
:102D2000460034410035410036536162657200004F
:102D30000000004100344500354100365365720003
:0C2D4000000000000000000000A24A0497
:0400000508002AE9DC
:00000001FF
