:020000040800F2
:100000000050002069260008951F0008971F00086F
:10001000991F00089B1F00089D1F0008000000009A
:100020000000000000000000000000009F1F00080A
:10003000A11F000800000000A31F0008A51F000862
:10004000B1260008B1260008B1260008B126000834
:10005000B1260008B1260008B1260008B126000824
:10006000B1260008B1260008B1260008B126000814
:10007000A71F0008B1260008B1260008A91F000824
:10008000B1260008A9150008B1260008B12600080D
:10009000B1260008B1260008B1260008B1260008E4
:1000A000B1260008B1260008B1260008B1260008D4
:1000B000FD150008B1260008B1260008B126000889
:1000C000B1260008B1260008B1260008B1260008B4
:1000D000B126000849160008B1260008B12600081C
:1000E000B1260008B1260008B12600080000000073
:1000F0000000000000000000000000000000000000
:0C01000000000000000000005FF808F1A3
:1001100010B5054C237833B9044B13B10448AFF341
:1001200000800123237010BD340000200000000077
:10013000FC26000808B5034B1BB103490348AFF385
:10014000008008BD0000000038000020FC260008E8
:1001500081F0004102E000BF83F0004330B54FEA78
:1001600041044FEA430594EA050F08BF90EA020FE5
:100170001FBF54EA000C55EA020C7FEA645C7FEA78
:10018000655C00F0E2804FEA5454D4EB5555B8BF9B
:100190006D420CDD2C4480EA020281EA030382EA0C
:1001A000000083EA010180EA020281EA0303362D9E
:1001B00088BF30BD11F0004F4FEA01314FF4801C71
:1001C0004CEA113102D0404261EB410113F0004F83
:1001D0004FEA03334CEA133302D0524263EB43033A
:1001E00094EA050F00F0A780A4F10104D5F1200ED8
:1001F0000DDB02FA0EFC22FA05F2801841F1000133
:1002000003FA0EF2801843FA05F359410EE0A5F106
:1002100020050EF1200E012A03FA0EFC28BF4CF037
:10022000020C43FA05F3C01851EBE37101F00045ED
:1002300007D54FF0000EDCF1000C7EEB00006EEBFA
:100240000101B1F5801F1BD3B1F5001F0CD3490884
:100250005FEA30004FEA3C0C04F101044FEA4452DB
:1002600012F5800F80F09A80BCF1004F08BF5FEA62
:10027000500C50F1000041EB045141EA050130BD42
:100280005FEA4C0C404141EB010111F4801FA4F1E5
:100290000104E9D191F0000F04BF01460020B1FA3A
:1002A00081F308BF2033A3F10B03B3F120020CDA72
:1002B0000C3208DD02F1140CC2F10C0201FA0CF050
:1002C00021FA02F10CE002F11402D8BFC2F1200CB5
:1002D00001FA02F120FA0CFCDCBF41EA0C0190406B
:1002E000E41AA2BF01EB0451294330BD6FEA0404B4
:1002F0001F3C1CDA0C340EDC04F11404C4F120029F
:1003000020FA04F001FA02F340EA030021FA04F3B0
:1003100045EA030130BDC4F10C04C4F1200220FA07
:1003200002F001FA04F340EA0300294630BD21FA45
:1003300004F0294630BD94F0000F83F4801306BF0B
:1003400081F480110134013D4EE77FEA645C18BFFF
:100350007FEA655C29D094EA050F08BF90EA020F96
:1003600005D054EA000C04BF1946104630BD91EA8E
:10037000030F1EBF0021002030BD5FEA545C05D191
:100380004000494128BF41F0004130BD14F58004D0
:100390003CBF01F5801130BD01F0004545F0FE4144
:1003A00041F470014FF0000030BD7FEA645C1ABF79
:1003B000194610467FEA655C1CBF0B46024650EAB0
:1003C000013406BF52EA033591EA030F41F40021DC
:1003D00030BD00BF90F0000F04BF0021704730B562
:1003E0004FF4806404F132044FF000054FF0000137
:1003F00050E700BF90F0000F04BF0021704730B5F8
:100400004FF4806404F1320410F0004548BF4042CC
:100410004FF000013EE700BF42004FEAE2014FEA21
:1004200031014FEA02701FBF12F07F4393F07F4FFC
:1004300081F06051704732F07F4208BF704793F0FF
:100440007F4F04BF41F40021704730B54FF4607412
:1004500001F0004521F000411CE700BF50EA010215
:1004600008BF704730B54FF000050AE050EA0102BE
:1004700008BF704730B511F0004502D5404261EB2E
:1004800041014FF4806404F132045FEA915C3FF46F
:10049000D8AE4FF003025FEADC0C18BF03325FEA0C
:1004A000DC0C18BF033202EBDC02C2F1200300FABD
:1004B00003FC20FA02F001FA03FE40EA0E0021FAE2
:1004C00002F11444BDE600BF70B54FF0FF0C4CF4D0
:1004D000E06C1CEA11541DBF1CEA135594EA0C0F82
:1004E00095EA0C0F00F0DEF82C4481EA030621EABD
:1004F0004C5123EA4C5350EA013518BF52EA0335F8
:1005000041F4801143F4801338D0A0FB02CE4FF0A9
:100510000005E1FB02E506F00042E0FB03E54FF0D9
:100520000006E1FB03569CF0000F18BF4EF0010ED1
:10053000A4F1FF04B6F5007F64F5407404D25FEACD
:100540004E0E6D4146EB060642EAC62141EA555180
:100550004FEAC52040EA5E504FEACE2EB4F1FD0CC2
:1005600088BFBCF5E06F1ED8BEF1004F08BF5FEA40
:10057000500E50F1000041EB045170BD06F00046F2
:1005800046EA010140EA020081EA0301B4EB5C049F
:10059000C2BFD4EB0C0541EA045170BD41F4801197
:1005A0004FF0000E013C00F3AB8014F1360FDEBFBC
:1005B000002001F0004170BDC4F10004203C35DA98
:1005C0000C341BDC04F11404C4F1200500FA05F31B
:1005D00020FA04F001FA05F240EA020001F00042BC
:1005E00021F0004110EBD37021FA04F642EB060132
:1005F0005EEA430E08BF20EAD37070BDC4F10C045C
:10060000C4F1200500FA04F320FA05F001FA04F21F
:1006100040EA020001F0004110EBD37041F100010B
:100620005EEA430E08BF20EAD37070BDC4F1200516
:1006300000FA05F24EEA020E20FA04F301FA05F27E
:1006400043EA020321FA04F001F0004121FA04F226
:1006500020EA020000EBD3705EEA430E08BF20EAF6
:10066000D37070BD94F0000F0FD101F00046400030
:1006700041EB010111F4801F08BF013CF7D041EAB2
:10068000060195F0000F18BF704703F000465200B6
:1006900043EB030313F4801F08BF013DF7D043EA87
:1006A0000603704794EA0C0F0CEA135518BF95EA3D
:1006B0000C0F0CD050EA410618BF52EA4306D1D1C4
:1006C00081EA030101F000414FF0000070BD50EAE3
:1006D000410606BF1046194652EA430619D094EA6D
:1006E0000C0F02D150EA013613D195EA0C0F05D157
:1006F00052EA03361CBF104619460AD181EA0301AB
:1007000001F0004141F0FE4141F470014FF0000062
:1007100070BD41F0FE4141F4780170BD70B54FF0FD
:10072000FF0C4CF4E06C1CEA11541DBF1CEA13557D
:1007300094EA0C0F95EA0C0F00F0A7F8A4EB05045F
:1007400081EA030E52EA03354FEA013100F0888056
:100750004FEA03334FF0805545EA131343EA12631F
:100760004FEA022245EA111545EA10654FEA0026D4
:100770000EF000419D4208BF964244F1FD0404F58D
:10078000407402D25B084FEA3202B61A65EB0305E9
:100790005B084FEA32024FF480104FF4002CB6EBA6
:1007A000020E75EB030E22BFB61A754640EA0C0026
:1007B0005B084FEA3202B6EB020E75EB030E22BF66
:1007C000B61A754640EA5C005B084FEA3202B6EBA7
:1007D000020E75EB030E22BFB61A754640EA9C0066
:1007E0005B084FEA3202B6EB020E75EB030E22BF36
:1007F000B61A754640EADC0055EA060E18D04FEAF4
:10080000051545EA16754FEA06164FEAC30343EA93
:1008100052734FEAC2025FEA1C1CC0D111F4801F60
:100820000BD141EA00014FF000004FF0004CB6E759
:1008300011F4801F04BF01430020B4F1FD0C88BFF8
:10084000BCF5E06F3FF6AFAEB5EB030C04BFB6EB03
:10085000020C5FEA500C50F1000041EB045170BDF6
:100860000EF0004E4EEA113114EB5C04C2BFD4EB23
:100870000C0541EA045170BD41F480114FF0000EA7
:10088000013C90E645EA060E8DE60CEA135594EA23
:100890000C0F08BF95EA0C0F3FF43BAF94EA0C0F26
:1008A0000AD150EA01347FF434AF95EA0C0F7FF49B
:1008B00025AF104619462CE795EA0C0F06D152EAEF
:1008C00003353FF4FDAE1046194622E750EA4106D3
:1008D00018BF52EA43067FF4C5AE50EA41047FF4E4
:1008E0000DAF52EA43057FF4EBAE12E74A0011D296
:1008F00012F5001211D20DD56FF47873B3EB62527A
:100900000ED44FEAC12343F0004343EA505323FA85
:1009100002F070474FF00000704750EA013002D1FA
:100920004FF0FF3070474FF00000704780F00040FC
:1009300002E000BF81F0004142001FBF5FEA4103B7
:1009400092EA030F7FEA226C7FEA236C6AD04FEAB7
:100950001262D2EB1363C1BFD218414048404140FC
:10096000B8BF5B42192B88BF704710F0004F40F4AE
:10097000000020F07F4018BF404211F0004F41F4CA
:10098000000121F07F4118BF494292EA030F3FD096
:10099000A2F1010241FA03FC10EB0C00C3F12003A9
:1009A00001FA03F100F0004302D5494260EB400038
:1009B000B0F5000F13D3B0F1807F06D340084FEAA3
:1009C000310102F10102FE2A51D2B1F1004F40EB98
:1009D000C25008BF20F0010040EA03007047490000
:1009E00040EB000010F4000FA2F10102EDD1B0FACB
:1009F00080FCACF1080CB2EB0C0200FA0CF0AABFC0
:100A000000EBC25052421843BCBFD040184370475D
:100A100092F0000F81F4000106BF80F40000013263
:100A2000013BB5E74FEA41037FEA226C18BF7FEA3A
:100A3000236C21D092EA030F04D092F0000F08BF7C
:100A40000846704790EA010F1CBF0020704712F063
:100A50007F4F04D1400028BF40F00040704712F1A2
:100A600000723CBF00F50000704700F0004343F007
:100A7000FE4040F4000070477FEA226216BF08463D
:100A80007FEA23630146420206BF5FEA412390EA00
:100A9000010F40F4800070474FF0000304E000BFF6
:100AA00010F0004348BF40425FEA000C08BF7047A7
:100AB00043F0964301464FF000001CE050EA01026B
:100AC00008BF70474FF000030AE000BF50EA010280
:100AD00008BF704711F0004302D5404261EB41016D
:100AE0005FEA010C02BF84460146002043F0B64392
:100AF00008BFA3F18053A3F50003BCFA8CF2083AB7
:100B0000A3EBC25310DB01FA02FC634400FA02FCBF
:100B1000C2F12002BCF1004F20FA02F243EB0200C6
:100B200008BF20F00100704702F1200201FA02FC28
:100B3000C2F1200250EA4C0021FA02F243EB02001B
:100B400008BF20EADC7070474FF0FF0C1CEAD0525F
:100B50001EBF1CEAD15392EA0C0F93EA0C0F6FD020
:100B60001A4480EA010C400218BF5FEA41211ED0FE
:100B70004FF0006343EA501043EA5111A0FB0131EA
:100B80000CF00040B1F5000F3EBF490041EAD371BF
:100B90005B0040EA010062F17F02FD2A1DD8B3F13B
:100BA000004F40EBC25008BF20F00100704790F0AA
:100BB000000F0CF0004C08BF49024CEA502040EAFC
:100BC00051207F3AC2BFD2F1FF0340EAC2507047C2
:100BD00040F400004FF00003013A5DDC12F1190F00
:100BE000DCBF00F000407047C2F10002410021FA72
:100BF00002F1C2F1200200FA02FC5FEA310040F18A
:100C0000000053EA4C0308BF20EADC70704792F002
:100C1000000F00F0004C02BF400010F4000F013A3A
:100C2000F9D040EA0C0093F0000F01F0004C02BF35
:100C3000490011F4000F013BF9D041EA0C018FE7A4
:100C40000CEAD15392EA0C0F18BF93EA0C0F0AD0AA
:100C500030F0004C18BF31F0004CD8D180EA0100D0
:100C600000F00040704790F0000F17BF90F0004F69
:100C7000084691F0000F91F0004F14D092EA0C0F4B
:100C800001D142020FD193EA0C0F03D14B0218BFDE
:100C9000084608D180EA010000F0004040F0FE4024
:100CA00040F40000704740F0FE4040F440007047C0
:100CB0004FF0FF0C1CEAD0521EBF1CEAD15392EA3F
:100CC0000C0F93EA0C0F69D0A2EB030280EA010C2F
:100CD00049024FEA402037D04FF0805343EA1111C8
:100CE00043EA10130CF000408B4238BF5B0042F126
:100CF0007D024FF4000C8B4224BF5B1A40EA0C00CB
:100D0000B3EB510F24BFA3EB510340EA5C00B3EBFC
:100D1000910F24BFA3EB910340EA9C00B3EBD10FEA
:100D200024BFA3EBD10340EADC001B0118BF5FEA3C
:100D30001C1CE0D1FD2A3FF650AF8B4240EBC25065
:100D400008BF20F0010070470CF0004C4CEA502026
:100D50007F32C2BFD2F1FF0340EAC250704740F475
:100D600000004FF00003013A37E792F0000F00F067
:100D7000004C02BF400010F4000F013AF9D040EAE5
:100D80000C0093F0000F01F0004C02BF490011F479
:100D9000000F013BF9D041EA0C0195E70CEAD15371
:100DA00092EA0C0F08D142027FF47DAF93EA0C0F58
:100DB0007FF470AF084676E793EA0C0F04D14B023C
:100DC0003FF44CAF08466EE730F0004C18BF31F0EE
:100DD000004CCAD130F000427FF45CAF31F00043E8
:100DE0007FF43CAF5FE700BF4FF0FF3C06E000BF81
:100DF0004FF0010C02E000BF4FF0010C4DF804CDA4
:100E00004FEA40024FEA41037FEA226C18BF7FEAB3
:100E1000236C11D001B052EA530C18BF90EA010FB5
:100E200058BFB2EB030088BFC81738BF6FEAE17044
:100E300018BF40F0010070477FEA226C02D15FEAE0
:100E4000402C05D17FEA236CE4D15FEA412CE1D04C
:100E50005DF8040B704700BF844608466146FFE713
:100E60000FB5FFF7C9FF002848BF10F1000F0FBDF5
:100E70004DF808EDFFF7F4FF0CBF012000205DF8EE
:100E800008FB00BF4DF808EDFFF7EAFF34BF012073
:100E900000205DF808FB00BF4DF808EDFFF7E0FF0C
:100EA00094BF012000205DF808FB00BF4DF808ED5D
:100EB000FFF7D2FF94BF012000205DF808FB00BFC0
:100EC0004DF808EDFFF7C8FF34BF012000205DF8A2
:100ED00008FB00BF034B1B6813F0800FFAD0014BD7
:100EE00058607047003801400378213B172B13D816
:100EF000DFE803F00C19121220271212121212123C
:100F00001212122E351212123C434A51254B264A18
:100F10001A60264B264A1A604278264B1A7082784D
:100F2000254B1A7070471F4B244A1A601F4B204AEA
:100F30001A60F1E71B4B1C4A1A601C4B204A1A60CE
:100F4000EAE7184B1D4A1A60184B1D4A1A60E3E77E
:100F5000144B154A1A60154B1A4A1A60DCE7114BFC
:100F6000164A1A60114B174A1A60D5E70D4B0E4A04
:100F70001A600E4B144A1A60CEE70A4B0F4A1A60E9
:100F80000A4B114A1A60C7E7064B074A1A60074B1B
:100F90000E4A1A60C0E7034B084A1A60034B0B4A1B
:100FA0001A60B9E7E0000020D9190008A00A002063
:100FB000DD1B000800000020DC000020A91A00084A
:100FC0006B1C00080F1C0008CD1C00082F1D00081A
:100FD00082B00A4B5A6942F001025A615B6903F020
:100FE00001030193019B064BDB68064B002283F84B
:100FF00011234FF400321A6002B070470010024013
:1010000000ED00E000E100E030B585B01F4B9A69CB
:1010100042F004029A619A6902F004020392039A70
:101020009A6942F008029A619A6902F008020292F3
:10103000029A9A6942F010029A619A6902F01002CB
:101040000192019A9A6942F020029A619B6903F029
:1010500020030093009B0E4C6FF07B43236001251F
:1010600065600323A36021460A4800F09EFF0A4BF7
:10107000236065600223A360084D2146284600F0E6
:1010800094FF4FF400536B6105B030BD0010024077
:1010900078000020000801402000200400100140DA
:1010A00070B582B0264B9A6942F480429A619B697E
:1010B00003F480430193019B224C44F240032360DC
:1010C000092363600323A3600025E5601E4E2146CB
:1010D000304600F06AFF48F2800323600423636017
:1010E0002146304600F061FF184A536843F004037C
:1010F0005360174BDB68174B83F8255320225A6047
:1011000015494FF416530B604D608D60CD600C2374
:101110000B614D61114C204601F040FA236923F424
:1011200090432361636923F02A036361E36843F416
:101130000053E360E36843F02003E36002B070BD56
:101140000010024078000020000C01400000014027
:1011500000ED00E000E100E0C400002000380140A4
:101160002DE9F04F83B0514BDA6942F00102DA61A8
:10117000DB6903F001030193019B4D4E02213046D0
:1011800000F08EFF4B4CDFF858B1C4F800B04A4B6A
:1011900063601027A76000252562256165614FF413
:1011A000007AC4F818A04FF48069C4F81C90E56078
:1011B0004FF44058C4F8248022460221304600F003
:1011C000E7FF0521304600F06BFFC4F800B03B4B51
:1011D0006360A7602562256180236361C4F818A05D
:1011E000C4F81C90E560C4F82480224605213046EE
:1011F00000F0CEFF0721304600F052FFC4F800B0E7
:101200002F4B6360A760256225616561C4F818A053
:10121000C4F81C90E560C4F82480224607213046BB
:1012200000F0B6FF274BDB68274B83F81C534FF0C9
:1012300080521A60254A136843F002031360244B5E
:101240001B68244AA2FB03235B0D013B22491D229C
:101250008A600B80CD604D604FF0804001F092F8C5
:101260004FF08044236823F0800323601B4E3560D9
:1012700075600823F36032460121204601F0BAF878
:10128000A36923F00803A361602333607560112311
:10129000F36032463946204601F0ACF8A36923F4E6
:1012A0000063A36103B0BDE8F08F00BF00100240EF
:1012B00000000240500000202C00002050040020BC
:1012C000DE00002000ED00E000E100E080000240D0
:1012D00030000020819F5E1690000020A4000020B6
:1012E0000C08014030B400241F4B1C701F4B80229F
:1012F0005A604FF400225A604FF000625A601C4955
:101300004B681B0C1B0403434B601A4D6B681B0C92
:101310001B0403436B60184A53681B0C1B041843DF
:1013200050604FF080431C61086840F00100086085
:10133000296841F001012960116841F00101116043
:10134000DA6842F40072DA60DA6842F48062DA60E5
:10135000DA6842F48072DA601D225A621A6842F03A
:1013600001021A6030BC70472E00002000000240CD
:101370001C000240580002408000024000B585B0C9
:101380001049114800F090F9104B1A680092009A29
:101390005A680092009ADA6842F02002DA605A69CC
:1013A00042F001025A610A4A01AB07CA03C323F89B
:1013B000022B120C1A700B2101A800F0D5F905B010
:1013C0005DF804FBE90E0008D50E00080038014066
:1013D0001427000810B5254A136823F0070343F0CB
:1013E000020313601368A2F58052136843F480333C
:1013F00013601F4B1B6813F4003FFAD01C4A53685C
:1014000023F47C1343F4E8135360136843F08073B0
:101410001360174B1B6813F0007FFAD0144B5A6807
:1014200022F0F0025A605A6822F4E06242F48062CC
:101430005A605A6822F460525A605A6822F00302D5
:1014400042F002025A600A4B5B6803F00C03082B5F
:10145000F9D1084C204601F04FF8074A136843F0D1
:1014600004031360204601F06DF810BD0020024017
:101470000010024000A24A0410E000E000B583B072
:10148000444B9A6942F001029A619A6902F00102A2
:101490000192019ADA6942F08052DA61DB6903F065
:1014A00080530093009B3C49CA6822F4E062120416
:1014B000120C3A4B1343CB60394B5A6822F0E0626E
:1014C0005A605A6842F080625A60FFF783FFFFF764
:1014D0009BFDFFF7E5FDFFF77BFDFFF741FEFFF703
:1014E0004DFF00F031FD00F023FA00F03DFA00F06E
:1014F00047FA182000F0BEFC0F2000F0BBFC57207C
:1015000000F0B8FC09E000F0AFF94FF44070FFF7CD
:10151000E9FE4FF4FA6000F0FFFF1C2000F0AAFC87
:10152000204B1B6803B1984700F09EF94FF44070C0
:10153000FFF7D8FE4FF4FA6000F0EEFF3A2000F01B
:1015400099FC184B1B6803B1984700F08DF94FF4D4
:101550004070FFF7C7FE4FF4FA6000F0DDFF112086
:1015600000F088FC0F4B1B6803B1984700F07CF932
:101570004FF44070FFF7B6FE4FF4FA6000F0CCFF76
:10158000532000F077FC074B1B68002BBBD098471B
:10159000B9E700BF0010024000ED00E00003FA05CB
:1015A00000000140E0000020124B4FF000725A6032
:1015B0004FF08043DA6842F00102DA600E490A68AF
:1015C00022F001020A603C310A6822F001020A603E
:1015D00028310A6822F001020A60DA6822F40072F7
:1015E000DA60DA6822F48062DA60DA6822F4807203
:1015F000DA607047000002401C0002404FF0804358
:101600006FF001021A610E4B1B78DBB2272B05D855
:101610000B4A13780133DBB213707047084B00227A
:101620001A704FF080431A6822F001021A60DA68DB
:1016300022F00102DA60034B01221A70704700BFEA
:101640008C0000202E0000200D4B1B6813F0200F93
:1016500004D00B4BDB6813F0200F00D1704710B59E
:10166000084AD36883F40053D360054B5C68E4B246
:10167000204600F025F82046FFF72CFC10BD00BFE7
:101680000038014000100140414049B2CBB281EA2C
:101690000311C9B2000A40EA012000B280EA111029
:1016A00080EAC10080B27047044B18605960002284
:1016B0005A814FF6FF7199811A727047500A0020C3
:1016C00038B57E281DD0264B1B7A002B3BD0244BEF
:1016D00000221A7280F02000214B5C892344987309
:1016E000012C07D9A31E1E4D2B44997BA889FFF717
:1016F000CBFFA8810134A4B2194B5C81402C28D0C7
:1017000038BD174B1B7A4BB1154B00221A72144B84
:1017100000225A814FF6FF729A81F1E7104B5989E6
:101720000129F4D998894A1E1A44927B8C1E2344BD
:101730009B7B43EA02239842E9D10A4850F80A3CCD
:10174000A1B29847E3E77D28C6D1054B01221A7262
:10175000D6E700225A814FF6FF729A81D0E700BF88
:10176000500A00205E0A0020F8B504460D46294BB9
:101770001B680BB17E2098474FF6FF7708E086F094
:101780002006244B1B680BB130469847013DEDB253
:1017900095B114F8016B31463846FFF775FF0746DF
:1017A000A6F17D03DBB2012BEBD81A4B1B68002B93
:1017B000E5D07D209847E2E7FCB2A4F17D03DBB2DF
:1017C000012B16D9134B1B680BB120469847C7F362
:1017D0000727A7F17D03DBB2012B12D90D4B1B6844
:1017E0000BB1384698470B4B1B680BB17E209847CE
:1017F000F8BD084B1B680BB17D20984784F020048E
:10180000E0E7044B1B680BB17D20984787F0200769
:10181000E4E700BF500A00200023022B04D8CA5C72
:10182000C2540133DBB2F8E770470000000000004B
:1018300070B506460D460024022C0DD8285DFEF733
:10184000D9FD07A3D3E90023FEF73EFEFFF74EF8CC
:1018500030550134E4B2EFE770BD00BFAFF3008054
:101860009A9999999999C93F2DE9F04F87B0002627
:1018700050E025462BE001EB41012A4B194405A815
:10188000FFF7D6FF05EB07119DF8163000939DF882
:1018900015309DF8142089B2304600F079FA0134F1
:1018A000E4B20F2C29D804EB0A1303EB4613FF2BE9
:1018B00023DC1FFA8AF707EB4601090189B22144AC
:1018C00089B2BBF1000FD4D1C4F10F05EDB2CB0842
:1018D000154AD25C0023CDE9022301F00703029AE6
:1018E000DA4002F001084FF0000958EA0903C2D0BB
:1018F0000E4905A8FFF79CFFC4E70AF1010A5FFA49
:101900008AFABAF1010F03D80AF0010B0024C8E7E4
:101910000136F6B2072E02D84FF0000AF1E707B001
:10192000BDE8F08F4C010020EC000020E400002016
:1019300038B5002501E00135EDB20F2D0ED8002499
:101940000F2CF8D804EB051000EB40000449054BC0
:101950001844FFF761FF0134E4B2F1E738BD00BF7E
:10196000280000204C01002000231F2B05D8034A2B
:101970000021D1540133DBB2F7E77047EC000020BF
:1019800070B582B000261FE00135EDB2012D19D8E7
:1019900000240F2CF8D804EB051303EB4613FF2BA0
:1019A000F2DC0C4A04EB051192F82630009392F811
:1019B000253092F8242089B2304600F0E9F901344C
:1019C000A4B2E6E70136F6B2072E01D80025DDE71E
:1019D00002B070BD040000202DE9F84F6FF0070938
:1019E0004FE0E7B225E0013464B22A4B1D786B1E4C
:1019F0009C421EDA601CFFF753F883462846FFF727
:101A00004FF801465846FFF753F9234B1B68002B4C
:101A1000E9D002464946304698470028E3D01F4B9C
:101A20001B78002BDDD11B4B1F783F1BFFB2013F02
:101A3000FFB208EB480807EB47077900184B194439
:101A4000033118484044FFF7E7FE013676B2082E0E
:101A500013DC06F108081FFA88F80AF108000001F3
:101A600080B280441FFA88F80C4B1F781FB1094BD5
:101A70001F78013FFFB20024B7E709F101094FFACF
:101A800089F9CA46B9F1080F02DC6FF00706DEE7F4
:101A9000BDE8F88F00000020A00A0020DC00002034
:101AA000100100204C0100202DE9F04F85B0464B7D
:101AB0001C78B4FA84FA4FEA5A1A002318E0434A11
:101AC00004EB4400410011441944C9784FEA4A002C
:101AD000504445002A441A44D2788A1A3C4909786D
:101AE00092FBF1F204A9194401F8042C0133DBB292
:101AF000022BE4D96FF0070301935BE0013464B279
:101B0000334B1D786B1E9C422EDA661C3046FEF766
:101B1000C7FF07462846FEF7C3FF01463846FFF7D2
:101B2000C7F82C4B1B68002BE8D0024601994046B1
:101B300098470028E2D00023022B15D84FEA4A012B
:101B400051444800214A02441A44D27804A9194455
:101B500011F9041C06FB012109EB49001E4A02444D
:101B6000D1540133DBB2E7E708F101084FFA88F8F6
:101B7000B8F1080F1ADC08F108091FFA89F90BF10E
:101B800008031B019BB299441FFA89F909EB49022A
:101B90000D4B1B7803EB430359000C4B19440331E5
:101BA0000D481044FFF738FE0024A9E7019B0133DC
:101BB0005BB20193019B9B46082B02DC6FF0070888
:101BC000D6E705B0BDE8F08FDC0000201001002052
:101BD00000000020A00A00204C01002038B501FBC5
:101BE00001F100FB00144FF085411046FEF7ACFFF9
:101BF00005462046FEF754FF4FF001042946FFF743
:101C00004BF908B94FF0000404F0010038BDF8B5F5
:101C100005460F464FF082411046FEF795FF0446F9
:101C20002846FEF73DFF064604F100452946FFF72A
:101C30003DF9A0B121463046FFF72EF988B138466C
:101C4000FEF72EFF064601462846FFF725F950B15C
:101C500021463046FFF720F910B1012000E00020B6
:101C6000F8BD0020FCE70020FAE7F8B505460E466F
:101C70004FF082411046FEF767FF01464FF0824069
:101C8000FEF758FE04462846FEF70AFF074604F111
:101C900000452946FFF700F920B921463846FFF7ED
:101CA00005F978B13046FEF7FBFE064601462846A8
:101CB000FFF7FCF840B921463046FFF7F7F820B1AE
:101CC000012002E0002000E00120F8BDF8B5054643
:101CD0000E464FF082411046FEF736FF01464FF0A8
:101CE0008240FEF727FE04462846FEF7D9FE074647
:101CF00004F100452946FFF7D9F820B921463846B6
:101D0000FFF7CAF878B13046FEF7CAFE064601462C
:101D10002846FFF7CBF840B921463046FFF7C6F812
:101D200020B1012002E0002000E00120F8BDF8B55C
:101D300005460E464FF082411046FEF705FF01466C
:101D40004FF08240FEF7F6FD04462846FEF7A8FE57
:101D5000074604F100452946FFF79EF820B92146C1
:101D60003846FFF7A3F878B13046FEF799FE0646ED
:101D700001462846FFF790F840B921463046FFF764
:101D80008BF820B1012002E0002000E00120F8BD26
:101D90002DE9F0439DF81CC0002743E001EB41040E
:101DA000E50005EB070801268640F64336B21F4CD6
:101DB00034F818E006EA0E0E24F818E005F1080ED3
:101DC000BE4434F81E9006EA090924F81E90103526
:101DD0003D4434F8159006EA090624F8156003FA24
:101DE00007F6C6F3C016864034F8189046EA09068E
:101DF00024F8186002FA07F6C6F3C016864034F8D5
:101E00001E8046EA080624F81E600CFA07F6C6F3A0
:101E1000C016864034F815E046EA0E0624F8156030
:101E20000137FFB2072FB9D9BDE8F0835004002075
:101E3000F8B501460A237BB15A1E0C4D03EB430350
:101E40005C002F1902EB420673002B441E682E51D2
:101E50009B88BB80D3B2EEE7044B054A108892788A
:101E600018809A70D81CFFF7D7FCF8BD100100202D
:101E70000C01002008B5304A82FB0032C317C3EBC7
:101E800062031A4603EB43039900431ADBB22B4962
:101E90000B7030322A4B9A7000225A700B78DBB2EA
:101EA0000B2B0AD8DFE803F00612181C22262A3072
:101EB000343A3E44224B43221A70204B187800EBF0
:101EC0004000204B1844FFF7B3FF08BD1C4B4322D2
:101ED0001A7023225A70F0E7194B44221A70ECE76B
:101EE000174B45221A7062225A70E6E7144B4522BE
:101EF0001A70E2E7124B46221A70DEE7104B4622B8
:101F00001A7023225A70D8E70D4B47221A70D4E773
:101F10000B4B41221A7062225A70CEE7084B4122C5
:101F20001A70CAE7064B42221A7062225A70C4E73E
:101F3000034B42221A70C0E7ABAAAA2A2F00002046
:101F40000C01002004000020002009281ED830B415
:101F500003E00130C0B2092816D804460C4D4300F6
:101F600003445A00A9180023AB544B708B70022B0A
:101F7000EFD804EB44025100054A0A441A440021F8
:101F8000D1700133DBB2F2E730BC7047704700BF5D
:101F9000100100207047FEE7FEE7FEE7FEE770470E
:101FA00070477047704770477047F0B50D68C5F3CC
:101FB0000F2595FAA5F2B2FA82F235E0A2F10804F3
:101FC0004FF00113A34043F0806339E0C45993FA02
:101FD000A3F6B6FA86F6B6004FF0030C0CFA06F636
:101FE00024EA060C93FAA3F6B6FA86F6B6008C68D5
:101FF00004FA06F646EA0C06C651CC6893FAA3FC2E
:10200000BCFA8CFC4FEA8C0C4FF0040E0EFA0CFC60
:1020100026EA0C0693FAA3F3B3FA83F39B0004FABF
:1020200003F33343C351013235FA02F335D00123B0
:1020300093402B42F7D0072AC0D840F201139340B7
:102040004E681F0EC45993FAA3FCBCFA8CFC4FEAED
:102050008C0C4FF00F0E0EFA0CFC24EA0C0493FAD1
:10206000A3FCBCFA8CFC4FEA8C0C06FA0CF6344349
:10207000C451C6681C0A26EA040C94FAA4F4B4FA03
:1020800084F40E6906FA04F44CEA0404C4604C6853
:10209000012C9BD0092CC6D198E70120F0BD00008F
:1020A000334B984228D0324B984229D0304B98423B
:1020B0002AD02F4B98422BD02D4B98422CD02C4B12
:1020C00098422DD02B4B1A6822F001021A60002290
:1020D0001A605A609A60DA60012927D0022929D053
:1020E00003292BD004292ED0052931D0062934D03C
:1020F000072937D0002070470129D4D11E4BE2E7D1
:102100000229D3D11D4BDEE70329D2D11C4BDAE7DC
:102110000429D1D11B4BD6E70529D0D11A4BD2E7E0
:10212000062901D08033CEE7184BCCE7012343606A
:102130001846704710234360012070474FF48073A6
:102140004360012070474FF4805343600120704783
:102150004FF480334360012070474FF48013436095
:10216000012070474FF0807343600120704700BF2B
:102170000000024080000240080002401C000240B3
:102180003000024044000240580002406C0002400F
:1021900030B49368D46823431469234354692343B8
:1021A00094692343D4692343546A234301390B4C74
:1021B000655C2C18295821F4FF4121F070010B4374
:1021C0002B505368E3601368A360126A63681B0CAA
:1021D0001B0413436360012030BC704720270008B4
:1021E00030B4036A23F001030362036A446882691E
:1021F00022F073020D682A4323F002030D692B437A
:1022000023F001034D682B430F4DA84207D04460D3
:102210008261CA6842630362012030BC704723F0C8
:1022200008034D6943EA850323F004038D6843EAFC
:10223000850324F480748D692C4324F40074CD69E3
:1022400044EA4504E3E700BF002C014030B4036AD0
:1022500023F010030362036A4468826922F4E642B1
:102260000D6842EA052223F020030D6943EA0513B5
:1022700023F010034D6843EA0513104DA84207D020
:1022800044608261CA6882630362012030BC704787
:1022900023F080034D6943EA851323F040038D68E2
:1022A00043EA851324F480648D6944EA850424F4A8
:1022B0000064CD6944EAC504E2E700BF002C014098
:1022C00030B4036A23F480730362036A4468C2690A
:1022D00022F073020D682A4323F400730D6943EA68
:1022E000052323F480734D6843EA05230F4DA8426C
:1022F00007D04460C261CA68C2630362012030BC77
:10230000704723F400634D6943EA852323F4806317
:102310008D6843EA852324F480548D6944EA0514CA
:1023200024F40054CD6944EA4514E2E7002C01404E
:1023300030B4036A23F480530362036A4468C269B9
:1023400022F4E6420D6842EA052223F400530D69A7
:1023500043EA053323F480534D6843EA0533084DBF
:10236000A84207D04460C261CA68026403620120C7
:1023700030BC704724F480448D6944EA8514F1E749
:10238000002C014003681A4A90420AD0B0F1804FF5
:1023900007D0A2F59432904203D002F580629042B9
:1023A00003D123F070034A681343114A90420AD0C4
:1023B000B0F1804F07D0A2F59432904203D002F5DD
:1023C0008062904203D123F44073CA6813430360D0
:1023D0008B68C3620B888362054B984205D04369C2
:1023E00043F001034361012070470B7C0363F6E770
:1023F000002C014008B5102914D009D9B1F5807F0F
:1024000014D0B1F5805F0BD11146FFF791FF06E0C4
:10241000012903D11146FFF7E3FE00E0002008BDCB
:102420000020FCE71146FFF711FFF8E71146FFF720
:1024300047FFF4E7034B5B68C3F30313024AD35C23
:10244000D84070470010024028270008034B5B6803
:10245000C3F30223024AD35CD84070470010024005
:1024600038270008034B5B68C3F3C223024AD35CDE
:10247000D840704700100240382700080B4B5B68BB
:1024800003F4803343B90A48084B5B68C3F38343C2
:10249000023300FB03F07047044B5868C0F3404020
:1024A000431C0448B0FBF3F0EEE700BF001002400D
:1024B00000093D0000127A0008B5054B5B6803F087
:1024C0000C03082B01D0034808BDFFF7D7FFFBE73B
:1024D0000010024000127A0010B50446FFF7ECFF2E
:1024E0002060FFF7A7FF6060FFF7B0FFA0606068A3
:1024F000FFF7B8FFE06010BD054BA3FB003080097B
:102500000138044B586000229A6005221A60704717
:10251000D34D621010E000E082B0094B1B680193BC
:10252000019BB0F1FF3F00D0013030B1044B1B687C
:1025300013F4803FF9D00138F7E702B0704700BFCD
:1025400010E000E0014B1860704700BF3000002031
:102550000F4B1A6842F001021A6059680D4A0A408E
:102560005A601A6822F0847222F480321A601A6863
:1025700022F480221A605A6822F4FE025A604FF454
:102580001F029A60044B4FF000629A60704700BFD0
:10259000001002400000FFF800ED00E0C36813F4F3
:1025A000005F01D00020704730B585B00D4604466D
:1025B000C36823F4B05323F00C034A68C9680A4384
:1025C00029690A431343C360AB68026922F440528D
:1025D000134303616B69426922F440721343436100
:1025E0006846FFF779FF1C4B9C4208D01B4B9C426E
:1025F0002AD01B4B9C4229D0002005B030BD039B44
:1026000033B32A6832B303EB830303EB83039200F3
:10261000B3FBF2F3134DA5FB03204009020191B275
:10262000642202FB103213013233A5FB0323C3F3F0
:102630004F1303F0F0020A4492B203F00F03134465
:102640009BB2A3600120D8E7029BD9E7029BD7E7A2
:102650000020D2E70020D0E70038014000440040CD
:10266000004800401F85EB51002103E00B4B5B58F5
:10267000435004310A480B4B42189A42F6D30A4A97
:1026800002E0002342F8043B084B9A42F9D3FFF7DB
:102690005FFF00F00FF8FEF7F1FE704748270008D3
:1026A000000000203400002034000020A40A002094
:1026B000FEE7000070B500260C4D0D4C641BA41005
:1026C000A64209D100F01AF800260A4D0A4C641BF4
:1026D000A410A64205D170BD55F8043B98470136B9
:1026E000EEE755F8043B98470136F2E7402700082B
:1026F000402700084027000844270008F8B500BF1D
:10270000F8BC08BC9E467047F8B500BFF8BC08BCD2
:042710009E4670472A
:102714004F4C4120616D69676F210000081C3044F3
:10272400586C800000000000000000000102030457
:0C27340006070809000000000102030471
:042740003501000857
:042744001101000877
:102748000300000032000032190032320032260045
:102758000032241900323200193200320000281EDB
:102768001E1E3C3C143C1E1400000000FFFF010C20
:0427780000A24A046D
:040000050800266960
:00000001FF
