:020000040800F2
:1000000000500020D9110008050B0008070B00085C
:10001000090B00080B0B00080D0B00080000000086
:100020000000000000000000000000000F0B0008AE
:10003000110B000800000000130B0008150B00084E
:1000400021120008211200082112000821120008C4
:1000500021120008211200082112000821120008B4
:1000600021120008211200082112000821120008A4
:10007000170B00082112000821120008190B0008B4
:10008000211200087D060008211200082112000834
:100090002112000821120008211200082112000874
:1000A0002112000821120008211200082112000864
:1000B000D1060008211200082112000821120008B0
:1000C0002112000821120008211200082112000844
:1000D0002112000821120008211200082112000834
:1000E000211200082112000821120008000000005F
:1000F0000000000000000000000000000000000000
:0C01000000000000000000005FF808F1A3
:10010C0010B5054C237833B9044B13B10448AFF345
:10011C0000800123237010BD0C00002000000000A3
:10012C006C12000808B5034B1BB103490348AFF32D
:10013C00008008BD00000000100000206C120008B8
:10014C00034613F8012B002AFBD1181A013870470B
:10015C0082B00A4B5A6942F001025A615B6903F0A2
:10016C0001030193019B064BDB68064B002283F8CD
:10017C0011234FF400321A6002B070470010024095
:10018C0000ED00E000E100E030B585B01F4B9A694E
:10019C0042F010029A619A6902F010020392039ADB
:1001AC009A6942F020029A619A6902F02002029246
:1001BC00029A9A6942F004029A619A6902F0040266
:1001CC000192019A9A6942F008029A619B6903F0C4
:1001DC0008030093009B0E4C6FF07B4323600125BA
:1001EC0065600323A36021460A4800F090FC0A4B8B
:1001FC00236065600223A360084D2146284600F069
:10020C0086FC4FF400536B6105B030BD001002400A
:10021C005000002000080140200020040010014084
:10022C00F0B583B0274BDA6942F48022DA61DA69DF
:10023C0002F480220192019A9A6942F008029A61B2
:10024C009B6903F008030093009B1F4C1F4B23601A
:10025C00092363600323A3600025E5601C4F21463E
:10026C00384600F054FC1B4B236004266660214684
:10027C00384600F04CFC184BDB68184B83F82753BE
:10028C0080225A60164947F612230B604D608D6030
:10029C00CD600E614D61134C204600F031FF236997
:1002AC0023F490432361636923F02A036361E368B9
:1002BC0043F40053E360E36843F02003E36003B0CE
:1002CC00F0BD00BF001002405000002004000404E8
:1002DC00000C01400800080400ED00E000E100E023
:1002EC009C000020004800402DE9F04F83B0514B9A
:1002FC00DA6942F00102DA61DB6903F00103019370
:10030C00019B4D4E0221304600F07CFC4B4CDFF83B
:10031C0058B1C4F800B04A4B63601027A7600025A1
:10032C002562256165614FF4007AC4F818A04FF47A
:10033C008069C4F81C90E5604FF44058C4F82480E0
:10034C0022460221304600F0D5FC0521304600F053
:10035C0059FCC4F800B03B4B6360A7602562256173
:10036C0080236361C4F818A0C4F81C90E560C4F83D
:10037C00248022460521304600F0BCFC0721304683
:10038C0000F040FCC4F800B02F4B6360A7602562FE
:10039C0025616561C4F818A0C4F81C90E560C4F828
:1003AC00248022460721304600F0A4FC274BDB6852
:1003BC00274B83F81C534FF080521A60254A136860
:1003CC0043F002031360244B1B68244AA2FB032353
:1003DC005B0D013B22491D228A600B80CD604D6074
:1003EC004FF0804000F080FD4FF08044236823F0F4
:1003FC00800323601B4E356075600823F360324622
:10040C000121204600F0A8FDA36923F00803A36195
:10041C006023336075601123F36032463946204601
:10042C0000F09AFDA36923F40063A36103B0BDE857
:10043C00F08F00BF00100240000002402800002096
:10044C0004000020E0030020B400002000ED00E0D8
:10045C0000E100E08000024008000020819F5E1651
:10046C00680000207C0000200C08014030B40024FF
:10047C001F4B1C701F4B80225A604FF400225A6095
:10048C004FF000625A601C494B681B0C1B04034361
:10049C004B601A4D6B681B0C1B0403436B60184AB2
:1004AC0053681B0C1B04184350604FF080431C61B5
:1004BC00086840F001000860296841F001012960DA
:1004CC00116841F001011160DA6842F40072DA60DF
:1004DC00DA6842F48062DA60DA6842F48072DA60D8
:1004EC001D225A621A6842F001021A6030BC704731
:1004FC0006000020000002401C0002405800024090
:10050C008000024010B5254A136823F0070343F01E
:10051C00020313601368A2F58052136843F480330E
:10052C0013601F4B1B6813F4003FFAD01C4A53682E
:10053C0023F47C1343F4E8135360136843F0807383
:10054C001360174B1B6813F0007FFAD0144B5A68DA
:10055C0022F0F0025A605A6822F4E06242F480629F
:10056C005A605A6822F460525A605A6822F00302A8
:10057C0042F002025A600A4B5B6803F00C03082B32
:10058C00F9D1084C204600F069FD074A136843F086
:10059C0004031360204600F087FD10BD00200240CC
:1005AC000010024000A24A0410E000E000B587B041
:1005BC00294B9A6942F001029A619A6902F0010290
:1005CC000492049ADA6942F08052DA61DB6903F032
:1005DC0080530393039B2149CA6822F4E0621204FE
:1005EC00120C1F4B1343CB601E4B5A6822F0E06277
:1005FC005A605A6842F080625A60FFF783FFFFF737
:10060C00C3FDFFF70DFEFFF7A3FDFFF76DFE00F036
:10061C0005F900F0F7F8144B1B68ADF814301B0CFF
:10062C008DF8163005A800F01FF900F071F84FF4A2
:10063C004070FFF71BFF0023009301231A464FF471
:10064C00FA710A4800F05EF900F062F84FF440705D
:10065C00FFF70CFFFEE700BF0010024000ED00E0CA
:10066C000003FA05000001408412000890120008F3
:10067C00124B4FF000725A604FF08043DA6842F030
:10068C000102DA600E490A6822F001020A603C316C
:10069C000A6822F001020A6028310A6822F001027D
:1006AC000A60DA6822F40072DA60DA6822F4806296
:1006BC00DA60DA6822F48072DA6070470000024077
:1006CC001C0002404FF080436FF001021A610E4B88
:1006DC001B78DBB2272B05D80B4A13780133DBB21E
:1006EC0013707047084B00221A704FF080431A6841
:1006FC0022F001021A60DA6822F00102DA60034B80
:10070C0001221A70704700BF640000200600002010
:10071C002DE9F04790B04FF0000864E041464BE003
:10072C0002EB4205344C2C44E55C08EB48040DF11B
:10073C00400E74441C4404F8305C0133DBB2022BD1
:10074C0012D8D4082D4D2C5D0025CDE9024502F0C0
:10075C000705029CEC4004F00106002756EA07044A
:10076C00DED0274CE55CE0E708EB480210AB1A44FE
:10077C0001EB0C1112F82E3C009312F82F3C12F8DE
:10078C00302C89B200F068F909F101095FFA89F996
:10079C00B9F1010F19D809F0010109EB4A030F2B2C
:1007AC0013DC0AEBC802520092B24A4492B20029FE
:1007BC00B4D0C8F10F01C9B2CAF10700C0B2C9F177
:1007CC00010C5FFA8CFC0023B9E70AF1010A5FFA0D
:1007DC008AFABAF1070F02D84FF00009D8E708F1EE
:1007EC0001085FFA88F8B8F10F0F02D84FF0000A31
:1007FC00EFE710B0BDE8F087E0000020B800002063
:10080C000000002000231F2B05D8034A0021D154DF
:10081C000133DBB2F7E77047B800002070B582B047
:10082C0000261AE00135EDB2012D14D800240F2C4E
:10083C00F8D804EB051303EB4613FF2BF2DC04EBA7
:10084C00051100220092134689B2304600F004F9DB
:10085C000134A4B2EBE70136F6B2072E01D800251D
:10086C00E2E702B070BD000070B4002610E0013465
:10087C00102C0CDC0022022AF9DC04EB0613855C3C
:10088C0003EB430305490B449D540132F3E7013656
:10089C00102E01DC0024EBE770BC7047E000002058
:1008AC002038C0B2164B03EB40035B7813F0010FFA
:1008BC0000D0013931B9124B13F81000000900F0C7
:1008CC000E007047012907D002290AD0032912D043
:1008DC00042912D00020F2E7094B13F8100040084D
:1008EC00EDE7074A12F81000800000F00C0003F04E
:1008FC000203184370471809E1E75808DFE700BF07
:10090C00941200082DE9F04F8BB003900991994691
:10091C009DF85030029303325FFA82FA0023089359
:10092C0087E0C910D0F1000C00F007000CF0070CA8
:10093C0058BFCCF100004FF0010E0EFA00FEDFF8AC
:10094C0014C11CF8010040EA0E000CF80100013340
:10095C005BB2013A52B2184604EB0901A1EB0A0151
:10096C008B4211DAC8F1100199420DDD8045EEDCA5
:10097C002BFA02F111F0010FE9D000EB0710014640
:10098C000028CEDAC11DCCE701356DB2013676B246
:10099C00019B04332F46AB4211DB029BC3F11003C6
:1009AC00AB420CDD3146039B049A985CFFF778FF51
:1009BC008346059BA3EB0A035BB20322CBE7069BA2
:1009CC000133DBB20693079B0133DBB20793069C22
:1009DC0004940398FFF7B4FB84420DD2079B09FBE8
:1009EC0003F3DBB24344DBB205935CB29DF90830F0
:1009FC0001931D460026CBE7FFF78AFE4FF44070AB
:100A0C00FFF734FD099800F039FB0AF101035FFA96
:100A1C0083FABAF1020F06D8FFF7F4FE089B06938F
:100A2C0000230793D3E7CA46C146089B0133DBB2C8
:100A3C0008930398FFF784FB089B834206D24FF080
:100A4C0000084B46D146C2469846E2E70BB0BDE8DB
:100A5C00F08F00BFB80000202DE9F0439DF81CC0BA
:100A6C00002743E001EB4104E50005EB07080126F4
:100A7C008640F64336B21F4C34F818E006EA0E0EE8
:100A8C0024F818E005F1080EBE4434F81E9006EA6E
:100A9C00090924F81E9010353D4434F8159006EAE7
:100AAC00090624F8156003FA07F6C6F3C01686404B
:100ABC0034F8189046EA090624F8186002FA07F68A
:100ACC00C6F3C016864034F81E8046EA080624F8A1
:100ADC001E600CFA07F6C6F3C016864034F815E013
:100AEC0046EA0E0624F815600137FFB2072FB9D974
:100AFC00BDE8F083E00300207047FEE7FEE7FEE769
:100B0C00FEE7704770477047704770477047F0B505
:100B1C000D68C5F30F2595FAA5F2B2FA82F235E00D
:100B2C00A2F108044FF00113A34043F0806339E0B5
:100B3C00C45993FAA3F6B6FA86F6B6004FF0030C36
:100B4C000CFA06F624EA060C93FAA3F6B6FA86F625
:100B5C00B6008C6804FA06F646EA0C06C651CC6858
:100B6C0093FAA3FCBCFA8CFC4FEA8C0C4FF0040EED
:100B7C000EFA0CFC26EA0C0693FAA3F3B3FA83F3F1
:100B8C009B0004FA03F33343C351013235FA02F3E9
:100B9C0035D0012393402B42F7D0072AC0D840F21E
:100BAC00011393404E681F0EC45993FAA3FCBCFA70
:100BBC008CFC4FEA8C0C4FF00F0E0EFA0CFC24EA56
:100BCC000C0493FAA3FCBCFA8CFC4FEA8C0C06FACE
:100BDC000CF63443C451C6681C0A26EA040C94FA79
:100BEC00A4F4B4FA84F40E6906FA04F44CEA04048E
:100BFC00C4604C68012C9BD0092CC6D198E701200D
:100C0C00F0BD0000334B984228D0324B984229D08B
:100C1C00304B98422AD02F4B98422BD02D4B9842D8
:100C2C002CD02C4B98422DD02B4B1A6822F0010261
:100C3C001A6000221A605A609A60DA60012927D083
:100C4C00022929D003292BD004292ED0052931D0F3
:100C5C00062934D0072937D0002070470129D4D178
:100C6C001E4BE2E70229D3D11D4BDEE70329D2D17B
:100C7C001C4BDAE70429D1D11B4BD6E70529D0D17F
:100C8C001A4BD2E7062901D08033CEE7184BCCE7BC
:100C9C0001234360184670471023436001207047BE
:100CAC004FF480734360012070474FF480534360CE
:100CBC00012070474FF480334360012070474FF49C
:100CCC0080134360012070474FF080734360012014
:100CDC00704700BF00000240800002400800024044
:100CEC001C00024030000240440002405800024008
:100CFC006C00024030B49368D468234314692343D6
:100D0C005469234394692343D4692343546A23438A
:100D1C0001390B4C655C2C18295821F4FF4121F04A
:100D2C0070010B432B505368E3601368A360126A85
:100D3C0063681B0C1B0413436360012030BC7047B9
:100D4C005413000830B4036A23F001030362036AEE
:100D5C004468826922F073020D682A4323F002036F
:100D6C000D692B4323F001034D682B430F4DA84213
:100D7C0007D044608261CA6842630362012030BCC0
:100D8C00704723F008034D6943EA850323F00403FD
:100D9C008D6843EA850324F480748D692C4324F414
:100DAC000074CD6944EA4504E3E700BF002C014020
:100DBC0030B4036A23F010030362036A4468826947
:100DCC0022F4E6420D6842EA052223F020030D6965
:100DDC0043EA051323F010034D6843EA0513104D45
:100DEC00A84207D044608261CA6882630362012012
:100DFC0030BC704723F080034D6943EA851323F020
:100E0C0040038D6843EA851324F480648D6944EAB9
:100E1C00850424F40064CD6944EAC504E2E700BF0C
:100E2C00002C014030B4036A23F480730362036A1C
:100E3C004468C26922F073020D682A4323F40073DC
:100E4C000D6943EA052323F480734D6843EA0523B7
:100E5C000F4DA84207D04460C261CA68C2630362E6
:100E6C00012030BC704723F400634D6943EA8523AD
:100E7C0023F480638D6843EA852324F480548D69C0
:100E8C0044EA051424F40054CD6944EA4514E2E71D
:100E9C00002C014030B4036A23F480530362036ACC
:100EAC004468C26922F4E6420D6842EA052223F442
:100EBC0000530D6943EA053323F480534D6843EA2C
:100ECC000533084DA84207D04460C261CA68026469
:100EDC000362012030BC704724F480448D6944EADD
:100EEC008514F1E7002C014003681A4A90420AD09D
:100EFC00B0F1804F07D0A2F59432904203D002F5A6
:100F0C008062904203D123F070034A681343114A64
:100F1C0090420AD0B0F1804F07D0A2F594329042A3
:100F2C0003D002F58062904203D123F44073CA6867
:100F3C00134303608B68C3620B888362054B984232
:100F4C0005D0436943F001034361012070470B7CDA
:100F5C000363F6E7002C014008B5102914D009D919
:100F6C00B1F5807F14D0B1F5805F0BD11146FFF73E
:100F7C0091FF06E0012903D11146FFF7E3FE00E0E3
:100F8C00002008BD0020FCE71146FFF711FFF8E731
:100F9C001146FFF747FFF4E7034B5B68C3F30313FA
:100FAC00024AD35CD8407047001002405C13000822
:100FBC00034B5B68C3F30223024AD35CD8407047EF
:100FCC00001002406C130008034B5B68C3F3C22390
:100FDC00024AD35CD8407047001002406C130008E2
:100FEC000B4B5B6803F4803343B90A48084B5B68CE
:100FFC00C3F38343023300FB03F07047044B586880
:10100C00C0F34040431C0448B0FBF3F0EEE700BFD4
:10101C000010024000093D0000127A0008B5054B93
:10102C005B6803F00C03082B01D0034808BDFFF7E5
:10103C00D7FFFBE70010024000127A0010B50446FF
:10104C00FFF7ECFF2060FFF7A7FF6060FFF7B0FF32
:10105C00A0606068FFF7B8FFE06010BD054BA3FB14
:10106C00003080090138044B586000229A60052238
:10107C001A607047D34D621010E000E082B0094B4B
:10108C001B680193019BB0F1FF3F00D0013030B1E0
:10109C00044B1B6813F4803FF9D00138F7E702B01A
:1010AC00704700BF10E000E0014B1860704700BFB4
:1010BC00080000200F4B1A6842F001021A605968B0
:1010CC000D4A0A405A601A6822F0847222F4803267
:1010DC001A601A6822F480221A605A6822F4FE02FE
:1010EC005A604FF41F029A60044B4FF000629A60F2
:1010FC00704700BF001002400000FFF800ED00E058
:10110C00C36813F4005F01D00020704730B585B080
:10111C000D460446C36823F4B05323F00C034A680D
:10112C00C9680A4329690A431343C360AB6802695F
:10113C0022F44052134303616B69426922F44072FA
:10114C00134343616846FFF779FF1C4B9C4208D060
:10115C001B4B9C422AD01B4B9C4229D0002005B033
:10116C0030BD039B33B32A6832B303EB830303EB29
:10117C0083039200B3FBF2F3134DA5FB032040094C
:10118C00020191B2642202FB103213013233A5FB2F
:10119C000323C3F34F1303F0F0020A4492B203F09B
:1011AC000F0313449BB2A3600120D8E7029BD9E73D
:1011BC00029BD7E70020D2E70020D0E7003801409F
:1011CC0000440040004800401F85EB51002103E023
:1011DC000B4B5B58435004310A480B4B42189A4254
:1011EC00F6D30A4A02E0002342F8043B084B9A4229
:1011FC00F9D3FFF75FFF00F00FF8FFF7D7F970474F
:10120C007C130008000000200C0000200C000020C3
:10121C00E0090020FEE7000070B500260C4D0D4CD7
:10122C00641BA410A64209D100F01AF800260A4D3E
:10123C000A4C641BA410A64205D170BD55F8043BA2
:10124C0098470136EEE755F8043B98470136F2E72C
:10125C007413000874130008741300087813000842
:10126C00F8B500BFF8BC08BC9E467047F8B500BF87
:08127C00F8BC08BC9E46704757
:101284000101050005010100010501004F4C410069
:1012940000004908B400BEF67B7AA59455B848000E
:1012A4002944442A15A00B4200500302000825904B
:1012B40076BA595CC59EC53892E6F33A73BAE5909E
:1012C40077BA773A084008502A441CE08852E50867
:1012D400568E77B677B8728CD6BA739E739272AE06
:1012E400B7B6E95C64AAB7B4929CBEB6D6B656AAA1
:1012F400D79276EE77B47138E948B6AEB6AAB6F6A8
:10130400B5B4B548E59C694C9124642E5400001C86
:1013140044000EAE9ABA0E8C2EAE0ECE56D0553B6D
:1013240093B44144415197B4494417B61AB60AAA32
:10133400D6D3766717900F389A8C16AE16BA16F66F
:1013440015B4B52B1C5E6B4C4948C95A540056E27F
:10135400081C3044586C80000000000000000000AD
:101364000102030406070809000000000102030447
:04137400310100083B
:041378000D0100085B
:0C137C00000A0000FFFF010000A24A046C
:04000005080011D905
:00000001FF
