:020000040800F2
:1000000000500020D9210008311B0008331B0008D4
:10001000351B0008371B0008391B000800000000D2
:100020000000000000000000000000003B1B000872
:100030003D1B0008000000003F1B0008411B00089A
:100040002122000821220008212200082122000884
:100050002122000821220008212200082122000874
:100060002122000821220008212200082122000864
:10007000431B00082122000821220008451B00081C
:1000800021220008B51300082122000821220008BF
:100090002122000821220008212200082122000834
:1000A0002122000821220008212200082122000824
:1000B000091400082122000821220008212200083A
:1000C0002122000821220008212200082122000804
:1000D00021220008212200082122000855140008CE
:1000E000212200082122000821220008000000002F
:1000F0000000000000000000000000000000000000
:0C01000000000000000000005FF808F1A3
:1001100010B5054C237833B9044B13B10448AFF341
:1001200000800123237010BD940000200000000017
:10013000DC2B000808B5034B1BB103490348AFF3A0
:10014000008008BD0000000098000020DC2B0008A3
:1001500081F0004102E000BF83F0004330B54FEA78
:1001600041044FEA430594EA050F08BF90EA020FE5
:100170001FBF54EA000C55EA020C7FEA645C7FEA78
:10018000655C00F0E2804FEA5454D4EB5555B8BF9B
:100190006D420CDD2C4480EA020281EA030382EA0C
:1001A000000083EA010180EA020281EA0303362D9E
:1001B00088BF30BD11F0004F4FEA01314FF4801C71
:1001C0004CEA113102D0404261EB410113F0004F83
:1001D0004FEA03334CEA133302D0524263EB43033A
:1001E00094EA050F00F0A780A4F10104D5F1200ED8
:1001F0000DDB02FA0EFC22FA05F2801841F1000133
:1002000003FA0EF2801843FA05F359410EE0A5F106
:1002100020050EF1200E012A03FA0EFC28BF4CF037
:10022000020C43FA05F3C01851EBE37101F00045ED
:1002300007D54FF0000EDCF1000C7EEB00006EEBFA
:100240000101B1F5801F1BD3B1F5001F0CD3490884
:100250005FEA30004FEA3C0C04F101044FEA4452DB
:1002600012F5800F80F09A80BCF1004F08BF5FEA62
:10027000500C50F1000041EB045141EA050130BD42
:100280005FEA4C0C404141EB010111F4801FA4F1E5
:100290000104E9D191F0000F04BF01460020B1FA3A
:1002A00081F308BF2033A3F10B03B3F120020CDA72
:1002B0000C3208DD02F1140CC2F10C0201FA0CF050
:1002C00021FA02F10CE002F11402D8BFC2F1200CB5
:1002D00001FA02F120FA0CFCDCBF41EA0C0190406B
:1002E000E41AA2BF01EB0451294330BD6FEA0404B4
:1002F0001F3C1CDA0C340EDC04F11404C4F120029F
:1003000020FA04F001FA02F340EA030021FA04F3B0
:1003100045EA030130BDC4F10C04C4F1200220FA07
:1003200002F001FA04F340EA0300294630BD21FA45
:1003300004F0294630BD94F0000F83F4801306BF0B
:1003400081F480110134013D4EE77FEA645C18BFFF
:100350007FEA655C29D094EA050F08BF90EA020F96
:1003600005D054EA000C04BF1946104630BD91EA8E
:10037000030F1EBF0021002030BD5FEA545C05D191
:100380004000494128BF41F0004130BD14F58004D0
:100390003CBF01F5801130BD01F0004545F0FE4144
:1003A00041F470014FF0000030BD7FEA645C1ABF79
:1003B000194610467FEA655C1CBF0B46024650EAB0
:1003C000013406BF52EA033591EA030F41F40021DC
:1003D00030BD00BF90F0000F04BF0021704730B562
:1003E0004FF4806404F132044FF000054FF0000137
:1003F00050E700BF90F0000F04BF0021704730B5F8
:100400004FF4806404F1320410F0004548BF4042CC
:100410004FF000013EE700BF42004FEAE2014FEA21
:1004200031014FEA02701FBF12F07F4393F07F4FFC
:1004300081F06051704732F07F4208BF704793F0FF
:100440007F4F04BF41F40021704730B54FF4607412
:1004500001F0004521F000411CE700BF50EA010215
:1004600008BF704730B54FF000050AE050EA0102BE
:1004700008BF704730B511F0004502D5404261EB2E
:1004800041014FF4806404F132045FEA915C3FF46F
:10049000D8AE4FF003025FEADC0C18BF03325FEA0C
:1004A000DC0C18BF033202EBDC02C2F1200300FABD
:1004B00003FC20FA02F001FA03FE40EA0E0021FAE2
:1004C00002F11444BDE600BF70B54FF0FF0C4CF4D0
:1004D000E06C1CEA11541DBF1CEA135594EA0C0F82
:1004E00095EA0C0F00F0DEF82C4481EA030621EABD
:1004F0004C5123EA4C5350EA013518BF52EA0335F8
:1005000041F4801143F4801338D0A0FB02CE4FF0A9
:100510000005E1FB02E506F00042E0FB03E54FF0D9
:100520000006E1FB03569CF0000F18BF4EF0010ED1
:10053000A4F1FF04B6F5007F64F5407404D25FEACD
:100540004E0E6D4146EB060642EAC62141EA555180
:100550004FEAC52040EA5E504FEACE2EB4F1FD0CC2
:1005600088BFBCF5E06F1ED8BEF1004F08BF5FEA40
:10057000500E50F1000041EB045170BD06F00046F2
:1005800046EA010140EA020081EA0301B4EB5C049F
:10059000C2BFD4EB0C0541EA045170BD41F4801197
:1005A0004FF0000E013C00F3AB8014F1360FDEBFBC
:1005B000002001F0004170BDC4F10004203C35DA98
:1005C0000C341BDC04F11404C4F1200500FA05F31B
:1005D00020FA04F001FA05F240EA020001F00042BC
:1005E00021F0004110EBD37021FA04F642EB060132
:1005F0005EEA430E08BF20EAD37070BDC4F10C045C
:10060000C4F1200500FA04F320FA05F001FA04F21F
:1006100040EA020001F0004110EBD37041F100010B
:100620005EEA430E08BF20EAD37070BDC4F1200516
:1006300000FA05F24EEA020E20FA04F301FA05F27E
:1006400043EA020321FA04F001F0004121FA04F226
:1006500020EA020000EBD3705EEA430E08BF20EAF6
:10066000D37070BD94F0000F0FD101F00046400030
:1006700041EB010111F4801F08BF013CF7D041EAB2
:10068000060195F0000F18BF704703F000465200B6
:1006900043EB030313F4801F08BF013DF7D043EA87
:1006A0000603704794EA0C0F0CEA135518BF95EA3D
:1006B0000C0F0CD050EA410618BF52EA4306D1D1C4
:1006C00081EA030101F000414FF0000070BD50EAE3
:1006D000410606BF1046194652EA430619D094EA6D
:1006E0000C0F02D150EA013613D195EA0C0F05D157
:1006F00052EA03361CBF104619460AD181EA0301AB
:1007000001F0004141F0FE4141F470014FF0000062
:1007100070BD41F0FE4141F4780170BD70B54FF0FD
:10072000FF0C4CF4E06C1CEA11541DBF1CEA13557D
:1007300094EA0C0F95EA0C0F00F0A7F8A4EB05045F
:1007400081EA030E52EA03354FEA013100F0888056
:100750004FEA03334FF0805545EA131343EA12631F
:100760004FEA022245EA111545EA10654FEA0026D4
:100770000EF000419D4208BF964244F1FD0404F58D
:10078000407402D25B084FEA3202B61A65EB0305E9
:100790005B084FEA32024FF480104FF4002CB6EBA6
:1007A000020E75EB030E22BFB61A754640EA0C0026
:1007B0005B084FEA3202B6EB020E75EB030E22BF66
:1007C000B61A754640EA5C005B084FEA3202B6EBA7
:1007D000020E75EB030E22BFB61A754640EA9C0066
:1007E0005B084FEA3202B6EB020E75EB030E22BF36
:1007F000B61A754640EADC0055EA060E18D04FEAF4
:10080000051545EA16754FEA06164FEAC30343EA93
:1008100052734FEAC2025FEA1C1CC0D111F4801F60
:100820000BD141EA00014FF000004FF0004CB6E759
:1008300011F4801F04BF01430020B4F1FD0C88BFF8
:10084000BCF5E06F3FF6AFAEB5EB030C04BFB6EB03
:10085000020C5FEA500C50F1000041EB045170BDF6
:100860000EF0004E4EEA113114EB5C04C2BFD4EB23
:100870000C0541EA045170BD41F480114FF0000EA7
:10088000013C90E645EA060E8DE60CEA135594EA23
:100890000C0F08BF95EA0C0F3FF43BAF94EA0C0F26
:1008A0000AD150EA01347FF434AF95EA0C0F7FF49B
:1008B00025AF104619462CE795EA0C0F06D152EAEF
:1008C00003353FF4FDAE1046194622E750EA4106D3
:1008D00018BF52EA43067FF4C5AE50EA41047FF4E4
:1008E0000DAF52EA43057FF4EBAE12E74A0011D296
:1008F00012F5001211D20DD56FF47873B3EB62527A
:100900000ED44FEAC12343F0004343EA505323FA85
:1009100002F070474FF00000704750EA013002D1FA
:100920004FF0FF3070474FF00000704780F00040FC
:1009300002E000BF81F0004142001FBF5FEA4103B7
:1009400092EA030F7FEA226C7FEA236C6AD04FEAB7
:100950001262D2EB1363C1BFD218414048404140FC
:10096000B8BF5B42192B88BF704710F0004F40F4AE
:10097000000020F07F4018BF404211F0004F41F4CA
:10098000000121F07F4118BF494292EA030F3FD096
:10099000A2F1010241FA03FC10EB0C00C3F12003A9
:1009A00001FA03F100F0004302D5494260EB400038
:1009B000B0F5000F13D3B0F1807F06D340084FEAA3
:1009C000310102F10102FE2A51D2B1F1004F40EB98
:1009D000C25008BF20F0010040EA03007047490000
:1009E00040EB000010F4000FA2F10102EDD1B0FACB
:1009F00080FCACF1080CB2EB0C0200FA0CF0AABFC0
:100A000000EBC25052421843BCBFD040184370475D
:100A100092F0000F81F4000106BF80F40000013263
:100A2000013BB5E74FEA41037FEA226C18BF7FEA3A
:100A3000236C21D092EA030F04D092F0000F08BF7C
:100A40000846704790EA010F1CBF0020704712F063
:100A50007F4F04D1400028BF40F00040704712F1A2
:100A600000723CBF00F50000704700F0004343F007
:100A7000FE4040F4000070477FEA226216BF08463D
:100A80007FEA23630146420206BF5FEA412390EA00
:100A9000010F40F4800070474FF0000304E000BFF6
:100AA00010F0004348BF40425FEA000C08BF7047A7
:100AB00043F0964301464FF000001CE050EA01026B
:100AC00008BF70474FF000030AE000BF50EA010280
:100AD00008BF704711F0004302D5404261EB41016D
:100AE0005FEA010C02BF84460146002043F0B64392
:100AF00008BFA3F18053A3F50003BCFA8CF2083AB7
:100B0000A3EBC25310DB01FA02FC634400FA02FCBF
:100B1000C2F12002BCF1004F20FA02F243EB0200C6
:100B200008BF20F00100704702F1200201FA02FC28
:100B3000C2F1200250EA4C0021FA02F243EB02001B
:100B400008BF20EADC7070474FF0FF0C1CEAD0525F
:100B50001EBF1CEAD15392EA0C0F93EA0C0F6FD020
:100B60001A4480EA010C400218BF5FEA41211ED0FE
:100B70004FF0006343EA501043EA5111A0FB0131EA
:100B80000CF00040B1F5000F3EBF490041EAD371BF
:100B90005B0040EA010062F17F02FD2A1DD8B3F13B
:100BA000004F40EBC25008BF20F00100704790F0AA
:100BB000000F0CF0004C08BF49024CEA502040EAFC
:100BC00051207F3AC2BFD2F1FF0340EAC2507047C2
:100BD00040F400004FF00003013A5DDC12F1190F00
:100BE000DCBF00F000407047C2F10002410021FA72
:100BF00002F1C2F1200200FA02FC5FEA310040F18A
:100C0000000053EA4C0308BF20EADC70704792F002
:100C1000000F00F0004C02BF400010F4000F013A3A
:100C2000F9D040EA0C0093F0000F01F0004C02BF35
:100C3000490011F4000F013BF9D041EA0C018FE7A4
:100C40000CEAD15392EA0C0F18BF93EA0C0F0AD0AA
:100C500030F0004C18BF31F0004CD8D180EA0100D0
:100C600000F00040704790F0000F17BF90F0004F69
:100C7000084691F0000F91F0004F14D092EA0C0F4B
:100C800001D142020FD193EA0C0F03D14B0218BFDE
:100C9000084608D180EA010000F0004040F0FE4024
:100CA00040F40000704740F0FE4040F440007047C0
:100CB0004FF0FF0C1CEAD0521EBF1CEAD15392EA3F
:100CC0000C0F93EA0C0F69D0A2EB030280EA010C2F
:100CD00049024FEA402037D04FF0805343EA1111C8
:100CE00043EA10130CF000408B4238BF5B0042F126
:100CF0007D024FF4000C8B4224BF5B1A40EA0C00CB
:100D0000B3EB510F24BFA3EB510340EA5C00B3EBFC
:100D1000910F24BFA3EB910340EA9C00B3EBD10FEA
:100D200024BFA3EBD10340EADC001B0118BF5FEA3C
:100D30001C1CE0D1FD2A3FF650AF8B4240EBC25065
:100D400008BF20F0010070470CF0004C4CEA502026
:100D50007F32C2BFD2F1FF0340EAC250704740F475
:100D600000004FF00003013A37E792F0000F00F067
:100D7000004C02BF400010F4000F013AF9D040EAE5
:100D80000C0093F0000F01F0004C02BF490011F479
:100D9000000F013BF9D041EA0C0195E70CEAD15371
:100DA00092EA0C0F08D142027FF47DAF93EA0C0F58
:100DB0007FF470AF084676E793EA0C0F04D14B023C
:100DC0003FF44CAF08466EE730F0004C18BF31F0EE
:100DD000004CCAD130F000427FF45CAF31F00043E8
:100DE0007FF43CAF5FE700BF4FF0FF3C06E000BF81
:100DF0004FF0010C02E000BF4FF0010C4DF804CDA4
:100E00004FEA40024FEA41037FEA226C18BF7FEAB3
:100E1000236C11D001B052EA530C18BF90EA010FB5
:100E200058BFB2EB030088BFC81738BF6FEAE17044
:100E300018BF40F0010070477FEA226C02D15FEAE0
:100E4000402C05D17FEA236CE4D15FEA412CE1D04C
:100E50005DF8040B704700BF844608466146FFE713
:100E60000FB5FFF7C9FF002848BF10F1000F0FBDF5
:100E70004DF808EDFFF7F4FF0CBF012000205DF8EE
:100E800008FB00BF4DF808EDFFF7EAFF34BF012073
:100E900000205DF808FB00BF4DF808EDFFF7E0FF0C
:100EA00094BF012000205DF808FB00BF4DF808ED5D
:100EB000FFF7D2FF94BF012000205DF808FB00BFC0
:100EC0004DF808EDFFF7C8FF34BF012000205DF8A2
:100ED00008FB00BF82B00A4B5A6942F001025A6116
:100EE0005B6903F001030193019B064BDB68064B32
:100EF000002283F811234FF400321A6002B07047C9
:100F00000010024000ED00E000E100E030B585B0E7
:100F10001F4B9A6942F010029A619A6902F010021E
:100F20000392039A9A6942F020029A619A6902F048
:100F300020020292029A9A6942F004029A619A6926
:100F400002F004020192019A9A6942F008029A6141
:100F50009B6903F008030093009B0E4C6FF07B43EA
:100F60002360012565600323A36021460A4800F041
:100F7000EAFD0A4B236065600223A360084D214609
:100F8000284600F0E0FD4FF400536B6105B030BD22
:100F900000100240D800002000080140200020047A
:100FA00000100140F0B583B0274BDA6942F480228B
:100FB000DA61DA6902F480220192019A9A6942F0B8
:100FC00008029A619B6903F008030093009B1F4C81
:100FD0001F4B2360092363600323A3600025E560A2
:100FE0001C4F2146384600F0AEFD1B4B2360042603
:100FF00066602146384600F0A6FD184BDB68184BAA
:1010000083F8275380225A60164947F612230B6053
:101010004D608D60CD600E614D61134C204601F036
:1010200075F8236923F490432361636923F02A034D
:101030006361E36843F40053E360E36843F0200333
:10104000E36003B0F0BD00BF00100240D8000020F4
:1010500004000404000C01400800080400ED00E056
:1010600000E100E024010020004800402DE9F04F9D
:1010700083B0514BDA6942F00102DA61DB6903F0B7
:1010800001030193019B4D4E0221304600F0D6FD35
:101090004B4CDFF858B1C4F800B04A4B63601027DE
:1010A000A76000252562256165614FF4007AC4F8C8
:1010B00018A04FF48069C4F81C90E5604FF44058C4
:1010C000C4F8248022460221304600F02FFE05217C
:1010D000304600F0B3FDC4F800B03B4B6360A7603E
:1010E0002562256180236361C4F818A0C4F81C90B0
:1010F000E560C4F8248022460521304600F016FE43
:101100000721304600F09AFDC4F800B02F4B636011
:10111000A760256225616561C4F818A0C4F81C9019
:10112000E560C4F8248022460721304600F0FEFD29
:10113000274BDB68274B83F81C534FF080521A6013
:10114000254A136843F002031360244B1B68244AAA
:10115000A2FB03235B0D013B22491D228A600B8009
:10116000CD604D604FF0804000F0DAFE4FF08044DB
:10117000236823F0800323601B4E356075600823CD
:10118000F36032460121204600F002FFA36923F0FC
:101190000803A3616023336075601123F360324656
:1011A0003946204600F0F4FEA36923F40063A361EE
:1011B00003B0BDE8F08F00BF001002400000024005
:1011C000B0000020280000205C1A0020440100200C
:1011D00000ED00E000E100E0800002402C00002073
:1011E000819F5E16F0000020040100200C080140E1
:1011F00030B400241F4B1C701F4B80225A604FF4E8
:1012000000225A604FF000625A601C494B681B0C68
:101210001B0403434B601A4D6B681B0C1B040343F8
:101220006B60184A53681B0C1B04184350604FF046
:1012300080431C61086840F001000860296841F0A3
:1012400001012960116841F001011160DA6842F47E
:101250000072DA60DA6842F48062DA60DA6842F4D6
:101260008072DA601D225A621A6842F001021A6026
:1012700030BC70472A000020000002401C000240E1
:10128000580002408000024010B5254A136823F040
:10129000070343F0020313601368A2F5805213683A
:1012A00043F4803313601F4B1B6813F4003FFAD0E4
:1012B0001C4A536823F47C1343F4E8135360136807
:1012C00043F080731360174B1B6813F0007FFAD054
:1012D000144B5A6822F0F0025A605A6822F4E06215
:1012E00042F480625A605A6822F460525A605A6826
:1012F00022F0030242F002025A600A4B5B6803F0DC
:101300000C03082BF9D1084C204600F0C3FE074A15
:10131000136843F004031360204600F0CBFE10BDB9
:10132000002002400010024000A24A0410E000E049
:1013300000B583B01B4B9A6942F001029A619A6929
:1013400002F001020192019ADA6942F08052DA61F8
:10135000DB6903F080530093009B1349CA6822F4B1
:10136000E0621204120C114B1343CB60104B5A680D
:1013700022F0E0625A605A6842F080625A60FFF7D9
:1013800083FFFFF7C3FDFFF70DFEFFF7A3FDFFF798
:101390006DFE00F0A7FB00F0E5F900F001FA00F0A7
:1013A0000BFAFEE70010024000ED00E00003FA0532
:1013B00000000140124B4FF000725A604FF0804322
:1013C000DA6842F00102DA600E490A6822F001028E
:1013D0000A603C310A6822F001020A6028310A687A
:1013E00022F001020A60DA6822F40072DA60DA6838
:1013F00022F48062DA60DA6822F48072DA60704780
:10140000000002401C0002404FF080436FF00102D8
:101410001A610E4B1B78DBB2272B05D80B4A1378C9
:101420000133DBB213707047084B00221A704FF083
:1014300080431A6822F001021A60DA6822F0010281
:10144000DA60034B01221A70704700BFEC000020E5
:101450002A000020714AD36883F40053D360704B94
:101460001B6813F0200F00F0D8806D4BDB6813F081
:10147000200F00F0D2806A4B5B68DBB2694A1278B9
:1014800042B9694A12782AB9902B14D0B02B24D0D3
:10149000802B19D0634A1278D2B2012A26D9614A28
:1014A000107862490978091A614843541378013B5E
:1014B000DBB21370704703225C490A7059490A7005
:1014C000594A01211170E5E7032258490A7055492C
:1014D0000A70554A01211170DCE7032253490A7052
:1014E00050490A70504A01211170D3E74E4A1278D0
:1014F000002A00F0928070B59AB04A4A11784B4A9F
:101500001278521A4A498B540B78902B30D0B02B5A
:101510007ED0802B5AD00023434A1370414A137067
:101520001AB070BD012C1BD0022C1DD00134022C2E
:1015300020D801AB03EB84053D4B1A5D3D4928469D
:1015400000F094FE10220021284600F027FF0646F6
:10155000002CE7D002463849284600F087FEE1E734
:10156000304600F055FADFE7F0B200F029FADDE787
:101570000024DCE7012000F053F900F089F84FF473
:101580008750FFF735FEC6E7012C19D00134022C35
:10159000C1D801AB03EB8405254B1A5D25492846CC
:1015A00000F064FE10220021284600F0F7FE0646F7
:1015B000002CE9D002462049284600F057FEE3E718
:1015C000022CE3D1F0B200F0FBF9DFE70024DEE704
:1015D000022C19D00134022C1CD801AB03EB84057A
:1015E000134B1A5D1349284600F040FE10220021DB
:1015F000284600F0D3FE0646002CE9D002460E49EC
:10160000284600F033FEE3E7F0B200F0D9F9E1E755
:101610000024E0E7094B1B787DE77047001001408C
:101620000048004046010020480100203C01002005
:1016300040010020F42B0008FC2B00082A000020A9
:101640000023022B04D8CA5CC2540133DBB2F8E792
:10165000704700000000000070B506460D460024EB
:10166000022C0DD8285DFEF7C5FE07A3D3E90023A1
:10167000FEF72AFFFFF73AF930550134E4B2EFE7FD
:1016800070BD00BFAFF300809A9999999999C93FAD
:101690002DE9F04F85B04FF0000953E0CA46CB0862
:1016A0002D4A12F803B001F007032BFA03F202F0FF
:1016B0000106002756EA07032FD0284903A8FFF7A1
:1016C000CBFF04EB4404C4EB041404EB0A019DF8C3
:1016D0000E3000939DF80D309DF80C2089B24046E5
:1016E00000F01EF90135EDB2032D1ED805F0010200
:1016F00005EB88032C2B18DCACB209EB4901C1EBDC
:10170000011101EB880189B2214489B2002AC5D1B7
:10171000C9F12C0A5FFA8AFAC1E701EB4101104BCB
:10172000194403A8FFF798FFCBE708F101085FFA17
:1017300088F8B8F10B0F01D80025D5E709F10109A8
:101740005FFA89F9B9F12C0F02D84FF00008F0E7E1
:1017500005B0BDE8F08F00BF5C01002058010020FB
:101760009C02002038B5002511E005EB4500C0EBD8
:101770000010204400EB40000749084B1844FFF7D5
:101780005FFF0134E4B22C2CEFD90135EDB22C2DE2
:1017900001D80024F7E738BD240000209C02002077
:1017A0000023FD2B05D8034A0021D1540133DBB2BD
:1017B000F7E770475C01002070B582B0002627E093
:1017C0000135EDB2032D21D800242C2CF8D805EBDF
:1017D0004503C3EB03132344B42202FB0633B3F5E2
:1017E000FD6FEDDC0D4A05EB4501C1EB0111214414
:1017F00092F82630009392F8253092F8242089B28E
:10180000304600F08DF80134A4B2DEE70136F6B2BE
:101810000B2E01D80025D5E702B070BD00000020D6
:101820002DE9F84F074600246FF0150668E05FFACF
:1018300089F40134E4B24846FFF732F93449FFF73E
:1018400037FA01464FF07E50FFF774F8834606FBE7
:1018500006F005FB0500FFF723F982462D4958469F
:10186000FFF772F901465046FFF716FB68B90124ED
:1018700009F10109B9F1020F15DC002FD7D05FFA89
:1018800089F4C4F10204E4B2D5E708EB480004EBA4
:1018900044046100204B19440331204B1844FFF7E6
:1018A000CFFE0024E4E7BCB106FB06F005FB050013
:1018B000FFF7F6F81749FFF7F9FA68B1EFB103231C
:1018C00008EB480803EB43035900134B1944033159
:1018D00012484044FFF7B4FE0135162D0FDC06F127
:1018E000160303EB4303C3EB0310284480B2163006
:1018F0001FFA80F84FF00009BCE73B46E0E70136ED
:10190000162E02DC6FF01505E7E7BDE8F88F00BF83
:10191000000040400020FD43600200209C020020A7
:101920002DE9F0439DF81CC0002743E001EB410482
:10193000E50005EB070801268640F64336B21F4C4A
:1019400034F818E006EA0E0E24F818E005F1080E47
:10195000BE4434F81E9006EA090924F81E9010359A
:101960003D4434F8159006EA090624F8156003FA98
:1019700007F6C6F3C016864034F8189046EA090602
:1019800024F8186002FA07F6C6F3C016864034F849
:101990001E8046EA080624F81E600CFA07F6C6F315
:1019A000C016864034F815E046EA0E0624F81560A5
:1019B0000137FFB2072FB9D9BDE8F0835C1A0020C8
:1019C0004000014B1870704747010020F8B50146F0
:1019D0000A237BB15A1E0C4D03EB43035C002F1905
:1019E00002EB420673002B441E682E519B88BB807D
:1019F000D3B2EEE7044B054A1088927818809A70AB
:101A0000D81CFFF71DFEF8BD600200205C0200201C
:101A100008B5304A82FB0032C317C3EB62031A4693
:101A200003EB43039900431ADBB22B490B703032AE
:101A30002A4B9A7000225A700B78DBB20B2B0AD813
:101A4000DFE803F00612181C22262A30343A3E44FE
:101A5000224B43221A70204B187800EB4000204B99
:101A60001844FFF7B3FF08BD1C4B43221A70232212
:101A70005A70F0E7194B44221A70ECE7174B4522D5
:101A80001A7062225A70E6E7144B45221A70E2E798
:101A9000124B46221A70DEE7104B46221A702322A0
:101AA0005A70D8E70D4B47221A70D4E70B4B4122EE
:101AB0001A7062225A70CEE7084B41221A70CAE7A8
:101AC000064B42221A7062225A70C4E7034B42222C
:101AD0001A70C0E7ABAAAA2A2B0000205C020020E3
:101AE00000000020002009281ED830B403E0013097
:101AF000C0B2092816D804460C4D430003445A00CE
:101B0000A9180023AB544B708B70022BEFD804EB59
:101B100044025100054A0A441A440021D17001339D
:101B2000DBB2F2E730BC7047704700BF60020020B4
:101B30007047FEE7FEE7FEE7FEE770477047704735
:101B4000704770477047F0B50D68C5F30F2595FADB
:101B5000A5F2B2FA82F235E0A2F108044FF00113C7
:101B6000A34043F0806339E0C45993FAA3F6B6FA70
:101B700086F6B6004FF0030C0CFA06F624EA060CC3
:101B800093FAA3F6B6FA86F6B6008C6804FA06F65F
:101B900046EA0C06C651CC6893FAA3FCBCFA8CFC4E
:101BA0004FEA8C0C4FF0040E0EFA0CFC26EA0C06E1
:101BB00093FAA3F3B3FA83F39B0004FA03F33343DA
:101BC000C351013235FA02F335D0012393402B4241
:101BD000F7D0072AC0D840F2011393404E681F0E79
:101BE000C45993FAA3FCBCFA8CFC4FEA8C0C4FF05E
:101BF0000F0E0EFA0CFC24EA0C0493FAA3FCBCFAB8
:101C00008CFC4FEA8C0C06FA0CF63443C451C668BF
:101C10001C0A26EA040C94FAA4F4B4FA84F40E69BB
:101C200006FA04F44CEA0404C4604C68012C9BD00E
:101C3000092CC6D198E70120F0BD0000334B984233
:101C400028D0324B984229D0304B98422AD02F4B83
:101C500098422BD02D4B98422CD02C4B98422DD013
:101C60002B4B1A6822F001021A6000221A605A6097
:101C70009A60DA60012927D0022929D003292BD0C4
:101C800004292ED0052931D0062934D0072937D090
:101C9000002070470129D4D11E4BE2E70229D3D19D
:101CA0001D4BDEE70329D2D11C4BDAE70429D1D141
:101CB0001B4BD6E70529D0D11A4BD2E7062901D014
:101CC0008033CEE7184BCCE70123436018467047BA
:101CD00010234360012070474FF48073436001205C
:101CE00070474FF480534360012070474FF48033B6
:101CF0004360012070474FF4801343600120704718
:101D00004FF0807343600120704700BF0000024025
:101D100080000240080002401C00024030000240E7
:101D200044000240580002406C00024030B4936806
:101D3000D468234314692343546923439469234398
:101D4000D4692343546A234301390B4C655C2C1836
:101D5000295821F4FF4121F070010B432B505368A7
:101D6000E3601368A360126A63681B0C1B041343CF
:101D70006360012030BC7047042C000830B4036A53
:101D800023F001030362036A4468826922F073024C
:101D90000D682A4323F002030D692B4323F001034E
:101DA0004D682B430F4DA84207D044608261CA683A
:101DB00042630362012030BC704723F008034D6981
:101DC00043EA850323F004038D6843EA850324F482
:101DD00080748D692C4324F40074CD6944EA450471
:101DE000E3E700BF002C014030B4036A23F0100386
:101DF0000362036A4468826922F4E6420D6842EA9B
:101E0000052223F020030D6943EA051323F0100394
:101E10004D6843EA0513104DA84207D04460826123
:101E2000CA6882630362012030BC704723F08003DC
:101E30004D6943EA851323F040038D6843EA851317
:101E400024F480648D6944EA850424F40064CD6937
:101E500044EAC504E2E700BF002C014030B4036A45
:101E600023F480730362036A4468C26922F0730238
:101E70000D682A4323F400730D6943EA052323F414
:101E800080734D6843EA05230F4DA84207D0446094
:101E9000C261CA68C2630362012030BC704723F488
:101EA00000634D6943EA852323F480638D6843EA28
:101EB000852324F480548D6944EA051424F40054E5
:101EC000CD6944EA4514E2E7002C014030B4036ACE
:101ED00023F480530362036A4468C26922F4E64231
:101EE0000D6842EA052223F400530D6943EA0533E5
:101EF00023F480534D6843EA0533084DA84207D0C8
:101F00004460C261CA6802640362012030BC704749
:101F100024F480448D6944EA8514F1E7002C0140E3
:101F200003681A4A90420AD0B0F1804F07D0A2F558
:101F30009432904203D002F58062904203D123F0A4
:101F400070034A681343114A90420AD0B0F1804F9F
:101F500007D0A2F59432904203D002F580629042FD
:101F600003D123F44073CA68134303608B68C362D0
:101F70000B888362054B984205D0436943F0010307
:101F80004361012070470B7C0363F6E7002C01409E
:101F900008B5102914D009D9B1F5807F14D0B1F556
:101FA000805F0BD11146FFF791FF06E0012903D1B5
:101FB0001146FFF7E3FE00E0002008BD0020FCE72B
:101FC0001146FFF711FFF8E71146FFF747FFF4E767
:101FD000034B5B68C3F30313024AD35CD8407047DA
:101FE000001002400C2C0008034B5B68C3F3022373
:101FF000024AD35CD8407047001002401C2C0008F5
:10200000034B5B68C3F3C223024AD35CD8407047DA
:10201000001002401C2C00080B4B5B6803F480335B
:1020200043B90A48084B5B68C3F38343023300FBA0
:1020300003F07047044B5868C0F34040431C044809
:10204000B0FBF3F0EEE700BF0010024000093D00D6
:1020500000127A0008B5054B5B6803F00C03082BEF
:1020600001D0034808BDFFF7D7FFFBE7001002408F
:1020700000127A0010B50446FFF7ECFF2060FFF76E
:10208000A7FF6060FFF7B0FFA0606068FFF7B8FFD0
:10209000E06010BD054BA3FB003080090138044B04
:1020A000586000229A6005221A607047D34D621072
:1020B00010E000E0014B1860704700BF2C000020CA
:1020C0000F4B1A6842F001021A6059680D4A0A4023
:1020D0005A601A6822F0847222F480321A601A68F8
:1020E00022F480221A605A6822F4FE025A604FF4E9
:1020F0001F029A60044B4FF000629A60704700BF65
:10210000001002400000FFF800ED00E0C36813F487
:10211000005F01D00020704730B585B00D46044601
:10212000C36823F4B05323F00C034A68C9680A4318
:1021300029690A431343C360AB68026922F4405221
:10214000134303616B69426922F440721343436194
:102150006846FFF78FFF1C4B9C4208D01B4B9C42EC
:102160002AD01B4B9C4229D0002005B030BD039BD8
:1021700033B32A6832B303EB830303EB8303920088
:10218000B3FBF2F3134DA5FB03204009020191B20A
:10219000642202FB103213013233A5FB0323C3F385
:1021A0004F1303F0F0020A4492B203F00F031344FA
:1021B0009BB2A3600120D8E7029BD9E7029BD7E737
:1021C0000020D2E70020D0E7003801400044004062
:1021D000004800401F85EB51002103E00B4B5B588A
:1021E000435004310A480B4B42189A42F6D30A4A2C
:1021F00002E0002342F8043B084B9A42F9D3FFF770
:102200005FFF00F00FF8FFF793F87047602D0008AC
:102210000000002094000020940000202C3C0020AE
:10222000FEE7000070B500260C4D0D4C641BA41099
:10223000A64209D100F0D2FC00260A4D0A4C641BCC
:10224000A410A64205D170BD55F8043B984701364D
:10225000EEE755F8043B98470136F2E7582D0008A1
:10226000582D0008582D00085C2D00080EB46FF0A2
:10227000004100B59CB01DAB0290069007910491FF
:102280000848094953F8042B0591006802A90193F5
:1022900000F0EAF80022029B1A701CB05DF804EB13
:1022A00003B07047300000200802FFFF2DE9F0471F
:1022B00086460846384F054615F8014BE65D16F090
:1022C000080634D12D2C34D14FF001082C78851C10
:1022D000002B5CD0102B09D1302C07D1287800F0CE
:1022E000DF0058284ED110236C780235B8F1000F6A
:1022F00014BF4FF0004C6FF0004C0027BCFBF3F90B
:10230000384603FB19CAA4F13006092E18D8344602
:10231000A34224DD7E1C07D081451DD301D1A245F7
:102320001ADB012700FB034015F8014BEBE72846B9
:10233000C1E72B2C08BF2C78B04608BF851CC7E727
:10234000A4F14106192E01D8373CE1E7A4F161065A
:10235000192E04D8573CDBE74FF0FF37E4E77B1C2E
:1023600006D122236046CEF8003042B9BDE8F0879E
:10237000B8F1000F00D04042002AF7D007B1691E23
:102380001160F3E73024002BB0D10823AEE7302CE6
:10239000A4D00A23AAE700BF252C000813460A464A
:1023A000014602480068FFF781BF00BF30000020EF
:1023B0002DE9F0478E6882469E420C46914698462B
:1023C00038D8B1F80CC01CF4906F31D06269256820
:1023D000096902EB42026F1A02EBD2720133551007
:1023E0003B449D4238BF1D461CF4806F30D02946C7
:1023F00000F040FB064650B90C234FF0FF30CAF8FE
:102400000030A38943F04003A381BDE8F0873A463A
:10241000216900F0BBFAA38923F4906343F08003A1
:10242000A38126613E44266046466561ED1BA5609A
:10243000464500D9464632464946206800F0B4FA7F
:10244000A36800209B1BA36023681E442660DCE772
:102450002A4600F069FB06460028E2D12169504671
:1024600000F0BCFAC8E700002DE9F04F1E468B894A
:102470009DB01B0607460D4614460ED50B6963B981
:10248000402100F0F7FA2860286120B90C233B6056
:102490004FF0FF30C9E040236B61002309932023F4
:1024A0008DF8293030234FF0010ADFF898918DF82C
:1024B0002A30039623461E4613F8012B0AB1252A1B
:1024C000F9D1B6EB040B0BD05B46224629463846C1
:1024D000FFF76EFF013000F0A380099B5B44099376
:1024E0003378002B00F09C8000234FF0FF32CDE9C1
:1024F00005230136049307938DF853301A9334461D
:10250000052214F8011B4F4800F032FA049BC0B9B1
:10251000D90644BF20228DF853201A0744BF2B222E
:102520008DF8532032782A2A13D0344600200A2608
:10253000079A214611F8013B303B092B4BD970B962
:1025400014E0A0EB09000AFA00F0184304902646B4
:10255000D5E7039A111D12680391002A01DB079247
:1025600004E0524243F002030792049323782E2B97
:102570000CD163782A2B33D1039B02341A1D1B68BC
:102580000392002BB8BF4FF0FF3305932E4E03226A
:102590002178304600F0ECF938B14023801B03FA73
:1025A00000F0049B01340343049314F8011B06223A
:1025B00026488DF8281000F0DBF9002838D0244B8D
:1025C00013BB039B073323F0070308330393099BD3
:1025D000434409936EE706FB023201200C46A8E74C
:1025E00000230A26194601340593204610F8012BD2
:1025F000303A092A03D9002BC8D00591C6E706FB5B
:10260000012101230446F0E703AB00932A46114B56
:1026100004A93846AFF30080B0F1FF3F8046D6D121
:10262000AB895B063FF534AF09981DB0BDE8F08F6C
:1026300003AB00932A46074B04A9384600F082F802
:10264000EAE700BF252D00082B2D00082F2D0008DC
:1026500000000000B12300082DE9F04791461F4615
:102660008A680B6906469342B8BF1346C9F8003022
:1026700091F843200C46DDF8208012B10133C9F8EF
:1026800000302368990642BFD9F800300233C9F8F8
:102690000030256815F0060507D104F1190AE36832
:1026A000D9F800209B1AAB4229DC94F84330226809
:1026B000003318BF012392062ED404F14302394699
:1026C0003046C047013021D02368E56803F0060397
:1026D000042B18BF0025D9F800204FF0000908BFCF
:1026E000AD1AA368226908BF25EAE5759342C4BF05
:1026F0009B1AED181A344D451AD1002008E0012329
:10270000524639463046C047013003D14FF0FF30C2
:10271000BDE8F0870135C2E73020E11881F84300B9
:102720005A1C94F845102244023382F84310C4E73F
:102730000123224639463046C0470130E6D009F130
:102740000109D8E72DE9F04306460C4601F14300A4
:10275000097E85B06E29984617460C9B00F0BB8019
:1027600024D8632939D00AD8002900F0C480582918
:1027700000F0928004F1420584F8421035E06429AB
:1027800001D06929F6D125681A6815F0800F02F189
:1027900004012CD012681960002A03DA2D2352425A
:1027A00084F84330DFF8C0C10A233FE0732900F00A
:1027B000A68008D86F2921D07029DBD1226842F089
:1027C0002002226003E0752918D07829D2D178221E
:1027D000DFF898C184F8452062E01A6804F14205E8
:1027E000111D1960136884F84230012394E01268C7
:1027F00015F0400F196018BF12B2CDE7D4F800C031
:102800001A681CF0800F02F104051D6001D01268E7
:1028100003E01CF0400FFAD012886F290CBF082388
:102820000A23DFF844C1002184F843106568002DB5
:10283000A8BF2168A560A4BF21F0040121600AB9E6
:10284000002D46D00546B2FBF3F103FB112E1CF818
:102850000EE0934205F801ED39D9082B0BD123681E
:10286000DA0708D5236962689A42DEBF302305F88B
:10287000013C05F1FF35401B2061CDF800803B464F
:1028800003AA21463046FFF7E7FE013049D14FF059
:10289000FF3005B0BDE8F083DFF8CCC084F8451008
:1028A0001D68216855F8042B1D600D060BD5CD075A
:1028B00044BF41F0200121601AB9236823F02003AE
:1028C00023601023AFE74B0648BF92B2EFE70A46FA
:1028D000B9E70546C1E71A68D4F800C0151D61695B
:1028E0001CF0800F1D60136801D0196003E01CF01C
:1028F000400FFAD01980002305462361BDE71A680E
:10290000111D1960156800216268284600F030F832
:1029100008B1401B606063682361002384F8433082
:10292000ABE723692A4639463046C0470130AED06E
:1029300023689B0713D4E068039B9842B8BF1846EE
:10294000A7E701234A4639463046C04701309ED0AA
:102950000135E368039A9B1AAB42F2DCEBE70025F2
:1029600004F11909F5E700BF362D0008472D0008CE
:1029700010B5C9B202449042034601D1002303E0DE
:102980001C7801308C42F6D1184610BD0A449142A1
:1029900000F1FF3300D1704710B511F8014B91429F
:1029A00003F8014FF9D110BD884210B501EB0203C5
:1029B00002D983421C4607D8421E994208D011F81A
:1029C000014B02F8014FF8E783189A1A9A4200D196
:1029D00010BD14F8011D03F8011DF7E738B50546D1
:1029E000002943D051F8043C0C1F002BB8BFE41859
:1029F00000F0D0F81E4A1368104633B963601460C3
:102A00002846BDE8384000F0CBB8A3420BD9216876
:102A10006218934201BF1A685B68521822606360B3
:102A20000460EDE713465A680AB1A242FAD9196860
:102A30005818A0420BD120680144581882421960EE
:102A4000DED110685268014419605A60D8E702D993
:102A50000C232B60D4E7206821188A4201BF11683B
:102A600052680918216062605C60C9E738BD00BF28
:102A70004C010020F8B5CD1C25F0030508350C2DC0
:102A800038BF0C25002D064601DBA94203D90C23D3
:102A900033600020F8BD00F07DF821490A68144633
:102AA0009CB9204F3B6823B92146304600F062F8BC
:102AB00038602946304600F05DF8431C23D10C23D2
:102AC0003046336000F06CF8E3E723685B1B17D4F3
:102AD0000B2B03D923601C44256004E06368A242E9
:102AE0000CBF0B605360304600F05AF804F10B0045
:102AF000231D20F00700C21ACCD01B1AA350C9E72F
:102B000022466468CCE7C41C24F00304A042E3D04E
:102B1000211A304600F02EF80130DDD1CFE700BF9A
:102B20004C01002050010020F8B5074614460E461F
:102B300021B91146BDE8F840FFF79CBF22B9FFF765
:102B40004DFF25462846F8BD00F030F8A0420FD2D0
:102B500021463846FFF78EFF05460028F2D0314661
:102B60002246FFF713FF31463846FFF737FFE9E704
:102B70003546E7E738B50023054C0546084623608F
:102B800000F01EF8431C02D1236803B12B6038BD4E
:102B90001C3C0020014800F011B800BF243C00207C
:102BA000014800F00CB800BF243C002051F8043C60
:102BB000181F002BBCBF0B58C018704770477047D8
:102BC000044A05491368002B08BF0B4618441060DF
:102BD0001846704754010020303C0020F8B500BF73
:102BE000F8BC08BC9E467047F8B500BFF8BC08BCEE
:042BF0009E46704746
:102BF40025303378200000002530336C6420000039
:102C0400081C3044586C80000000000000000000E4
:102C1400010203040607080900000000010203047E
:102C24000020202020202020202028282828282098
:102C34002020202020202020202020202020202090
:102C440020881010101010101010101010101010F8
:102C540010040404040404040404041010101010E8
:102C640010104141414141410101010101010101B2
:102C74000101010101010101010101011010101004
:102C84001010424242424242020202020202020284
:102C940002020202020202020202020210101010D8
:102CA4002000000000000000000000000000000000
:102CB4000000000000000000000000000000000010
:102CC4000000000000000000000000000000000000
:102CD40000000000000000000000000000000000F0
:102CE40000000000000000000000000000000000E0
:102CF40000000000000000000000000000000000D0
:102D040000000000000000000000000000000000BF
:102D140000000000000000000000000000000000AF
:102D240000232D302B2000686C4C006566674546F7
:102D34004700303132333435363738394142434431
:102D440045460030313233343536373839616263C1
:042D5400646566004C
:042D58003501000839
:042D5C001101000859
:102D600032000032190032320032260000322419BB
:102D700000323200193200320000281E1E1E3C3C78
:102D8000143C1E1400000000FFFF010C00A24A04C6
:102D900034000020000000000000000000000000DF
:102DA0000000000000000000000000000000000023
:102DB0000000000000000000000000000000000013
:102DC0000000000000000000000000000000000003
:102DD00000000000000000000000000000000000F3
:102DE00000000000000000000000000000000000E3
:042DF00000000000DF
:04000005080021D9F5
:00000001FF
