:020000040800F2
:1000000000500020991D0008F1160008F3160008A2
:10001000F5160008F7160008F916000800000000A1
:10002000000000000000000000000000FB160008B7
:10003000FD16000800000000FF1600080117000868
:10004000E11D0008E11D0008E11D0008E11D000898
:10005000E11D0008E11D0008E11D0008E11D000888
:10006000E11D0008E11D0008E11D0008E11D000878
:1000700003170008E11D0008E11D0008051700082E
:10008000E11D000849140008E11D0008E11D0008F9
:10009000E11D0008E11D0008E11D0008E11D000848
:1000A000E11D0008E11D0008E11D0008E11D000838
:1000B0009D140008E11D0008E11D0008E11D000875
:1000C000E11D0008E11D0008E11D0008E11D000818
:1000D000E11D0008E11D0008E11D0008F9140008F9
:1000E000E11D0008E11D0008E11D000800000000FE
:1000F0000000000000000000000000000000000000
:0C01000000000000000000005FF808F1A3
:1001100010B5054C237833B9044B13B10448AFF341
:1001200000800123237010BD9C000020000000000F
:10013000AC27000808B5034B1BB103490348AFF3D4
:10014000008008BD00000000A0000020AC270008CF
:10015000034613F8012B002AFBD1181A0138704707
:1001600081F0004102E000BF83F0004330B54FEA68
:1001700041044FEA430594EA050F08BF90EA020FD5
:100180001FBF54EA000C55EA020C7FEA645C7FEA68
:10019000655C00F0E2804FEA5454D4EB5555B8BF8B
:1001A0006D420CDD2C4480EA020281EA030382EAFC
:1001B000000083EA010180EA020281EA0303362D8E
:1001C00088BF30BD11F0004F4FEA01314FF4801C61
:1001D0004CEA113102D0404261EB410113F0004F73
:1001E0004FEA03334CEA133302D0524263EB43032A
:1001F00094EA050F00F0A780A4F10104D5F1200EC8
:100200000DDB02FA0EFC22FA05F2801841F1000122
:1002100003FA0EF2801843FA05F359410EE0A5F1F6
:1002200020050EF1200E012A03FA0EFC28BF4CF027
:10023000020C43FA05F3C01851EBE37101F00045DD
:1002400007D54FF0000EDCF1000C7EEB00006EEBEA
:100250000101B1F5801F1BD3B1F5001F0CD3490874
:100260005FEA30004FEA3C0C04F101044FEA4452CB
:1002700012F5800F80F09A80BCF1004F08BF5FEA52
:10028000500C50F1000041EB045141EA050130BD32
:100290005FEA4C0C404141EB010111F4801FA4F1D5
:1002A0000104E9D191F0000F04BF01460020B1FA2A
:1002B00081F308BF2033A3F10B03B3F120020CDA62
:1002C0000C3208DD02F1140CC2F10C0201FA0CF040
:1002D00021FA02F10CE002F11402D8BFC2F1200CA5
:1002E00001FA02F120FA0CFCDCBF41EA0C0190405B
:1002F000E41AA2BF01EB0451294330BD6FEA0404A4
:100300001F3C1CDA0C340EDC04F11404C4F120028E
:1003100020FA04F001FA02F340EA030021FA04F3A0
:1003200045EA030130BDC4F10C04C4F1200220FAF7
:1003300002F001FA04F340EA0300294630BD21FA35
:1003400004F0294630BD94F0000F83F4801306BFFB
:1003500081F480110134013D4EE77FEA645C18BFEF
:100360007FEA655C29D094EA050F08BF90EA020F86
:1003700005D054EA000C04BF1946104630BD91EA7E
:10038000030F1EBF0021002030BD5FEA545C05D181
:100390004000494128BF41F0004130BD14F58004C0
:1003A0003CBF01F5801130BD01F0004545F0FE4134
:1003B00041F470014FF0000030BD7FEA645C1ABF69
:1003C000194610467FEA655C1CBF0B46024650EAA0
:1003D000013406BF52EA033591EA030F41F40021CC
:1003E00030BD00BF90F0000F04BF0021704730B552
:1003F0004FF4806404F132044FF000054FF0000127
:1004000050E700BF90F0000F04BF0021704730B5E7
:100410004FF4806404F1320410F0004548BF4042BC
:100420004FF000013EE700BF42004FEAE2014FEA11
:1004300031014FEA02701FBF12F07F4393F07F4FEC
:1004400081F06051704732F07F4208BF704793F0EF
:100450007F4F04BF41F40021704730B54FF4607402
:1004600001F0004521F000411CE700BF50EA010205
:1004700008BF704730B54FF000050AE050EA0102AE
:1004800008BF704730B511F0004502D5404261EB1E
:1004900041014FF4806404F132045FEA915C3FF45F
:1004A000D8AE4FF003025FEADC0C18BF03325FEAFC
:1004B000DC0C18BF033202EBDC02C2F1200300FAAD
:1004C00003FC20FA02F001FA03FE40EA0E0021FAD2
:1004D00002F11444BDE600BF70B54FF0FF0C4CF4C0
:1004E000E06C1CEA11541DBF1CEA135594EA0C0F72
:1004F00095EA0C0F00F0DEF82C4481EA030621EAAD
:100500004C5123EA4C5350EA013518BF52EA0335E7
:1005100041F4801143F4801338D0A0FB02CE4FF099
:100520000005E1FB02E506F00042E0FB03E54FF0C9
:100530000006E1FB03569CF0000F18BF4EF0010EC1
:10054000A4F1FF04B6F5007F64F5407404D25FEABD
:100550004E0E6D4146EB060642EAC62141EA555170
:100560004FEAC52040EA5E504FEACE2EB4F1FD0CB2
:1005700088BFBCF5E06F1ED8BEF1004F08BF5FEA30
:10058000500E50F1000041EB045170BD06F00046E2
:1005900046EA010140EA020081EA0301B4EB5C048F
:1005A000C2BFD4EB0C0541EA045170BD41F4801187
:1005B0004FF0000E013C00F3AB8014F1360FDEBFAC
:1005C000002001F0004170BDC4F10004203C35DA88
:1005D0000C341BDC04F11404C4F1200500FA05F30B
:1005E00020FA04F001FA05F240EA020001F00042AC
:1005F00021F0004110EBD37021FA04F642EB060122
:100600005EEA430E08BF20EAD37070BDC4F10C044B
:10061000C4F1200500FA04F320FA05F001FA04F20F
:1006200040EA020001F0004110EBD37041F10001FB
:100630005EEA430E08BF20EAD37070BDC4F1200506
:1006400000FA05F24EEA020E20FA04F301FA05F26E
:1006500043EA020321FA04F001F0004121FA04F216
:1006600020EA020000EBD3705EEA430E08BF20EAE6
:10067000D37070BD94F0000F0FD101F00046400020
:1006800041EB010111F4801F08BF013CF7D041EAA2
:10069000060195F0000F18BF704703F000465200A6
:1006A00043EB030313F4801F08BF013DF7D043EA77
:1006B0000603704794EA0C0F0CEA135518BF95EA2D
:1006C0000C0F0CD050EA410618BF52EA4306D1D1B4
:1006D00081EA030101F000414FF0000070BD50EAD3
:1006E000410606BF1046194652EA430619D094EA5D
:1006F0000C0F02D150EA013613D195EA0C0F05D147
:1007000052EA03361CBF104619460AD181EA03019A
:1007100001F0004141F0FE4141F470014FF0000052
:1007200070BD41F0FE4141F4780170BD70B54FF0ED
:10073000FF0C4CF4E06C1CEA11541DBF1CEA13556D
:1007400094EA0C0F95EA0C0F00F0A7F8A4EB05044F
:1007500081EA030E52EA03354FEA013100F0888046
:100760004FEA03334FF0805545EA131343EA12630F
:100770004FEA022245EA111545EA10654FEA0026C4
:100780000EF000419D4208BF964244F1FD0404F57D
:10079000407402D25B084FEA3202B61A65EB0305D9
:1007A0005B084FEA32024FF480104FF4002CB6EB96
:1007B000020E75EB030E22BFB61A754640EA0C0016
:1007C0005B084FEA3202B6EB020E75EB030E22BF56
:1007D000B61A754640EA5C005B084FEA3202B6EB97
:1007E000020E75EB030E22BFB61A754640EA9C0056
:1007F0005B084FEA3202B6EB020E75EB030E22BF26
:10080000B61A754640EADC0055EA060E18D04FEAE3
:10081000051545EA16754FEA06164FEAC30343EA83
:1008200052734FEAC2025FEA1C1CC0D111F4801F50
:100830000BD141EA00014FF000004FF0004CB6E749
:1008400011F4801F04BF01430020B4F1FD0C88BFE8
:10085000BCF5E06F3FF6AFAEB5EB030C04BFB6EBF3
:10086000020C5FEA500C50F1000041EB045170BDE6
:100870000EF0004E4EEA113114EB5C04C2BFD4EB13
:100880000C0541EA045170BD41F480114FF0000E97
:10089000013C90E645EA060E8DE60CEA135594EA13
:1008A0000C0F08BF95EA0C0F3FF43BAF94EA0C0F16
:1008B0000AD150EA01347FF434AF95EA0C0F7FF48B
:1008C00025AF104619462CE795EA0C0F06D152EADF
:1008D00003353FF4FDAE1046194622E750EA4106C3
:1008E00018BF52EA43067FF4C5AE50EA41047FF4D4
:1008F0000DAF52EA43057FF4EBAE12E74A0011D286
:1009000012F5001211D20DD56FF47873B3EB625269
:100910000ED44FEAC12343F0004343EA505323FA75
:1009200002F070474FF00000704750EA013002D1EA
:100930004FF0FF3070474FF00000704782B00A4B15
:100940005A6942F001025A615B6903F001030193A5
:10095000019B064BDB68064B002283F811234FF402
:1009600000321A6002B070470010024000ED00E053
:1009700000E100E030B585B01F4B9A6942F01002EB
:100980009A619A6902F010020392039A9A6942F0FE
:1009900020029A619A6902F020020292029A9A69F0
:1009A00042F004029A619A6902F004020192019AEB
:1009B0009A6942F008029A619B6903F00803009368
:1009C000009B0E4C6FF07B43236001256560032381
:1009D000A36021460A4800F096FE0A4B236065603A
:1009E0000223A360084D2146284600F08CFE4FF4F8
:1009F00000536B6105B030BD00100240E0000020E4
:100A0000000801402000200400100140F0B583B030
:100A1000274BDA6942F48022DA61DA6902F4802233
:100A20000192019A9A6942F008029A619B6903F067
:100A300008030093009B1F4C1F4B23600923636036
:100A40000323A3600025E5601C4F2146384600F0D3
:100A50005AFE1B4B2360042666602146384600F090
:100A600052FE184BDB68184B83F8275380225A60DC
:100A7000164947F612230B604D608D60CD600E6104
:100A80004D61134C204601F021F9236923F4904372
:100A90002361636923F02A036361E36843F400532D
:100AA000E360E36843F02003E36003B0F0BD00BF00
:100AB00000100240E000002004000404000C01408B
:100AC0000800080400ED00E000E100E02C01002037
:100AD000004800402DE9F04F83B0514BDA6942F0F5
:100AE0000102DA61DB6903F001030193019B4D4EC2
:100AF0000221304600F082FE4B4CDFF858B1C4F8BA
:100B000000B04A4B63601027A7600025256225616D
:100B100065614FF4007AC4F818A04FF48069C4F8F6
:100B20001C90E5604FF44058C4F82480224602210E
:100B3000304600F0DBFE0521304600F05FFEC4F8D1
:100B400000B03B4B6360A760256225618023636131
:100B5000C4F818A0C4F81C90E560C4F824802246AC
:100B60000521304600F0C2FE0721304600F046FE67
:100B7000C4F800B02F4B6360A760256225616561F2
:100B8000C4F818A0C4F81C90E560C4F8248022467C
:100B90000721304600F0AAFE274BDB68274B83F87D
:100BA0001C534FF080521A60254A136843F0020329
:100BB0001360244B1B68244AA2FB03235B0D013BFB
:100BC00022491D228A600B80CD604D604FF080402D
:100BD00000F086FF4FF08044236823F080032360F9
:100BE0001B4E356075600823F360324601212046B4
:100BF00000F0AEFFA36923F00803A3616023336014
:100C000075601123F36032463946204600F0A0FF9C
:100C1000A36923F40063A36103B0BDE8F08F00BFB4
:100C20000010024000000240B80000200000002038
:100C3000C00400204401002000ED00E000E100E0DD
:100C40008000024034000020819F5E16F8000020E2
:100C50000C0100200C0801402038C0B2164B03EBF9
:100C600040035B7813F0010F00D0013931B9124B0A
:100C700013F81000000900F00E007047012907D09A
:100C800002290AD0032912D0042912D00020F2E749
:100C9000094B13F810004008EDE7074A12F810005E
:100CA000800000F00C0003F002031843704718099D
:100CB000E1E75808DFE700BFD82700080000000080
:100CC0002DE9F041DFF8B080D8F80030264F03EB73
:100CD0004303F85C254B1D78013500FB05F0244CDF
:100CE00084FB00231844C011FFF78CFB1CA3D3E93D
:100CF0000023FFF7F1FBFFF701FEC0B21D4E30707D
:100D0000D8F8003003EB43033B44587800FB05F070
:100D100084FB00231844C011FFF774FB10A3D3E930
:100D20000023FFF7D9FBFFF7E9FDC0B27070D8F8D8
:100D3000003003EB43031F44B87800FB05F084FB4D
:100D400000342044C011FFF75DFB05A3D3E9002365
:100D5000FFF7C2FBFFF7D2FDC0B2B070BDE8F08173
:100D60009A9999999999B93F040000208701002028
:100D70008180808048010020300000204000014B2D
:100D8000187070478701002010B5514A82FB00326D
:100D9000C317C3EB62031A4603EB43039900431ADC
:100DA0004C490B603032D2B24B4BDA70002309E071
:100DB000484A126802EB420248490A44D15C484A58
:100DC000D1540133022BF3D9424B1B680B2B0BD8A8
:100DD000DFE803F0061F262B32373C43484F545BB5
:100DE000404B1A883C4B1A803B48C37802463E4928
:100DF000043001F01BF80A24002C4BD03B4B04EBD1
:100E00008400013C04EB84011944184401F02EF8DD
:100E1000F2E7314B364A1188927819809A70E3E7ED
:100E2000344B1A882C4B1A80DEE72B4B324A118840
:100E3000927819809A70D7E7304B1A88264B1A801F
:100E4000D2E72F4B1A88244B1A80CDE7224B2D4A2C
:100E50001188927819809A70C6E72B4B1A881E4B1E
:100E60001A80C1E71C4B294A1188927819809A7020
:100E7000BAE7274B1A88184B1A80B5E7164B254A54
:100E80001188927819809A70AEE7234B1A88124B1A
:100E90001A80A9E72023214A1349144800F0C6FF0D
:100EA0000C4803680D4A03EB4303D35CDBB21C49D7
:100EB0000B70036803EB430313445B78DBB24B70A6
:100EC000036803EB43031A449378DBB28B7010BDC5
:100ED000ABAAAA2A30000020B8010020040000209C
:100EE0002C00002098280008B42800085001002099
:100EF000BC2800089C280008C0280008A02800087A
:100F0000A4280008C4280008A8280008C828000849
:100F1000AC280008CC280008B0280008BC0100203C
:100F2000480100202DE9F0439DF81CC0002743E054
:100F300001EB4104E50005EB070801268640F64376
:100F400036B21F4C34F818E006EA0E0E24F818E00A
:100F500005F1080EBE4434F81E9006EA090924F88B
:100F60001E9010353D4434F8159006EA090624F821
:100F7000156003FA07F6C6F3C016864034F81890D9
:100F800046EA090624F8186002FA07F6C6F3C01606
:100F9000864034F81E8046EA080624F81E600CFAE3
:100FA00007F6C6F3C016864034F815E046EA0E068A
:100FB00024F815600137FFB2072FB9D9BDE8F083D7
:100FC000C004002070B582B000261FE00135EDB2EC
:100FD000012D19D800240F2CF8D804EB051303EBCE
:100FE0004613FF2BF2DC0C4991F8242091F82530B0
:100FF00091F8260004EB0511009089B23046FFF706
:1010000091FF0134A4B2E6E70136F6B2072E01D80B
:101010000025DDE702B070BD0400002000231F2B77
:1010200005D8034A0021D1540133DBB2F7E77047FA
:10103000980100202DE9F04F8FB04FF000085CE0E0
:10104000C4EB051292B202EB481292B20F3292B286
:1010500045E002EB42002D490144C85C0CEB4C0119
:101060000DF1380E7144194401F8300C0133DBB234
:10107000022B10D8D108264810F801A002F0070171
:101080002AFA01F000F00106002756EA0701E0D035
:101090002049C85CE2E70CEB4C0C0EAB9C441CF8FE
:1010A0002E3C00931CF82F3C1CF8302C04EB05114F
:1010B0004046FFF737FF0134E4B20F2C11D8A446A5
:1010C00004EB051303EB4813FF2B0ADCB9F1000F07
:1010D000B6D005EB4802120192B2224492B200232C
:1010E000C6E70135EDB2012D03D805F00109002452
:1010F000E3E708F101085FFA88F8B8F1070F01D8B3
:101100000025F0E70FB0BDE8F08F00BFC001002060
:10111000980100202C00002030B400241F4B1C70CC
:101120001F4B80225A604FF400225A604FF0006239
:101130005A601C494B681B0C1B0403434B601A4D3F
:101140006B681B0C1B0403436B60184A53681B0C31
:101150001B04184350604FF080431C61086840F046
:1011600001000860296841F001012960116841F01F
:1011700001011160DA6842F40072DA60DA6842F460
:101180008062DA60DA6842F48072DA601D225A62A4
:101190001A6842F001021A6030BC70470200002059
:1011A000000002401C000240580002408000024043
:1011B00070B4002610E00134102C0CDC0022022A4E
:1011C000F9DC04EB0613855C03EB430305490B4490
:1011D0009D540132F3E70136102E01DC0024EBE7C9
:1011E00070BC7047C00100202DE9F04F83B0019022
:1011F0000C4690461646002739E04FEAEE0ED3F132
:10120000000A03F007030AF0070A58BFCAF10003F7
:101210004FF0010B0BFA03FBDFF874A01AF80E3045
:1012200043EA0B030AF80E300CF1010C5FFA8CFC58
:10123000BCF1020F07D809EB05139E46002BDCDA40
:1012400003F1070ED9E70132D2B20139C9B2914692
:10125000E31C9A4207DC20FA01F313F0010FF2D0ED
:101260004FF0000CE4E70136F6B20137FFB2354625
:1012700008F105039E4208DC0F2E06D83946019876
:10128000FFF7EAFC22460321E1E703B0BDE8F08F57
:10129000980100202DE9F84F80468B4692469946EA
:1012A00000252F462C4628E009F1050202FB07F233
:1012B000D2B25A4405EB8500134B0344D2B2985D79
:1012C000FFF792FF0134E4B2013605EB85000E4BC7
:1012D0001844FEF73DFFB0420ED90AF1030303FBA9
:1012E00004F1C9B24144C9B20B440E2BDCDD013715
:1012F000FFB241460024D7E70135092D01D8002669
:10130000E3E7BDE8F88F00BF5001002010B5254A83
:10131000136823F0070343F0020313601368A2F578
:101320008052136843F4803313601F4B1B6813F41F
:10133000003FFAD01C4A536823F47C1343F4E813AB
:101340005360136843F080731360174B1B6813F0EE
:10135000007FFAD0144B5A6822F0F0025A605A68A3
:1013600022F4E06242F480625A605A6822F46052C9
:101370005A605A6822F0030242F002025A600A4B95
:101380005B6803F00C03082BF9D1084C204600F0F1
:1013900061FC074A136843F004031360204600F021
:1013A00069FC10BD002002400010024000A24A0467
:1013B00010E000E000B585B01E4B9A6942F00102D2
:1013C0009A619A6902F001020292029ADA6942F085
:1013D0008052DA61DB6903F080530193019B164967
:1013E000CA6822F4E0621204120C144B1343CB605F
:1013F000134B5A6822F0E0625A605A6842F08062E9
:101400005A60FFF783FFFFF7B5FAFFF7FFFAFFF720
:1014100095FAFFF75FFBFFF7D5FDFFF7FFFD094BDF
:101420001B68ADF80C301B0C8DF80E3003A8FFF7CD
:10143000BFFEFEE70010024000ED00E00003FA05E9
:1014400000000140C4270008124B4FF000725A60A0
:101450004FF08043DA6842F00102DA600E490A6810
:1014600022F001020A603C310A6822F001020A609F
:1014700028310A6822F001020A60DA6822F4007258
:10148000DA60DA6822F48062DA60DA6822F4807264
:10149000DA607047000002401C0002404FF08043B9
:1014A0006FF001021A610E4B1B78DBB2272B05D8B7
:1014B0000B4A13780133DBB213707047084B0022DC
:1014C0001A704FF080431A6822F001021A60DA683D
:1014D00022F00102DA60034B01221A70704700BF4C
:1014E000F40000200200002008B501231A46002164
:1014F0001846FFF7CFFE08BD744AD36883F4005343
:10150000D360734B1B6813F0200F00F0DE80704B2C
:10151000DB6813F0200F00F0D8806D4B5B68DBB206
:101520006C4A126842B96C4A12682AB9902B12D0E0
:10153000B02B22D0802B17D0664A1268012A25DDF5
:10154000644A106865490978091A65484354136864
:10155000013B13607047032260490A705D490A60CD
:101560005D4A01211160E7E703225C490A7059498D
:101570000A60594A01211160DEE7032257490A70C7
:1015800054490A60544A01211160D5E7524A126851
:10159000002A00F09A8070B59AB04E4A11684F4AFE
:1015A0001278521A4E498B540B78902B31D0B02BB5
:1015B00000F08680802B61D00023474A1360454AA3
:1015C00013601AB070BD012C1BD0022C1DD0013449
:1015D000022C20D801AB03EB8405414B1A5D414935
:1015E000284600F023FC10220021284600F0BEFC13
:1015F0000646002CE7D002463B49284600F016FC80
:10160000E1E73046FFF7C0FBDFE7F0B2FFF7B6FBDC
:10161000DDE70024DCE7FFF753FBFFF7FFFCFFF7F4
:1016200063FFFFF707FD4FF44070FFF775FDC3E759
:10163000012C1BD0022C1DD00134022CBCD801ABD4
:1016400003EB8405264B1A5D2649284600F0EEFB85
:1016500010220021284600F089FC0646002CE7D025
:1016600002462149284600F0E1FBE1E73046FFF75A
:101670008BFBDFE7F0B2FFF781FBDDE70024DCE75F
:10168000022C19D00134022C1CD801AB03EB8405C9
:10169000134B1A5D1349284600F0C8FB10220021A5
:1016A000284600F063FC0646002CE9D002460E49AD
:1016B000284600F0BBFBE3E7F0B2FFF75FFBE1E792
:1016C0000024E0E7094B1B7876E7704700100140E3
:1016D000004800404C0100208801002082010020C9
:1016E00084010020C8270008D0270008020000203D
:1016F0007047FEE7FEE7FEE7FEE77047704770477A
:10170000704770477047F0B50D68C5F30F2595FA1F
:10171000A5F2B2FA82F235E0A2F108044FF001130B
:10172000A34043F0806339E0C45993FAA3F6B6FAB4
:1017300086F6B6004FF0030C0CFA06F624EA060C07
:1017400093FAA3F6B6FA86F6B6008C6804FA06F6A3
:1017500046EA0C06C651CC6893FAA3FCBCFA8CFC92
:101760004FEA8C0C4FF0040E0EFA0CFC26EA0C0625
:1017700093FAA3F3B3FA83F39B0004FA03F333431E
:10178000C351013235FA02F335D0012393402B4285
:10179000F7D0072AC0D840F2011393404E681F0EBD
:1017A000C45993FAA3FCBCFA8CFC4FEA8C0C4FF0A2
:1017B0000F0E0EFA0CFC24EA0C0493FAA3FCBCFAFC
:1017C0008CFC4FEA8C0C06FA0CF63443C451C66804
:1017D0001C0A26EA040C94FAA4F4B4FA84F40E6900
:1017E00006FA04F44CEA0404C4604C68012C9BD053
:1017F000092CC6D198E70120F0BD0000334B984278
:1018000028D0324B984229D0304B98422AD02F4BC7
:1018100098422BD02D4B98422CD02C4B98422DD057
:101820002B4B1A6822F001021A6000221A605A60DB
:101830009A60DA60012927D0022929D003292BD008
:1018400004292ED0052931D0062934D0072937D0D4
:10185000002070470129D4D11E4BE2E70229D3D1E1
:101860001D4BDEE70329D2D11C4BDAE70429D1D185
:101870001B4BD6E70529D0D11A4BD2E7062901D058
:101880008033CEE7184BCCE70123436018467047FE
:1018900010234360012070474FF4807343600120A0
:1018A00070474FF480534360012070474FF48033FA
:1018B0004360012070474FF480134360012070475C
:1018C0004FF0807343600120704700BF000002406A
:1018D00080000240080002401C000240300002402C
:1018E00044000240580002406C00024030B493684B
:1018F000D4682343146923435469234394692343DD
:10190000D4692343546A234301390B4C655C2C187A
:10191000295821F4FF4121F070010B432B505368EB
:10192000E3601368A360126A63681B0C1B04134313
:101930006360012030BC7047D028000830B4036ACF
:1019400023F001030362036A4468826922F0730290
:101950000D682A4323F002030D692B4323F0010392
:101960004D682B430F4DA84207D044608261CA687E
:1019700042630362012030BC704723F008034D69C5
:1019800043EA850323F004038D6843EA850324F4C6
:1019900080748D692C4324F40074CD6944EA4504B5
:1019A000E3E700BF002C014030B4036A23F01003CA
:1019B0000362036A4468826922F4E6420D6842EADF
:1019C000052223F020030D6943EA051323F01003D9
:1019D0004D6843EA0513104DA84207D04460826168
:1019E000CA6882630362012030BC704723F0800321
:1019F0004D6943EA851323F040038D6843EA85135C
:101A000024F480648D6944EA850424F40064CD697B
:101A100044EAC504E2E700BF002C014030B4036A89
:101A200023F480730362036A4468C26922F073027C
:101A30000D682A4323F400730D6943EA052323F458
:101A400080734D6843EA05230F4DA84207D04460D8
:101A5000C261CA68C2630362012030BC704723F4CC
:101A600000634D6943EA852323F480638D6843EA6C
:101A7000852324F480548D6944EA051424F4005429
:101A8000CD6944EA4514E2E7002C014030B4036A12
:101A900023F480530362036A4468C26922F4E64275
:101AA0000D6842EA052223F400530D6943EA053329
:101AB00023F480534D6843EA0533084DA84207D00C
:101AC0004460C261CA6802640362012030BC70478E
:101AD00024F480448D6944EA8514F1E7002C014028
:101AE00003681A4A90420AD0B0F1804F07D0A2F59D
:101AF0009432904203D002F58062904203D123F0E9
:101B000070034A681343114A90420AD0B0F1804FE3
:101B100007D0A2F59432904203D002F58062904241
:101B200003D123F44073CA68134303608B68C36214
:101B30000B888362054B984205D0436943F001034B
:101B40004361012070470B7C0363F6E7002C0140E2
:101B500008B5102914D009D9B1F5807F14D0B1F59A
:101B6000805F0BD11146FFF791FF06E0012903D1F9
:101B70001146FFF7E3FE00E0002008BD0020FCE76F
:101B80001146FFF711FFF8E71146FFF747FFF4E7AB
:101B9000034B5B68C3F30313024AD35CD84070471E
:101BA00000100240D8280008034B5B68C3F30223EF
:101BB000024AD35CD840704700100240E828000871
:101BC000034B5B68C3F3C223024AD35CD84070471F
:101BD00000100240E82800080B4B5B6803F48033D8
:101BE00043B90A48084B5B68C3F38343023300FBE5
:101BF00003F07047044B5868C0F34040431C04484E
:101C0000B0FBF3F0EEE700BF0010024000093D001A
:101C100000127A0008B5054B5B6803F00C03082B33
:101C200001D0034808BDFFF7D7FFFBE700100240D3
:101C300000127A0010B50446FFF7ECFF2060FFF7B2
:101C4000A7FF6060FFF7B0FFA0606068FFF7B8FF14
:101C5000E06010BD054BA3FB003080090138044B48
:101C6000586000229A6005221A607047D34D6210B6
:101C700010E000E0014B1860704700BF3400002006
:101C80000F4B1A6842F001021A6059680D4A0A4067
:101C90005A601A6822F0847222F480321A601A683C
:101CA00022F480221A605A6822F4FE025A604FF42D
:101CB0001F029A60044B4FF000629A60704700BFA9
:101CC000001002400000FFF800ED00E0C36813F4CC
:101CD000005F01D00020704730B585B00D46044646
:101CE000C36823F4B05323F00C034A68C9680A435D
:101CF00029690A431343C360AB68026922F4405266
:101D0000134303616B69426922F4407213434361D8
:101D10006846FFF78FFF1C4B9C4208D01B4B9C4230
:101D20002AD01B4B9C4229D0002005B030BD039B1C
:101D300033B32A6832B303EB830303EB83039200CC
:101D4000B3FBF2F3134DA5FB03204009020191B24E
:101D5000642202FB103213013233A5FB0323C3F3C9
:101D60004F1303F0F0020A4492B203F00F0313443E
:101D70009BB2A3600120D8E7029BD9E7029BD7E77B
:101D80000020D2E70020D0E70038014000440040A6
:101D9000004800401F85EB51002103E00B4B5B58CE
:101DA000435004310A480B4B42189A42F6D30A4A70
:101DB00002E0002342F8043B084B9A42F9D3FFF7B4
:101DC0005FFF00F00FF8FFF7F5FA70472C2A0008C4
:101DD000000000209C0000209C000020D00A002071
:101DE000FEE7000070B500260C4D0D4C641BA410DE
:101DF000A64209D100F0DAFC00260A4D0A4C641B09
:101E0000A410A64205D170BD55F8043B9847013691
:101E1000EEE755F8043B98470136F2E7242A00081C
:101E2000242A0008242A0008282A00080EB46FF08B
:101E3000004100B59CB01DAB029006900791049143
:101E40000848094953F8042B0591006802A9019339
:101E500000F0F2F80022029B1A701CB05DF804EB4F
:101E600003B07047380000200802FFFF034611F856
:101E7000012B03F8012B002AF9D170472DE9F04717
:101E800086460846384F054615F8014BE65D16F0C4
:101E9000080634D12D2C34D14FF001082C78851C44
:101EA000002B5CD0102B09D1302C07D1287800F002
:101EB000DF0058284ED110236C780235B8F1000F9E
:101EC00014BF4FF0004C6FF0004C0027BCFBF3F93F
:101ED000384603FB19CAA4F13006092E18D8344637
:101EE000A34224DD7E1C07D081451DD301D1A2452C
:101EF0001ADB012700FB034015F8014BEBE72846EE
:101F0000C1E72B2C08BF2C78B04608BF851CC7E75B
:101F1000A4F14106192E01D8373CE1E7A4F161068E
:101F2000192E04D8573CDBE74FF0FF37E4E77B1C62
:101F300006D122236046CEF8003042B9BDE8F087D2
:101F4000B8F1000F00D04042002AF7D007B1691E57
:101F50001160F3E73024002BB0D10823AEE7302C1A
:101F6000A4D00A23AAE700BFF128000813460A46B6
:101F7000014602480068FFF781BF00BF380000201B
:101F80002DE9F0478E6882469E420C46914698465F
:101F900038D8B1F80CC01CF4906F31D06269256854
:101FA000096902EB42026F1A02EBD272013355103B
:101FB0003B449D4238BF1D461CF4806F30D02946FB
:101FC00000F040FB064650B90C234FF0FF30CAF832
:101FD0000030A38943F04003A381BDE8F0873A466F
:101FE000216900F0BBFAA38923F4906343F08003D6
:101FF000A38126613E44266046466561ED1BA560CF
:10200000464500D9464632464946206800F0B4FAB3
:10201000A36800209B1BA36023681E442660DCE7A6
:102020002A4600F069FB06460028E2D121695046A5
:1020300000F0BCFAC8E700002DE9F04F1E468B897E
:102040009DB01B0607460D4614460ED50B6963B9B5
:10205000402100F0F7FA2860286120B90C233B608A
:102060004FF0FF30C9E040236B6100230993202328
:102070008DF8293030234FF0010ADFF898918DF860
:102080002A30039623461E4613F8012B0AB1252A4F
:10209000F9D1B6EB040B0BD05B46224629463846F5
:1020A000FFF76EFF013000F0A380099B5B440993AA
:1020B0003378002B00F09C8000234FF0FF32CDE9F5
:1020C00005230136049307938DF853301A93344651
:1020D000052214F8011B4F4800F032FA049BC0B9E6
:1020E000D90644BF20228DF853201A0744BF2B2263
:1020F0008DF8532032782A2A13D0344600200A263D
:10210000079A214611F8013B303B092B4BD970B996
:1021100014E0A0EB09000AFA00F0184304902646E8
:10212000D5E7039A111D12680391002A01DB07927B
:1021300004E0524243F002030792049323782E2BCB
:102140000CD163782A2B33D1039B02341A1D1B68F0
:102150000392002BB8BF4FF0FF3305932E4E03229E
:102160002178304600F0ECF938B14023801B03FAA7
:1021700000F0049B01340343049314F8011B06226E
:1021800026488DF8281000F0DBF9002838D0244BC1
:1021900013BB039B073323F0070308330393099B07
:1021A000434409936EE706FB023201200C46A8E780
:1021B00000230A26194601340593204610F8012B06
:1021C000303A092A03D9002BC8D00591C6E706FB8F
:1021D000012101230446F0E703AB00932A46114B8B
:1021E00004A93846AFF30080B0F1FF3F8046D6D156
:1021F000AB895B063FF534AF09981DB0BDE8F08FA1
:1022000003AB00932A46074B04A9384600F082F836
:10221000EAE700BFF1290008F7290008FB290008B8
:1022200000000000811F00082DE9F04791461F467D
:102230008A680B6906469342B8BF1346C9F8003056
:1022400091F843200C46DDF8208012B10133C9F823
:1022500000302368990642BFD9F800300233C9F82C
:102260000030256815F0060507D104F1190AE36866
:10227000D9F800209B1AAB4229DC94F8433022683D
:10228000003318BF012392062ED404F143023946CD
:102290003046C047013021D02368E56803F00603CB
:1022A000042B18BF0025D9F800204FF0000908BF03
:1022B000AD1AA368226908BF25EAE5759342C4BF39
:1022C0009B1AED181A344D451AD1002008E001235D
:1022D000524639463046C047013003D14FF0FF30F7
:1022E000BDE8F0870135C2E73020E11881F84300EE
:1022F0005A1C94F845102244023382F84310C4E774
:102300000123224639463046C0470130E6D009F164
:102310000109D8E72DE9F04306460C4601F14300D8
:10232000097E85B06E29984617460C9B00F0BB804D
:1023300024D8632939D00AD8002900F0C48058294C
:1023400000F0928004F1420584F8421035E06429DF
:1023500001D06929F6D125681A6815F0800F02F1BD
:1023600004012CD012681960002A03DA2D2352428E
:1023700084F84330DFF8C0C10A233FE0732900F03E
:10238000A68008D86F2921D07029DBD1226842F0BD
:102390002002226003E0752918D07829D2D1782252
:1023A000DFF898C184F8452062E01A6804F142051C
:1023B000111D1960136884F84230012394E01268FB
:1023C00015F0400F196018BF12B2CDE7D4F800C065
:1023D0001A681CF0800F02F104051D6001D012681C
:1023E00003E01CF0400FFAD012886F290CBF0823BD
:1023F0000A23DFF844C1002184F843106568002DEA
:10240000A8BF2168A560A4BF21F0040121600AB91A
:10241000002D46D00546B2FBF3F103FB112E1CF84C
:102420000EE0934205F801ED39D9082B0BD1236852
:10243000DA0708D5236962689A42DEBF302305F8BF
:10244000013C05F1FF35401B2061CDF800803B4683
:1024500003AA21463046FFF7E7FE013049D14FF08D
:10246000FF3005B0BDE8F083DFF8CCC084F845103C
:102470001D68216855F8042B1D600D060BD5CD078E
:1024800044BF41F0200121601AB9236823F02003E2
:1024900023601023AFE74B0648BF92B2EFE70A462E
:1024A000B9E70546C1E71A68D4F800C0151D61698F
:1024B0001CF0800F1D60136801D0196003E01CF050
:1024C000400FFAD01980002305462361BDE71A6842
:1024D000111D1960156800216268284600F030F867
:1024E00008B1401B606063682361002384F84330B7
:1024F000ABE723692A4639463046C0470130AED0A3
:1025000023689B0713D4E068039B9842B8BF184622
:10251000A7E701234A4639463046C04701309ED0DE
:102520000135E368039A9B1AAB42F2DCEBE7002526
:1025300004F11909F5E700BF022A0008132A000870
:1025400010B5C9B202449042034601D1002303E012
:102550001C7801308C42F6D1184610BD0A449142D5
:1025600000F1FF3300D1704710B511F8014B9142D3
:1025700003F8014FF9D110BD884210B501EB0203F9
:1025800002D983421C4607D8421E994208D011F84E
:10259000014B02F8014FF8E783189A1A9A4200D1CA
:1025A00010BD14F8011D03F8011DF7E738B5054605
:1025B000002943D051F8043C0C1F002BB8BFE4188D
:1025C00000F0D0F81E4A1368104633B963601460F7
:1025D0002846BDE8384000F0CBB8A3420BD92168AB
:1025E0006218934201BF1A685B68521822606360E8
:1025F0000460EDE713465A680AB1A242FAD9196895
:102600005818A0420BD12068014458188242196022
:10261000DED110685268014419605A60D8E702D9C7
:102620000C232B60D4E7206821188A4201BF11686F
:1026300052680918216062605C60C9E738BD00BF5C
:102640008C010020F8B5CD1C25F0030508350C2DB4
:1026500038BF0C25002D064601DBA94203D90C2307
:1026600033600020F8BD00F07DF821490A68144667
:102670009CB9204F3B6823B92146304600F062F8F0
:1026800038602946304600F05DF8431C23D10C2306
:102690003046336000F06CF8E3E723685B1B17D427
:1026A0000B2B03D923601C44256004E06368A2421D
:1026B0000CBF0B605360304600F05AF804F10B0079
:1026C000231D20F00700C21ACCD01B1AA350C9E763
:1026D00022466468CCE7C41C24F00304A042E3D083
:1026E000211A304600F02EF80130DDD1CFE700BFCF
:1026F0008C01002090010020F8B5074614460E46D4
:1027000021B91146BDE8F840FFF79CBF22B9FFF799
:102710004DFF25462846F8BD00F030F8A0420FD204
:1027200021463846FFF78EFF05460028F2D0314695
:102730002246FFF713FF31463846FFF737FFE9E738
:102740003546E7E738B50023054C054608462360C3
:1027500000F01EF8431C02D1236803B12B6038BD82
:10276000C00A0020014800F011B800BFC80A0020CC
:10277000014800F00CB800BFC80A002051F8043C22
:10278000181F002BBCBF0B58C0187047704770470C
:10279000044A05491368002B08BF0B461844106013
:1027A0001846704794010020D00A0020F8B500BFF9
:1027B000F8BC08BC9E467047F8B500BFF8BC08BC22
:0427C0009E4670477A
:1027C4000105010025303378200000002530336CEA
:1027D4006420000000004908B400BEF67B7AA5948A
:1027E40055B848002944442A15A00B42005003025E
:1027F4000008259076BA595CC59EC53892E6F33A2E
:1028040073BAE59077BA773A084008502A441CE036
:102814008852E508568E77B677B8728CD6BA739E0E
:10282400739272AEB7B6E95C64AAB7B4929CBEB6B2
:10283400D6B656AAD79276EE77B47138E948B6AED2
:10284400B6AAB6F6B5B4B548E59C694C9124642E95
:102854005400001C44000EAE9ABA0E8C2EAE0ECE5E
:1028640056D0553B93B44144415197B4494417B6AB
:102874001AB60AAAD6D3766717900F389A8C16AE72
:1028840016BA16F615B4B52B1C5E6B4C4948C95ADA
:10289400540056E2430000004400000045000000DC
:1028A4004600000047000000410000004200000014
:1028B40025732563000000004323000045620000E7
:1028C400462300004162000042620000081C3044BC
:1028D400586C8000000000000000000001020304A6
:1028E400060708090000000001020304002020205C
:1028F40020202020202028282828282020202020AC
:10290400202020202020202020202020208810107B
:1029140010101010101010101010101010040404D7
:102924000404040404040410101010101010414195
:102934004141414101010101010101010101010183
:102944000101010101010101101010101010424297
:102954004242424202020202020202020202020253
:1029640002020202020202021010101020000000F3
:102974000000000000000000000000000000000053
:102984000000000000000000000000000000000043
:102994000000000000000000000000000000000033
:1029A4000000000000000000000000000000000023
:1029B4000000000000000000000000000000000013
:1029C4000000000000000000000000000000000003
:1029D40000000000000000000000000000000000F3
:1029E40000000000000000000000000000232D3063
:1029F4002B2000686C4C0065666745464700303103
:102A04003233343536373839414243444546003051
:102A14003132333435363738396162636465660080
:042A24003501000870
:042A28001101000890
:102A2C00FFFF010032000032190032320032260062
:102A3C000032241900323200193200320000281EF4
:102A4C001E1E3C3C143C1E1400000000000A00003A
:102A5C000C00000000A24A043C0000200000000012
:102A6C00000000000000000000000000000000005A
:102A7C00000000000000000000000000000000004A
:102A8C00000000000000000000000000000000003A
:102A9C00000000000000000000000000000000002A
:102AAC00000000000000000000000000000000001A
:0C2ABC000000000000000000000000000E
:0400000508001D9939
:00000001FF
