:020000040800F2
:1000000000500020C50E00081D0800081F08000849
:100010002108000823080008250800080000000047
:100020000000000000000000000000002708000899
:1000300029080008000000002B0800082D0800080F
:100040000D0F00080D0F00080D0F00080D0F000820
:100050000D0F00080D0F00080D0F00080D0F000810
:100060000D0F00080D0F00080D0F00080D0F000800
:100070002F0800080D0F00080D0F000831080008B8
:100080000D0F00088D0500080D0F00080D0F00086A
:100090000D0F00080D0F00080D0F00080D0F0008D0
:1000A0000D0F00080D0F00080D0F00080D0F0008C0
:1000B000E10500080D0F00080D0F00080D0F0008E6
:1000C0000D0F00080D0F00080D0F00080D0F0008A0
:1000D0000D0F00080D0F00080D0F00082D06000879
:1000E0000D0F00080D0F00080D0F000800000000A4
:1000F0000000000000000000000000000000000000
:0C01000000000000000000005FF808F1A3
:10010C0010B5054C237833B9044B13B10448AFF345
:10011C0000800123237010BD30000020000000007F
:10012C00580F000808B5034B1BB103490348AFF344
:10013C00008008BD0000000034000020580F0008AB
:10014C0082B00A4B5A6942F001025A615B6903F0B2
:10015C0001030193019B064BDB68064B002283F8DD
:10016C0011234FF400321A6002B0704700100240A5
:10017C0000ED00E000E100E030B585B01F4B9A695E
:10018C0042F004029A619A6902F004020392039A03
:10019C009A6942F008029A619A6902F00802029286
:1001AC00029A9A6942F010029A619A6902F010025E
:1001BC000192019A9A6942F020029A619B6903F0BC
:1001CC0020030093009B0E4C6FF07B4323600125B2
:1001DC0065600323A36021460A4800F024FB0A4B08
:1001EC00236065600223A360084D2146284600F079
:1001FC001AFB4FF400536B6105B030BD0010024088
:10020C007400002000080140200020040010014070
:10021C0070B582B0264B9A6942F480429A619B6910
:10022C0003F480430193019B224C44F2400323606E
:10023C00092363600323A3600025E5601E4E21465D
:10024C00304600F0F0FA48F2800323600423636028
:10025C002146304600F0E7FA184A536843F004038D
:10026C005360174BDB68174B83F8255320225A60D9
:10027C0015494FF416530B604D608D60CD600C2307
:10028C000B614D61114C204600F0B0FD236923F445
:10029C0090432361636923F02A036361E36843F4A9
:1002AC000053E360E36843F02003E36002B070BDE9
:1002BC000010024074000020000C014000000140BE
:1002CC0000ED00E000E100E0C0000020003801403B
:1002DC002DE9F04F83B0514BDA6942F00102DA613B
:1002EC00DB6903F001030193019B4D4E0221304663
:1002FC0000F014FB4B4CDFF858B1C4F800B04A4B7B
:10030C0063601027A76000252562256165614FF4A5
:10031C00007AC4F818A04FF48069C4F81C90E5600A
:10032C004FF44058C4F8248022460221304600F095
:10033C006DFB0521304600F0F1FAC4F800B03B4BE0
:10034C006360A7602562256180236361C4F818A0EF
:10035C00C4F81C90E560C4F8248022460521304680
:10036C0000F054FB0721304600F0D8FAC4F800B076
:10037C002F4B6360A760256225616561C4F818A0E6
:10038C00C4F81C90E560C4F824802246072130464E
:10039C0000F03CFB274BDB68274B83F81C534FF0DA
:1003AC0080521A60254A136843F002031360244BF1
:1003BC001B68244AA2FB03235B0D013B22491D222F
:1003CC008A600B80CD604D604FF0804000F018FCCF
:1003DC004FF08044236823F0800323601B4E35606C
:1003EC0075600823F36032460121204600F040FC82
:1003FC00A36923F00803A3616023336075601123A4
:10040C00F36032463946204600F032FCA36923F4EF
:10041C000063A36103B0BDE8F08F00BF0010024081
:10042C00000002404C00002028000020E0190020B1
:10043C00D800002000ED00E000E100E08000024068
:10044C002C000020819F5E168C000020A000002054
:10045C000C08014010B5254A136823F0070343F03C
:10046C00020313601368A2F58052136843F48033BF
:10047C0013601F4B1B6813F4003FFAD01C4A5368DF
:10048C0023F47C1343F4E8135360136843F0807334
:10049C001360174B1B6813F0007FFAD0144B5A688B
:1004AC0022F0F0025A605A6822F4E06242F4806250
:1004BC005A605A6822F460525A605A6822F0030259
:1004CC0042F002025A600A4B5B6803F00C03082BE3
:1004DC00F9D1084C204600F04DFC074A136843F054
:1004EC0004031360204600F055FC10BD00200240B0
:1004FC000010024000A24A0410E000E000B583B0F6
:10050C001B4B9A6942F001029A619A6902F001024E
:10051C000192019ADA6942F08052DA61DB6903F0E8
:10052C0080530093009B1349CA6822F4E0621204C2
:10053C00120C114B1343CB60104B5A6822F0E06243
:10054C005A605A6842F080625A60FFF783FFFFF7E7
:10055C0013FEFFF75DFEFFF7F3FDFFF7B9FE00F0AA
:10056C0031F900F081F800F09DF800F0A7F8FEE7F3
:10057C000010024000ED00E00003FA05000001400D
:10058C00124B4FF000725A604FF08043DA6842F021
:10059C000102DA600E490A6822F001020A603C315D
:1005AC000A6822F001020A6028310A6822F001026E
:1005BC000A60DA6822F40072DA60DA6822F4806287
:1005CC00DA60DA6822F48072DA6070470000024068
:1005DC001C0002404FF080436FF001021A610E4B79
:1005EC001B78DBB2272B05D80B4A13780133DBB20F
:1005FC0013707047084B00221A704FF080431A6832
:10060C0022F001021A60DA6822F00102DA60034B70
:10061C0001221A70704700BF880000202A000020B9
:10062C0082B00A4B5B68DBB20193019B532B02D067
:10063C00019B732B04D1064AD36883F40053D36017
:10064C00019BDBB2014A536002B070470048004086
:10065C00001001400023022B04D8CA5CC2540133A1
:10066C00DBB2F8E77047000038B5002511E005EB68
:10067C004500C0EB0010204400EB40000749084B3C
:10068C001844FFF7E7FF0134E4B22C2CEFD9013505
:10069C00EDB22C2D01D80024F7E738BD2400002042
:1006AC00200200200023FD2B05D8034A0021D15441
:1006BC000133DBB2F7E77047E000002070B582B081
:1006CC00002627E00135EDB2032D21D800242C2C77
:1006DC00F8D805EB4503C3EB03132344B42202FB08
:1006EC000633B3F5FD6FEDDC0D4A05EB4501C1EBAF
:1006FC000111214492F82630009392F8253092F89B
:10070C00242089B2304600F00DF80134A4B2DEE7A3
:10071C000136F6B20B2E01D80025D5E702B070BD1C
:10072C00000000202DE9F0439DF81CC0002743E099
:10073C0001EB4104E50005EB070801268640F64372
:10074C0036B21F4C34F818E006EA0E0E24F818E006
:10075C0005F1080EBE4434F81E9006EA090924F887
:10076C001E9010353D4434F8159006EA090624F81D
:10077C00156003FA07F6C6F3C016864034F81890D5
:10078C0046EA090624F8186002FA07F6C6F3C01602
:10079C00864034F81E8046EA080624F81E600CFADF
:1007AC0007F6C6F3C016864034F815E046EA0E0686
:1007BC0024F815600137FFB2072FB9D9BDE8F083D3
:1007CC00E0190020002009281ED830B403E00130C5
:1007DC00C0B2092816D804460C4D430003445A00F5
:1007EC00A9180023AB544B708B70022BEFD804EB81
:1007FC0044025100054A0A441A440021D1700133C5
:10080C00DBB2F2E730BC7047704700BFE401002058
:10081C007047FEE7FEE7FEE7FEE77047704770475C
:10082C00704770477047F0B50D68C5F30F2595FA02
:10083C00A5F2B2FA82F235E0A2F108044FF00113EE
:10084C00A34043F0806339E0C45993FAA3F6B6FA97
:10085C0086F6B6004FF0030C0CFA06F624EA060CEA
:10086C0093FAA3F6B6FA86F6B6008C6804FA06F686
:10087C0046EA0C06C651CC6893FAA3FCBCFA8CFC75
:10088C004FEA8C0C4FF0040E0EFA0CFC26EA0C0608
:10089C0093FAA3F3B3FA83F39B0004FA03F3334301
:1008AC00C351013235FA02F335D0012393402B4268
:1008BC00F7D0072AC0D840F2011393404E681F0EA0
:1008CC00C45993FAA3FCBCFA8CFC4FEA8C0C4FF085
:1008DC000F0E0EFA0CFC24EA0C0493FAA3FCBCFADF
:1008EC008CFC4FEA8C0C06FA0CF63443C451C668E7
:1008FC001C0A26EA040C94FAA4F4B4FA84F40E69E3
:10090C0006FA04F44CEA0404C4604C68012C9BD035
:10091C00092CC6D198E70120F0BD0000334B98425A
:10092C0028D0324B984229D0304B98422AD02F4BAA
:10093C0098422BD02D4B98422CD02C4B98422DD03A
:10094C002B4B1A6822F001021A6000221A605A60BE
:10095C009A60DA60012927D0022929D003292BD0EB
:10096C0004292ED0052931D0062934D0072937D0B7
:10097C00002070470129D4D11E4BE2E70229D3D1C4
:10098C001D4BDEE70329D2D11C4BDAE70429D1D168
:10099C001B4BD6E70529D0D11A4BD2E7062901D03B
:1009AC008033CEE7184BCCE70123436018467047E1
:1009BC0010234360012070474FF480734360012083
:1009CC0070474FF480534360012070474FF48033DD
:1009DC004360012070474FF480134360012070473F
:1009EC004FF0807343600120704700BF000002404D
:1009FC0080000240080002401C000240300002400F
:100A0C0044000240580002406C00024030B493682D
:100A1C00D4682343146923435469234394692343BF
:100A2C00D4692343546A234301390B4C655C2C185D
:100A3C00295821F4FF4121F070010B432B505368CE
:100A4C00E3601368A360126A63681B0C1B041343F6
:100A5C006360012030BC7047700F000830B4036A2B
:100A6C0023F001030362036A4468826922F0730273
:100A7C000D682A4323F002030D692B4323F0010375
:100A8C004D682B430F4DA84207D044608261CA6861
:100A9C0042630362012030BC704723F008034D69A8
:100AAC0043EA850323F004038D6843EA850324F4A9
:100ABC0080748D692C4324F40074CD6944EA450498
:100ACC00E3E700BF002C014030B4036A23F01003AD
:100ADC000362036A4468826922F4E6420D6842EAC2
:100AEC00052223F020030D6943EA051323F01003BC
:100AFC004D6843EA0513104DA84207D0446082614B
:100B0C00CA6882630362012030BC704723F0800303
:100B1C004D6943EA851323F040038D6843EA85133E
:100B2C0024F480648D6944EA850424F40064CD695E
:100B3C0044EAC504E2E700BF002C014030B4036A6C
:100B4C0023F480730362036A4468C26922F073025F
:100B5C000D682A4323F400730D6943EA052323F43B
:100B6C0080734D6843EA05230F4DA84207D04460BB
:100B7C00C261CA68C2630362012030BC704723F4AF
:100B8C0000634D6943EA852323F480638D6843EA4F
:100B9C00852324F480548D6944EA051424F400540C
:100BAC00CD6944EA4514E2E7002C014030B4036AF5
:100BBC0023F480530362036A4468C26922F4E64258
:100BCC000D6842EA052223F400530D6943EA05330C
:100BDC0023F480534D6843EA0533084DA84207D0EF
:100BEC004460C261CA6802640362012030BC704771
:100BFC0024F480448D6944EA8514F1E7002C01400B
:100C0C0003681A4A90420AD0B0F1804F07D0A2F57F
:100C1C009432904203D002F58062904203D123F0CB
:100C2C0070034A681343114A90420AD0B0F1804FC6
:100C3C0007D0A2F59432904203D002F58062904224
:100C4C0003D123F44073CA68134303608B68C362F7
:100C5C000B888362054B984205D0436943F001032E
:100C6C004361012070470B7C0363F6E7002C0140C5
:100C7C0008B5102914D009D9B1F5807F14D0B1F57D
:100C8C00805F0BD11146FFF791FF06E0012903D1DC
:100C9C001146FFF7E3FE00E0002008BD0020FCE752
:100CAC001146FFF711FFF8E71146FFF747FFF4E78E
:100CBC00034B5B68C3F30313024AD35CD840704701
:100CCC0000100240780F0008034B5B68C3F302234B
:100CDC00024AD35CD840704700100240880F0008CD
:100CEC00034B5B68C3F3C223024AD35CD840704702
:100CFC0000100240880F00080B4B5B6803F4803334
:100D0C0043B90A48084B5B68C3F38343023300FBC7
:100D1C0003F07047044B5868C0F34040431C044830
:100D2C00B0FBF3F0EEE700BF0010024000093D00FD
:100D3C0000127A0008B5054B5B6803F00C03082B16
:100D4C0001D0034808BDFFF7D7FFFBE700100240B6
:100D5C0000127A0010B50446FFF7ECFF2060FFF795
:100D6C00A7FF6060FFF7B0FFA0606068FFF7B8FFF7
:100D7C00E06010BD054BA3FB003080090138044B2B
:100D8C00586000229A6005221A607047D34D621099
:100D9C0010E000E0014B1860704700BF2C000020F1
:100DAC000F4B1A6842F001021A6059680D4A0A404A
:100DBC005A601A6822F0847222F480321A601A681F
:100DCC0022F480221A605A6822F4FE025A604FF410
:100DDC001F029A60044B4FF000629A60704700BF8C
:100DEC00001002400000FFF800ED00E0C36813F4AF
:100DFC00005F01D00020704730B585B00D46044629
:100E0C00C36823F4B05323F00C034A68C9680A433F
:100E1C0029690A431343C360AB68026922F4405248
:100E2C00134303616B69426922F4407213434361BB
:100E3C006846FFF78FFF1C4B9C4208D01B4B9C4213
:100E4C002AD01B4B9C4229D0002005B030BD039BFF
:100E5C0033B32A6832B303EB830303EB83039200AF
:100E6C00B3FBF2F3134DA5FB03204009020191B231
:100E7C00642202FB103213013233A5FB0323C3F3AC
:100E8C004F1303F0F0020A4492B203F00F03134421
:100E9C009BB2A3600120D8E7029BD9E7029BD7E75E
:100EAC000020D2E70020D0E7003801400044004089
:100EBC00004800401F85EB51002103E00B4B5B58B1
:100ECC00435004310A480B4B42189A42F6D30A4A53
:100EDC0002E0002342F8043B084B9A42F9D3FFF797
:100EEC005FFF00F00FF8FFF709FB7047980F000841
:100EFC00000000203000002030000020A03B00202B
:100F0C00FEE7000070B500260C4D0D4C641BA410C0
:100F1C00A64209D100F01AF800260A4D0A4C641BAF
:100F2C00A410A64205D170BD55F8043B9847013674
:100F3C00EEE755F8043B98470136F2E7900F0008AE
:100F4C00900F0008900F0008940F0008F8B500BF30
:100F5C00F8BC08BC9E467047F8B500BFF8BC08BC8E
:040F6C009E467047E6
:100F7000081C3044586C8000000000000000000095
:100F8000010203040607080900000000010203042F
:040F90003101000823
:040F94000D01000843
:100F980032000032190032320032260000322419A1
:100FA80000323200193200320000281E1E1E3C3C5E
:100FB800143C1E1400000000FFFF010000A24A04B8
:0400000508000EC51C
:00000001FF
