:020000040800F2
:100000000000012035220008C90E0008CB0E0008B0
:10001000CD0E0008CF0E0008D10E00080000000031
:10002000000000000000000000000000D30E0008E7
:10003000D50E000800000000D70E0008D90E0008F9
:1000400085220008852200088522000885220008F4
:1000500085220008852200088522000885220008E4
:1000600085220008852200088522000885220008D4
:1000700085220008852200088522000885220008C4
:100080008522000885220008852200080000000063
:1000900000000000000000000000000085220008B1
:1000A00085220008310E00088522000885220008FC
:1000B0008522000885220008852200088522000884
:1000C0008522000885220008852200088522000874
:1000D0008522000885220008852200080000000013
:1000E0008522000885220008852200080000000003
:1000F0000000000000000000000000008522000851
:1001000000000000852200088522000885220008E2
:1001100000000000000000000000000000000000DF
:100120008522000885220008110E0008852200089B
:100130008522000800000000000000000000000010
:100140000000000000000000000000008522000800
:1001500085220008852200088522000885220008E3
:100160008522000885220008000000000000000031
:10017000000000000000000000000000000000007F
:1001800000000000852200080000000000000000C0
:0401900085220008BC
:1001940010B5054C237833B9044B13B10448AFF3BD
:1001A40000800123237010BD7800002000000000AF
:1001B4005424000808B5034B1BB103490348AFF3AB
:1001C400008008BD000000007C00002054240008CA
:1001D40053B94AB9002908BF00281CBF4FF0FF31AA
:1001E4004FF0FF3000F074B9ADF1080C6DE904CEA6
:1001F40000F006F8DDF804E0DDE9022304B07047FE
:100204002DE9F047089E04468846002B40F085807F
:100214008A42154648D9B2FA82F24AB1C2F120079D
:1002240001FA02F320FA07F7954047EA03089440DD
:100234004FEA154E230CB8FBFEF71FFA85FC0EFBA4
:10024400178843EA084307FB0CF1994209D9EB18D4
:1002540007F1FF3080F0E380994240F2E080023FF2
:100264002B445B1AA4B2B3FBFEF00EFB103344EA3A
:10027400034400FB0CFCA44509D92C1900F1FF33FD
:1002840080F0CB80A44540F2C88002382C4440EA78
:100294000740A4EB0C0400271EB1D4400023C6E998
:1002A40000433946BDE8F087002A53D0B2FA82F2FF
:1002B400002A40F0B680491B4FEA154E1FFA85F814
:1002C4000127B1FBFEFC230C0EFB1C1143EA014386
:1002D40008FB0CF1994207D9EB180CF1FF3002D25C
:1002E400994200F2EC808446591AA3B2B1FBFEF0A5
:1002F4000EFB101443EA044408FB00F8A04507D998
:100304002C1900F1FF3302D2A04500F2DC8018461C
:10031400A4EB080440EA0C40BEE78B4208D9002E47
:1003240078D00027C6E9000138463946BDE8F08791
:10033400B3FA83F77FB98B4202D3824200F2BD80C5
:10034400841A61EB030301209846002EA9D0C6E964
:100354000048A6E7FFDEC7F12005BB4022FA05FCF2
:100364004CEA030C01FA07F420FA05F821FA05F324
:100374004FEA1C4E48EA0404B3FBFEF9210C0EFBC1
:1003840019331FFA8CF841EA034309FB08FA9A452A
:1003940002FA07F200FA07F10BD91CEB030309F187
:1003A400FF3080F088809A4540F28580A9F10209E7
:1003B4006344A3EB0A03A4B2B3FBFEF00EFB1033B9
:1003C40044EA034400FB08F8A04508D91CEB0404E4
:1003D40000F1FF336BD2A04569D90238644440EA86
:1003E4000940A4EB0804A0FB02894C45C6464B46D1
:1003F40054D351D0002E69D0B1EB0E0264EB030448
:1004040004FA05F522FA07F3FC401D43C6E900543B
:10041400002746E73746304643E7184637E707469E
:100424001FE7C2F1200320FA03F7954001FA02F016
:1004340021FA03F34FEA154E3843010CB3FBFEF7E0
:100444001FFA85F80EFB173341EA034107FB08F353
:100454008B4204FA02F407D9691807F1FF3C28D249
:100464008B4226D9023F2944CB1A81B2B3FBFEF05A
:100474000EFB103341EA034100FB08F38B4207D91A
:10048400691800F1FF3C10D28B420ED9023829447E
:10049400C91A40EA074714E74145ABD2B8EB020E4C
:1004A40069EB0C0201381346A4E76046F0E71846EE
:1004B40095E76746D8E781467BE7384645E7ACF1E0
:1004C400020C2B4410E702382C4421E73746E8E6B7
:1004D400704700BFFEE7000000B595B0002201920E
:1004E400284B196C41F0805119641B6C03F0805344
:1004F4000193019B0292244B196841F44041196015
:100504001B6803F440430293029B022308930121D6
:100514000B9110210C910E930F9208221092A82295
:10052400119212930423139308A800F0ABFF20BB8D
:100534000F23039302230493002305934FF4A05342
:1005440006934FF480530793052103A801F0B8F9EB
:10055400A8B901F063FA0D4BA3FB0030800901F048
:10056400EFFD042001F002FE002211464FF0FF309F
:1005740001F0A4FD15B05DF804FBFFF7ABFFFFF736
:10058400A9FF00BF0038024000700040D34D621044
:1005940008B501F021FEFFF79FFF00F0B5F800F069
:1005A400D9F8FCE7C043C0B254280CD9A92812D901
:1005B4005630C0B200EB4003A0EB8000FF300002D5
:1005C40040EA03407047A0EB8003FF3300EB400098
:1005D40040EA034070475538C0B200EB4003A0EB3B
:1005E4008000FF3040EA0320704700002DE9F0410D
:1005F40005460F469046104B1E780136F6B21E7023
:1006040000240E4BA3FB0723B4EB530F11D220029B
:10061400B0FBF8F03044C0B2FFF7C4FF04EB44036E
:10062400E854010A5A1CA954000C0233E85401345A
:10063400E7E7BDE8F08100BF98000020ABAAAAAAB2
:100644002DE9F0410446884617461E46002508E079
:100654000022E25423E00022625428E00022E25403
:100664000135184BA3FB0823B5EB530F28D201F037
:100674002DFEB0FBF7F307FB13033BB905EB450372
:10068400FF22E254591C62540233E25405EB450341
:10069400E25CB242DCD9B2FBF6F1521AE254591CC4
:1006A400625CB242D7D9B2FBF6F0121A625402333A
:1006B400E25CB242D2D9B2FBF6F1521AE254CFE76D
:1006C400BDE8F081ABAAAAAA08B501F0ABFD0B4BBB
:1006D4001B68C01A0A2800D808BD01F0A3FD074B07
:1006E40018600F22B4210648FFF780FF2823322226
:1006F4003C210448FFF7A4FFEEE700BF940000206C
:1007040030010020A800002010B5002308E00E49A5
:100714001A0188180D4C8C503C2242600133DBB224
:10072400032B0ED8084A02EB0312137313F0010FC4
:10073400EDD105491A018818054C8C50B422426049
:10074400ECE700F0A1FB10BDE4000020A8000020AD
:100754003001002008B5074B93F8403003B908BDB9
:10076400FFF7B2FF034B012283F8412000F09AFB0C
:10077400F5E700BFE400002082B000230193019B51
:100784000133019302B0704770B42D4DAE5CEC5C44
:100794009DF80C30EA5C01EB4101CB00F143E443EA
:1007A400D243284D05EB430505F188756D0105EB32
:1007B4008003E60945F82060A00918646009C3F8BD
:1007C40080002009C3F8C000E008C3F80001A008B5
:1007D400C3F840016008C3F88001C3F8C041C809E8
:1007E400C3F800028809C3F840024809C3F880022C
:1007F4000809C3F8C002C808C3F800038808C3F88E
:1008040040034808C3F88003C3F8C013D109C3F8F0
:1008140000149109C3F840145109C3F88014110954
:10082400C3F8C014D108C3F800159108C3F84015E3
:100834005108C3F88015C3F8C02570BC704700BFC9
:100844006C2400082803002070B582B00568826813
:10085400531C8360AA5C5C1C8460EB5C661C866031
:100864002C5D4568AE4206D0009489B2007BFFF748
:100874008BFF02B070BD00258560F5E72F4B4FF468
:1008840000529A612E4B9B6C0E2B02D010B50024A3
:1008940048E000202A4B98642A4A136823F0010395
:1008A4001360294B19680B6823F001030B60274B75
:1008B40019680B6823F001030B60254B19680B685A
:1008C40023F001030B60234B1B68D96821F480716A
:1008D400D960D96821F40071D960D96821F48061A4
:1008E400D9601D490968D1625062012151616FF0DC
:1008F40001011961D96841F00101D960136843F01D
:1009040001031360154B1A68154B9A610B4B4FF09A
:1009140000529A6170470121094800EB0410FFF767
:1009240093FF0134032CF6D9054A936C0133936485
:10093400024B4FF000529A6110BD00BF0008024004
:10094400E40000200000014088030020C4020020CD
:100954000402002080020020000200200400002085
:100964000000024038B50025504B83F840500CE09D
:100974004E4C04EB05140021A1602046FFF764FFF0
:1009840001212046FFF760FF0135032DF0D9484BC4
:100994001B68484A934249D9474B4FF46062DA6076
:1009A400464B1B68434A934255D9434B4FF460620C
:1009B400DA60434B1B683F4A934261D93E4B4FF484
:1009C4006012DA603A4B1B6830225A603B4C216853
:1009D4004A603B4801684A603A490A686FF01F055B
:1009E40015611A6842F001021A602268136843F024
:1009F400010313600268136843F0010313600B687A
:100A0400DA6842F48072DA60DA6842F40072DA601A
:100A1400DA6842F48062DA602B4A1268013A2B49A0
:100A24004A621A6842F001021A6038BD284A9342A9
:100A340004D9214B4FF460629A60B1E7254A93428E
:100A440004D9254B4FF46062DA60A9E7224B4FF4D6
:100A540060629A60A4E71E4A934204D9164B4FF48D
:100A640060629A60A5E71B4A934204D91A4B4FF47B
:100A74006062DA609DE7184B4FF460629A6098E711
:100A8400134A934204D90C4B4FF460129A6099E7CD
:100A9400104A934204D9104B4FF46012DA6091E784
:100AA4000D4B4FF460129A608CE700BFE400002005
:100AB400880300205864024000640240C4020020FD
:100AC4000402002080020020C00200200000014037
:100AD400B8600240586002400060024010B582B025
:100AE4000E4B9B6C0E2B01D000240EE000200090D6
:100AF400034602460146FFF747FE0CE00021074883
:100B040000EB0410FFF7A0FE0134032CF6D9034ACE
:100B1400936C0133936402B010BD00BFE400002065
:100B240070B588B000250195184C236B43F0010380
:100B34002363236B03F001030193019B0F230393AE
:100B4400012604960595069503A9114800F06CFF4B
:100B54000295236B43F008032363236B03F008031C
:100B64000293029B04960595022306934FF40043D7
:100B7400039303A9074800F057FF4FF4005303936E
:100B840003A9054800F050FF08B070BD00380240CA
:100B940000000240000C0240000802402DE9F04F22
:100BA40083B000250195464B1A6B42F480021A6308
:100BB4001B6B03F480030193019B424C4FF0400AEA
:100BC400C4F808A0E56025614FF4805BC4F814B054
:100BD4004FF48043A3614FF48079C4F81C904FF420
:100BE4004038C4F820804FF0406767606562032690
:100BF400A662E5622563344B2360204601F0CCF8FD
:100C0400204601F063F83023304A3149204601F090
:100C1400F6F8304CC4F808A0E5604FF48063236113
:100C24004FF4006363614FF40053A361C4F81C9054
:100C3400C4F8208067606562A662E5622563264B7E
:100C44002360204601F0A8F8204601F03FF8302345
:100C5400224A2349204601F0D2F8224CC4F808A0C5
:100C6400E5602561C4F814B04FF48043A361C4F86F
:100C74001C90C4F8208067606562A662E562256303
:100C8400194B2360194BE363194B2364194BE36439
:100C9400204601F081F8204601F018F82A4629463A
:100CA4003A2001F00BFA3A2001F03CFA3023074ACB
:100CB4001149204601F0C7F803B0BDE8F08F00BF2A
:100CC4000038024088030020886402401800024073
:100CD40000000020C4020020286402401A000240E0
:100CE4002803002004020020406402408108000818
:100CF400E10A00087D070008040000202DE9F04106
:100D040082B000240194354B5A6C42F001025A64BB
:100D14005B6C03F001030193019B314B1A68130AC6
:100D24003049A1FB03131B092F490B602F49A1FB79
:100D34000212D20A2E490A6003EB83014A002D49AC
:100D4400A1FB0201CF082C49A1FB0212D6082B4DAE
:100D54002B4A2A60EB606C616C602C61AC602846A5
:100D640000F0A4FA22462146192001F0A7F919201F
:100D740001F0D8F923494FF06008C1F800808C6075
:100D84004F60CC600C612246284600F0DBFA1E4915
:100D9400C1F800808C604E60CC600C614C618C6149
:100DA4000422284600F0CEFA284600F05DF92146D8
:100DB400284600F047FB2B68196A41F211121142D0
:100DC40008D1196A40F24442114203D11A6822F050
:100DD40001021A6002B0BDE8F08100BF0038024091
:100DE40008000020598B4F01C0020020B5814E1B22
:100DF40000020020398EE338898888888002002028
:100E04000000014064020020E401002010B5054CFC
:100E14004FF40043A361044801F050F84FF000433D
:100E2400A36110BD000C02400402002010B5054C63
:100E34004FF40053A361044800F02DF94FF0005320
:100E4400A36110BD00080240800200200A4800236C
:100E540043640A4A13600A4B1B68D96821F00101F4
:100E6400D96008490968D162012151616FF001021A
:100E74001A6180F840107047E4000020000001402F
:100E840080020020C002002008B5FFF749FEFFF7EA
:100E940085FEFFF733FF024B012283F8402008BD93
:100EA400E400002008B5064B93F8413003B908BDAF
:100EB400034B002283F84120FFF754FDF7E700BFFE
:100EC400E40000207047FEE7FEE7FEE7FEE7704718
:100ED4007047704708B501F099F908BD0F49D1F87A
:100EE400883043F47003C1F888300D4B1A6842F01F
:100EF40001021A60002098601A6822F0847222F4B9
:100F040080321A60074A5A601A6822F480221A60F2
:100F1400D8604FF000638B60704700BF00ED00E0C5
:100F2400003802401030002482B0002100910B4BA5
:100F34005A6C42F480425A645A6C02F48042009221
:100F4400009A01911A6C42F080521A641B6C03F0EF
:100F540080530193019B02B0704700BF00380240E8
:100F640070B4036A23F001030362036A466882696A
:100F740022F073020C6844EA020523F002028B6833
:100F840013430D4CA04209D00B4CA0420DD0466037
:100F940085614A684263036270BC704723F00803AA
:100FA400CA68134323F00403EEE726F440764A6943
:100FB40032438E691643EAE70000014030B4036A05
:100FC40023F480730362036A4568C26922F07302E2
:100FD4000C68224323F400738C6843EA04230F4C07
:100FE400A04209D00D4CA0420ED04560C2614A68AF
:100FF400C263036230BC704723F40063CC6843EAE5
:10100400042323F48063EDE725F440554C6945EA55
:1010140004158C6945EA0415E7E700BF00000140A8
:1010240030B4036A23F480530362036A4468C269D8
:1010340022F4E6420D6842EA052223F400538D6847
:1010440043EA0533074DA84206D04460C2614A68AA
:101054000264036230BC704724F480444D6944EA5E
:101064008514F2E700000140022380F83D30026855
:10107400936803F00703062B03D0136843F00103BE
:101084001360012380F83D3000207047704770479B
:1010940070477047704710B5044603681A6912F028
:1010A400020F11D0DA6812F0020F0DD06FF00202B5
:1010B4001A610123037703689B6913F0030F70D04F
:1010C400FFF7E6FF0023237723681A6912F0040F61
:1010D40012D0DA6812F0040F0ED06FF004021A6115
:1010E4000223237723689B6913F4407F5FD0204653
:1010F400FFF7CEFF0023237723681A6912F0080F45
:1011040012D0DA6812F0080F0ED06FF008021A61DC
:10111400042323772368DB6913F0030F4ED02046A2
:10112400FFF7B6FF0023237723681A6912F0100F24
:1011340012D0DA6812F0100F0ED06FF010021A619C
:10114400082323772368DB6913F4407F3DD02046CE
:10115400FFF79EFF0023237723681A6912F0010F1B
:1011640003D0DA6812F0010F36D123681A6912F03D
:10117400800F03D0DA6812F0800F34D123681A6923
:1011840012F0400F03D0DA6812F0400F32D1236816
:101194001A6912F0200F03D0DA6812F0200F30D150
:1011A40010BDFFF774FF2046FFF773FF8AE7204660
:1011B400FFF76DFF2046FFF76CFF9BE72046FFF724
:1011C40066FF2046FFF765FFACE72046FFF75FFFA9
:1011D4002046FFF75EFFBDE76FF001021A6120466B
:1011E400FFF734FEC1E76FF080021A61204600F079
:1011F40048F9C3E76FF040021A612046FFF74AFF3F
:10120400C5E76FF020021A61204600F039F9C7E7FC
:101214000368254A90420ED0B0F1804F0BD0A2F55E
:101224007C42904207D002F58062904203D002F5DE
:101234008062904203D123F070034A6813431A4A30
:1012440090421AD0B0F1804F17D0A2F57C42904260
:1012540013D002F5806290420FD002F58062904272
:101264000BD002F59A32904207D002F58062904288
:1012740003D002F58062904203D123F44073CA681C
:10128400134323F080034A69134303608B68C362EA
:101294000B688362044B984202D001234361704778
:1012A4000B690363F9E700BF00000140B0B110B55A
:1012B400044690F83D3063B1022384F83D30214662
:1012C40051F8040BFFF7A4FF012384F83D300020FC
:1012D40010BD80F83C30FFF7D9FEEDE701207047E0
:1012E40030B4036A23F010030362036A446882691A
:1012F40022F4E6420D6842EA052223F020038D68B9
:1013040043EA05130E4DA84209D00D4DA8420ED054
:10131400446082614A688263036230BC704723F090
:101324008003CD6843EA051323F04003EDE724F47A
:1013340040644D6944EA85048D6944EA8504E7E71D
:101344000000014038B590F83C30012B66D00D46C2
:101354000446012380F83C30022380F83D300C2AF7
:101364001AD8DFE802F007191919201919193419C4
:10137400191947000068FFF7F3FD2268936943F0E9
:10138400080393612268936923F00403936122683C
:10139400936929690B439361012384F83D3000204C
:1013A40084F83C0038BD0068FFF79AFF226893690F
:1013B40043F4006393612268936923F48063936127
:1013C40022689369296943EA01239361E4E7006889
:1013D400FFF7F4FD2268D36943F00803D361226860
:1013E400D36923F00403D3612268D36929690B43C9
:1013F400D361D1E70068FFF713FE2268D36943F491
:101404000063D3612268D36923F48063D3612268C3
:10141400D369296943EA0123D361BDE70220C1E707
:1014240010B401F01F01012303FA01F4036A23EA53
:1014340004030362036A8A40134303625DF8044BA6
:101444007047000010B5044601220068FFF7E8FF6A
:1014540023680A4A93420BD02268936803F0070377
:10146400062B03D0136843F001031360002010BD62
:101474005A6C42F400425A64EEE700BF0000014097
:1014840070477047002800F0B98170B582B00446F7
:10149400036813F0010F3BD0A64B9B6803F00C03C9
:1014A400042B2CD0A34B9B6803F00C03082B21D0F6
:1014B4006368B3F5803F4FD0B3F5A02F52D09D4B56
:1014C4001A6822F480321A601A6822F480221A60A0
:1014D4006368002B50D000F0A5FE0546954B1B68B1
:1014E40013F4003F14D100F09DFE401B6428F5D98D
:1014F40003208AE18F4B5B6813F4800FD8D08D4BA7
:101504001B6813F4003F03D06368002B00F078815C
:10151400236813F0020F54D0864B9B6813F00C0F12
:101524003ED0844B9B6803F00C03082B33D0E36854
:10153400002B67D0804B01221A6000F073FE054631
:101544007C4B1B6813F0020F53D100F06BFE401B61
:101554000228F5D9032058E1764A136843F480330E
:101564001360B5E7734B1A6842F480221A601A6854
:1015740042F480321A60ABE700F054FE05466D4B2E
:101584001B6813F4003FC3D000F04CFE401B6428DA
:10159400F5D9032039E1674B5B6813F4800FC6D19A
:1015A400644B1B6813F0020F03D0E368012B40F077
:1015B4002981604A136823F0F803216943EAC103CF
:1015C4001360236813F0080F40D0636963B35B4B67
:1015D40001221A6000F026FE0546564B5B6F13F09D
:1015E400020F33D100F01EFE401B0228F5D9032060
:1015F4000BE1504A136823F0F803216943EAC1035D
:101604001360DEE74C4B00221A6000F00BFE054627
:10161400484B1B6813F0020FD3D000F003FE401BAD
:101624000228F5D90320F0E0444B00221A6000F0B0
:10163400F9FD05463F4B5B6F13F0020F06D000F037
:10164400F1FD401B0228F5D90320DEE0236813F0E6
:10165400040F78D0374B1B6C13F0805F33D1002319
:101664000193344B1A6C42F080521A641B6C03F0E1
:1016740080530193019B0125314B1B6813F4807F38
:1016840023D0A368012B34D0052B38D0294B1A6FF3
:1016940022F001021A671A6F22F004021A67A36883
:1016A400002B36D000F0BEFD0646224B1B6F13F014
:1016B400020F47D100F0B6FD801B41F288339842F7
:1016C400F3D90320A1E00025D6E71D4A136843F4AB
:1016D4008073136000F0A6FD0646194B1B6813F4D3
:1016E400807FCED100F09EFD801B0228F5D9032017
:1016F4008BE0104A136F43F001031367CFE70D4BE0
:101704001A6F42F004021A671A6F42F001021A6754
:10171400C5E700F087FD0646064B1B6F13F0020F6A
:1017240010D000F07FFD801B41F288339842F3D93A
:1017340003206AE00038024000004742800E47421E
:1017440000700040E5B9A369002B5DD0314A92686E
:1017540002F00C02082A5AD0022B17D02E4B00227A
:101764001A6000F05FFD04462A4B1B6813F0007FEB
:1017740042D000F057FD001B0228F5D9032044E0B5
:10178400244A136C23F080531364DCE7224B0022B9
:101794001A6000F047FD05461E4B1B6813F0007FDE
:1017A40006D000F03FFD401B0228F5D903202CE0B1
:1017B400E369226A1343626A43EA8213A26A520803
:1017C400013A43EA0243E26A43EA0263114A53607C
:1017D400114B01221A6000F025FD04460D4B1B68D5
:1017E40013F0007F06D100F01DFD001B0228F5D97F
:1017F40003200AE0002008E0002006E001207047F2
:10180400012002E0012000E0002002B070BD0120B0
:10181400FBE700BF0038024060004742254B9B684D
:1018240003F00C03042B40D0082B40D170B5214B9E
:101834005A6802F03F025B6813F4800F12D01D4B0C
:101844005968C1F3881100231B48A1FB0001FEF76E
:10185400BFFC184B5B68C3F3014301335B00B0FB6F
:10186400F3F070BD134B5868C0F38810054600268A
:1018740043011B1A66EB0604A10141EA9361980136
:10188400C01A61EB0401CB0043EA5073C40019464B
:10189400601946EB01018B0243EA9053840220460F
:1018A40019463346FEF794FCD3E7034870470348D0
:1018B400704700BF0038024040787D010024F400E6
:1018C400002800F09A8070B50446504B1B6803F062
:1018D4000F038B4208D2CBB24C4A1370136803F047
:1018E4000F038B4240F08B80236813F0020F17D054
:1018F40013F0040F04D0464A936843F4E053936012
:10190400236813F0080F04D0414A936843F46043FA
:1019140093603F4A936823F0F003A0680343936005
:101924000D46236813F0010F32D06368012B21D0D8
:101934009A1E012A25D9364A126812F0020F60D085
:1019440033498A6822F0030213438B6000F06AFC77
:1019540006462F4B9B6803F00C036268B3EB820FBF
:1019640016D000F05FFC801B41F288339842F0D916
:10197400032041E0264A126812F4003FE0D101201E
:101984003AE0234A126812F0007FD9D1012033E0F3
:101994001E4B1B6803F00F03AB4207D9EAB21B4B83
:1019A4001A701B6803F00F03AB422CD1236813F0A9
:1019B400040F06D0164A936823F4E053E1680B43FE
:1019C4009360236813F0080F07D0114A936823F437
:1019D4006043216943EAC1039360FFF71FFF0C4B87
:1019E4009B68C3F303130B4AD35CD8400A4B1860BB
:1019F400002000F0CBFB002070BD012070470120C7
:101A0400FAE70120F8E70120F6E700BF003C0240B6
:101A1400003802406C25000808000020014B1868BB
:101A2400704700BF0800002000230F2B00F2C48081
:101A3400F0B482B039E0042200E00022B2403A431C
:101A440002355E4E46F825205D4A1568E24302EAF7
:101A540005064F6817F4803F01D044EA0506584D47
:101A64002E606D6802EA05064F6817F4003F01D046
:101A740044EA0506524D6E60AD6802EA05064F68F9
:101A840017F4801F01D044EA05064D4DAE60ED68A1
:101A94002A404E6816F4001F01D044EA0502484C5F
:101AA400E26001330F2B00F2848001229A400C681B
:101AB4001440A242F5D14D68022D01D0122D10D14F
:101AC400DE08083650F826C003F00705AF000F25DE
:101AD400BD402CEA050C0D69BD4045EA0C0540F8F3
:101AE400265006685F000325BD40ED4305EA060C59
:101AF4004E6806F00306BE4046EA0C0606604E68D1
:101B040006F1FF3CBCF1010F03D9112E01D0122EB6
:101B140010D1866805EA060CCE68BE4046EA0C067B
:101B24008660466826EA02024E68C6F300169E40A6
:101B340016434660C26815408A68BA402A43C260A8
:101B44004A6812F0805FACD0002201921D4A556CA5
:101B540045F480455564526C02F480420192019A26
:101B64009D08AE1C154A52F8267003F00302960035
:101B74000F22B24027EA0207134A90423FF45DAFB6
:101B840002F5806290420ED002F5806290420CD041
:101B940002F5806290420AD002F5806290423FF4DE
:101BA4004AAF07224AE7012248E7022246E7032216
:101BB40044E702B0F0BC7047704700BF00380140F2
:101BC400003C0140003802400000024030B4056887
:101BD4002C6824F480242C60046863608368402BA0
:101BE40005D0036899600368DA6030BC7047036805
:101BF4009A600368D960F8E710B40368D9B2103961
:101C04000C4AA2FB014212090B4CA25CC2655F297B
:101C140009D923F47F7323F0030304338365806DB0
:101C24005DF8044B704723F47F7323F0030383654B
:101C3400F5E700BFABAAAAAA7C250008836A8269DB
:101C440092B9012B0AD01BB1022B01D0002070479E
:101C5400C36A13F0807F28D100207047C36AB3F1B0
:101C6400C07F24D000207047B2F5005F09D0022B5A
:101C740025D9032B25D1C36A13F0807F23D10020FB
:101C84007047032B03D8DFE803F01404140A002080
:101C94007047C36A13F0807F0DD100207047C36A78
:101CA400B3F1C07F09D000207047012070470120A4
:101CB40070470120704701207047012070470120C0
:101CC40070470020704701207047000070B504463B
:101CD40000F0A8FA002C5BD00546002384F83430C9
:101CE400022384F835302268136823F0010313605B
:101CF40023681A6812F0010F0AD000F093FA401B0F
:101D04000528F5D920236365032084F8350070BDC8
:101D14001A68204810406168A2680A43E1680A43CF
:101D240021690A4361690A43A1690A43E1690A43D3
:101D3400216A0A430243616A04291ED01A60266894
:101D4400756925F00705636A1D43042B07D1A36A4F
:101D54001D43E36A1BB12046FFF770FF90B975611C
:101D64002046FFF749FFE26D3F2393408360002044
:101D74006065012384F83530C9E7E16A206B0143CB
:101D84000A43DBE740236365012084F83500BEE79E
:101D94000120BCE73F8010F000282CD038B5044661
:101DA40090F83530DBB2022B27D00268136823F099
:101DB40001031360036800251D6003685D60036808
:101DC4009D600368DD6003681D61036821225A6118
:101DD400FFF712FFE56325646564A564E564256582
:101DE400E26D3F2393408360656584F8355084F841
:101DF4003450284638BD012070470220FAE738B530
:101E040090F83440012C1CD0012480F8344090F820
:101E14003540E4B2012C04D0002380F83430022091
:101E240038BD0546022085F8350000246C65284637
:101E3400FFF7CCFE2A68136843F0010313602046C1
:101E4400EEE70220ECE738B5856D90F83440012CBC
:101E540031D0012480F8344090F83540E4B2012CAC
:101E640004D0002380F83430022038BD0446022018
:101E740084F83500002060652046FFF7A7FEE26D78
:101E84003F239340AB602268136843F0160313604A
:101E94002268536943F080035361236C23B12268A1
:101EA400136843F0080313602268136843F00103C6
:101EB40013600020D9E70220D7E70000F0B583B013
:101EC400044600230193724B1D68724BA3FB053536
:101ED400AD0A876D3E68C26D08239340334210D02B
:101EE40003681A6812F0040F0BD01A6822F0040277
:101EF4001A60C26D08239340BB60436D43F0010335
:101F04004365E26D01239340334209D0226852694C
:101F140012F0800F04D0BB60636D43F0020363656D
:101F2400E26D04239340334209D02268126812F010
:101F3400020F04D0BB60636D43F004036365E26D7C
:101F440010239340334224D02268126812F0080F01
:101F54001FD0BB6023681A6812F4802F0DD01B6851
:101F640013F4002F04D1236C9BB12046984710E052
:101F7400A36C73B1204698470BE01A6812F4807F73
:101F840003D11A6822F008021A60236C0BB12046B0
:101F94009847E26D20239340334255D0226812685B
:101FA40012F0100F50D0BB6094F83530DBB2052B23
:101FB4000ED023681A6812F4802F33D01B6813F4F0
:101FC400002F2AD1636C002B3ED0204698473BE07B
:101FD4002268136823F0160313602268536923F000
:101FE40080035361236CA3B12268136823F00803B0
:101FF4001360E26D3F239340BB60002384F83430C8
:10200400012384F83530236D002B3FD020469847B8
:102014003CE0A36C002BE7D1EBE7E36BA3B12046D4
:10202400984711E01A6812F4807F09D11A6822F0E7
:1020340010021A60002384F83430012384F8353008
:10204400E36B0BB120469847636DFBB1636D13F0EE
:10205400010F17D0052384F835302268136823F064
:1020640001031360019B01330193AB4204D823683D
:102074001B6813F0010FF5D1002384F834300123D9
:1020840084F83530E36C0BB12046984703B0F0BDBB
:1020940008000020B5814E1B074AD36823F4E0638F
:1020A4001B041B0C000200F4E060184340F0BF6006
:1020B40040F40030D060704700ED00E030B4174BBE
:1020C400DB68C3F30223C3F10704042C28BF0424F0
:1020D4001D1D062D01D9033B00E000234FF0FF3501
:1020E40005FA04F421EA0401994005FA03F322EA0B
:1020F40003031943002809DB0901C9B200F1604058
:1021040000F5614080F8001330BC704700F00F0008
:102114000901C9B2024B1954F6E700BF00ED00E013
:1021240014ED00E0002807DB00F01F024009012342
:102134009340024A42F82030704700BF00E100E0BB
:102144000138B0F1807F0AD2064B5860064AF0216C
:1021540082F823100020986007221A60704701203B
:10216400704700BF10E000E000ED00E0042805D057
:10217400054A136823F0040313607047024A136886
:1021840043F004031360704710E000E010B5044608
:102194000E4B18784FF47A73B3FBF0F30C4A1068C3
:1021A400B0FBF3F0FFF7CCFF68B90F2C01D9012085
:1021B4000AE0002221464FF0FF30FFF77FFF054B76
:1021C4001C60002000E0012010BD00BF0C000020B6
:1021D400080000201000002008B50B4B1A6842F4D8
:1021E40000721A601A6842F480621A601A6842F433
:1021F40080721A600320FFF74FFF0020FFF7C6FF2D
:10220400FEF792FE002008BD003C0240034A11681C
:10221400034B1B780B441360704700BFE803002096
:102224000C000020014B1868704700BFE803002031
:10223400DFF834D0002103E00C4B5B5843500431E9
:102244000B480C4B42189A42F6D30B4A02E0002387
:1022540042F8043B094B9A42F9D3FEF73FFE00F0E3
:1022640011F8FEF795F97047000001209425000845
:10227400000000207800002078000020FC030020EB
:10228400FEE7000070B50D4D0D4C641BA410002634
:10229400A64209D10B4D0C4C00F0DAF8641BA410D3
:1022A4000026A64205D170BD55F8043B9847013677
:1022B400EEE755F8043B98470136F2E78C25000811
:1022C4008C2500088C25000890250008134B10B5B8
:1022D4001C68A36B7BB9182000F02CF8104A114B32
:1022E400A063C0E90023104B83600B238381012288
:1022F4000023C0E90423A16B0C480A694B690C4C08
:10230400504304FB0300A2FB04345A1C044444F16C
:102314000000C1E9042020F0004010BD140000209A
:102324000E33CDAB34126DE6ECDE05002DF45158BE
:102334002D7F954C024B0146186800F003B800BF8E
:1023440014000020F8B5CD1C25F0030508350C2D2C
:1023540038BF0C25002D064601DBA94203D90C2306
:1023640033600020F8BD00F057F821490A6814468C
:102374009CB9204F3B6823B92146304600F03CF815
:1023840038602946304600F037F8431C23D10C232B
:102394003360304600F046F8E3E723685B1B17D44C
:1023A4000B2B03D923601C44256004E06368A2421C
:1023B4000CBF0B605360304600F034F804F10B009E
:1023C400231D20F00700C21ACCD01B1AA350C9E762
:1023D40022466468CCE7C41C24F00304A042E3D082
:1023E400211A304600F008F80130DDD1CFE700BFF4
:1023F4009C000020A000002038B5064C00230546B0
:102404000846236000F016F8431C02D1236803B188
:102414002B6038BDEC030020014800F009B800BF70
:10242400F4030020014800F004B800BFF4030020C6
:1024340070477047044A05491368002B08BF0B46D0
:102444001844106018467047A400002000040020BF
:10245400F8B500BFF8BC08BC9E467047F8B500BF8D
:08246400F8BC08BC9E4670475D
:10246C000000000000000000000000000000000060
:10247C00000000000000000000000000010101014C
:10248C000101010101010101010202020202020229
:10249C0002030303030303030404040404050505F6
:1024AC000506060606070707070808080909090AAA
:1024BC000A0A0B0B0B0C0C0D0D0D0E0E0F0F101042
:1024CC0011111212131314141515161617181819B6
:1024DC00191A1B1B1C1D1D1E1F2020212223232407
:1024EC002526272728292A2B2C2D2E2F3031323226
:1024FC003334363738393A3B3C3D3E3F4042434417
:10250C00454648494A4B4D4E4F51525355565759D3
:10251C005A5C5D5F606263656668696B6D6E707254
:10252C00737577787A7C7E7F81838587898A8C8E98
:10253C0090929496989A9C9EA0A2A4A7A9ABADAF9A
:10254C00B1B4B6B8BABDBFC1C4C6C8CBCDD0D2D554
:10255C00D7DADCDFE1E4E7E9ECEFF1F4F7F9FCFFC3
:10256C000000000000000000010203040607080937
:08257C000006101600061016FF
:0825840080DCFF7F0100000074
:04258C00B901000889
:0425900095010008A9
:102594000F00000000000F000024F4000100000000
:1025A40010000000180000200000000000000000DF
:1025B4000000000000000000000000000000000017
:1025C4000000000000000000000000000000000007
:1025D40000000000000000000000000000000000F7
:1025E40000000000000000000000000000000000E7
:1025F40000000000000000000000000000000000D7
:082604000000000000000000CE
:040000050800223598
:00000001FF
